{
  "_format": "hh-sol-artifact-1",
  "contractName": "VerticalProjectNFT",
  "sourceName": "contracts/VerticalProjectNFT_Fixed.sol",
  "abi": [
    {
      "inputs": [
        {
          "internalType": "address",
          "name": "_virtualToken",
          "type": "address"
        },
        {
          "internalType": "address",
          "name": "_vertToken",
          "type": "address"
        },
        {
          "internalType": "address",
          "name": "_treasury",
          "type": "address"
        }
      ],
      "stateMutability": "nonpayable",
      "type": "constructor"
    },
    {
      "anonymous": false,
      "inputs": [
        {
          "indexed": true,
          "internalType": "address",
          "name": "owner",
          "type": "address"
        },
        {
          "indexed": true,
          "internalType": "address",
          "name": "approved",
          "type": "address"
        },
        {
          "indexed": true,
          "internalType": "uint256",
          "name": "tokenId",
          "type": "uint256"
        }
      ],
      "name": "Approval",
      "type": "event"
    },
    {
      "anonymous": false,
      "inputs": [
        {
          "indexed": true,
          "internalType": "address",
          "name": "owner",
          "type": "address"
        },
        {
          "indexed": true,
          "internalType": "address",
          "name": "operator",
          "type": "address"
        },
        {
          "indexed": false,
          "internalType": "bool",
          "name": "approved",
          "type": "bool"
        }
      ],
      "name": "ApprovalForAll",
      "type": "event"
    },
    {
      "anonymous": false,
      "inputs": [
        {
          "indexed": false,
          "internalType": "string",
          "name": "reason",
          "type": "string"
        }
      ],
      "name": "AutoSyncFailed",
      "type": "event"
    },
    {
      "anonymous": false,
      "inputs": [
        {
          "indexed": false,
          "internalType": "uint256",
          "name": "_fromTokenId",
          "type": "uint256"
        },
        {
          "indexed": false,
          "internalType": "uint256",
          "name": "_toTokenId",
          "type": "uint256"
        }
      ],
      "name": "BatchMetadataUpdate",
      "type": "event"
    },
    {
      "anonymous": false,
      "inputs": [
        {
          "indexed": false,
          "internalType": "uint256",
          "name": "_tokenId",
          "type": "uint256"
        }
      ],
      "name": "MetadataUpdate",
      "type": "event"
    },
    {
      "anonymous": false,
      "inputs": [
        {
          "indexed": true,
          "internalType": "address",
          "name": "user",
          "type": "address"
        },
        {
          "indexed": false,
          "internalType": "uint256",
          "name": "tokenId",
          "type": "uint256"
        },
        {
          "indexed": false,
          "internalType": "enum VerticalProjectNFT.Rarity",
          "name": "rarity",
          "type": "uint8"
        },
        {
          "indexed": false,
          "internalType": "string",
          "name": "uri",
          "type": "string"
        }
      ],
      "name": "NFTMinted",
      "type": "event"
    },
    {
      "anonymous": false,
      "inputs": [
        {
          "indexed": true,
          "internalType": "address",
          "name": "previousOwner",
          "type": "address"
        },
        {
          "indexed": true,
          "internalType": "address",
          "name": "newOwner",
          "type": "address"
        }
      ],
      "name": "OwnershipTransferred",
      "type": "event"
    },
    {
      "anonymous": false,
      "inputs": [
        {
          "indexed": false,
          "internalType": "address",
          "name": "account",
          "type": "address"
        }
      ],
      "name": "Paused",
      "type": "event"
    },
    {
      "anonymous": false,
      "inputs": [
        {
          "indexed": false,
          "internalType": "uint256",
          "name": "newVirtualPrice",
          "type": "uint256"
        },
        {
          "indexed": false,
          "internalType": "uint256",
          "name": "newVertPrice",
          "type": "uint256"
        }
      ],
      "name": "PricesUpdated",
      "type": "event"
    },
    {
      "anonymous": false,
      "inputs": [
        {
          "indexed": true,
          "internalType": "address",
          "name": "user",
          "type": "address"
        },
        {
          "indexed": false,
          "internalType": "uint256",
          "name": "amount",
          "type": "uint256"
        }
      ],
      "name": "PrizeClaimed",
      "type": "event"
    },
    {
      "anonymous": false,
      "inputs": [
        {
          "indexed": false,
          "internalType": "enum VerticalProjectNFT.Rarity",
          "name": "rarity",
          "type": "uint8"
        },
        {
          "indexed": false,
          "internalType": "uint256",
          "name": "newPercent",
          "type": "uint256"
        }
      ],
      "name": "PrizePercentUpdated",
      "type": "event"
    },
    {
      "anonymous": false,
      "inputs": [
        {
          "indexed": false,
          "internalType": "uint256",
          "name": "syncedAmount",
          "type": "uint256"
        },
        {
          "indexed": false,
          "internalType": "address",
          "name": "triggeredBy",
          "type": "address"
        }
      ],
      "name": "PrizePoolSynced",
      "type": "event"
    },
    {
      "anonymous": false,
      "inputs": [
        {
          "indexed": false,
          "internalType": "uint256",
          "name": "newTotal",
          "type": "uint256"
        }
      ],
      "name": "PrizePoolUpdated",
      "type": "event"
    },
    {
      "anonymous": false,
      "inputs": [
        {
          "indexed": true,
          "internalType": "address",
          "name": "from",
          "type": "address"
        },
        {
          "indexed": true,
          "internalType": "address",
          "name": "to",
          "type": "address"
        },
        {
          "indexed": true,
          "internalType": "uint256",
          "name": "tokenId",
          "type": "uint256"
        }
      ],
      "name": "Transfer",
      "type": "event"
    },
    {
      "anonymous": false,
      "inputs": [
        {
          "indexed": false,
          "internalType": "address",
          "name": "newTreasury",
          "type": "address"
        }
      ],
      "name": "TreasuryUpdated",
      "type": "event"
    },
    {
      "anonymous": false,
      "inputs": [
        {
          "indexed": false,
          "internalType": "address",
          "name": "account",
          "type": "address"
        }
      ],
      "name": "Unpaused",
      "type": "event"
    },
    {
      "anonymous": false,
      "inputs": [
        {
          "indexed": false,
          "internalType": "address",
          "name": "newVertToken",
          "type": "address"
        }
      ],
      "name": "VertTokenUpdated",
      "type": "event"
    },
    {
      "anonymous": false,
      "inputs": [
        {
          "indexed": false,
          "internalType": "address",
          "name": "newVirtualToken",
          "type": "address"
        }
      ],
      "name": "VirtualTokenUpdated",
      "type": "event"
    },
    {
      "inputs": [],
      "name": "ROYALTY_FEE_BPS",
      "outputs": [
        {
          "internalType": "uint96",
          "name": "",
          "type": "uint96"
        }
      ],
      "stateMutability": "view",
      "type": "function"
    },
    {
      "inputs": [],
      "name": "_syncPrizePoolInternal",
      "outputs": [],
      "stateMutability": "nonpayable",
      "type": "function"
    },
    {
      "inputs": [
        {
          "internalType": "uint256",
          "name": "amount",
          "type": "uint256"
        }
      ],
      "name": "addToPrizePool",
      "outputs": [],
      "stateMutability": "nonpayable",
      "type": "function"
    },
    {
      "inputs": [
        {
          "internalType": "address",
          "name": "to",
          "type": "address"
        },
        {
          "internalType": "uint256",
          "name": "tokenId",
          "type": "uint256"
        }
      ],
      "name": "approve",
      "outputs": [],
      "stateMutability": "nonpayable",
      "type": "function"
    },
    {
      "inputs": [
        {
          "internalType": "address",
          "name": "owner",
          "type": "address"
        }
      ],
      "name": "balanceOf",
      "outputs": [
        {
          "internalType": "uint256",
          "name": "",
          "type": "uint256"
        }
      ],
      "stateMutability": "view",
      "type": "function"
    },
    {
      "inputs": [
        {
          "internalType": "address",
          "name": "to",
          "type": "address"
        },
        {
          "internalType": "uint256",
          "name": "amount",
          "type": "uint256"
        }
      ],
      "name": "claimPrize",
      "outputs": [],
      "stateMutability": "nonpayable",
      "type": "function"
    },
    {
      "inputs": [
        {
          "internalType": "uint256",
          "name": "tokenId",
          "type": "uint256"
        }
      ],
      "name": "getApproved",
      "outputs": [
        {
          "internalType": "address",
          "name": "",
          "type": "address"
        }
      ],
      "stateMutability": "view",
      "type": "function"
    },
    {
      "inputs": [
        {
          "internalType": "enum VerticalProjectNFT.Rarity",
          "name": "rarity",
          "type": "uint8"
        }
      ],
      "name": "getPrizeAmount",
      "outputs": [
        {
          "internalType": "uint256",
          "name": "",
          "type": "uint256"
        }
      ],
      "stateMutability": "view",
      "type": "function"
    },
    {
      "inputs": [],
      "name": "getPrizePoolBalance",
      "outputs": [
        {
          "internalType": "uint256",
          "name": "",
          "type": "uint256"
        }
      ],
      "stateMutability": "view",
      "type": "function"
    },
    {
      "inputs": [],
      "name": "getTotalMinted",
      "outputs": [
        {
          "internalType": "uint256",
          "name": "",
          "type": "uint256"
        }
      ],
      "stateMutability": "view",
      "type": "function"
    },
    {
      "inputs": [],
      "name": "getUnaccountedBalance",
      "outputs": [
        {
          "internalType": "uint256",
          "name": "",
          "type": "uint256"
        }
      ],
      "stateMutability": "view",
      "type": "function"
    },
    {
      "inputs": [
        {
          "internalType": "address",
          "name": "owner",
          "type": "address"
        },
        {
          "internalType": "address",
          "name": "operator",
          "type": "address"
        }
      ],
      "name": "isApprovedForAll",
      "outputs": [
        {
          "internalType": "bool",
          "name": "",
          "type": "bool"
        }
      ],
      "stateMutability": "view",
      "type": "function"
    },
    {
      "inputs": [
        {
          "internalType": "address",
          "name": "newContract",
          "type": "address"
        },
        {
          "internalType": "uint256",
          "name": "amount",
          "type": "uint256"
        }
      ],
      "name": "migratePrizePool",
      "outputs": [],
      "stateMutability": "nonpayable",
      "type": "function"
    },
    {
      "inputs": [
        {
          "internalType": "string",
          "name": "tokenURI",
          "type": "string"
        }
      ],
      "name": "mintWithVert",
      "outputs": [],
      "stateMutability": "nonpayable",
      "type": "function"
    },
    {
      "inputs": [
        {
          "internalType": "string",
          "name": "tokenURI",
          "type": "string"
        }
      ],
      "name": "mintWithVirtual",
      "outputs": [],
      "stateMutability": "nonpayable",
      "type": "function"
    },
    {
      "inputs": [],
      "name": "name",
      "outputs": [
        {
          "internalType": "string",
          "name": "",
          "type": "string"
        }
      ],
      "stateMutability": "view",
      "type": "function"
    },
    {
      "inputs": [],
      "name": "nextTokenId",
      "outputs": [
        {
          "internalType": "uint256",
          "name": "",
          "type": "uint256"
        }
      ],
      "stateMutability": "view",
      "type": "function"
    },
    {
      "inputs": [],
      "name": "owner",
      "outputs": [
        {
          "internalType": "address",
          "name": "",
          "type": "address"
        }
      ],
      "stateMutability": "view",
      "type": "function"
    },
    {
      "inputs": [
        {
          "internalType": "uint256",
          "name": "tokenId",
          "type": "uint256"
        }
      ],
      "name": "ownerOf",
      "outputs": [
        {
          "internalType": "address",
          "name": "",
          "type": "address"
        }
      ],
      "stateMutability": "view",
      "type": "function"
    },
    {
      "inputs": [],
      "name": "pause",
      "outputs": [],
      "stateMutability": "nonpayable",
      "type": "function"
    },
    {
      "inputs": [],
      "name": "paused",
      "outputs": [
        {
          "internalType": "bool",
          "name": "",
          "type": "bool"
        }
      ],
      "stateMutability": "view",
      "type": "function"
    },
    {
      "inputs": [],
      "name": "priceVert",
      "outputs": [
        {
          "internalType": "uint256",
          "name": "",
          "type": "uint256"
        }
      ],
      "stateMutability": "view",
      "type": "function"
    },
    {
      "inputs": [],
      "name": "priceVirtual",
      "outputs": [
        {
          "internalType": "uint256",
          "name": "",
          "type": "uint256"
        }
      ],
      "stateMutability": "view",
      "type": "function"
    },
    {
      "inputs": [
        {
          "internalType": "enum VerticalProjectNFT.Rarity",
          "name": "",
          "type": "uint8"
        }
      ],
      "name": "prizePercentByRarity",
      "outputs": [
        {
          "internalType": "uint256",
          "name": "",
          "type": "uint256"
        }
      ],
      "stateMutability": "view",
      "type": "function"
    },
    {
      "inputs": [],
      "name": "prizePool",
      "outputs": [
        {
          "internalType": "uint256",
          "name": "",
          "type": "uint256"
        }
      ],
      "stateMutability": "view",
      "type": "function"
    },
    {
      "inputs": [],
      "name": "renounceOwnership",
      "outputs": [],
      "stateMutability": "nonpayable",
      "type": "function"
    },
    {
      "inputs": [
        {
          "internalType": "uint256",
          "name": "",
          "type": "uint256"
        },
        {
          "internalType": "uint256",
          "name": "salePrice",
          "type": "uint256"
        }
      ],
      "name": "royaltyInfo",
      "outputs": [
        {
          "internalType": "address",
          "name": "",
          "type": "address"
        },
        {
          "internalType": "uint256",
          "name": "",
          "type": "uint256"
        }
      ],
      "stateMutability": "view",
      "type": "function"
    },
    {
      "inputs": [
        {
          "internalType": "address",
          "name": "from",
          "type": "address"
        },
        {
          "internalType": "address",
          "name": "to",
          "type": "address"
        },
        {
          "internalType": "uint256",
          "name": "tokenId",
          "type": "uint256"
        }
      ],
      "name": "safeTransferFrom",
      "outputs": [],
      "stateMutability": "nonpayable",
      "type": "function"
    },
    {
      "inputs": [
        {
          "internalType": "address",
          "name": "from",
          "type": "address"
        },
        {
          "internalType": "address",
          "name": "to",
          "type": "address"
        },
        {
          "internalType": "uint256",
          "name": "tokenId",
          "type": "uint256"
        },
        {
          "internalType": "bytes",
          "name": "data",
          "type": "bytes"
        }
      ],
      "name": "safeTransferFrom",
      "outputs": [],
      "stateMutability": "nonpayable",
      "type": "function"
    },
    {
      "inputs": [
        {
          "internalType": "address",
          "name": "operator",
          "type": "address"
        },
        {
          "internalType": "bool",
          "name": "approved",
          "type": "bool"
        }
      ],
      "name": "setApprovalForAll",
      "outputs": [],
      "stateMutability": "nonpayable",
      "type": "function"
    },
    {
      "inputs": [
        {
          "internalType": "uint256",
          "name": "newVirtualPrice",
          "type": "uint256"
        },
        {
          "internalType": "uint256",
          "name": "newVertPrice",
          "type": "uint256"
        }
      ],
      "name": "setPrices",
      "outputs": [],
      "stateMutability": "nonpayable",
      "type": "function"
    },
    {
      "inputs": [
        {
          "internalType": "enum VerticalProjectNFT.Rarity",
          "name": "rarity",
          "type": "uint8"
        },
        {
          "internalType": "uint256",
          "name": "percent",
          "type": "uint256"
        }
      ],
      "name": "setPrizePercent",
      "outputs": [],
      "stateMutability": "nonpayable",
      "type": "function"
    },
    {
      "inputs": [
        {
          "internalType": "uint256",
          "name": "tokenId",
          "type": "uint256"
        },
        {
          "internalType": "string",
          "name": "_tokenURI",
          "type": "string"
        }
      ],
      "name": "setTokenURI",
      "outputs": [],
      "stateMutability": "nonpayable",
      "type": "function"
    },
    {
      "inputs": [
        {
          "internalType": "address",
          "name": "addr",
          "type": "address"
        }
      ],
      "name": "setTreasury",
      "outputs": [],
      "stateMutability": "nonpayable",
      "type": "function"
    },
    {
      "inputs": [
        {
          "internalType": "address",
          "name": "_vertToken",
          "type": "address"
        }
      ],
      "name": "setVertToken",
      "outputs": [],
      "stateMutability": "nonpayable",
      "type": "function"
    },
    {
      "inputs": [
        {
          "internalType": "address",
          "name": "_virtualToken",
          "type": "address"
        }
      ],
      "name": "setVirtualToken",
      "outputs": [],
      "stateMutability": "nonpayable",
      "type": "function"
    },
    {
      "inputs": [
        {
          "internalType": "bytes4",
          "name": "interfaceId",
          "type": "bytes4"
        }
      ],
      "name": "supportsInterface",
      "outputs": [
        {
          "internalType": "bool",
          "name": "",
          "type": "bool"
        }
      ],
      "stateMutability": "view",
      "type": "function"
    },
    {
      "inputs": [],
      "name": "symbol",
      "outputs": [
        {
          "internalType": "string",
          "name": "",
          "type": "string"
        }
      ],
      "stateMutability": "view",
      "type": "function"
    },
    {
      "inputs": [],
      "name": "syncPrizePool",
      "outputs": [
        {
          "internalType": "uint256",
          "name": "",
          "type": "uint256"
        }
      ],
      "stateMutability": "nonpayable",
      "type": "function"
    },
    {
      "inputs": [
        {
          "internalType": "uint256",
          "name": "",
          "type": "uint256"
        }
      ],
      "name": "tokenRarity",
      "outputs": [
        {
          "internalType": "enum VerticalProjectNFT.Rarity",
          "name": "",
          "type": "uint8"
        }
      ],
      "stateMutability": "view",
      "type": "function"
    },
    {
      "inputs": [
        {
          "internalType": "uint256",
          "name": "tokenId",
          "type": "uint256"
        }
      ],
      "name": "tokenURI",
      "outputs": [
        {
          "internalType": "string",
          "name": "",
          "type": "string"
        }
      ],
      "stateMutability": "view",
      "type": "function"
    },
    {
      "inputs": [
        {
          "internalType": "address",
          "name": "from",
          "type": "address"
        },
        {
          "internalType": "address",
          "name": "to",
          "type": "address"
        },
        {
          "internalType": "uint256",
          "name": "tokenId",
          "type": "uint256"
        }
      ],
      "name": "transferFrom",
      "outputs": [],
      "stateMutability": "nonpayable",
      "type": "function"
    },
    {
      "inputs": [
        {
          "internalType": "address",
          "name": "newOwner",
          "type": "address"
        }
      ],
      "name": "transferOwnership",
      "outputs": [],
      "stateMutability": "nonpayable",
      "type": "function"
    },
    {
      "inputs": [],
      "name": "treasury",
      "outputs": [
        {
          "internalType": "address",
          "name": "",
          "type": "address"
        }
      ],
      "stateMutability": "view",
      "type": "function"
    },
    {
      "inputs": [],
      "name": "unpause",
      "outputs": [],
      "stateMutability": "nonpayable",
      "type": "function"
    },
    {
      "inputs": [],
      "name": "vertToken",
      "outputs": [
        {
          "internalType": "contract IERC20",
          "name": "",
          "type": "address"
        }
      ],
      "stateMutability": "view",
      "type": "function"
    },
    {
      "inputs": [],
      "name": "virtualToken",
      "outputs": [
        {
          "internalType": "contract IERC20",
          "name": "",
          "type": "address"
        }
      ],
      "stateMutability": "view",
      "type": "function"
    }
  ],
  "bytecode": "0x60806040526722b1c8c1227a00006009556714d1120d7b160000600a5534801561002857600080fd5b50604051616897380380616897833981810160405281019061004a919061055f565b6040518060400160405280601081526020017f566572746963616c2050726f6a656374000000000000000000000000000000008152506040518060400160405280600781526020017f564552544e46540000000000000000000000000000000000000000000000000081525081600090816100c59190610802565b5080600190816100d59190610802565b5050506100f46100e961042e60201b60201c565b61043660201b60201c565b6000600760146101000a81548160ff0219169083151502179055506001600881905550600073ffffffffffffffffffffffffffffffffffffffff168373ffffffffffffffffffffffffffffffffffffffff1603610186576040517f08c379a000000000000000000000000000000000000000000000000000000000815260040161017d90610957565b60405180910390fd5b600073ffffffffffffffffffffffffffffffffffffffff168273ffffffffffffffffffffffffffffffffffffffff16036101f5576040517f08c379a00000000000000000000000000000000000000000000000000000000081526004016101ec906109e9565b60405180910390fd5b600073ffffffffffffffffffffffffffffffffffffffff168173ffffffffffffffffffffffffffffffffffffffff1603610264576040517f08c379a000000000000000000000000000000000000000000000000000000000815260040161025b90610a55565b60405180910390fd5b82600e60006101000a81548173ffffffffffffffffffffffffffffffffffffffff021916908373ffffffffffffffffffffffffffffffffffffffff16021790555081600d60006101000a81548173ffffffffffffffffffffffffffffffffffffffff021916908373ffffffffffffffffffffffffffffffffffffffff16021790555080600f60006101000a81548173ffffffffffffffffffffffffffffffffffffffff021916908373ffffffffffffffffffffffffffffffffffffffff1602179055506001600b819055506003601160006001600481111561034957610348610a75565b5b600481111561035b5761035a610a75565b5b8152602001908152602001600020819055506007601160006002600481111561038757610386610a75565b5b600481111561039957610398610a75565b5b815260200190815260200160002081905550600f60116000600360048111156103c5576103c4610a75565b5b60048111156103d7576103d6610a75565b5b81526020019081526020016000208190555060286011600060048081111561040257610401610a75565b5b600481111561041457610413610a75565b5b815260200190815260200160002081905550505050610aa4565b600033905090565b6000600760009054906101000a900473ffffffffffffffffffffffffffffffffffffffff16905081600760006101000a81548173ffffffffffffffffffffffffffffffffffffffff021916908373ffffffffffffffffffffffffffffffffffffffff1602179055508173ffffffffffffffffffffffffffffffffffffffff168173ffffffffffffffffffffffffffffffffffffffff167f8be0079c531659141344cd1fd0a4f28419497f9722a3daafe3b4186f6b6457e060405160405180910390a35050565b600080fd5b600073ffffffffffffffffffffffffffffffffffffffff82169050919050565b600061052c82610501565b9050919050565b61053c81610521565b811461054757600080fd5b50565b60008151905061055981610533565b92915050565b600080600060608486031215610578576105776104fc565b5b60006105868682870161054a565b93505060206105978682870161054a565b92505060406105a88682870161054a565b9150509250925092565b600081519050919050565b7f4e487b7100000000000000000000000000000000000000000000000000000000600052604160045260246000fd5b7f4e487b7100000000000000000000000000000000000000000000000000000000600052602260045260246000fd5b6000600282049050600182168061063357607f821691505b602082108103610646576106456105ec565b5b50919050565b60008190508160005260206000209050919050565b60006020601f8301049050919050565b600082821b905092915050565b6000600883026106ae7fffffffffffffffffffffffffffffffffffffffffffffffffffffffffffffffff82610671565b6106b88683610671565b95508019841693508086168417925050509392505050565b6000819050919050565b6000819050919050565b60006106ff6106fa6106f5846106d0565b6106da565b6106d0565b9050919050565b6000819050919050565b610719836106e4565b61072d61072582610706565b84845461067e565b825550505050565b600090565b610742610735565b61074d818484610710565b505050565b5b818110156107715761076660008261073a565b600181019050610753565b5050565b601f8211156107b6576107878161064c565b61079084610661565b8101602085101561079f578190505b6107b36107ab85610661565b830182610752565b50505b505050565b600082821c905092915050565b60006107d9600019846008026107bb565b1980831691505092915050565b60006107f283836107c8565b9150826002028217905092915050565b61080b826105b2565b67ffffffffffffffff811115610824576108236105bd565b5b61082e825461061b565b610839828285610775565b600060209050601f83116001811461086c576000841561085a578287015190505b61086485826107e6565b8655506108cc565b601f19841661087a8661064c565b60005b828110156108a25784890151825560018201915060208501945060208101905061087d565b868310156108bf57848901516108bb601f8916826107c8565b8355505b6001600288020188555050505b505050505050565b600082825260208201905092915050565b7f5669727475616c20746f6b656e2063616e6e6f74206265207a65726f2061646460008201527f7265737300000000000000000000000000000000000000000000000000000000602082015250565b60006109416024836108d4565b915061094c826108e5565b604082019050919050565b6000602082019050818103600083015261097081610934565b9050919050565b7f5645525420746f6b656e2063616e6e6f74206265207a65726f2061646472657360008201527f7300000000000000000000000000000000000000000000000000000000000000602082015250565b60006109d36021836108d4565b91506109de82610977565b604082019050919050565b60006020820190508181036000830152610a02816109c6565b9050919050565b7f54726561737572792063616e6e6f74206265207a65726f206164647265737300600082015250565b6000610a3f601f836108d4565b9150610a4a82610a09565b602082019050919050565b60006020820190508181036000830152610a6e81610a32565b9050919050565b7f4e487b7100000000000000000000000000000000000000000000000000000000600052602160045260246000fd5b615de480610ab36000396000f3fe608060405234801561001057600080fd5b50600436106102955760003560e01c80636352211e11610167578063afb0a369116100ce578063d7149aab11610087578063d7149aab146107a1578063e985e9c5146107bd578063f0f44260146107ed578063f24f069d14610809578063f2fde38b14610827578063f42bdd0e1461084357610295565b8063afb0a369146106e1578063b2da271514610711578063b40731561461072d578063b88d4fde14610737578063b8fa436614610753578063c87b56dd1461077157610295565b806375794a3c1161012057806375794a3c146106455780638456cb59146106635780638da5cb5b1461066d57806395d89b411461068b578063a22cb465146106a9578063ace79f4f146106c557610295565b80636352211e14610583578063689a0bd6146105b35780636d06843a146105d157806370a08231146105ed578063715018a61461061d578063719ce73e1461062757610295565b80632a55205a1161020b578063436be372116101c4578063436be372146104bf57806344884348146104dd57806344ee8b3d146104f9578063480628ae146105295780635c975abb1461054757806361d027b31461056557610295565b80632a55205a146103fc5780632d38cc351461042d57806333e196161461044b5780633486c2d7146104695780633f4ba83a1461049957806342842e0e146104a357610295565b80630ca1c5c91161025d5780630ca1c5c914610350578063162094c41461036e578063186ba2531461038a578063194a5fc9146103a65780631f514c52146103c257806323b872dd146103e057610295565b806301ffc9a71461029a57806305fefda7146102ca57806306fdde03146102e6578063081812fc14610304578063095ea7b314610334575b600080fd5b6102b460048036038101906102af9190613be6565b61085f565b6040516102c19190613c2e565b60405180910390f35b6102e460048036038101906102df9190613c7f565b6108d9565b005b6102ee61092c565b6040516102fb9190613d4f565b60405180910390f35b61031e60048036038101906103199190613d71565b6109be565b60405161032b9190613ddf565b60405180910390f35b61034e60048036038101906103499190613e26565b610a04565b005b610358610b1b565b6040516103659190613e75565b60405180910390f35b61038860048036038101906103839190613fc5565b610b31565b005b6103a4600480360381019061039f9190613d71565b610b47565b005b6103c060048036038101906103bb9190614046565b610c85565b005b6103ca610d4a565b6040516103d791906140e5565b60405180910390f35b6103fa60048036038101906103f59190614100565b610d70565b005b61041660048036038101906104119190613c7f565b610dd0565b604051610424929190614153565b60405180910390f35b610435610e2a565b6040516104429190613e75565b60405180910390f35b610453610ef9565b6040516104609190613e75565b60405180910390f35b610483600480360381019061047e919061417c565b611045565b6040516104909190613e75565b60405180910390f35b6104a161105a565b005b6104bd60048036038101906104b89190614100565b61106c565b005b6104c761108c565b6040516104d491906141d0565b60405180910390f35b6104f760048036038101906104f291906141eb565b611092565b005b610513600480360381019061050e919061417c565b611386565b6040516105209190613e75565b60405180910390f35b61053161139e565b60405161053e91906140e5565b60405180910390f35b61054f6113c4565b60405161055c9190613c2e565b60405180910390f35b61056d6113db565b60405161057a9190613ddf565b60405180910390f35b61059d60048036038101906105989190613d71565b611401565b6040516105aa9190613ddf565b60405180910390f35b6105bb611487565b6040516105c89190613e75565b60405180910390f35b6105eb60048036038101906105e69190613e26565b61148d565b005b61060760048036038101906106029190614234565b61167e565b6040516106149190613e75565b60405180910390f35b610625611735565b005b61062f611749565b60405161063c9190613e75565b60405180910390f35b61064d61174f565b60405161065a9190613e75565b60405180910390f35b61066b611755565b005b610675611767565b6040516106829190613ddf565b60405180910390f35b610693611791565b6040516106a09190613d4f565b60405180910390f35b6106c360048036038101906106be919061428d565b611823565b005b6106df60048036038101906106da9190613e26565b611839565b005b6106fb60048036038101906106f69190613d71565b6119d0565b6040516107089190614344565b60405180910390f35b61072b600480360381019061072691906141eb565b6119f0565b005b610735611ba0565b005b610751600480360381019061074c9190614400565b611d4a565b005b61075b611dac565b6040516107689190613e75565b60405180910390f35b61078b60048036038101906107869190613d71565b611db2565b6040516107989190613d4f565b60405180910390f35b6107bb60048036038101906107b69190614234565b611ec4565b005b6107d760048036038101906107d29190614483565b611fb6565b6040516107e49190613c2e565b60405180910390f35b61080760048036038101906108029190614234565b61204a565b005b61081161213c565b60405161081e9190613e75565b60405180910390f35b610841600480360381019061083c9190614234565b612146565b005b61085d60048036038101906108589190614234565b6121c9565b005b60007f2a55205a000000000000000000000000000000000000000000000000000000007bffffffffffffffffffffffffffffffffffffffffffffffffffffffff1916827bffffffffffffffffffffffffffffffffffffffffffffffffffffffff191614806108d257506108d1826122bb565b5b9050919050565b6108e161231c565b8160098190555080600a819055507f6546f60f34df611fa42503098acc39d5ab88bc73febe64b3cc14e5a92e3a66a782826040516109209291906144c3565b60405180910390a15050565b60606000805461093b9061451b565b80601f01602080910402602001604051908101604052809291908181526020018280546109679061451b565b80156109b45780601f10610989576101008083540402835291602001916109b4565b820191906000526020600020905b81548152906001019060200180831161099757829003601f168201915b5050505050905090565b60006109c98261239a565b6004600083815260200190815260200160002060009054906101000a900473ffffffffffffffffffffffffffffffffffffffff169050919050565b6000610a0f82611401565b90508073ffffffffffffffffffffffffffffffffffffffff168373ffffffffffffffffffffffffffffffffffffffff1603610a7f576040517f08c379a0000000000000000000000000000000000000000000000000000000008152600401610a76906145be565b60405180910390fd5b8073ffffffffffffffffffffffffffffffffffffffff16610a9e6123e5565b73ffffffffffffffffffffffffffffffffffffffff161480610acd5750610acc81610ac76123e5565b611fb6565b5b610b0c576040517f08c379a0000000000000000000000000000000000000000000000000000000008152600401610b0390614650565b60405180910390fd5b610b1683836123ed565b505050565b60006001600b54610b2c919061469f565b905090565b610b3961231c565b610b4382826124a6565b5050565b610b4f61231c565b600d60009054906101000a900473ffffffffffffffffffffffffffffffffffffffff1673ffffffffffffffffffffffffffffffffffffffff166323b872dd3330846040518463ffffffff1660e01b8152600401610bae939291906146d3565b6020604051808303816000875af1158015610bcd573d6000803e3d6000fd5b505050506040513d601f19601f82011682018060405250810190610bf1919061471f565b610c30576040517f08c379a0000000000000000000000000000000000000000000000000000000008152600401610c2790614798565b60405180910390fd5b80600c6000828254610c4291906147b8565b925050819055507f7bc22304ac771f50d6cc29b56387cb4855f284e7a1f83e6420fe9b8bbdaf45c9600c54604051610c7a9190613e75565b60405180910390a150565b610c8d61231c565b6064811115610cd1576040517f08c379a0000000000000000000000000000000000000000000000000000000008152600401610cc890614838565b60405180910390fd5b8060116000846004811115610ce957610ce86142cd565b5b6004811115610cfb57610cfa6142cd565b5b8152602001908152602001600020819055507fa74628ab88e39c22615acb79128db8683fe215f003fa969bd6b3232eba537a668282604051610d3e929190614858565b60405180910390a15050565b600e60009054906101000a900473ffffffffffffffffffffffffffffffffffffffff1681565b610d81610d7b6123e5565b8261254a565b610dc0576040517f08c379a0000000000000000000000000000000000000000000000000000000008152600401610db7906148f3565b60405180910390fd5b610dcb8383836125df565b505050565b600080600f60009054906101000a900473ffffffffffffffffffffffffffffffffffffffff166127106101f46bffffffffffffffffffffffff1685610e159190614913565b610e1f9190614984565b915091509250929050565b600080600d60009054906101000a900473ffffffffffffffffffffffffffffffffffffffff1673ffffffffffffffffffffffffffffffffffffffff166370a08231306040518263ffffffff1660e01b8152600401610e889190613ddf565b602060405180830381865afa158015610ea5573d6000803e3d6000fd5b505050506040513d601f19601f82011682018060405250810190610ec991906149ca565b90506000600c54905080821115610eef578082610ee6919061469f565b92505050610ef6565b6000925050505b90565b600080600d60009054906101000a900473ffffffffffffffffffffffffffffffffffffffff1673ffffffffffffffffffffffffffffffffffffffff166370a08231306040518263ffffffff1660e01b8152600401610f579190613ddf565b602060405180830381865afa158015610f74573d6000803e3d6000fd5b505050506040513d601f19601f82011682018060405250810190610f9891906149ca565b90506000600c5490508082111561103b5760008183610fb7919061469f565b905082600c819055507f8845af29ae9372732931c9713be1d20249132c4048696505039a8996f5ba76a58133604051610ff19291906149f7565b60405180910390a17f7bc22304ac771f50d6cc29b56387cb4855f284e7a1f83e6420fe9b8bbdaf45c9836040516110289190613e75565b60405180910390a1809350505050611042565b6000925050505b90565b600061105382600c546128d8565b9050919050565b61106261231c565b61106a612936565b565b61108783838360405180602001604052806000815250611d4a565b505050565b6101f481565b61109a612999565b6110a26129e3565b6110aa612a32565b6000600d60009054906101000a900473ffffffffffffffffffffffffffffffffffffffff1690506000600a549050600073ffffffffffffffffffffffffffffffffffffffff168273ffffffffffffffffffffffffffffffffffffffff1603611147576040517f08c379a000000000000000000000000000000000000000000000000000000000815260040161113e90614a6c565b60405180910390fd5b8173ffffffffffffffffffffffffffffffffffffffff166323b872dd3330846040518463ffffffff1660e01b8152600401611184939291906146d3565b6020604051808303816000875af11580156111a3573d6000803e3d6000fd5b505050506040513d601f19601f820116820180604052508101906111c7919061471f565b611206576040517f08c379a00000000000000000000000000000000000000000000000000000000081526004016111fd90614ad8565b60405180910390fd5b6000600c5490506000606460198461121e9190614913565b6112289190614984565b905060008184611238919061469f565b90508473ffffffffffffffffffffffffffffffffffffffff1663a9059cbb600f60009054906101000a900473ffffffffffffffffffffffffffffffffffffffff16846040518363ffffffff1660e01b8152600401611297929190614153565b6020604051808303816000875af11580156112b6573d6000803e3d6000fd5b505050506040513d601f19601f820116820180604052508101906112da919061471f565b611319576040517f08c379a000000000000000000000000000000000000000000000000000000000815260040161131090614b44565b60405180910390fd5b80600c600082825461132b91906147b8565b9250508190555061133d338785612b33565b7f7bc22304ac771f50d6cc29b56387cb4855f284e7a1f83e6420fe9b8bbdaf45c9600c5460405161136e9190613e75565b60405180910390a15050505050611383612ed8565b50565b60116020528060005260406000206000915090505481565b600d60009054906101000a900473ffffffffffffffffffffffffffffffffffffffff1681565b6000600760149054906101000a900460ff16905090565b600f60009054906101000a900473ffffffffffffffffffffffffffffffffffffffff1681565b60008061140d83612ee2565b9050600073ffffffffffffffffffffffffffffffffffffffff168173ffffffffffffffffffffffffffffffffffffffff160361147e576040517f08c379a000000000000000000000000000000000000000000000000000000000815260040161147590614bb0565b60405180910390fd5b80915050919050565b60095481565b61149561231c565b600c548111156114da576040517f08c379a00000000000000000000000000000000000000000000000000000000081526004016114d190614c1c565b60405180910390fd5b600073ffffffffffffffffffffffffffffffffffffffff168273ffffffffffffffffffffffffffffffffffffffff1603611549576040517f08c379a000000000000000000000000000000000000000000000000000000000815260040161154090614c88565b60405180910390fd5b80600c600082825461155b919061469f565b92505081905550600d60009054906101000a900473ffffffffffffffffffffffffffffffffffffffff1673ffffffffffffffffffffffffffffffffffffffff1663a9059cbb83836040518363ffffffff1660e01b81526004016115bf929190614153565b6020604051808303816000875af11580156115de573d6000803e3d6000fd5b505050506040513d601f19601f82011682018060405250810190611602919061471f565b611641576040517f08c379a000000000000000000000000000000000000000000000000000000000815260040161163890614cf4565b60405180910390fd5b7f7bc22304ac771f50d6cc29b56387cb4855f284e7a1f83e6420fe9b8bbdaf45c9600c546040516116729190613e75565b60405180910390a15050565b60008073ffffffffffffffffffffffffffffffffffffffff168273ffffffffffffffffffffffffffffffffffffffff16036116ee576040517f08c379a00000000000000000000000000000000000000000000000000000000081526004016116e590614d86565b60405180910390fd5b600360008373ffffffffffffffffffffffffffffffffffffffff1673ffffffffffffffffffffffffffffffffffffffff168152602001908152602001600020549050919050565b61173d61231c565b6117476000612f1f565b565b600c5481565b600b5481565b61175d61231c565b611765612fe5565b565b6000600760009054906101000a900473ffffffffffffffffffffffffffffffffffffffff16905090565b6060600180546117a09061451b565b80601f01602080910402602001604051908101604052809291908181526020018280546117cc9061451b565b80156118195780601f106117ee57610100808354040283529160200191611819565b820191906000526020600020905b8154815290600101906020018083116117fc57829003601f168201915b5050505050905090565b61183561182e6123e5565b8383613048565b5050565b61184161231c565b600c54811115611886576040517f08c379a000000000000000000000000000000000000000000000000000000000815260040161187d90614c1c565b60405180910390fd5b80600c6000828254611898919061469f565b92505081905550600d60009054906101000a900473ffffffffffffffffffffffffffffffffffffffff1673ffffffffffffffffffffffffffffffffffffffff1663a9059cbb83836040518363ffffffff1660e01b81526004016118fc929190614153565b6020604051808303816000875af115801561191b573d6000803e3d6000fd5b505050506040513d601f19601f8201168201806040525081019061193f919061471f565b61197e576040517f08c379a000000000000000000000000000000000000000000000000000000000815260040161197590614df2565b60405180910390fd5b8173ffffffffffffffffffffffffffffffffffffffff167f95681e512bc0fe659e195e06c283eada494316f3d801213e48e7101af92bf770826040516119c49190613e75565b60405180910390a25050565b60106020528060005260406000206000915054906101000a900460ff1681565b6119f8612999565b611a006129e3565b611a08612a32565b6000600e60009054906101000a900473ffffffffffffffffffffffffffffffffffffffff16905060006009549050600073ffffffffffffffffffffffffffffffffffffffff168273ffffffffffffffffffffffffffffffffffffffff1603611aa5576040517f08c379a0000000000000000000000000000000000000000000000000000000008152600401611a9c90614e5e565b60405180910390fd5b8173ffffffffffffffffffffffffffffffffffffffff166323b872dd33600f60009054906101000a900473ffffffffffffffffffffffffffffffffffffffff16846040518463ffffffff1660e01b8152600401611b04939291906146d3565b6020604051808303816000875af1158015611b23573d6000803e3d6000fd5b505050506040513d601f19601f82011682018060405250810190611b47919061471f565b611b86576040517f08c379a0000000000000000000000000000000000000000000000000000000008152600401611b7d90614eca565b60405180910390fd5b611b933384600c54612b33565b5050611b9d612ed8565b50565b3073ffffffffffffffffffffffffffffffffffffffff163373ffffffffffffffffffffffffffffffffffffffff1614611c0e576040517f08c379a0000000000000000000000000000000000000000000000000000000008152600401611c0590614f36565b60405180910390fd5b6000600d60009054906101000a900473ffffffffffffffffffffffffffffffffffffffff1673ffffffffffffffffffffffffffffffffffffffff166370a08231306040518263ffffffff1660e01b8152600401611c6b9190613ddf565b602060405180830381865afa158015611c88573d6000803e3d6000fd5b505050506040513d601f19601f82011682018060405250810190611cac91906149ca565b90506000600c54905080821115611d465760008183611ccb919061469f565b905082600c819055507f8845af29ae9372732931c9713be1d20249132c4048696505039a8996f5ba76a58132604051611d059291906149f7565b60405180910390a17f7bc22304ac771f50d6cc29b56387cb4855f284e7a1f83e6420fe9b8bbdaf45c983604051611d3c9190613e75565b60405180910390a1505b5050565b611d5b611d556123e5565b8361254a565b611d9a576040517f08c379a0000000000000000000000000000000000000000000000000000000008152600401611d91906148f3565b60405180910390fd5b611da6848484846131b4565b50505050565b600a5481565b6060611dbd8261239a565b6000600660008481526020019081526020016000208054611ddd9061451b565b80601f0160208091040260200160405190810160405280929190818152602001828054611e099061451b565b8015611e565780601f10611e2b57610100808354040283529160200191611e56565b820191906000526020600020905b815481529060010190602001808311611e3957829003601f168201915b505050505090506000611e67613210565b90506000815103611e7c578192505050611ebf565b600082511115611eb1578082604051602001611e99929190614f92565b60405160208183030381529060405292505050611ebf565b611eba84613227565b925050505b919050565b611ecc61231c565b600073ffffffffffffffffffffffffffffffffffffffff168173ffffffffffffffffffffffffffffffffffffffff1603611f3b576040517f08c379a0000000000000000000000000000000000000000000000000000000008152600401611f3290615028565b60405180910390fd5b80600e60006101000a81548173ffffffffffffffffffffffffffffffffffffffff021916908373ffffffffffffffffffffffffffffffffffffffff1602179055507f642efe757f7c097df2555d74532321ce38535b3921193c8777a267303689883b81604051611fab9190613ddf565b60405180910390a150565b6000600560008473ffffffffffffffffffffffffffffffffffffffff1673ffffffffffffffffffffffffffffffffffffffff16815260200190815260200160002060008373ffffffffffffffffffffffffffffffffffffffff1673ffffffffffffffffffffffffffffffffffffffff16815260200190815260200160002060009054906101000a900460ff16905092915050565b61205261231c565b600073ffffffffffffffffffffffffffffffffffffffff168173ffffffffffffffffffffffffffffffffffffffff16036120c1576040517f08c379a00000000000000000000000000000000000000000000000000000000081526004016120b890615094565b60405180910390fd5b80600f60006101000a81548173ffffffffffffffffffffffffffffffffffffffff021916908373ffffffffffffffffffffffffffffffffffffffff1602179055507f7dae230f18360d76a040c81f050aa14eb9d6dc7901b20fc5d855e2a20fe814d1816040516121319190613ddf565b60405180910390a150565b6000600c54905090565b61214e61231c565b600073ffffffffffffffffffffffffffffffffffffffff168173ffffffffffffffffffffffffffffffffffffffff16036121bd576040517f08c379a00000000000000000000000000000000000000000000000000000000081526004016121b490615126565b60405180910390fd5b6121c681612f1f565b50565b6121d161231c565b600073ffffffffffffffffffffffffffffffffffffffff168173ffffffffffffffffffffffffffffffffffffffff1603612240576040517f08c379a0000000000000000000000000000000000000000000000000000000008152600401612237906151b8565b60405180910390fd5b80600d60006101000a81548173ffffffffffffffffffffffffffffffffffffffff021916908373ffffffffffffffffffffffffffffffffffffffff1602179055507f6e54bd062be2216071d5874d64e175cd202a1df49312b7241043db3ddd25537b816040516122b09190613ddf565b60405180910390a150565b6000634906490660e01b7bffffffffffffffffffffffffffffffffffffffffffffffffffffffff1916827bffffffffffffffffffffffffffffffffffffffffffffffffffffffff1916148061231557506123148261328f565b5b9050919050565b6123246123e5565b73ffffffffffffffffffffffffffffffffffffffff16612342611767565b73ffffffffffffffffffffffffffffffffffffffff1614612398576040517f08c379a000000000000000000000000000000000000000000000000000000000815260040161238f90615224565b60405180910390fd5b565b6123a381613371565b6123e2576040517f08c379a00000000000000000000000000000000000000000000000000000000081526004016123d990614bb0565b60405180910390fd5b50565b600033905090565b816004600083815260200190815260200160002060006101000a81548173ffffffffffffffffffffffffffffffffffffffff021916908373ffffffffffffffffffffffffffffffffffffffff160217905550808273ffffffffffffffffffffffffffffffffffffffff1661246083611401565b73ffffffffffffffffffffffffffffffffffffffff167f8c5be1e5ebec7d5bd14f71427d1e84f3dd0314c0f7b2291e5b200ac8c7c3b92560405160405180910390a45050565b6124af82613371565b6124ee576040517f08c379a00000000000000000000000000000000000000000000000000000000081526004016124e5906152b6565b60405180910390fd5b8060066000848152602001908152602001600020908161250e9190615478565b507ff8e1a15aba9398e019f0b49df1a4fde98ee17ae345cb5f6b5e2c27f5033e8ce78260405161253e9190613e75565b60405180910390a15050565b60008061255683611401565b90508073ffffffffffffffffffffffffffffffffffffffff168473ffffffffffffffffffffffffffffffffffffffff16148061259857506125978185611fb6565b5b806125d657508373ffffffffffffffffffffffffffffffffffffffff166125be846109be565b73ffffffffffffffffffffffffffffffffffffffff16145b91505092915050565b8273ffffffffffffffffffffffffffffffffffffffff166125ff82611401565b73ffffffffffffffffffffffffffffffffffffffff1614612655576040517f08c379a000000000000000000000000000000000000000000000000000000000815260040161264c906155bc565b60405180910390fd5b600073ffffffffffffffffffffffffffffffffffffffff168273ffffffffffffffffffffffffffffffffffffffff16036126c4576040517f08c379a00000000000000000000000000000000000000000000000000000000081526004016126bb9061564e565b60405180910390fd5b6126d183838360016133b2565b8273ffffffffffffffffffffffffffffffffffffffff166126f182611401565b73ffffffffffffffffffffffffffffffffffffffff1614612747576040517f08c379a000000000000000000000000000000000000000000000000000000000815260040161273e906155bc565b60405180910390fd5b6004600082815260200190815260200160002060006101000a81549073ffffffffffffffffffffffffffffffffffffffff02191690556001600360008573ffffffffffffffffffffffffffffffffffffffff1673ffffffffffffffffffffffffffffffffffffffff168152602001908152602001600020600082825403925050819055506001600360008473ffffffffffffffffffffffffffffffffffffffff1673ffffffffffffffffffffffffffffffffffffffff16815260200190815260200160002060008282540192505081905550816002600083815260200190815260200160002060006101000a81548173ffffffffffffffffffffffffffffffffffffffff021916908373ffffffffffffffffffffffffffffffffffffffff160217905550808273ffffffffffffffffffffffffffffffffffffffff168473ffffffffffffffffffffffffffffffffffffffff167fddf252ad1be2c89b69c2b068fc378daa952ba7f163c4a11628f55a4df523b3ef60405160405180910390a46128d383838360016133b8565b505050565b600080601160008560048111156128f2576128f16142cd565b5b6004811115612904576129036142cd565b5b8152602001908152602001600020549050606481846129239190614913565b61292d9190614984565b91505092915050565b61293e6133be565b6000600760146101000a81548160ff0219169083151502179055507f5db9ee0a495bf2e6ff9c91a7834c1ba4fdd244a5e8aa4e537bd38aeae4b073aa6129826123e5565b60405161298f9190613ddf565b60405180910390a1565b6129a16113c4565b156129e1576040517f08c379a00000000000000000000000000000000000000000000000000000000081526004016129d8906156ba565b60405180910390fd5b565b600260085403612a28576040517f08c379a0000000000000000000000000000000000000000000000000000000008152600401612a1f90615726565b60405180910390fd5b6002600881905550565b3073ffffffffffffffffffffffffffffffffffffffff1663b40731566040518163ffffffff1660e01b8152600401600060405180830381600087803b158015612a7a57600080fd5b505af1925050508015612a8b575060015b612b3057612a97615753565b806308c379a003612af35750612aab615775565b80612ab65750612af5565b7f8bb3d3a8dd3e0b163e8b0769d8dc13826def9c7a44adf2ee31b7b46b4792c60281604051612ae59190613d4f565b60405180910390a150612b2b565b505b7f8bb3d3a8dd3e0b163e8b0769d8dc13826def9c7a44adf2ee31b7b46b4792c602604051612b2290615851565b60405180910390a15b612b31565b5b565b6000600b549050612b448482613407565b612b4e81846124a6565b6000612b5982613425565b9050806010600084815260200190815260200160002060006101000a81548160ff02191690836004811115612b9157612b906142cd565b5b02179055506000612ba282856128d8565b9050600081118015612bb65750600c548111155b15612e6b5760006064605f83612bcc9190614913565b612bd69190614984565b905060008183612be6919061469f565b905082600c6000828254612bfa919061469f565b92505081905550600d60009054906101000a900473ffffffffffffffffffffffffffffffffffffffff1673ffffffffffffffffffffffffffffffffffffffff1663a9059cbb89846040518363ffffffff1660e01b8152600401612c5e929190614153565b6020604051808303816000875af1158015612c7d573d6000803e3d6000fd5b505050506040513d601f19601f82011682018060405250810190612ca1919061471f565b612ce0576040517f08c379a0000000000000000000000000000000000000000000000000000000008152600401612cd7906158bd565b60405180910390fd5b600d60009054906101000a900473ffffffffffffffffffffffffffffffffffffffff1673ffffffffffffffffffffffffffffffffffffffff1663a9059cbb600f60009054906101000a900473ffffffffffffffffffffffffffffffffffffffff16836040518363ffffffff1660e01b8152600401612d5f929190614153565b6020604051808303816000875af1158015612d7e573d6000803e3d6000fd5b505050506040513d601f19601f82011682018060405250810190612da2919061471f565b612de1576040517f08c379a0000000000000000000000000000000000000000000000000000000008152600401612dd890615929565b60405180910390fd5b8773ffffffffffffffffffffffffffffffffffffffff167f95681e512bc0fe659e195e06c283eada494316f3d801213e48e7101af92bf77083604051612e279190613e75565b60405180910390a27f7bc22304ac771f50d6cc29b56387cb4855f284e7a1f83e6420fe9b8bbdaf45c9600c54604051612e609190613e75565b60405180910390a150505b600183612e7891906147b8565b600b819055508573ffffffffffffffffffffffffffffffffffffffff167fa08b3bf5b7af36b46fffc856a242e512024f345d8981c820b40ed15e1a7b5cae848488604051612ec893929190615949565b60405180910390a2505050505050565b6001600881905550565b60006002600083815260200190815260200160002060009054906101000a900473ffffffffffffffffffffffffffffffffffffffff169050919050565b6000600760009054906101000a900473ffffffffffffffffffffffffffffffffffffffff16905081600760006101000a81548173ffffffffffffffffffffffffffffffffffffffff021916908373ffffffffffffffffffffffffffffffffffffffff1602179055508173ffffffffffffffffffffffffffffffffffffffff168173ffffffffffffffffffffffffffffffffffffffff167f8be0079c531659141344cd1fd0a4f28419497f9722a3daafe3b4186f6b6457e060405160405180910390a35050565b612fed612999565b6001600760146101000a81548160ff0219169083151502179055507f62e78cea01bee320cd4e420270b5ea74000d11b0c9f74754ebdbfc544b05a2586130316123e5565b60405161303e9190613ddf565b60405180910390a1565b8173ffffffffffffffffffffffffffffffffffffffff168373ffffffffffffffffffffffffffffffffffffffff16036130b6576040517f08c379a00000000000000000000000000000000000000000000000000000000081526004016130ad906159d3565b60405180910390fd5b80600560008573ffffffffffffffffffffffffffffffffffffffff1673ffffffffffffffffffffffffffffffffffffffff16815260200190815260200160002060008473ffffffffffffffffffffffffffffffffffffffff1673ffffffffffffffffffffffffffffffffffffffff16815260200190815260200160002060006101000a81548160ff0219169083151502179055508173ffffffffffffffffffffffffffffffffffffffff168373ffffffffffffffffffffffffffffffffffffffff167f17307eab39ab6107e8899845ad3d59bd9653f200f220920489ca2b5937696c31836040516131a79190613c2e565b60405180910390a3505050565b6131bf8484846125df565b6131cb848484846134cd565b61320a576040517f08c379a000000000000000000000000000000000000000000000000000000000815260040161320190615a65565b60405180910390fd5b50505050565b606060405180602001604052806000815250905090565b60606132328261239a565b600061323c613210565b9050600081511161325c5760405180602001604052806000815250613287565b8061326684613654565b604051602001613277929190614f92565b6040516020818303038152906040525b915050919050565b60007f80ac58cd000000000000000000000000000000000000000000000000000000007bffffffffffffffffffffffffffffffffffffffffffffffffffffffff1916827bffffffffffffffffffffffffffffffffffffffffffffffffffffffff1916148061335a57507f5b5e139f000000000000000000000000000000000000000000000000000000007bffffffffffffffffffffffffffffffffffffffffffffffffffffffff1916827bffffffffffffffffffffffffffffffffffffffffffffffffffffffff1916145b8061336a575061336982613722565b5b9050919050565b60008073ffffffffffffffffffffffffffffffffffffffff1661339383612ee2565b73ffffffffffffffffffffffffffffffffffffffff1614159050919050565b50505050565b50505050565b6133c66113c4565b613405576040517f08c379a00000000000000000000000000000000000000000000000000000000081526004016133fc90615ad1565b60405180910390fd5b565b61342182826040518060200160405280600081525061378c565b5050565b600080612710600143613438919061469f565b40843360405160200161344d93929190615b85565b6040516020818303038152906040528051906020012060001c6134709190615bc2565b9050611b588110156134865760009150506134c8565b6122ab81101561349a5760019150506134c8565b6126258110156134ae5760029150506134c8565b6126de8110156134c25760039150506134c8565b60049150505b919050565b60006134ee8473ffffffffffffffffffffffffffffffffffffffff166137e7565b15613647578373ffffffffffffffffffffffffffffffffffffffff1663150b7a026135176123e5565b8786866040518563ffffffff1660e01b81526004016135399493929190615c48565b6020604051808303816000875af192505050801561357557506040513d601f19601f820116820180604052508101906135729190615ca9565b60015b6135f7573d80600081146135a5576040519150601f19603f3d011682016040523d82523d6000602084013e6135aa565b606091505b5060008151036135ef576040517f08c379a00000000000000000000000000000000000000000000000000000000081526004016135e690615a65565b60405180910390fd5b805181602001fd5b63150b7a0260e01b7bffffffffffffffffffffffffffffffffffffffffffffffffffffffff1916817bffffffffffffffffffffffffffffffffffffffffffffffffffffffff19161491505061364c565b600190505b949350505050565b6060600060016136638461380a565b01905060008167ffffffffffffffff81111561368257613681613e9a565b5b6040519080825280601f01601f1916602001820160405280156136b45781602001600182028036833780820191505090505b509050600082602001820190505b600115613717578080600190039150507f3031323334353637383961626364656600000000000000000000000000000000600a86061a8153600a858161370b5761370a614955565b5b049450600085036136c2575b819350505050919050565b60007f01ffc9a7000000000000000000000000000000000000000000000000000000007bffffffffffffffffffffffffffffffffffffffffffffffffffffffff1916827bffffffffffffffffffffffffffffffffffffffffffffffffffffffff1916149050919050565b613796838361395d565b6137a360008484846134cd565b6137e2576040517f08c379a00000000000000000000000000000000000000000000000000000000081526004016137d990615a65565b60405180910390fd5b505050565b6000808273ffffffffffffffffffffffffffffffffffffffff163b119050919050565b600080600090507a184f03e93ff9f4daa797ed6e38ed64bf6a1f0100000000000000008310613868577a184f03e93ff9f4daa797ed6e38ed64bf6a1f010000000000000000838161385e5761385d614955565b5b0492506040810190505b6d04ee2d6d415b85acef810000000083106138a5576d04ee2d6d415b85acef8100000000838161389b5761389a614955565b5b0492506020810190505b662386f26fc1000083106138d457662386f26fc1000083816138ca576138c9614955565b5b0492506010810190505b6305f5e10083106138fd576305f5e10083816138f3576138f2614955565b5b0492506008810190505b612710831061392257612710838161391857613917614955565b5b0492506004810190505b60648310613945576064838161393b5761393a614955565b5b0492506002810190505b600a8310613954576001810190505b80915050919050565b600073ffffffffffffffffffffffffffffffffffffffff168273ffffffffffffffffffffffffffffffffffffffff16036139cc576040517f08c379a00000000000000000000000000000000000000000000000000000000081526004016139c390615d22565b60405180910390fd5b6139d581613371565b15613a15576040517f08c379a0000000000000000000000000000000000000000000000000000000008152600401613a0c90615d8e565b60405180910390fd5b613a236000838360016133b2565b613a2c81613371565b15613a6c576040517f08c379a0000000000000000000000000000000000000000000000000000000008152600401613a6390615d8e565b60405180910390fd5b6001600360008473ffffffffffffffffffffffffffffffffffffffff1673ffffffffffffffffffffffffffffffffffffffff16815260200190815260200160002060008282540192505081905550816002600083815260200190815260200160002060006101000a81548173ffffffffffffffffffffffffffffffffffffffff021916908373ffffffffffffffffffffffffffffffffffffffff160217905550808273ffffffffffffffffffffffffffffffffffffffff16600073ffffffffffffffffffffffffffffffffffffffff167fddf252ad1be2c89b69c2b068fc378daa952ba7f163c4a11628f55a4df523b3ef60405160405180910390a4613b766000838360016133b8565b5050565b6000604051905090565b600080fd5b600080fd5b60007fffffffff0000000000000000000000000000000000000000000000000000000082169050919050565b613bc381613b8e565b8114613bce57600080fd5b50565b600081359050613be081613bba565b92915050565b600060208284031215613bfc57613bfb613b84565b5b6000613c0a84828501613bd1565b91505092915050565b60008115159050919050565b613c2881613c13565b82525050565b6000602082019050613c436000830184613c1f565b92915050565b6000819050919050565b613c5c81613c49565b8114613c6757600080fd5b50565b600081359050613c7981613c53565b92915050565b60008060408385031215613c9657613c95613b84565b5b6000613ca485828601613c6a565b9250506020613cb585828601613c6a565b9150509250929050565b600081519050919050565b600082825260208201905092915050565b60005b83811015613cf9578082015181840152602081019050613cde565b60008484015250505050565b6000601f19601f8301169050919050565b6000613d2182613cbf565b613d2b8185613cca565b9350613d3b818560208601613cdb565b613d4481613d05565b840191505092915050565b60006020820190508181036000830152613d698184613d16565b905092915050565b600060208284031215613d8757613d86613b84565b5b6000613d9584828501613c6a565b91505092915050565b600073ffffffffffffffffffffffffffffffffffffffff82169050919050565b6000613dc982613d9e565b9050919050565b613dd981613dbe565b82525050565b6000602082019050613df46000830184613dd0565b92915050565b613e0381613dbe565b8114613e0e57600080fd5b50565b600081359050613e2081613dfa565b92915050565b60008060408385031215613e3d57613e3c613b84565b5b6000613e4b85828601613e11565b9250506020613e5c85828601613c6a565b9150509250929050565b613e6f81613c49565b82525050565b6000602082019050613e8a6000830184613e66565b92915050565b600080fd5b600080fd5b7f4e487b7100000000000000000000000000000000000000000000000000000000600052604160045260246000fd5b613ed282613d05565b810181811067ffffffffffffffff82111715613ef157613ef0613e9a565b5b80604052505050565b6000613f04613b7a565b9050613f108282613ec9565b919050565b600067ffffffffffffffff821115613f3057613f2f613e9a565b5b613f3982613d05565b9050602081019050919050565b82818337600083830152505050565b6000613f68613f6384613f15565b613efa565b905082815260208101848484011115613f8457613f83613e95565b5b613f8f848285613f46565b509392505050565b600082601f830112613fac57613fab613e90565b5b8135613fbc848260208601613f55565b91505092915050565b60008060408385031215613fdc57613fdb613b84565b5b6000613fea85828601613c6a565b925050602083013567ffffffffffffffff81111561400b5761400a613b89565b5b61401785828601613f97565b9150509250929050565b6005811061402e57600080fd5b50565b60008135905061404081614021565b92915050565b6000806040838503121561405d5761405c613b84565b5b600061406b85828601614031565b925050602061407c85828601613c6a565b9150509250929050565b6000819050919050565b60006140ab6140a66140a184613d9e565b614086565b613d9e565b9050919050565b60006140bd82614090565b9050919050565b60006140cf826140b2565b9050919050565b6140df816140c4565b82525050565b60006020820190506140fa60008301846140d6565b92915050565b60008060006060848603121561411957614118613b84565b5b600061412786828701613e11565b935050602061413886828701613e11565b925050604061414986828701613c6a565b9150509250925092565b60006040820190506141686000830185613dd0565b6141756020830184613e66565b9392505050565b60006020828403121561419257614191613b84565b5b60006141a084828501614031565b91505092915050565b60006bffffffffffffffffffffffff82169050919050565b6141ca816141a9565b82525050565b60006020820190506141e560008301846141c1565b92915050565b60006020828403121561420157614200613b84565b5b600082013567ffffffffffffffff81111561421f5761421e613b89565b5b61422b84828501613f97565b91505092915050565b60006020828403121561424a57614249613b84565b5b600061425884828501613e11565b91505092915050565b61426a81613c13565b811461427557600080fd5b50565b60008135905061428781614261565b92915050565b600080604083850312156142a4576142a3613b84565b5b60006142b285828601613e11565b92505060206142c385828601614278565b9150509250929050565b7f4e487b7100000000000000000000000000000000000000000000000000000000600052602160045260246000fd5b6005811061430d5761430c6142cd565b5b50565b600081905061431e826142fc565b919050565b600061432e82614310565b9050919050565b61433e81614323565b82525050565b60006020820190506143596000830184614335565b92915050565b600067ffffffffffffffff82111561437a57614379613e9a565b5b61438382613d05565b9050602081019050919050565b60006143a361439e8461435f565b613efa565b9050828152602081018484840111156143bf576143be613e95565b5b6143ca848285613f46565b509392505050565b600082601f8301126143e7576143e6613e90565b5b81356143f7848260208601614390565b91505092915050565b6000806000806080858703121561441a57614419613b84565b5b600061442887828801613e11565b945050602061443987828801613e11565b935050604061444a87828801613c6a565b925050606085013567ffffffffffffffff81111561446b5761446a613b89565b5b614477878288016143d2565b91505092959194509250565b6000806040838503121561449a57614499613b84565b5b60006144a885828601613e11565b92505060206144b985828601613e11565b9150509250929050565b60006040820190506144d86000830185613e66565b6144e56020830184613e66565b9392505050565b7f4e487b7100000000000000000000000000000000000000000000000000000000600052602260045260246000fd5b6000600282049050600182168061453357607f821691505b602082108103614546576145456144ec565b5b50919050565b7f4552433732313a20617070726f76616c20746f2063757272656e74206f776e6560008201527f7200000000000000000000000000000000000000000000000000000000000000602082015250565b60006145a8602183613cca565b91506145b38261454c565b604082019050919050565b600060208201905081810360008301526145d78161459b565b9050919050565b7f4552433732313a20617070726f76652063616c6c6572206973206e6f7420746f60008201527f6b656e206f776e6572206f7220617070726f76656420666f7220616c6c000000602082015250565b600061463a603d83613cca565b9150614645826145de565b604082019050919050565b600060208201905081810360008301526146698161462d565b9050919050565b7f4e487b7100000000000000000000000000000000000000000000000000000000600052601160045260246000fd5b60006146aa82613c49565b91506146b583613c49565b92508282039050818111156146cd576146cc614670565b5b92915050565b60006060820190506146e86000830186613dd0565b6146f56020830185613dd0565b6147026040830184613e66565b949350505050565b60008151905061471981614261565b92915050565b60006020828403121561473557614734613b84565b5b60006147438482850161470a565b91505092915050565b7f5472616e73666572206661696c65640000000000000000000000000000000000600082015250565b6000614782600f83613cca565b915061478d8261474c565b602082019050919050565b600060208201905081810360008301526147b181614775565b9050919050565b60006147c382613c49565b91506147ce83613c49565b92508282019050808211156147e6576147e5614670565b5b92915050565b7f546f6f2068696768000000000000000000000000000000000000000000000000600082015250565b6000614822600883613cca565b915061482d826147ec565b602082019050919050565b6000602082019050818103600083015261485181614815565b9050919050565b600060408201905061486d6000830185614335565b61487a6020830184613e66565b9392505050565b7f4552433732313a2063616c6c6572206973206e6f7420746f6b656e206f776e6560008201527f72206f7220617070726f76656400000000000000000000000000000000000000602082015250565b60006148dd602d83613cca565b91506148e882614881565b604082019050919050565b6000602082019050818103600083015261490c816148d0565b9050919050565b600061491e82613c49565b915061492983613c49565b925082820261493781613c49565b9150828204841483151761494e5761494d614670565b5b5092915050565b7f4e487b7100000000000000000000000000000000000000000000000000000000600052601260045260246000fd5b600061498f82613c49565b915061499a83613c49565b9250826149aa576149a9614955565b5b828204905092915050565b6000815190506149c481613c53565b92915050565b6000602082840312156149e0576149df613b84565b5b60006149ee848285016149b5565b91505092915050565b6000604082019050614a0c6000830185613e66565b614a196020830184613dd0565b9392505050565b7f5645525420746f6b656e206e6f74207365740000000000000000000000000000600082015250565b6000614a56601283613cca565b9150614a6182614a20565b602082019050919050565b60006020820190508181036000830152614a8581614a49565b9050919050565b7f56455254207061796d656e74206661696c656400000000000000000000000000600082015250565b6000614ac2601383613cca565b9150614acd82614a8c565b602082019050919050565b60006020820190508181036000830152614af181614ab5565b9050919050565b7f5472656173757279207472616e73666572206661696c65640000000000000000600082015250565b6000614b2e601883613cca565b9150614b3982614af8565b602082019050919050565b60006020820190508181036000830152614b5d81614b21565b9050919050565b7f4552433732313a20696e76616c696420746f6b656e2049440000000000000000600082015250565b6000614b9a601883613cca565b9150614ba582614b64565b602082019050919050565b60006020820190508181036000830152614bc981614b8d565b9050919050565b7f496e73756666696369656e74207072697a6520706f6f6c000000000000000000600082015250565b6000614c06601783613cca565b9150614c1182614bd0565b602082019050919050565b60006020820190508181036000830152614c3581614bf9565b9050919050565b7f496e76616c696420636f6e747261637420616464726573730000000000000000600082015250565b6000614c72601883613cca565b9150614c7d82614c3c565b602082019050919050565b60006020820190508181036000830152614ca181614c65565b9050919050565b7f4d6967726174696f6e207472616e73666572206661696c656400000000000000600082015250565b6000614cde601983613cca565b9150614ce982614ca8565b602082019050919050565b60006020820190508181036000830152614d0d81614cd1565b9050919050565b7f4552433732313a2061646472657373207a65726f206973206e6f74206120766160008201527f6c6964206f776e65720000000000000000000000000000000000000000000000602082015250565b6000614d70602983613cca565b9150614d7b82614d14565b604082019050919050565b60006020820190508181036000830152614d9f81614d63565b9050919050565b7f5072697a65207472616e73666572206661696c65640000000000000000000000600082015250565b6000614ddc601583613cca565b9150614de782614da6565b602082019050919050565b60006020820190508181036000830152614e0b81614dcf565b9050919050565b7f5669727475616c20746f6b656e206e6f74207365740000000000000000000000600082015250565b6000614e48601583613cca565b9150614e5382614e12565b602082019050919050565b60006020820190508181036000830152614e7781614e3b565b9050919050565b7f5649525455414c207061796d656e74206661696c656400000000000000000000600082015250565b6000614eb4601683613cca565b9150614ebf82614e7e565b602082019050919050565b60006020820190508181036000830152614ee381614ea7565b9050919050565b7f496e7465726e616c2066756e6374696f6e206f6e6c7900000000000000000000600082015250565b6000614f20601683613cca565b9150614f2b82614eea565b602082019050919050565b60006020820190508181036000830152614f4f81614f13565b9050919050565b600081905092915050565b6000614f6c82613cbf565b614f768185614f56565b9350614f86818560208601613cdb565b80840191505092915050565b6000614f9e8285614f61565b9150614faa8284614f61565b91508190509392505050565b7f5669727475616c20746f6b656e2063616e6e6f74206265207a65726f2061646460008201527f7265737300000000000000000000000000000000000000000000000000000000602082015250565b6000615012602483613cca565b915061501d82614fb6565b604082019050919050565b6000602082019050818103600083015261504181615005565b9050919050565b7f54726561737572792063616e6e6f74206265207a65726f206164647265737300600082015250565b600061507e601f83613cca565b915061508982615048565b602082019050919050565b600060208201905081810360008301526150ad81615071565b9050919050565b7f4f776e61626c653a206e6577206f776e657220697320746865207a65726f206160008201527f6464726573730000000000000000000000000000000000000000000000000000602082015250565b6000615110602683613cca565b915061511b826150b4565b604082019050919050565b6000602082019050818103600083015261513f81615103565b9050919050565b7f5645525420746f6b656e2063616e6e6f74206265207a65726f2061646472657360008201527f7300000000000000000000000000000000000000000000000000000000000000602082015250565b60006151a2602183613cca565b91506151ad82615146565b604082019050919050565b600060208201905081810360008301526151d181615195565b9050919050565b7f4f776e61626c653a2063616c6c6572206973206e6f7420746865206f776e6572600082015250565b600061520e602083613cca565b9150615219826151d8565b602082019050919050565b6000602082019050818103600083015261523d81615201565b9050919050565b7f45524337323155524953746f726167653a2055524920736574206f66206e6f6e60008201527f6578697374656e7420746f6b656e000000000000000000000000000000000000602082015250565b60006152a0602e83613cca565b91506152ab82615244565b604082019050919050565b600060208201905081810360008301526152cf81615293565b9050919050565b60008190508160005260206000209050919050565b60006020601f8301049050919050565b600082821b905092915050565b6000600883026153387fffffffffffffffffffffffffffffffffffffffffffffffffffffffffffffffff826152fb565b61534286836152fb565b95508019841693508086168417925050509392505050565b600061537561537061536b84613c49565b614086565b613c49565b9050919050565b6000819050919050565b61538f8361535a565b6153a361539b8261537c565b848454615308565b825550505050565b600090565b6153b86153ab565b6153c3818484615386565b505050565b5b818110156153e7576153dc6000826153b0565b6001810190506153c9565b5050565b601f82111561542c576153fd816152d6565b615406846152eb565b81016020851015615415578190505b615429615421856152eb565b8301826153c8565b50505b505050565b600082821c905092915050565b600061544f60001984600802615431565b1980831691505092915050565b6000615468838361543e565b9150826002028217905092915050565b61548182613cbf565b67ffffffffffffffff81111561549a57615499613e9a565b5b6154a4825461451b565b6154af8282856153eb565b600060209050601f8311600181146154e257600084156154d0578287015190505b6154da858261545c565b865550615542565b601f1984166154f0866152d6565b60005b82811015615518578489015182556001820191506020850194506020810190506154f3565b868310156155355784890151615531601f89168261543e565b8355505b6001600288020188555050505b505050505050565b7f4552433732313a207472616e736665722066726f6d20696e636f72726563742060008201527f6f776e6572000000000000000000000000000000000000000000000000000000602082015250565b60006155a6602583613cca565b91506155b18261554a565b604082019050919050565b600060208201905081810360008301526155d581615599565b9050919050565b7f4552433732313a207472616e7366657220746f20746865207a65726f2061646460008201527f7265737300000000000000000000000000000000000000000000000000000000602082015250565b6000615638602483613cca565b9150615643826155dc565b604082019050919050565b600060208201905081810360008301526156678161562b565b9050919050565b7f5061757361626c653a2070617573656400000000000000000000000000000000600082015250565b60006156a4601083613cca565b91506156af8261566e565b602082019050919050565b600060208201905081810360008301526156d381615697565b9050919050565b7f5265656e7472616e637947756172643a207265656e7472616e742063616c6c00600082015250565b6000615710601f83613cca565b915061571b826156da565b602082019050919050565b6000602082019050818103600083015261573f81615703565b9050919050565b60008160e01c9050919050565b600060033d11156157725760046000803e61576f600051615746565b90505b90565b600060443d1061580257615787613b7a565b60043d036004823e80513d602482011167ffffffffffffffff821117156157af575050615802565b808201805167ffffffffffffffff8111156157cd5750505050615802565b80602083010160043d0385018111156157ea575050505050615802565b6157f982602001850186613ec9565b82955050505050505b90565b7f556e6b6e6f776e2073796e63206572726f720000000000000000000000000000600082015250565b600061583b601283613cca565b915061584682615805565b602082019050919050565b6000602082019050818103600083015261586a8161582e565b9050919050565b7f5072697a65207061796f7574206661696c656400000000000000000000000000600082015250565b60006158a7601383613cca565b91506158b282615871565b602082019050919050565b600060208201905081810360008301526158d68161589a565b9050919050565b7f547265617375727920637574206661696c656400000000000000000000000000600082015250565b6000615913601383613cca565b915061591e826158dd565b602082019050919050565b6000602082019050818103600083015261594281615906565b9050919050565b600060608201905061595e6000830186613e66565b61596b6020830185614335565b818103604083015261597d8184613d16565b9050949350505050565b7f4552433732313a20617070726f766520746f2063616c6c657200000000000000600082015250565b60006159bd601983613cca565b91506159c882615987565b602082019050919050565b600060208201905081810360008301526159ec816159b0565b9050919050565b7f4552433732313a207472616e7366657220746f206e6f6e20455243373231526560008201527f63656976657220696d706c656d656e7465720000000000000000000000000000602082015250565b6000615a4f603283613cca565b9150615a5a826159f3565b604082019050919050565b60006020820190508181036000830152615a7e81615a42565b9050919050565b7f5061757361626c653a206e6f7420706175736564000000000000000000000000600082015250565b6000615abb601483613cca565b9150615ac682615a85565b602082019050919050565b60006020820190508181036000830152615aea81615aae565b9050919050565b6000819050919050565b6000819050919050565b615b16615b1182615af1565b615afb565b82525050565b6000819050919050565b615b37615b3282613c49565b615b1c565b82525050565b60008160601b9050919050565b6000615b5582615b3d565b9050919050565b6000615b6782615b4a565b9050919050565b615b7f615b7a82613dbe565b615b5c565b82525050565b6000615b918286615b05565b602082019150615ba18285615b26565b602082019150615bb18284615b6e565b601482019150819050949350505050565b6000615bcd82613c49565b9150615bd883613c49565b925082615be857615be7614955565b5b828206905092915050565b600081519050919050565b600082825260208201905092915050565b6000615c1a82615bf3565b615c248185615bfe565b9350615c34818560208601613cdb565b615c3d81613d05565b840191505092915050565b6000608082019050615c5d6000830187613dd0565b615c6a6020830186613dd0565b615c776040830185613e66565b8181036060830152615c898184615c0f565b905095945050505050565b600081519050615ca381613bba565b92915050565b600060208284031215615cbf57615cbe613b84565b5b6000615ccd84828501615c94565b91505092915050565b7f4552433732313a206d696e7420746f20746865207a65726f2061646472657373600082015250565b6000615d0c602083613cca565b9150615d1782615cd6565b602082019050919050565b60006020820190508181036000830152615d3b81615cff565b9050919050565b7f4552433732313a20746f6b656e20616c7265616479206d696e74656400000000600082015250565b6000615d78601c83613cca565b9150615d8382615d42565b602082019050919050565b60006020820190508181036000830152615da781615d6b565b905091905056fea2646970667358221220ff9d95022d4cceaf12ab1369be70c95acd7a2717717dde5a7d155d352e2376e264736f6c634300081c0033",
  "linkReferences": {},
  "deployedLinkReferences": {}
}