{
  "_format": "hh-sol-artifact-1",
  "contractName": "VerticalProjectNFT",
  "sourceName": "contracts/VerticalProjectNFT_Fixed.sol",
  "abi": [
    {
      "inputs": [
        {
          "internalType": "address",
          "name": "_virtualToken",
          "type": "address"
        },
        {
          "internalType": "address",
          "name": "_vertToken",
          "type": "address"
        },
        {
          "internalType": "address",
          "name": "_treasury",
          "type": "address"
        }
      ],
      "stateMutability": "nonpayable",
      "type": "constructor"
    },
    {
      "anonymous": false,
      "inputs": [
        {
          "indexed": true,
          "internalType": "address",
          "name": "owner",
          "type": "address"
        },
        {
          "indexed": true,
          "internalType": "address",
          "name": "approved",
          "type": "address"
        },
        {
          "indexed": true,
          "internalType": "uint256",
          "name": "tokenId",
          "type": "uint256"
        }
      ],
      "name": "Approval",
      "type": "event"
    },
    {
      "anonymous": false,
      "inputs": [
        {
          "indexed": true,
          "internalType": "address",
          "name": "owner",
          "type": "address"
        },
        {
          "indexed": true,
          "internalType": "address",
          "name": "operator",
          "type": "address"
        },
        {
          "indexed": false,
          "internalType": "bool",
          "name": "approved",
          "type": "bool"
        }
      ],
      "name": "ApprovalForAll",
      "type": "event"
    },
    {
      "anonymous": false,
      "inputs": [
        {
          "indexed": false,
          "internalType": "uint256",
          "name": "_fromTokenId",
          "type": "uint256"
        },
        {
          "indexed": false,
          "internalType": "uint256",
          "name": "_toTokenId",
          "type": "uint256"
        }
      ],
      "name": "BatchMetadataUpdate",
      "type": "event"
    },
    {
      "anonymous": false,
      "inputs": [
        {
          "indexed": false,
          "internalType": "uint256",
          "name": "_tokenId",
          "type": "uint256"
        }
      ],
      "name": "MetadataUpdate",
      "type": "event"
    },
    {
      "anonymous": false,
      "inputs": [
        {
          "indexed": true,
          "internalType": "address",
          "name": "user",
          "type": "address"
        },
        {
          "indexed": false,
          "internalType": "uint256",
          "name": "tokenId",
          "type": "uint256"
        },
        {
          "indexed": false,
          "internalType": "enum VerticalProjectNFT.Rarity",
          "name": "rarity",
          "type": "uint8"
        },
        {
          "indexed": false,
          "internalType": "string",
          "name": "uri",
          "type": "string"
        }
      ],
      "name": "NFTMinted",
      "type": "event"
    },
    {
      "anonymous": false,
      "inputs": [
        {
          "indexed": true,
          "internalType": "address",
          "name": "previousOwner",
          "type": "address"
        },
        {
          "indexed": true,
          "internalType": "address",
          "name": "newOwner",
          "type": "address"
        }
      ],
      "name": "OwnershipTransferred",
      "type": "event"
    },
    {
      "anonymous": false,
      "inputs": [
        {
          "indexed": false,
          "internalType": "address",
          "name": "account",
          "type": "address"
        }
      ],
      "name": "Paused",
      "type": "event"
    },
    {
      "anonymous": false,
      "inputs": [
        {
          "indexed": false,
          "internalType": "uint256",
          "name": "newVirtualPrice",
          "type": "uint256"
        },
        {
          "indexed": false,
          "internalType": "uint256",
          "name": "newVertPrice",
          "type": "uint256"
        }
      ],
      "name": "PricesUpdated",
      "type": "event"
    },
    {
      "anonymous": false,
      "inputs": [
        {
          "indexed": true,
          "internalType": "address",
          "name": "user",
          "type": "address"
        },
        {
          "indexed": false,
          "internalType": "uint256",
          "name": "amount",
          "type": "uint256"
        }
      ],
      "name": "PrizeClaimed",
      "type": "event"
    },
    {
      "anonymous": false,
      "inputs": [
        {
          "indexed": false,
          "internalType": "enum VerticalProjectNFT.Rarity",
          "name": "rarity",
          "type": "uint8"
        },
        {
          "indexed": false,
          "internalType": "uint256",
          "name": "newPercent",
          "type": "uint256"
        }
      ],
      "name": "PrizePercentUpdated",
      "type": "event"
    },
    {
      "anonymous": false,
      "inputs": [
        {
          "indexed": false,
          "internalType": "uint256",
          "name": "newTotal",
          "type": "uint256"
        }
      ],
      "name": "PrizePoolUpdated",
      "type": "event"
    },
    {
      "anonymous": false,
      "inputs": [
        {
          "indexed": true,
          "internalType": "address",
          "name": "from",
          "type": "address"
        },
        {
          "indexed": true,
          "internalType": "address",
          "name": "to",
          "type": "address"
        },
        {
          "indexed": true,
          "internalType": "uint256",
          "name": "tokenId",
          "type": "uint256"
        }
      ],
      "name": "Transfer",
      "type": "event"
    },
    {
      "anonymous": false,
      "inputs": [
        {
          "indexed": false,
          "internalType": "address",
          "name": "newTreasury",
          "type": "address"
        }
      ],
      "name": "TreasuryUpdated",
      "type": "event"
    },
    {
      "anonymous": false,
      "inputs": [
        {
          "indexed": false,
          "internalType": "address",
          "name": "account",
          "type": "address"
        }
      ],
      "name": "Unpaused",
      "type": "event"
    },
    {
      "anonymous": false,
      "inputs": [
        {
          "indexed": false,
          "internalType": "address",
          "name": "newVertToken",
          "type": "address"
        }
      ],
      "name": "VertTokenUpdated",
      "type": "event"
    },
    {
      "anonymous": false,
      "inputs": [
        {
          "indexed": false,
          "internalType": "address",
          "name": "newVirtualToken",
          "type": "address"
        }
      ],
      "name": "VirtualTokenUpdated",
      "type": "event"
    },
    {
      "inputs": [],
      "name": "ROYALTY_FEE_BPS",
      "outputs": [
        {
          "internalType": "uint96",
          "name": "",
          "type": "uint96"
        }
      ],
      "stateMutability": "view",
      "type": "function"
    },
    {
      "inputs": [
        {
          "internalType": "uint256",
          "name": "amount",
          "type": "uint256"
        }
      ],
      "name": "addToPrizePool",
      "outputs": [],
      "stateMutability": "nonpayable",
      "type": "function"
    },
    {
      "inputs": [
        {
          "internalType": "address",
          "name": "to",
          "type": "address"
        },
        {
          "internalType": "uint256",
          "name": "tokenId",
          "type": "uint256"
        }
      ],
      "name": "approve",
      "outputs": [],
      "stateMutability": "nonpayable",
      "type": "function"
    },
    {
      "inputs": [
        {
          "internalType": "address",
          "name": "owner",
          "type": "address"
        }
      ],
      "name": "balanceOf",
      "outputs": [
        {
          "internalType": "uint256",
          "name": "",
          "type": "uint256"
        }
      ],
      "stateMutability": "view",
      "type": "function"
    },
    {
      "inputs": [
        {
          "internalType": "address",
          "name": "to",
          "type": "address"
        },
        {
          "internalType": "uint256",
          "name": "amount",
          "type": "uint256"
        }
      ],
      "name": "claimPrize",
      "outputs": [],
      "stateMutability": "nonpayable",
      "type": "function"
    },
    {
      "inputs": [
        {
          "internalType": "uint256",
          "name": "tokenId",
          "type": "uint256"
        }
      ],
      "name": "getApproved",
      "outputs": [
        {
          "internalType": "address",
          "name": "",
          "type": "address"
        }
      ],
      "stateMutability": "view",
      "type": "function"
    },
    {
      "inputs": [
        {
          "internalType": "enum VerticalProjectNFT.Rarity",
          "name": "rarity",
          "type": "uint8"
        }
      ],
      "name": "getPrizeAmount",
      "outputs": [
        {
          "internalType": "uint256",
          "name": "",
          "type": "uint256"
        }
      ],
      "stateMutability": "view",
      "type": "function"
    },
    {
      "inputs": [],
      "name": "getPrizePoolBalance",
      "outputs": [
        {
          "internalType": "uint256",
          "name": "",
          "type": "uint256"
        }
      ],
      "stateMutability": "view",
      "type": "function"
    },
    {
      "inputs": [],
      "name": "getTotalMinted",
      "outputs": [
        {
          "internalType": "uint256",
          "name": "",
          "type": "uint256"
        }
      ],
      "stateMutability": "view",
      "type": "function"
    },
    {
      "inputs": [
        {
          "internalType": "address",
          "name": "owner",
          "type": "address"
        },
        {
          "internalType": "address",
          "name": "operator",
          "type": "address"
        }
      ],
      "name": "isApprovedForAll",
      "outputs": [
        {
          "internalType": "bool",
          "name": "",
          "type": "bool"
        }
      ],
      "stateMutability": "view",
      "type": "function"
    },
    {
      "inputs": [
        {
          "internalType": "address",
          "name": "newContract",
          "type": "address"
        },
        {
          "internalType": "uint256",
          "name": "amount",
          "type": "uint256"
        }
      ],
      "name": "migratePrizePool",
      "outputs": [],
      "stateMutability": "nonpayable",
      "type": "function"
    },
    {
      "inputs": [
        {
          "internalType": "string",
          "name": "tokenURI",
          "type": "string"
        }
      ],
      "name": "mintWithVert",
      "outputs": [],
      "stateMutability": "nonpayable",
      "type": "function"
    },
    {
      "inputs": [
        {
          "internalType": "string",
          "name": "tokenURI",
          "type": "string"
        }
      ],
      "name": "mintWithVirtual",
      "outputs": [],
      "stateMutability": "nonpayable",
      "type": "function"
    },
    {
      "inputs": [],
      "name": "name",
      "outputs": [
        {
          "internalType": "string",
          "name": "",
          "type": "string"
        }
      ],
      "stateMutability": "view",
      "type": "function"
    },
    {
      "inputs": [],
      "name": "nextTokenId",
      "outputs": [
        {
          "internalType": "uint256",
          "name": "",
          "type": "uint256"
        }
      ],
      "stateMutability": "view",
      "type": "function"
    },
    {
      "inputs": [],
      "name": "owner",
      "outputs": [
        {
          "internalType": "address",
          "name": "",
          "type": "address"
        }
      ],
      "stateMutability": "view",
      "type": "function"
    },
    {
      "inputs": [
        {
          "internalType": "uint256",
          "name": "tokenId",
          "type": "uint256"
        }
      ],
      "name": "ownerOf",
      "outputs": [
        {
          "internalType": "address",
          "name": "",
          "type": "address"
        }
      ],
      "stateMutability": "view",
      "type": "function"
    },
    {
      "inputs": [],
      "name": "pause",
      "outputs": [],
      "stateMutability": "nonpayable",
      "type": "function"
    },
    {
      "inputs": [],
      "name": "paused",
      "outputs": [
        {
          "internalType": "bool",
          "name": "",
          "type": "bool"
        }
      ],
      "stateMutability": "view",
      "type": "function"
    },
    {
      "inputs": [],
      "name": "priceVert",
      "outputs": [
        {
          "internalType": "uint256",
          "name": "",
          "type": "uint256"
        }
      ],
      "stateMutability": "view",
      "type": "function"
    },
    {
      "inputs": [],
      "name": "priceVirtual",
      "outputs": [
        {
          "internalType": "uint256",
          "name": "",
          "type": "uint256"
        }
      ],
      "stateMutability": "view",
      "type": "function"
    },
    {
      "inputs": [
        {
          "internalType": "enum VerticalProjectNFT.Rarity",
          "name": "",
          "type": "uint8"
        }
      ],
      "name": "prizePercentByRarity",
      "outputs": [
        {
          "internalType": "uint256",
          "name": "",
          "type": "uint256"
        }
      ],
      "stateMutability": "view",
      "type": "function"
    },
    {
      "inputs": [],
      "name": "prizePool",
      "outputs": [
        {
          "internalType": "uint256",
          "name": "",
          "type": "uint256"
        }
      ],
      "stateMutability": "view",
      "type": "function"
    },
    {
      "inputs": [],
      "name": "renounceOwnership",
      "outputs": [],
      "stateMutability": "nonpayable",
      "type": "function"
    },
    {
      "inputs": [
        {
          "internalType": "uint256",
          "name": "",
          "type": "uint256"
        },
        {
          "internalType": "uint256",
          "name": "salePrice",
          "type": "uint256"
        }
      ],
      "name": "royaltyInfo",
      "outputs": [
        {
          "internalType": "address",
          "name": "",
          "type": "address"
        },
        {
          "internalType": "uint256",
          "name": "",
          "type": "uint256"
        }
      ],
      "stateMutability": "view",
      "type": "function"
    },
    {
      "inputs": [
        {
          "internalType": "address",
          "name": "from",
          "type": "address"
        },
        {
          "internalType": "address",
          "name": "to",
          "type": "address"
        },
        {
          "internalType": "uint256",
          "name": "tokenId",
          "type": "uint256"
        }
      ],
      "name": "safeTransferFrom",
      "outputs": [],
      "stateMutability": "nonpayable",
      "type": "function"
    },
    {
      "inputs": [
        {
          "internalType": "address",
          "name": "from",
          "type": "address"
        },
        {
          "internalType": "address",
          "name": "to",
          "type": "address"
        },
        {
          "internalType": "uint256",
          "name": "tokenId",
          "type": "uint256"
        },
        {
          "internalType": "bytes",
          "name": "data",
          "type": "bytes"
        }
      ],
      "name": "safeTransferFrom",
      "outputs": [],
      "stateMutability": "nonpayable",
      "type": "function"
    },
    {
      "inputs": [
        {
          "internalType": "address",
          "name": "operator",
          "type": "address"
        },
        {
          "internalType": "bool",
          "name": "approved",
          "type": "bool"
        }
      ],
      "name": "setApprovalForAll",
      "outputs": [],
      "stateMutability": "nonpayable",
      "type": "function"
    },
    {
      "inputs": [
        {
          "internalType": "uint256",
          "name": "newVirtualPrice",
          "type": "uint256"
        },
        {
          "internalType": "uint256",
          "name": "newVertPrice",
          "type": "uint256"
        }
      ],
      "name": "setPrices",
      "outputs": [],
      "stateMutability": "nonpayable",
      "type": "function"
    },
    {
      "inputs": [
        {
          "internalType": "enum VerticalProjectNFT.Rarity",
          "name": "rarity",
          "type": "uint8"
        },
        {
          "internalType": "uint256",
          "name": "percent",
          "type": "uint256"
        }
      ],
      "name": "setPrizePercent",
      "outputs": [],
      "stateMutability": "nonpayable",
      "type": "function"
    },
    {
      "inputs": [
        {
          "internalType": "uint256",
          "name": "tokenId",
          "type": "uint256"
        },
        {
          "internalType": "string",
          "name": "_tokenURI",
          "type": "string"
        }
      ],
      "name": "setTokenURI",
      "outputs": [],
      "stateMutability": "nonpayable",
      "type": "function"
    },
    {
      "inputs": [
        {
          "internalType": "address",
          "name": "addr",
          "type": "address"
        }
      ],
      "name": "setTreasury",
      "outputs": [],
      "stateMutability": "nonpayable",
      "type": "function"
    },
    {
      "inputs": [
        {
          "internalType": "address",
          "name": "_vertToken",
          "type": "address"
        }
      ],
      "name": "setVertToken",
      "outputs": [],
      "stateMutability": "nonpayable",
      "type": "function"
    },
    {
      "inputs": [
        {
          "internalType": "address",
          "name": "_virtualToken",
          "type": "address"
        }
      ],
      "name": "setVirtualToken",
      "outputs": [],
      "stateMutability": "nonpayable",
      "type": "function"
    },
    {
      "inputs": [
        {
          "internalType": "bytes4",
          "name": "interfaceId",
          "type": "bytes4"
        }
      ],
      "name": "supportsInterface",
      "outputs": [
        {
          "internalType": "bool",
          "name": "",
          "type": "bool"
        }
      ],
      "stateMutability": "view",
      "type": "function"
    },
    {
      "inputs": [],
      "name": "symbol",
      "outputs": [
        {
          "internalType": "string",
          "name": "",
          "type": "string"
        }
      ],
      "stateMutability": "view",
      "type": "function"
    },
    {
      "inputs": [
        {
          "internalType": "uint256",
          "name": "",
          "type": "uint256"
        }
      ],
      "name": "tokenRarity",
      "outputs": [
        {
          "internalType": "enum VerticalProjectNFT.Rarity",
          "name": "",
          "type": "uint8"
        }
      ],
      "stateMutability": "view",
      "type": "function"
    },
    {
      "inputs": [
        {
          "internalType": "uint256",
          "name": "tokenId",
          "type": "uint256"
        }
      ],
      "name": "tokenURI",
      "outputs": [
        {
          "internalType": "string",
          "name": "",
          "type": "string"
        }
      ],
      "stateMutability": "view",
      "type": "function"
    },
    {
      "inputs": [
        {
          "internalType": "address",
          "name": "from",
          "type": "address"
        },
        {
          "internalType": "address",
          "name": "to",
          "type": "address"
        },
        {
          "internalType": "uint256",
          "name": "tokenId",
          "type": "uint256"
        }
      ],
      "name": "transferFrom",
      "outputs": [],
      "stateMutability": "nonpayable",
      "type": "function"
    },
    {
      "inputs": [
        {
          "internalType": "address",
          "name": "newOwner",
          "type": "address"
        }
      ],
      "name": "transferOwnership",
      "outputs": [],
      "stateMutability": "nonpayable",
      "type": "function"
    },
    {
      "inputs": [],
      "name": "treasury",
      "outputs": [
        {
          "internalType": "address",
          "name": "",
          "type": "address"
        }
      ],
      "stateMutability": "view",
      "type": "function"
    },
    {
      "inputs": [],
      "name": "unpause",
      "outputs": [],
      "stateMutability": "nonpayable",
      "type": "function"
    },
    {
      "inputs": [],
      "name": "vertToken",
      "outputs": [
        {
          "internalType": "contract IERC20",
          "name": "",
          "type": "address"
        }
      ],
      "stateMutability": "view",
      "type": "function"
    },
    {
      "inputs": [],
      "name": "virtualToken",
      "outputs": [
        {
          "internalType": "contract IERC20",
          "name": "",
          "type": "address"
        }
      ],
      "stateMutability": "view",
      "type": "function"
    }
  ],
  "bytecode": "0x60806040526722b1c8c1227a00006009556714d1120d7b160000600a5534801561002857600080fd5b50604051616158380380616158833981810160405281019061004a919061055f565b6040518060400160405280601081526020017f566572746963616c2050726f6a656374000000000000000000000000000000008152506040518060400160405280600781526020017f564552544e46540000000000000000000000000000000000000000000000000081525081600090816100c59190610802565b5080600190816100d59190610802565b5050506100f46100e961042e60201b60201c565b61043660201b60201c565b6000600760146101000a81548160ff0219169083151502179055506001600881905550600073ffffffffffffffffffffffffffffffffffffffff168373ffffffffffffffffffffffffffffffffffffffff1603610186576040517f08c379a000000000000000000000000000000000000000000000000000000000815260040161017d90610957565b60405180910390fd5b600073ffffffffffffffffffffffffffffffffffffffff168273ffffffffffffffffffffffffffffffffffffffff16036101f5576040517f08c379a00000000000000000000000000000000000000000000000000000000081526004016101ec906109e9565b60405180910390fd5b600073ffffffffffffffffffffffffffffffffffffffff168173ffffffffffffffffffffffffffffffffffffffff1603610264576040517f08c379a000000000000000000000000000000000000000000000000000000000815260040161025b90610a55565b60405180910390fd5b82600e60006101000a81548173ffffffffffffffffffffffffffffffffffffffff021916908373ffffffffffffffffffffffffffffffffffffffff16021790555081600d60006101000a81548173ffffffffffffffffffffffffffffffffffffffff021916908373ffffffffffffffffffffffffffffffffffffffff16021790555080600f60006101000a81548173ffffffffffffffffffffffffffffffffffffffff021916908373ffffffffffffffffffffffffffffffffffffffff1602179055506001600b819055506003601160006001600481111561034957610348610a75565b5b600481111561035b5761035a610a75565b5b8152602001908152602001600020819055506007601160006002600481111561038757610386610a75565b5b600481111561039957610398610a75565b5b815260200190815260200160002081905550600f60116000600360048111156103c5576103c4610a75565b5b60048111156103d7576103d6610a75565b5b81526020019081526020016000208190555060286011600060048081111561040257610401610a75565b5b600481111561041457610413610a75565b5b815260200190815260200160002081905550505050610aa4565b600033905090565b6000600760009054906101000a900473ffffffffffffffffffffffffffffffffffffffff16905081600760006101000a81548173ffffffffffffffffffffffffffffffffffffffff021916908373ffffffffffffffffffffffffffffffffffffffff1602179055508173ffffffffffffffffffffffffffffffffffffffff168173ffffffffffffffffffffffffffffffffffffffff167f8be0079c531659141344cd1fd0a4f28419497f9722a3daafe3b4186f6b6457e060405160405180910390a35050565b600080fd5b600073ffffffffffffffffffffffffffffffffffffffff82169050919050565b600061052c82610501565b9050919050565b61053c81610521565b811461054757600080fd5b50565b60008151905061055981610533565b92915050565b600080600060608486031215610578576105776104fc565b5b60006105868682870161054a565b93505060206105978682870161054a565b92505060406105a88682870161054a565b9150509250925092565b600081519050919050565b7f4e487b7100000000000000000000000000000000000000000000000000000000600052604160045260246000fd5b7f4e487b7100000000000000000000000000000000000000000000000000000000600052602260045260246000fd5b6000600282049050600182168061063357607f821691505b602082108103610646576106456105ec565b5b50919050565b60008190508160005260206000209050919050565b60006020601f8301049050919050565b600082821b905092915050565b6000600883026106ae7fffffffffffffffffffffffffffffffffffffffffffffffffffffffffffffffff82610671565b6106b88683610671565b95508019841693508086168417925050509392505050565b6000819050919050565b6000819050919050565b60006106ff6106fa6106f5846106d0565b6106da565b6106d0565b9050919050565b6000819050919050565b610719836106e4565b61072d61072582610706565b84845461067e565b825550505050565b600090565b610742610735565b61074d818484610710565b505050565b5b818110156107715761076660008261073a565b600181019050610753565b5050565b601f8211156107b6576107878161064c565b61079084610661565b8101602085101561079f578190505b6107b36107ab85610661565b830182610752565b50505b505050565b600082821c905092915050565b60006107d9600019846008026107bb565b1980831691505092915050565b60006107f283836107c8565b9150826002028217905092915050565b61080b826105b2565b67ffffffffffffffff811115610824576108236105bd565b5b61082e825461061b565b610839828285610775565b600060209050601f83116001811461086c576000841561085a578287015190505b61086485826107e6565b8655506108cc565b601f19841661087a8661064c565b60005b828110156108a25784890151825560018201915060208501945060208101905061087d565b868310156108bf57848901516108bb601f8916826107c8565b8355505b6001600288020188555050505b505050505050565b600082825260208201905092915050565b7f5669727475616c20746f6b656e2063616e6e6f74206265207a65726f2061646460008201527f7265737300000000000000000000000000000000000000000000000000000000602082015250565b60006109416024836108d4565b915061094c826108e5565b604082019050919050565b6000602082019050818103600083015261097081610934565b9050919050565b7f5645525420746f6b656e2063616e6e6f74206265207a65726f2061646472657360008201527f7300000000000000000000000000000000000000000000000000000000000000602082015250565b60006109d36021836108d4565b91506109de82610977565b604082019050919050565b60006020820190508181036000830152610a02816109c6565b9050919050565b7f54726561737572792063616e6e6f74206265207a65726f206164647265737300600082015250565b6000610a3f601f836108d4565b9150610a4a82610a09565b602082019050919050565b60006020820190508181036000830152610a6e81610a32565b9050919050565b7f4e487b7100000000000000000000000000000000000000000000000000000000600052602160045260246000fd5b6156a580610ab36000396000f3fe608060405234801561001057600080fd5b50600436106102745760003560e01c8063689a0bd611610151578063afb0a369116100c3578063d7149aab11610087578063d7149aab1461073a578063e985e9c514610756578063f0f4426014610786578063f24f069d146107a2578063f2fde38b146107c0578063f42bdd0e146107dc57610274565b8063afb0a36914610684578063b2da2715146106b4578063b88d4fde146106d0578063b8fa4366146106ec578063c87b56dd1461070a57610274565b806375794a3c1161011557806375794a3c146105e85780638456cb59146106065780638da5cb5b1461061057806395d89b411461062e578063a22cb4651461064c578063ace79f4f1461066857610274565b8063689a0bd6146105565780636d06843a1461057457806370a0823114610590578063715018a6146105c0578063719ce73e146105ca57610274565b80632a55205a116101ea57806344884348116101ae578063448843481461048057806344ee8b3d1461049c578063480628ae146104cc5780635c975abb146104ea57806361d027b3146105085780636352211e1461052657610274565b80632a55205a146103db5780633486c2d71461040c5780633f4ba83a1461043c57806342842e0e14610446578063436be3721461046257610274565b80630ca1c5c91161023c5780630ca1c5c91461032f578063162094c41461034d578063186ba25314610369578063194a5fc9146103855780631f514c52146103a157806323b872dd146103bf57610274565b806301ffc9a71461027957806305fefda7146102a957806306fdde03146102c5578063081812fc146102e3578063095ea7b314610313575b600080fd5b610293600480360381019061028e91906136a9565b6107f8565b6040516102a091906136f1565b60405180910390f35b6102c360048036038101906102be9190613742565b610872565b005b6102cd6108c5565b6040516102da9190613812565b60405180910390f35b6102fd60048036038101906102f89190613834565b610957565b60405161030a91906138a2565b60405180910390f35b61032d600480360381019061032891906138e9565b61099d565b005b610337610ab4565b6040516103449190613938565b60405180910390f35b61036760048036038101906103629190613a88565b610aca565b005b610383600480360381019061037e9190613834565b610ae0565b005b61039f600480360381019061039a9190613b09565b610c1e565b005b6103a9610ce3565b6040516103b69190613ba8565b60405180910390f35b6103d960048036038101906103d49190613bc3565b610d09565b005b6103f560048036038101906103f09190613742565b610d69565b604051610403929190613c16565b60405180910390f35b61042660048036038101906104219190613c3f565b610dc3565b6040516104339190613938565b60405180910390f35b610444610dd8565b005b610460600480360381019061045b9190613bc3565b610dea565b005b61046a610e0a565b6040516104779190613c93565b60405180910390f35b61049a60048036038101906104959190613cae565b610e10565b005b6104b660048036038101906104b19190613c3f565b6110fc565b6040516104c39190613938565b60405180910390f35b6104d4611114565b6040516104e19190613ba8565b60405180910390f35b6104f261113a565b6040516104ff91906136f1565b60405180910390f35b610510611151565b60405161051d91906138a2565b60405180910390f35b610540600480360381019061053b9190613834565b611177565b60405161054d91906138a2565b60405180910390f35b61055e6111fd565b60405161056b9190613938565b60405180910390f35b61058e600480360381019061058991906138e9565b611203565b005b6105aa60048036038101906105a59190613cf7565b6113f4565b6040516105b79190613938565b60405180910390f35b6105c86114ab565b005b6105d26114bf565b6040516105df9190613938565b60405180910390f35b6105f06114c5565b6040516105fd9190613938565b60405180910390f35b61060e6114cb565b005b6106186114dd565b60405161062591906138a2565b60405180910390f35b610636611507565b6040516106439190613812565b60405180910390f35b61066660048036038101906106619190613d50565b611599565b005b610682600480360381019061067d91906138e9565b6115af565b005b61069e60048036038101906106999190613834565b611746565b6040516106ab9190613e07565b60405180910390f35b6106ce60048036038101906106c99190613cae565b611766565b005b6106ea60048036038101906106e59190613ec3565b61190e565b005b6106f4611970565b6040516107019190613938565b60405180910390f35b610724600480360381019061071f9190613834565b611976565b6040516107319190613812565b60405180910390f35b610754600480360381019061074f9190613cf7565b611a88565b005b610770600480360381019061076b9190613f46565b611b7a565b60405161077d91906136f1565b60405180910390f35b6107a0600480360381019061079b9190613cf7565b611c0e565b005b6107aa611d00565b6040516107b79190613938565b60405180910390f35b6107da60048036038101906107d59190613cf7565b611d0a565b005b6107f660048036038101906107f19190613cf7565b611d8d565b005b60007f2a55205a000000000000000000000000000000000000000000000000000000007bffffffffffffffffffffffffffffffffffffffffffffffffffffffff1916827bffffffffffffffffffffffffffffffffffffffffffffffffffffffff1916148061086b575061086a82611e7f565b5b9050919050565b61087a611ee0565b8160098190555080600a819055507f6546f60f34df611fa42503098acc39d5ab88bc73febe64b3cc14e5a92e3a66a782826040516108b9929190613f86565b60405180910390a15050565b6060600080546108d490613fde565b80601f016020809104026020016040519081016040528092919081815260200182805461090090613fde565b801561094d5780601f106109225761010080835404028352916020019161094d565b820191906000526020600020905b81548152906001019060200180831161093057829003601f168201915b5050505050905090565b600061096282611f5e565b6004600083815260200190815260200160002060009054906101000a900473ffffffffffffffffffffffffffffffffffffffff169050919050565b60006109a882611177565b90508073ffffffffffffffffffffffffffffffffffffffff168373ffffffffffffffffffffffffffffffffffffffff1603610a18576040517f08c379a0000000000000000000000000000000000000000000000000000000008152600401610a0f90614081565b60405180910390fd5b8073ffffffffffffffffffffffffffffffffffffffff16610a37611fa9565b73ffffffffffffffffffffffffffffffffffffffff161480610a665750610a6581610a60611fa9565b611b7a565b5b610aa5576040517f08c379a0000000000000000000000000000000000000000000000000000000008152600401610a9c90614113565b60405180910390fd5b610aaf8383611fb1565b505050565b60006001600b54610ac59190614162565b905090565b610ad2611ee0565b610adc828261206a565b5050565b610ae8611ee0565b600d60009054906101000a900473ffffffffffffffffffffffffffffffffffffffff1673ffffffffffffffffffffffffffffffffffffffff166323b872dd3330846040518463ffffffff1660e01b8152600401610b4793929190614196565b6020604051808303816000875af1158015610b66573d6000803e3d6000fd5b505050506040513d601f19601f82011682018060405250810190610b8a91906141e2565b610bc9576040517f08c379a0000000000000000000000000000000000000000000000000000000008152600401610bc09061425b565b60405180910390fd5b80600c6000828254610bdb919061427b565b925050819055507f7bc22304ac771f50d6cc29b56387cb4855f284e7a1f83e6420fe9b8bbdaf45c9600c54604051610c139190613938565b60405180910390a150565b610c26611ee0565b6064811115610c6a576040517f08c379a0000000000000000000000000000000000000000000000000000000008152600401610c61906142fb565b60405180910390fd5b8060116000846004811115610c8257610c81613d90565b5b6004811115610c9457610c93613d90565b5b8152602001908152602001600020819055507fa74628ab88e39c22615acb79128db8683fe215f003fa969bd6b3232eba537a668282604051610cd792919061431b565b60405180910390a15050565b600e60009054906101000a900473ffffffffffffffffffffffffffffffffffffffff1681565b610d1a610d14611fa9565b8261210e565b610d59576040517f08c379a0000000000000000000000000000000000000000000000000000000008152600401610d50906143b6565b60405180910390fd5b610d648383836121a3565b505050565b600080600f60009054906101000a900473ffffffffffffffffffffffffffffffffffffffff166127106101f46bffffffffffffffffffffffff1685610dae91906143d6565b610db89190614447565b915091509250929050565b6000610dd182600c5461249c565b9050919050565b610de0611ee0565b610de86124fa565b565b610e058383836040518060200160405280600081525061190e565b505050565b6101f481565b610e1861255d565b610e206125a7565b6000600d60009054906101000a900473ffffffffffffffffffffffffffffffffffffffff1690506000600a549050600073ffffffffffffffffffffffffffffffffffffffff168273ffffffffffffffffffffffffffffffffffffffff1603610ebd576040517f08c379a0000000000000000000000000000000000000000000000000000000008152600401610eb4906144c4565b60405180910390fd5b8173ffffffffffffffffffffffffffffffffffffffff166323b872dd3330846040518463ffffffff1660e01b8152600401610efa93929190614196565b6020604051808303816000875af1158015610f19573d6000803e3d6000fd5b505050506040513d601f19601f82011682018060405250810190610f3d91906141e2565b610f7c576040517f08c379a0000000000000000000000000000000000000000000000000000000008152600401610f7390614530565b60405180910390fd5b6000600c54905060006064601984610f9491906143d6565b610f9e9190614447565b905060008184610fae9190614162565b90508473ffffffffffffffffffffffffffffffffffffffff1663a9059cbb600f60009054906101000a900473ffffffffffffffffffffffffffffffffffffffff16846040518363ffffffff1660e01b815260040161100d929190613c16565b6020604051808303816000875af115801561102c573d6000803e3d6000fd5b505050506040513d601f19601f8201168201806040525081019061105091906141e2565b61108f576040517f08c379a00000000000000000000000000000000000000000000000000000000081526004016110869061459c565b60405180910390fd5b80600c60008282546110a1919061427b565b925050819055506110b33387856125f6565b7f7bc22304ac771f50d6cc29b56387cb4855f284e7a1f83e6420fe9b8bbdaf45c9600c546040516110e49190613938565b60405180910390a150505050506110f961299b565b50565b60116020528060005260406000206000915090505481565b600d60009054906101000a900473ffffffffffffffffffffffffffffffffffffffff1681565b6000600760149054906101000a900460ff16905090565b600f60009054906101000a900473ffffffffffffffffffffffffffffffffffffffff1681565b600080611183836129a5565b9050600073ffffffffffffffffffffffffffffffffffffffff168173ffffffffffffffffffffffffffffffffffffffff16036111f4576040517f08c379a00000000000000000000000000000000000000000000000000000000081526004016111eb90614608565b60405180910390fd5b80915050919050565b60095481565b61120b611ee0565b600c54811115611250576040517f08c379a000000000000000000000000000000000000000000000000000000000815260040161124790614674565b60405180910390fd5b600073ffffffffffffffffffffffffffffffffffffffff168273ffffffffffffffffffffffffffffffffffffffff16036112bf576040517f08c379a00000000000000000000000000000000000000000000000000000000081526004016112b6906146e0565b60405180910390fd5b80600c60008282546112d19190614162565b92505081905550600d60009054906101000a900473ffffffffffffffffffffffffffffffffffffffff1673ffffffffffffffffffffffffffffffffffffffff1663a9059cbb83836040518363ffffffff1660e01b8152600401611335929190613c16565b6020604051808303816000875af1158015611354573d6000803e3d6000fd5b505050506040513d601f19601f8201168201806040525081019061137891906141e2565b6113b7576040517f08c379a00000000000000000000000000000000000000000000000000000000081526004016113ae9061474c565b60405180910390fd5b7f7bc22304ac771f50d6cc29b56387cb4855f284e7a1f83e6420fe9b8bbdaf45c9600c546040516113e89190613938565b60405180910390a15050565b60008073ffffffffffffffffffffffffffffffffffffffff168273ffffffffffffffffffffffffffffffffffffffff1603611464576040517f08c379a000000000000000000000000000000000000000000000000000000000815260040161145b906147de565b60405180910390fd5b600360008373ffffffffffffffffffffffffffffffffffffffff1673ffffffffffffffffffffffffffffffffffffffff168152602001908152602001600020549050919050565b6114b3611ee0565b6114bd60006129e2565b565b600c5481565b600b5481565b6114d3611ee0565b6114db612aa8565b565b6000600760009054906101000a900473ffffffffffffffffffffffffffffffffffffffff16905090565b60606001805461151690613fde565b80601f016020809104026020016040519081016040528092919081815260200182805461154290613fde565b801561158f5780601f106115645761010080835404028352916020019161158f565b820191906000526020600020905b81548152906001019060200180831161157257829003601f168201915b5050505050905090565b6115ab6115a4611fa9565b8383612b0b565b5050565b6115b7611ee0565b600c548111156115fc576040517f08c379a00000000000000000000000000000000000000000000000000000000081526004016115f390614674565b60405180910390fd5b80600c600082825461160e9190614162565b92505081905550600d60009054906101000a900473ffffffffffffffffffffffffffffffffffffffff1673ffffffffffffffffffffffffffffffffffffffff1663a9059cbb83836040518363ffffffff1660e01b8152600401611672929190613c16565b6020604051808303816000875af1158015611691573d6000803e3d6000fd5b505050506040513d601f19601f820116820180604052508101906116b591906141e2565b6116f4576040517f08c379a00000000000000000000000000000000000000000000000000000000081526004016116eb9061484a565b60405180910390fd5b8173ffffffffffffffffffffffffffffffffffffffff167f95681e512bc0fe659e195e06c283eada494316f3d801213e48e7101af92bf7708260405161173a9190613938565b60405180910390a25050565b60106020528060005260406000206000915054906101000a900460ff1681565b61176e61255d565b6117766125a7565b6000600e60009054906101000a900473ffffffffffffffffffffffffffffffffffffffff16905060006009549050600073ffffffffffffffffffffffffffffffffffffffff168273ffffffffffffffffffffffffffffffffffffffff1603611813576040517f08c379a000000000000000000000000000000000000000000000000000000000815260040161180a906148b6565b60405180910390fd5b8173ffffffffffffffffffffffffffffffffffffffff166323b872dd33600f60009054906101000a900473ffffffffffffffffffffffffffffffffffffffff16846040518463ffffffff1660e01b815260040161187293929190614196565b6020604051808303816000875af1158015611891573d6000803e3d6000fd5b505050506040513d601f19601f820116820180604052508101906118b591906141e2565b6118f4576040517f08c379a00000000000000000000000000000000000000000000000000000000081526004016118eb90614922565b60405180910390fd5b6119013384600c546125f6565b505061190b61299b565b50565b61191f611919611fa9565b8361210e565b61195e576040517f08c379a0000000000000000000000000000000000000000000000000000000008152600401611955906143b6565b60405180910390fd5b61196a84848484612c77565b50505050565b600a5481565b606061198182611f5e565b60006006600084815260200190815260200160002080546119a190613fde565b80601f01602080910402602001604051908101604052809291908181526020018280546119cd90613fde565b8015611a1a5780601f106119ef57610100808354040283529160200191611a1a565b820191906000526020600020905b8154815290600101906020018083116119fd57829003601f168201915b505050505090506000611a2b612cd3565b90506000815103611a40578192505050611a83565b600082511115611a75578082604051602001611a5d92919061497e565b60405160208183030381529060405292505050611a83565b611a7e84612cea565b925050505b919050565b611a90611ee0565b600073ffffffffffffffffffffffffffffffffffffffff168173ffffffffffffffffffffffffffffffffffffffff1603611aff576040517f08c379a0000000000000000000000000000000000000000000000000000000008152600401611af690614a14565b60405180910390fd5b80600e60006101000a81548173ffffffffffffffffffffffffffffffffffffffff021916908373ffffffffffffffffffffffffffffffffffffffff1602179055507f642efe757f7c097df2555d74532321ce38535b3921193c8777a267303689883b81604051611b6f91906138a2565b60405180910390a150565b6000600560008473ffffffffffffffffffffffffffffffffffffffff1673ffffffffffffffffffffffffffffffffffffffff16815260200190815260200160002060008373ffffffffffffffffffffffffffffffffffffffff1673ffffffffffffffffffffffffffffffffffffffff16815260200190815260200160002060009054906101000a900460ff16905092915050565b611c16611ee0565b600073ffffffffffffffffffffffffffffffffffffffff168173ffffffffffffffffffffffffffffffffffffffff1603611c85576040517f08c379a0000000000000000000000000000000000000000000000000000000008152600401611c7c90614a80565b60405180910390fd5b80600f60006101000a81548173ffffffffffffffffffffffffffffffffffffffff021916908373ffffffffffffffffffffffffffffffffffffffff1602179055507f7dae230f18360d76a040c81f050aa14eb9d6dc7901b20fc5d855e2a20fe814d181604051611cf591906138a2565b60405180910390a150565b6000600c54905090565b611d12611ee0565b600073ffffffffffffffffffffffffffffffffffffffff168173ffffffffffffffffffffffffffffffffffffffff1603611d81576040517f08c379a0000000000000000000000000000000000000000000000000000000008152600401611d7890614b12565b60405180910390fd5b611d8a816129e2565b50565b611d95611ee0565b600073ffffffffffffffffffffffffffffffffffffffff168173ffffffffffffffffffffffffffffffffffffffff1603611e04576040517f08c379a0000000000000000000000000000000000000000000000000000000008152600401611dfb90614ba4565b60405180910390fd5b80600d60006101000a81548173ffffffffffffffffffffffffffffffffffffffff021916908373ffffffffffffffffffffffffffffffffffffffff1602179055507f6e54bd062be2216071d5874d64e175cd202a1df49312b7241043db3ddd25537b81604051611e7491906138a2565b60405180910390a150565b6000634906490660e01b7bffffffffffffffffffffffffffffffffffffffffffffffffffffffff1916827bffffffffffffffffffffffffffffffffffffffffffffffffffffffff19161480611ed95750611ed882612d52565b5b9050919050565b611ee8611fa9565b73ffffffffffffffffffffffffffffffffffffffff16611f066114dd565b73ffffffffffffffffffffffffffffffffffffffff1614611f5c576040517f08c379a0000000000000000000000000000000000000000000000000000000008152600401611f5390614c10565b60405180910390fd5b565b611f6781612e34565b611fa6576040517f08c379a0000000000000000000000000000000000000000000000000000000008152600401611f9d90614608565b60405180910390fd5b50565b600033905090565b816004600083815260200190815260200160002060006101000a81548173ffffffffffffffffffffffffffffffffffffffff021916908373ffffffffffffffffffffffffffffffffffffffff160217905550808273ffffffffffffffffffffffffffffffffffffffff1661202483611177565b73ffffffffffffffffffffffffffffffffffffffff167f8c5be1e5ebec7d5bd14f71427d1e84f3dd0314c0f7b2291e5b200ac8c7c3b92560405160405180910390a45050565b61207382612e34565b6120b2576040517f08c379a00000000000000000000000000000000000000000000000000000000081526004016120a990614ca2565b60405180910390fd5b806006600084815260200190815260200160002090816120d29190614e64565b507ff8e1a15aba9398e019f0b49df1a4fde98ee17ae345cb5f6b5e2c27f5033e8ce7826040516121029190613938565b60405180910390a15050565b60008061211a83611177565b90508073ffffffffffffffffffffffffffffffffffffffff168473ffffffffffffffffffffffffffffffffffffffff16148061215c575061215b8185611b7a565b5b8061219a57508373ffffffffffffffffffffffffffffffffffffffff1661218284610957565b73ffffffffffffffffffffffffffffffffffffffff16145b91505092915050565b8273ffffffffffffffffffffffffffffffffffffffff166121c382611177565b73ffffffffffffffffffffffffffffffffffffffff1614612219576040517f08c379a000000000000000000000000000000000000000000000000000000000815260040161221090614fa8565b60405180910390fd5b600073ffffffffffffffffffffffffffffffffffffffff168273ffffffffffffffffffffffffffffffffffffffff1603612288576040517f08c379a000000000000000000000000000000000000000000000000000000000815260040161227f9061503a565b60405180910390fd5b6122958383836001612e75565b8273ffffffffffffffffffffffffffffffffffffffff166122b582611177565b73ffffffffffffffffffffffffffffffffffffffff161461230b576040517f08c379a000000000000000000000000000000000000000000000000000000000815260040161230290614fa8565b60405180910390fd5b6004600082815260200190815260200160002060006101000a81549073ffffffffffffffffffffffffffffffffffffffff02191690556001600360008573ffffffffffffffffffffffffffffffffffffffff1673ffffffffffffffffffffffffffffffffffffffff168152602001908152602001600020600082825403925050819055506001600360008473ffffffffffffffffffffffffffffffffffffffff1673ffffffffffffffffffffffffffffffffffffffff16815260200190815260200160002060008282540192505081905550816002600083815260200190815260200160002060006101000a81548173ffffffffffffffffffffffffffffffffffffffff021916908373ffffffffffffffffffffffffffffffffffffffff160217905550808273ffffffffffffffffffffffffffffffffffffffff168473ffffffffffffffffffffffffffffffffffffffff167fddf252ad1be2c89b69c2b068fc378daa952ba7f163c4a11628f55a4df523b3ef60405160405180910390a46124978383836001612e7b565b505050565b600080601160008560048111156124b6576124b5613d90565b5b60048111156124c8576124c7613d90565b5b8152602001908152602001600020549050606481846124e791906143d6565b6124f19190614447565b91505092915050565b612502612e81565b6000600760146101000a81548160ff0219169083151502179055507f5db9ee0a495bf2e6ff9c91a7834c1ba4fdd244a5e8aa4e537bd38aeae4b073aa612546611fa9565b60405161255391906138a2565b60405180910390a1565b61256561113a565b156125a5576040517f08c379a000000000000000000000000000000000000000000000000000000000815260040161259c906150a6565b60405180910390fd5b565b6002600854036125ec576040517f08c379a00000000000000000000000000000000000000000000000000000000081526004016125e390615112565b60405180910390fd5b6002600881905550565b6000600b5490506126078482612eca565b612611818461206a565b600061261c82612ee8565b9050806010600084815260200190815260200160002060006101000a81548160ff0219169083600481111561265457612653613d90565b5b02179055506000612665828561249c565b90506000811180156126795750600c548111155b1561292e5760006064605f8361268f91906143d6565b6126999190614447565b9050600081836126a99190614162565b905082600c60008282546126bd9190614162565b92505081905550600d60009054906101000a900473ffffffffffffffffffffffffffffffffffffffff1673ffffffffffffffffffffffffffffffffffffffff1663a9059cbb89846040518363ffffffff1660e01b8152600401612721929190613c16565b6020604051808303816000875af1158015612740573d6000803e3d6000fd5b505050506040513d601f19601f8201168201806040525081019061276491906141e2565b6127a3576040517f08c379a000000000000000000000000000000000000000000000000000000000815260040161279a9061517e565b60405180910390fd5b600d60009054906101000a900473ffffffffffffffffffffffffffffffffffffffff1673ffffffffffffffffffffffffffffffffffffffff1663a9059cbb600f60009054906101000a900473ffffffffffffffffffffffffffffffffffffffff16836040518363ffffffff1660e01b8152600401612822929190613c16565b6020604051808303816000875af1158015612841573d6000803e3d6000fd5b505050506040513d601f19601f8201168201806040525081019061286591906141e2565b6128a4576040517f08c379a000000000000000000000000000000000000000000000000000000000815260040161289b906151ea565b60405180910390fd5b8773ffffffffffffffffffffffffffffffffffffffff167f95681e512bc0fe659e195e06c283eada494316f3d801213e48e7101af92bf770836040516128ea9190613938565b60405180910390a27f7bc22304ac771f50d6cc29b56387cb4855f284e7a1f83e6420fe9b8bbdaf45c9600c546040516129239190613938565b60405180910390a150505b60018361293b919061427b565b600b819055508573ffffffffffffffffffffffffffffffffffffffff167fa08b3bf5b7af36b46fffc856a242e512024f345d8981c820b40ed15e1a7b5cae84848860405161298b9392919061520a565b60405180910390a2505050505050565b6001600881905550565b60006002600083815260200190815260200160002060009054906101000a900473ffffffffffffffffffffffffffffffffffffffff169050919050565b6000600760009054906101000a900473ffffffffffffffffffffffffffffffffffffffff16905081600760006101000a81548173ffffffffffffffffffffffffffffffffffffffff021916908373ffffffffffffffffffffffffffffffffffffffff1602179055508173ffffffffffffffffffffffffffffffffffffffff168173ffffffffffffffffffffffffffffffffffffffff167f8be0079c531659141344cd1fd0a4f28419497f9722a3daafe3b4186f6b6457e060405160405180910390a35050565b612ab061255d565b6001600760146101000a81548160ff0219169083151502179055507f62e78cea01bee320cd4e420270b5ea74000d11b0c9f74754ebdbfc544b05a258612af4611fa9565b604051612b0191906138a2565b60405180910390a1565b8173ffffffffffffffffffffffffffffffffffffffff168373ffffffffffffffffffffffffffffffffffffffff1603612b79576040517f08c379a0000000000000000000000000000000000000000000000000000000008152600401612b7090615294565b60405180910390fd5b80600560008573ffffffffffffffffffffffffffffffffffffffff1673ffffffffffffffffffffffffffffffffffffffff16815260200190815260200160002060008473ffffffffffffffffffffffffffffffffffffffff1673ffffffffffffffffffffffffffffffffffffffff16815260200190815260200160002060006101000a81548160ff0219169083151502179055508173ffffffffffffffffffffffffffffffffffffffff168373ffffffffffffffffffffffffffffffffffffffff167f17307eab39ab6107e8899845ad3d59bd9653f200f220920489ca2b5937696c3183604051612c6a91906136f1565b60405180910390a3505050565b612c828484846121a3565b612c8e84848484612f90565b612ccd576040517f08c379a0000000000000000000000000000000000000000000000000000000008152600401612cc490615326565b60405180910390fd5b50505050565b606060405180602001604052806000815250905090565b6060612cf582611f5e565b6000612cff612cd3565b90506000815111612d1f5760405180602001604052806000815250612d4a565b80612d2984613117565b604051602001612d3a92919061497e565b6040516020818303038152906040525b915050919050565b60007f80ac58cd000000000000000000000000000000000000000000000000000000007bffffffffffffffffffffffffffffffffffffffffffffffffffffffff1916827bffffffffffffffffffffffffffffffffffffffffffffffffffffffff19161480612e1d57507f5b5e139f000000000000000000000000000000000000000000000000000000007bffffffffffffffffffffffffffffffffffffffffffffffffffffffff1916827bffffffffffffffffffffffffffffffffffffffffffffffffffffffff1916145b80612e2d5750612e2c826131e5565b5b9050919050565b60008073ffffffffffffffffffffffffffffffffffffffff16612e56836129a5565b73ffffffffffffffffffffffffffffffffffffffff1614159050919050565b50505050565b50505050565b612e8961113a565b612ec8576040517f08c379a0000000000000000000000000000000000000000000000000000000008152600401612ebf90615392565b60405180910390fd5b565b612ee482826040518060200160405280600081525061324f565b5050565b600080612710600143612efb9190614162565b408433604051602001612f1093929190615446565b6040516020818303038152906040528051906020012060001c612f339190615483565b9050611b58811015612f49576000915050612f8b565b6122ab811015612f5d576001915050612f8b565b612625811015612f71576002915050612f8b565b6126de811015612f85576003915050612f8b565b60049150505b919050565b6000612fb18473ffffffffffffffffffffffffffffffffffffffff166132aa565b1561310a578373ffffffffffffffffffffffffffffffffffffffff1663150b7a02612fda611fa9565b8786866040518563ffffffff1660e01b8152600401612ffc9493929190615509565b6020604051808303816000875af192505050801561303857506040513d601f19601f82011682018060405250810190613035919061556a565b60015b6130ba573d8060008114613068576040519150601f19603f3d011682016040523d82523d6000602084013e61306d565b606091505b5060008151036130b2576040517f08c379a00000000000000000000000000000000000000000000000000000000081526004016130a990615326565b60405180910390fd5b805181602001fd5b63150b7a0260e01b7bffffffffffffffffffffffffffffffffffffffffffffffffffffffff1916817bffffffffffffffffffffffffffffffffffffffffffffffffffffffff19161491505061310f565b600190505b949350505050565b606060006001613126846132cd565b01905060008167ffffffffffffffff8111156131455761314461395d565b5b6040519080825280601f01601f1916602001820160405280156131775781602001600182028036833780820191505090505b509050600082602001820190505b6001156131da578080600190039150507f3031323334353637383961626364656600000000000000000000000000000000600a86061a8153600a85816131ce576131cd614418565b5b04945060008503613185575b819350505050919050565b60007f01ffc9a7000000000000000000000000000000000000000000000000000000007bffffffffffffffffffffffffffffffffffffffffffffffffffffffff1916827bffffffffffffffffffffffffffffffffffffffffffffffffffffffff1916149050919050565b6132598383613420565b6132666000848484612f90565b6132a5576040517f08c379a000000000000000000000000000000000000000000000000000000000815260040161329c90615326565b60405180910390fd5b505050565b6000808273ffffffffffffffffffffffffffffffffffffffff163b119050919050565b600080600090507a184f03e93ff9f4daa797ed6e38ed64bf6a1f010000000000000000831061332b577a184f03e93ff9f4daa797ed6e38ed64bf6a1f010000000000000000838161332157613320614418565b5b0492506040810190505b6d04ee2d6d415b85acef81000000008310613368576d04ee2d6d415b85acef8100000000838161335e5761335d614418565b5b0492506020810190505b662386f26fc10000831061339757662386f26fc10000838161338d5761338c614418565b5b0492506010810190505b6305f5e10083106133c0576305f5e10083816133b6576133b5614418565b5b0492506008810190505b61271083106133e55761271083816133db576133da614418565b5b0492506004810190505b6064831061340857606483816133fe576133fd614418565b5b0492506002810190505b600a8310613417576001810190505b80915050919050565b600073ffffffffffffffffffffffffffffffffffffffff168273ffffffffffffffffffffffffffffffffffffffff160361348f576040517f08c379a0000000000000000000000000000000000000000000000000000000008152600401613486906155e3565b60405180910390fd5b61349881612e34565b156134d8576040517f08c379a00000000000000000000000000000000000000000000000000000000081526004016134cf9061564f565b60405180910390fd5b6134e6600083836001612e75565b6134ef81612e34565b1561352f576040517f08c379a00000000000000000000000000000000000000000000000000000000081526004016135269061564f565b60405180910390fd5b6001600360008473ffffffffffffffffffffffffffffffffffffffff1673ffffffffffffffffffffffffffffffffffffffff16815260200190815260200160002060008282540192505081905550816002600083815260200190815260200160002060006101000a81548173ffffffffffffffffffffffffffffffffffffffff021916908373ffffffffffffffffffffffffffffffffffffffff160217905550808273ffffffffffffffffffffffffffffffffffffffff16600073ffffffffffffffffffffffffffffffffffffffff167fddf252ad1be2c89b69c2b068fc378daa952ba7f163c4a11628f55a4df523b3ef60405160405180910390a4613639600083836001612e7b565b5050565b6000604051905090565b600080fd5b600080fd5b60007fffffffff0000000000000000000000000000000000000000000000000000000082169050919050565b61368681613651565b811461369157600080fd5b50565b6000813590506136a38161367d565b92915050565b6000602082840312156136bf576136be613647565b5b60006136cd84828501613694565b91505092915050565b60008115159050919050565b6136eb816136d6565b82525050565b600060208201905061370660008301846136e2565b92915050565b6000819050919050565b61371f8161370c565b811461372a57600080fd5b50565b60008135905061373c81613716565b92915050565b6000806040838503121561375957613758613647565b5b60006137678582860161372d565b92505060206137788582860161372d565b9150509250929050565b600081519050919050565b600082825260208201905092915050565b60005b838110156137bc5780820151818401526020810190506137a1565b60008484015250505050565b6000601f19601f8301169050919050565b60006137e482613782565b6137ee818561378d565b93506137fe81856020860161379e565b613807816137c8565b840191505092915050565b6000602082019050818103600083015261382c81846137d9565b905092915050565b60006020828403121561384a57613849613647565b5b60006138588482850161372d565b91505092915050565b600073ffffffffffffffffffffffffffffffffffffffff82169050919050565b600061388c82613861565b9050919050565b61389c81613881565b82525050565b60006020820190506138b76000830184613893565b92915050565b6138c681613881565b81146138d157600080fd5b50565b6000813590506138e3816138bd565b92915050565b60008060408385031215613900576138ff613647565b5b600061390e858286016138d4565b925050602061391f8582860161372d565b9150509250929050565b6139328161370c565b82525050565b600060208201905061394d6000830184613929565b92915050565b600080fd5b600080fd5b7f4e487b7100000000000000000000000000000000000000000000000000000000600052604160045260246000fd5b613995826137c8565b810181811067ffffffffffffffff821117156139b4576139b361395d565b5b80604052505050565b60006139c761363d565b90506139d3828261398c565b919050565b600067ffffffffffffffff8211156139f3576139f261395d565b5b6139fc826137c8565b9050602081019050919050565b82818337600083830152505050565b6000613a2b613a26846139d8565b6139bd565b905082815260208101848484011115613a4757613a46613958565b5b613a52848285613a09565b509392505050565b600082601f830112613a6f57613a6e613953565b5b8135613a7f848260208601613a18565b91505092915050565b60008060408385031215613a9f57613a9e613647565b5b6000613aad8582860161372d565b925050602083013567ffffffffffffffff811115613ace57613acd61364c565b5b613ada85828601613a5a565b9150509250929050565b60058110613af157600080fd5b50565b600081359050613b0381613ae4565b92915050565b60008060408385031215613b2057613b1f613647565b5b6000613b2e85828601613af4565b9250506020613b3f8582860161372d565b9150509250929050565b6000819050919050565b6000613b6e613b69613b6484613861565b613b49565b613861565b9050919050565b6000613b8082613b53565b9050919050565b6000613b9282613b75565b9050919050565b613ba281613b87565b82525050565b6000602082019050613bbd6000830184613b99565b92915050565b600080600060608486031215613bdc57613bdb613647565b5b6000613bea868287016138d4565b9350506020613bfb868287016138d4565b9250506040613c0c8682870161372d565b9150509250925092565b6000604082019050613c2b6000830185613893565b613c386020830184613929565b9392505050565b600060208284031215613c5557613c54613647565b5b6000613c6384828501613af4565b91505092915050565b60006bffffffffffffffffffffffff82169050919050565b613c8d81613c6c565b82525050565b6000602082019050613ca86000830184613c84565b92915050565b600060208284031215613cc457613cc3613647565b5b600082013567ffffffffffffffff811115613ce257613ce161364c565b5b613cee84828501613a5a565b91505092915050565b600060208284031215613d0d57613d0c613647565b5b6000613d1b848285016138d4565b91505092915050565b613d2d816136d6565b8114613d3857600080fd5b50565b600081359050613d4a81613d24565b92915050565b60008060408385031215613d6757613d66613647565b5b6000613d75858286016138d4565b9250506020613d8685828601613d3b565b9150509250929050565b7f4e487b7100000000000000000000000000000000000000000000000000000000600052602160045260246000fd5b60058110613dd057613dcf613d90565b5b50565b6000819050613de182613dbf565b919050565b6000613df182613dd3565b9050919050565b613e0181613de6565b82525050565b6000602082019050613e1c6000830184613df8565b92915050565b600067ffffffffffffffff821115613e3d57613e3c61395d565b5b613e46826137c8565b9050602081019050919050565b6000613e66613e6184613e22565b6139bd565b905082815260208101848484011115613e8257613e81613958565b5b613e8d848285613a09565b509392505050565b600082601f830112613eaa57613ea9613953565b5b8135613eba848260208601613e53565b91505092915050565b60008060008060808587031215613edd57613edc613647565b5b6000613eeb878288016138d4565b9450506020613efc878288016138d4565b9350506040613f0d8782880161372d565b925050606085013567ffffffffffffffff811115613f2e57613f2d61364c565b5b613f3a87828801613e95565b91505092959194509250565b60008060408385031215613f5d57613f5c613647565b5b6000613f6b858286016138d4565b9250506020613f7c858286016138d4565b9150509250929050565b6000604082019050613f9b6000830185613929565b613fa86020830184613929565b9392505050565b7f4e487b7100000000000000000000000000000000000000000000000000000000600052602260045260246000fd5b60006002820490506001821680613ff657607f821691505b60208210810361400957614008613faf565b5b50919050565b7f4552433732313a20617070726f76616c20746f2063757272656e74206f776e6560008201527f7200000000000000000000000000000000000000000000000000000000000000602082015250565b600061406b60218361378d565b91506140768261400f565b604082019050919050565b6000602082019050818103600083015261409a8161405e565b9050919050565b7f4552433732313a20617070726f76652063616c6c6572206973206e6f7420746f60008201527f6b656e206f776e6572206f7220617070726f76656420666f7220616c6c000000602082015250565b60006140fd603d8361378d565b9150614108826140a1565b604082019050919050565b6000602082019050818103600083015261412c816140f0565b9050919050565b7f4e487b7100000000000000000000000000000000000000000000000000000000600052601160045260246000fd5b600061416d8261370c565b91506141788361370c565b92508282039050818111156141905761418f614133565b5b92915050565b60006060820190506141ab6000830186613893565b6141b86020830185613893565b6141c56040830184613929565b949350505050565b6000815190506141dc81613d24565b92915050565b6000602082840312156141f8576141f7613647565b5b6000614206848285016141cd565b91505092915050565b7f5472616e73666572206661696c65640000000000000000000000000000000000600082015250565b6000614245600f8361378d565b91506142508261420f565b602082019050919050565b6000602082019050818103600083015261427481614238565b9050919050565b60006142868261370c565b91506142918361370c565b92508282019050808211156142a9576142a8614133565b5b92915050565b7f546f6f2068696768000000000000000000000000000000000000000000000000600082015250565b60006142e560088361378d565b91506142f0826142af565b602082019050919050565b60006020820190508181036000830152614314816142d8565b9050919050565b60006040820190506143306000830185613df8565b61433d6020830184613929565b9392505050565b7f4552433732313a2063616c6c6572206973206e6f7420746f6b656e206f776e6560008201527f72206f7220617070726f76656400000000000000000000000000000000000000602082015250565b60006143a0602d8361378d565b91506143ab82614344565b604082019050919050565b600060208201905081810360008301526143cf81614393565b9050919050565b60006143e18261370c565b91506143ec8361370c565b92508282026143fa8161370c565b9150828204841483151761441157614410614133565b5b5092915050565b7f4e487b7100000000000000000000000000000000000000000000000000000000600052601260045260246000fd5b60006144528261370c565b915061445d8361370c565b92508261446d5761446c614418565b5b828204905092915050565b7f5645525420746f6b656e206e6f74207365740000000000000000000000000000600082015250565b60006144ae60128361378d565b91506144b982614478565b602082019050919050565b600060208201905081810360008301526144dd816144a1565b9050919050565b7f56455254207061796d656e74206661696c656400000000000000000000000000600082015250565b600061451a60138361378d565b9150614525826144e4565b602082019050919050565b600060208201905081810360008301526145498161450d565b9050919050565b7f5472656173757279207472616e73666572206661696c65640000000000000000600082015250565b600061458660188361378d565b915061459182614550565b602082019050919050565b600060208201905081810360008301526145b581614579565b9050919050565b7f4552433732313a20696e76616c696420746f6b656e2049440000000000000000600082015250565b60006145f260188361378d565b91506145fd826145bc565b602082019050919050565b60006020820190508181036000830152614621816145e5565b9050919050565b7f496e73756666696369656e74207072697a6520706f6f6c000000000000000000600082015250565b600061465e60178361378d565b915061466982614628565b602082019050919050565b6000602082019050818103600083015261468d81614651565b9050919050565b7f496e76616c696420636f6e747261637420616464726573730000000000000000600082015250565b60006146ca60188361378d565b91506146d582614694565b602082019050919050565b600060208201905081810360008301526146f9816146bd565b9050919050565b7f4d6967726174696f6e207472616e73666572206661696c656400000000000000600082015250565b600061473660198361378d565b915061474182614700565b602082019050919050565b6000602082019050818103600083015261476581614729565b9050919050565b7f4552433732313a2061646472657373207a65726f206973206e6f74206120766160008201527f6c6964206f776e65720000000000000000000000000000000000000000000000602082015250565b60006147c860298361378d565b91506147d38261476c565b604082019050919050565b600060208201905081810360008301526147f7816147bb565b9050919050565b7f5072697a65207472616e73666572206661696c65640000000000000000000000600082015250565b600061483460158361378d565b915061483f826147fe565b602082019050919050565b6000602082019050818103600083015261486381614827565b9050919050565b7f5669727475616c20746f6b656e206e6f74207365740000000000000000000000600082015250565b60006148a060158361378d565b91506148ab8261486a565b602082019050919050565b600060208201905081810360008301526148cf81614893565b9050919050565b7f5649525455414c207061796d656e74206661696c656400000000000000000000600082015250565b600061490c60168361378d565b9150614917826148d6565b602082019050919050565b6000602082019050818103600083015261493b816148ff565b9050919050565b600081905092915050565b600061495882613782565b6149628185614942565b935061497281856020860161379e565b80840191505092915050565b600061498a828561494d565b9150614996828461494d565b91508190509392505050565b7f5669727475616c20746f6b656e2063616e6e6f74206265207a65726f2061646460008201527f7265737300000000000000000000000000000000000000000000000000000000602082015250565b60006149fe60248361378d565b9150614a09826149a2565b604082019050919050565b60006020820190508181036000830152614a2d816149f1565b9050919050565b7f54726561737572792063616e6e6f74206265207a65726f206164647265737300600082015250565b6000614a6a601f8361378d565b9150614a7582614a34565b602082019050919050565b60006020820190508181036000830152614a9981614a5d565b9050919050565b7f4f776e61626c653a206e6577206f776e657220697320746865207a65726f206160008201527f6464726573730000000000000000000000000000000000000000000000000000602082015250565b6000614afc60268361378d565b9150614b0782614aa0565b604082019050919050565b60006020820190508181036000830152614b2b81614aef565b9050919050565b7f5645525420746f6b656e2063616e6e6f74206265207a65726f2061646472657360008201527f7300000000000000000000000000000000000000000000000000000000000000602082015250565b6000614b8e60218361378d565b9150614b9982614b32565b604082019050919050565b60006020820190508181036000830152614bbd81614b81565b9050919050565b7f4f776e61626c653a2063616c6c6572206973206e6f7420746865206f776e6572600082015250565b6000614bfa60208361378d565b9150614c0582614bc4565b602082019050919050565b60006020820190508181036000830152614c2981614bed565b9050919050565b7f45524337323155524953746f726167653a2055524920736574206f66206e6f6e60008201527f6578697374656e7420746f6b656e000000000000000000000000000000000000602082015250565b6000614c8c602e8361378d565b9150614c9782614c30565b604082019050919050565b60006020820190508181036000830152614cbb81614c7f565b9050919050565b60008190508160005260206000209050919050565b60006020601f8301049050919050565b600082821b905092915050565b600060088302614d247fffffffffffffffffffffffffffffffffffffffffffffffffffffffffffffffff82614ce7565b614d2e8683614ce7565b95508019841693508086168417925050509392505050565b6000614d61614d5c614d578461370c565b613b49565b61370c565b9050919050565b6000819050919050565b614d7b83614d46565b614d8f614d8782614d68565b848454614cf4565b825550505050565b600090565b614da4614d97565b614daf818484614d72565b505050565b5b81811015614dd357614dc8600082614d9c565b600181019050614db5565b5050565b601f821115614e1857614de981614cc2565b614df284614cd7565b81016020851015614e01578190505b614e15614e0d85614cd7565b830182614db4565b50505b505050565b600082821c905092915050565b6000614e3b60001984600802614e1d565b1980831691505092915050565b6000614e548383614e2a565b9150826002028217905092915050565b614e6d82613782565b67ffffffffffffffff811115614e8657614e8561395d565b5b614e908254613fde565b614e9b828285614dd7565b600060209050601f831160018114614ece5760008415614ebc578287015190505b614ec68582614e48565b865550614f2e565b601f198416614edc86614cc2565b60005b82811015614f0457848901518255600182019150602085019450602081019050614edf565b86831015614f215784890151614f1d601f891682614e2a565b8355505b6001600288020188555050505b505050505050565b7f4552433732313a207472616e736665722066726f6d20696e636f72726563742060008201527f6f776e6572000000000000000000000000000000000000000000000000000000602082015250565b6000614f9260258361378d565b9150614f9d82614f36565b604082019050919050565b60006020820190508181036000830152614fc181614f85565b9050919050565b7f4552433732313a207472616e7366657220746f20746865207a65726f2061646460008201527f7265737300000000000000000000000000000000000000000000000000000000602082015250565b600061502460248361378d565b915061502f82614fc8565b604082019050919050565b6000602082019050818103600083015261505381615017565b9050919050565b7f5061757361626c653a2070617573656400000000000000000000000000000000600082015250565b600061509060108361378d565b915061509b8261505a565b602082019050919050565b600060208201905081810360008301526150bf81615083565b9050919050565b7f5265656e7472616e637947756172643a207265656e7472616e742063616c6c00600082015250565b60006150fc601f8361378d565b9150615107826150c6565b602082019050919050565b6000602082019050818103600083015261512b816150ef565b9050919050565b7f5072697a65207061796f7574206661696c656400000000000000000000000000600082015250565b600061516860138361378d565b915061517382615132565b602082019050919050565b600060208201905081810360008301526151978161515b565b9050919050565b7f547265617375727920637574206661696c656400000000000000000000000000600082015250565b60006151d460138361378d565b91506151df8261519e565b602082019050919050565b60006020820190508181036000830152615203816151c7565b9050919050565b600060608201905061521f6000830186613929565b61522c6020830185613df8565b818103604083015261523e81846137d9565b9050949350505050565b7f4552433732313a20617070726f766520746f2063616c6c657200000000000000600082015250565b600061527e60198361378d565b915061528982615248565b602082019050919050565b600060208201905081810360008301526152ad81615271565b9050919050565b7f4552433732313a207472616e7366657220746f206e6f6e20455243373231526560008201527f63656976657220696d706c656d656e7465720000000000000000000000000000602082015250565b600061531060328361378d565b915061531b826152b4565b604082019050919050565b6000602082019050818103600083015261533f81615303565b9050919050565b7f5061757361626c653a206e6f7420706175736564000000000000000000000000600082015250565b600061537c60148361378d565b915061538782615346565b602082019050919050565b600060208201905081810360008301526153ab8161536f565b9050919050565b6000819050919050565b6000819050919050565b6153d76153d2826153b2565b6153bc565b82525050565b6000819050919050565b6153f86153f38261370c565b6153dd565b82525050565b60008160601b9050919050565b6000615416826153fe565b9050919050565b60006154288261540b565b9050919050565b61544061543b82613881565b61541d565b82525050565b600061545282866153c6565b60208201915061546282856153e7565b602082019150615472828461542f565b601482019150819050949350505050565b600061548e8261370c565b91506154998361370c565b9250826154a9576154a8614418565b5b828206905092915050565b600081519050919050565b600082825260208201905092915050565b60006154db826154b4565b6154e581856154bf565b93506154f581856020860161379e565b6154fe816137c8565b840191505092915050565b600060808201905061551e6000830187613893565b61552b6020830186613893565b6155386040830185613929565b818103606083015261554a81846154d0565b905095945050505050565b6000815190506155648161367d565b92915050565b6000602082840312156155805761557f613647565b5b600061558e84828501615555565b91505092915050565b7f4552433732313a206d696e7420746f20746865207a65726f2061646472657373600082015250565b60006155cd60208361378d565b91506155d882615597565b602082019050919050565b600060208201905081810360008301526155fc816155c0565b9050919050565b7f4552433732313a20746f6b656e20616c7265616479206d696e74656400000000600082015250565b6000615639601c8361378d565b915061564482615603565b602082019050919050565b600060208201905081810360008301526156688161562c565b905091905056fea264697066735822122042282415f29d5e0c2d691a5c5e92572c299969032d72019a81441eb73b163bc364736f6c634300081c0033",
  "linkReferences": {},
  "deployedLinkReferences": {}
}