{
  "_format": "hh-sol-artifact-1",
  "contractName": "VerticalProjectNFT",
  "sourceName": "contracts/VerticalProjectNFT.sol",
  "abi": [
    {
      "inputs": [
        {
          "internalType": "address",
          "name": "_virtualToken",
          "type": "address"
        },
        {
          "internalType": "address",
          "name": "_vertToken",
          "type": "address"
        },
        {
          "internalType": "address",
          "name": "_treasury",
          "type": "address"
        }
      ],
      "stateMutability": "nonpayable",
      "type": "constructor"
    },
    {
      "anonymous": false,
      "inputs": [
        {
          "indexed": true,
          "internalType": "address",
          "name": "owner",
          "type": "address"
        },
        {
          "indexed": true,
          "internalType": "address",
          "name": "approved",
          "type": "address"
        },
        {
          "indexed": true,
          "internalType": "uint256",
          "name": "tokenId",
          "type": "uint256"
        }
      ],
      "name": "Approval",
      "type": "event"
    },
    {
      "anonymous": false,
      "inputs": [
        {
          "indexed": true,
          "internalType": "address",
          "name": "owner",
          "type": "address"
        },
        {
          "indexed": true,
          "internalType": "address",
          "name": "operator",
          "type": "address"
        },
        {
          "indexed": false,
          "internalType": "bool",
          "name": "approved",
          "type": "bool"
        }
      ],
      "name": "ApprovalForAll",
      "type": "event"
    },
    {
      "anonymous": false,
      "inputs": [
        {
          "indexed": false,
          "internalType": "string",
          "name": "reason",
          "type": "string"
        }
      ],
      "name": "AutoSyncFailed",
      "type": "event"
    },
    {
      "anonymous": false,
      "inputs": [
        {
          "indexed": false,
          "internalType": "uint256",
          "name": "_fromTokenId",
          "type": "uint256"
        },
        {
          "indexed": false,
          "internalType": "uint256",
          "name": "_toTokenId",
          "type": "uint256"
        }
      ],
      "name": "BatchMetadataUpdate",
      "type": "event"
    },
    {
      "anonymous": false,
      "inputs": [
        {
          "indexed": false,
          "internalType": "uint256",
          "name": "_tokenId",
          "type": "uint256"
        }
      ],
      "name": "MetadataUpdate",
      "type": "event"
    },
    {
      "anonymous": false,
      "inputs": [
        {
          "indexed": true,
          "internalType": "address",
          "name": "user",
          "type": "address"
        },
        {
          "indexed": false,
          "internalType": "uint256",
          "name": "tokenId",
          "type": "uint256"
        },
        {
          "indexed": false,
          "internalType": "enum VerticalProjectNFT.Rarity",
          "name": "rarity",
          "type": "uint8"
        },
        {
          "indexed": false,
          "internalType": "string",
          "name": "uri",
          "type": "string"
        }
      ],
      "name": "NFTMinted",
      "type": "event"
    },
    {
      "anonymous": false,
      "inputs": [
        {
          "indexed": true,
          "internalType": "address",
          "name": "previousOwner",
          "type": "address"
        },
        {
          "indexed": true,
          "internalType": "address",
          "name": "newOwner",
          "type": "address"
        }
      ],
      "name": "OwnershipTransferred",
      "type": "event"
    },
    {
      "anonymous": false,
      "inputs": [
        {
          "indexed": false,
          "internalType": "address",
          "name": "account",
          "type": "address"
        }
      ],
      "name": "Paused",
      "type": "event"
    },
    {
      "anonymous": false,
      "inputs": [
        {
          "indexed": false,
          "internalType": "uint256",
          "name": "newVirtualPrice",
          "type": "uint256"
        },
        {
          "indexed": false,
          "internalType": "uint256",
          "name": "newVertPrice",
          "type": "uint256"
        }
      ],
      "name": "PricesUpdated",
      "type": "event"
    },
    {
      "anonymous": false,
      "inputs": [
        {
          "indexed": true,
          "internalType": "address",
          "name": "user",
          "type": "address"
        },
        {
          "indexed": false,
          "internalType": "uint256",
          "name": "amount",
          "type": "uint256"
        }
      ],
      "name": "PrizeClaimed",
      "type": "event"
    },
    {
      "anonymous": false,
      "inputs": [
        {
          "indexed": false,
          "internalType": "enum VerticalProjectNFT.Rarity",
          "name": "rarity",
          "type": "uint8"
        },
        {
          "indexed": false,
          "internalType": "uint256",
          "name": "newPercent",
          "type": "uint256"
        }
      ],
      "name": "PrizePercentUpdated",
      "type": "event"
    },
    {
      "anonymous": false,
      "inputs": [
        {
          "indexed": true,
          "internalType": "address",
          "name": "sender",
          "type": "address"
        },
        {
          "indexed": false,
          "internalType": "uint256",
          "name": "amount",
          "type": "uint256"
        }
      ],
      "name": "PrizePoolFunded",
      "type": "event"
    },
    {
      "anonymous": false,
      "inputs": [
        {
          "indexed": false,
          "internalType": "uint256",
          "name": "syncedAmount",
          "type": "uint256"
        },
        {
          "indexed": false,
          "internalType": "address",
          "name": "triggeredBy",
          "type": "address"
        }
      ],
      "name": "PrizePoolSynced",
      "type": "event"
    },
    {
      "anonymous": false,
      "inputs": [
        {
          "indexed": false,
          "internalType": "uint256",
          "name": "newTotal",
          "type": "uint256"
        }
      ],
      "name": "PrizePoolUpdated",
      "type": "event"
    },
    {
      "anonymous": false,
      "inputs": [
        {
          "indexed": true,
          "internalType": "address",
          "name": "from",
          "type": "address"
        },
        {
          "indexed": true,
          "internalType": "address",
          "name": "to",
          "type": "address"
        },
        {
          "indexed": true,
          "internalType": "uint256",
          "name": "tokenId",
          "type": "uint256"
        }
      ],
      "name": "Transfer",
      "type": "event"
    },
    {
      "anonymous": false,
      "inputs": [
        {
          "indexed": false,
          "internalType": "address",
          "name": "newTreasury",
          "type": "address"
        }
      ],
      "name": "TreasuryUpdated",
      "type": "event"
    },
    {
      "anonymous": false,
      "inputs": [
        {
          "indexed": false,
          "internalType": "address",
          "name": "account",
          "type": "address"
        }
      ],
      "name": "Unpaused",
      "type": "event"
    },
    {
      "anonymous": false,
      "inputs": [
        {
          "indexed": false,
          "internalType": "address",
          "name": "newVertToken",
          "type": "address"
        }
      ],
      "name": "VertTokenUpdated",
      "type": "event"
    },
    {
      "anonymous": false,
      "inputs": [
        {
          "indexed": false,
          "internalType": "address",
          "name": "newVirtualToken",
          "type": "address"
        }
      ],
      "name": "VirtualTokenUpdated",
      "type": "event"
    },
    {
      "inputs": [],
      "name": "ROYALTY_FEE_BPS",
      "outputs": [
        {
          "internalType": "uint96",
          "name": "",
          "type": "uint96"
        }
      ],
      "stateMutability": "view",
      "type": "function"
    },
    {
      "inputs": [],
      "name": "_syncPrizePoolInternal",
      "outputs": [],
      "stateMutability": "nonpayable",
      "type": "function"
    },
    {
      "inputs": [
        {
          "internalType": "uint256",
          "name": "amount",
          "type": "uint256"
        }
      ],
      "name": "addToPrizePool",
      "outputs": [],
      "stateMutability": "nonpayable",
      "type": "function"
    },
    {
      "inputs": [
        {
          "internalType": "address",
          "name": "to",
          "type": "address"
        },
        {
          "internalType": "uint256",
          "name": "tokenId",
          "type": "uint256"
        }
      ],
      "name": "approve",
      "outputs": [],
      "stateMutability": "nonpayable",
      "type": "function"
    },
    {
      "inputs": [
        {
          "internalType": "address",
          "name": "owner",
          "type": "address"
        }
      ],
      "name": "balanceOf",
      "outputs": [
        {
          "internalType": "uint256",
          "name": "",
          "type": "uint256"
        }
      ],
      "stateMutability": "view",
      "type": "function"
    },
    {
      "inputs": [
        {
          "internalType": "address",
          "name": "to",
          "type": "address"
        },
        {
          "internalType": "uint256",
          "name": "amount",
          "type": "uint256"
        }
      ],
      "name": "claimPrize",
      "outputs": [],
      "stateMutability": "nonpayable",
      "type": "function"
    },
    {
      "inputs": [
        {
          "internalType": "uint256",
          "name": "amount",
          "type": "uint256"
        }
      ],
      "name": "depositToPrizePool",
      "outputs": [],
      "stateMutability": "nonpayable",
      "type": "function"
    },
    {
      "inputs": [
        {
          "internalType": "uint256",
          "name": "tokenId",
          "type": "uint256"
        }
      ],
      "name": "getApproved",
      "outputs": [
        {
          "internalType": "address",
          "name": "",
          "type": "address"
        }
      ],
      "stateMutability": "view",
      "type": "function"
    },
    {
      "inputs": [],
      "name": "getPrizePoolBalance",
      "outputs": [
        {
          "internalType": "uint256",
          "name": "",
          "type": "uint256"
        }
      ],
      "stateMutability": "view",
      "type": "function"
    },
    {
      "inputs": [
        {
          "internalType": "uint256",
          "name": "tokenId",
          "type": "uint256"
        }
      ],
      "name": "getTokenRarity",
      "outputs": [
        {
          "internalType": "enum VerticalProjectNFT.Rarity",
          "name": "",
          "type": "uint8"
        }
      ],
      "stateMutability": "view",
      "type": "function"
    },
    {
      "inputs": [],
      "name": "getTotalMinted",
      "outputs": [
        {
          "internalType": "uint256",
          "name": "",
          "type": "uint256"
        }
      ],
      "stateMutability": "view",
      "type": "function"
    },
    {
      "inputs": [],
      "name": "getUnaccountedBalance",
      "outputs": [
        {
          "internalType": "uint256",
          "name": "",
          "type": "uint256"
        }
      ],
      "stateMutability": "view",
      "type": "function"
    },
    {
      "inputs": [
        {
          "internalType": "address",
          "name": "owner",
          "type": "address"
        },
        {
          "internalType": "address",
          "name": "operator",
          "type": "address"
        }
      ],
      "name": "isApprovedForAll",
      "outputs": [
        {
          "internalType": "bool",
          "name": "",
          "type": "bool"
        }
      ],
      "stateMutability": "view",
      "type": "function"
    },
    {
      "inputs": [
        {
          "internalType": "string",
          "name": "tokenURI",
          "type": "string"
        }
      ],
      "name": "mintWithVert",
      "outputs": [],
      "stateMutability": "nonpayable",
      "type": "function"
    },
    {
      "inputs": [
        {
          "internalType": "string",
          "name": "tokenURI",
          "type": "string"
        }
      ],
      "name": "mintWithVirtual",
      "outputs": [],
      "stateMutability": "nonpayable",
      "type": "function"
    },
    {
      "inputs": [],
      "name": "name",
      "outputs": [
        {
          "internalType": "string",
          "name": "",
          "type": "string"
        }
      ],
      "stateMutability": "view",
      "type": "function"
    },
    {
      "inputs": [],
      "name": "nextTokenId",
      "outputs": [
        {
          "internalType": "uint256",
          "name": "",
          "type": "uint256"
        }
      ],
      "stateMutability": "view",
      "type": "function"
    },
    {
      "inputs": [],
      "name": "owner",
      "outputs": [
        {
          "internalType": "address",
          "name": "",
          "type": "address"
        }
      ],
      "stateMutability": "view",
      "type": "function"
    },
    {
      "inputs": [
        {
          "internalType": "uint256",
          "name": "tokenId",
          "type": "uint256"
        }
      ],
      "name": "ownerOf",
      "outputs": [
        {
          "internalType": "address",
          "name": "",
          "type": "address"
        }
      ],
      "stateMutability": "view",
      "type": "function"
    },
    {
      "inputs": [],
      "name": "pause",
      "outputs": [],
      "stateMutability": "nonpayable",
      "type": "function"
    },
    {
      "inputs": [],
      "name": "paused",
      "outputs": [
        {
          "internalType": "bool",
          "name": "",
          "type": "bool"
        }
      ],
      "stateMutability": "view",
      "type": "function"
    },
    {
      "inputs": [],
      "name": "priceVert",
      "outputs": [
        {
          "internalType": "uint256",
          "name": "",
          "type": "uint256"
        }
      ],
      "stateMutability": "view",
      "type": "function"
    },
    {
      "inputs": [],
      "name": "priceVirtual",
      "outputs": [
        {
          "internalType": "uint256",
          "name": "",
          "type": "uint256"
        }
      ],
      "stateMutability": "view",
      "type": "function"
    },
    {
      "inputs": [
        {
          "internalType": "enum VerticalProjectNFT.Rarity",
          "name": "",
          "type": "uint8"
        }
      ],
      "name": "prizePercentByRarity",
      "outputs": [
        {
          "internalType": "uint256",
          "name": "",
          "type": "uint256"
        }
      ],
      "stateMutability": "view",
      "type": "function"
    },
    {
      "inputs": [],
      "name": "prizePool",
      "outputs": [
        {
          "internalType": "uint256",
          "name": "",
          "type": "uint256"
        }
      ],
      "stateMutability": "view",
      "type": "function"
    },
    {
      "inputs": [],
      "name": "renounceOwnership",
      "outputs": [],
      "stateMutability": "nonpayable",
      "type": "function"
    },
    {
      "inputs": [
        {
          "internalType": "uint256",
          "name": "",
          "type": "uint256"
        },
        {
          "internalType": "uint256",
          "name": "salePrice",
          "type": "uint256"
        }
      ],
      "name": "royaltyInfo",
      "outputs": [
        {
          "internalType": "address",
          "name": "",
          "type": "address"
        },
        {
          "internalType": "uint256",
          "name": "",
          "type": "uint256"
        }
      ],
      "stateMutability": "view",
      "type": "function"
    },
    {
      "inputs": [
        {
          "internalType": "address",
          "name": "from",
          "type": "address"
        },
        {
          "internalType": "address",
          "name": "to",
          "type": "address"
        },
        {
          "internalType": "uint256",
          "name": "tokenId",
          "type": "uint256"
        }
      ],
      "name": "safeTransferFrom",
      "outputs": [],
      "stateMutability": "nonpayable",
      "type": "function"
    },
    {
      "inputs": [
        {
          "internalType": "address",
          "name": "from",
          "type": "address"
        },
        {
          "internalType": "address",
          "name": "to",
          "type": "address"
        },
        {
          "internalType": "uint256",
          "name": "tokenId",
          "type": "uint256"
        },
        {
          "internalType": "bytes",
          "name": "data",
          "type": "bytes"
        }
      ],
      "name": "safeTransferFrom",
      "outputs": [],
      "stateMutability": "nonpayable",
      "type": "function"
    },
    {
      "inputs": [
        {
          "internalType": "address",
          "name": "operator",
          "type": "address"
        },
        {
          "internalType": "bool",
          "name": "approved",
          "type": "bool"
        }
      ],
      "name": "setApprovalForAll",
      "outputs": [],
      "stateMutability": "nonpayable",
      "type": "function"
    },
    {
      "inputs": [
        {
          "internalType": "uint256",
          "name": "newVirtualPrice",
          "type": "uint256"
        },
        {
          "internalType": "uint256",
          "name": "newVertPrice",
          "type": "uint256"
        }
      ],
      "name": "setPrices",
      "outputs": [],
      "stateMutability": "nonpayable",
      "type": "function"
    },
    {
      "inputs": [
        {
          "internalType": "enum VerticalProjectNFT.Rarity",
          "name": "rarity",
          "type": "uint8"
        },
        {
          "internalType": "uint256",
          "name": "percent",
          "type": "uint256"
        }
      ],
      "name": "setPrizePercent",
      "outputs": [],
      "stateMutability": "nonpayable",
      "type": "function"
    },
    {
      "inputs": [
        {
          "internalType": "uint256",
          "name": "tokenId",
          "type": "uint256"
        },
        {
          "internalType": "string",
          "name": "_tokenURI",
          "type": "string"
        }
      ],
      "name": "setTokenURI",
      "outputs": [],
      "stateMutability": "nonpayable",
      "type": "function"
    },
    {
      "inputs": [
        {
          "internalType": "address",
          "name": "addr",
          "type": "address"
        }
      ],
      "name": "setTreasury",
      "outputs": [],
      "stateMutability": "nonpayable",
      "type": "function"
    },
    {
      "inputs": [
        {
          "internalType": "address",
          "name": "_vertToken",
          "type": "address"
        }
      ],
      "name": "setVertToken",
      "outputs": [],
      "stateMutability": "nonpayable",
      "type": "function"
    },
    {
      "inputs": [
        {
          "internalType": "address",
          "name": "_virtualToken",
          "type": "address"
        }
      ],
      "name": "setVirtualToken",
      "outputs": [],
      "stateMutability": "nonpayable",
      "type": "function"
    },
    {
      "inputs": [
        {
          "internalType": "bytes4",
          "name": "interfaceId",
          "type": "bytes4"
        }
      ],
      "name": "supportsInterface",
      "outputs": [
        {
          "internalType": "bool",
          "name": "",
          "type": "bool"
        }
      ],
      "stateMutability": "view",
      "type": "function"
    },
    {
      "inputs": [],
      "name": "symbol",
      "outputs": [
        {
          "internalType": "string",
          "name": "",
          "type": "string"
        }
      ],
      "stateMutability": "view",
      "type": "function"
    },
    {
      "inputs": [],
      "name": "syncPrizePool",
      "outputs": [
        {
          "internalType": "uint256",
          "name": "",
          "type": "uint256"
        }
      ],
      "stateMutability": "nonpayable",
      "type": "function"
    },
    {
      "inputs": [
        {
          "internalType": "uint256",
          "name": "",
          "type": "uint256"
        }
      ],
      "name": "tokenRarity",
      "outputs": [
        {
          "internalType": "enum VerticalProjectNFT.Rarity",
          "name": "",
          "type": "uint8"
        }
      ],
      "stateMutability": "view",
      "type": "function"
    },
    {
      "inputs": [
        {
          "internalType": "uint256",
          "name": "tokenId",
          "type": "uint256"
        }
      ],
      "name": "tokenURI",
      "outputs": [
        {
          "internalType": "string",
          "name": "",
          "type": "string"
        }
      ],
      "stateMutability": "view",
      "type": "function"
    },
    {
      "inputs": [
        {
          "internalType": "address",
          "name": "from",
          "type": "address"
        },
        {
          "internalType": "address",
          "name": "to",
          "type": "address"
        },
        {
          "internalType": "uint256",
          "name": "tokenId",
          "type": "uint256"
        }
      ],
      "name": "transferFrom",
      "outputs": [],
      "stateMutability": "nonpayable",
      "type": "function"
    },
    {
      "inputs": [
        {
          "internalType": "address",
          "name": "newOwner",
          "type": "address"
        }
      ],
      "name": "transferOwnership",
      "outputs": [],
      "stateMutability": "nonpayable",
      "type": "function"
    },
    {
      "inputs": [],
      "name": "treasury",
      "outputs": [
        {
          "internalType": "address",
          "name": "",
          "type": "address"
        }
      ],
      "stateMutability": "view",
      "type": "function"
    },
    {
      "inputs": [],
      "name": "unpause",
      "outputs": [],
      "stateMutability": "nonpayable",
      "type": "function"
    },
    {
      "inputs": [],
      "name": "vertToken",
      "outputs": [
        {
          "internalType": "contract IERC20",
          "name": "",
          "type": "address"
        }
      ],
      "stateMutability": "view",
      "type": "function"
    },
    {
      "inputs": [],
      "name": "virtualToken",
      "outputs": [
        {
          "internalType": "contract IERC20",
          "name": "",
          "type": "address"
        }
      ],
      "stateMutability": "view",
      "type": "function"
    }
  ],
  "bytecode": "0x60806040526722b1c8c1227a00006009556714d1120d7b160000600a5534801561002857600080fd5b50604051616941380380616941833981810160405281019061004a919061055f565b6040518060400160405280601081526020017f566572746963616c2050726f6a656374000000000000000000000000000000008152506040518060400160405280600781526020017f564552544e46540000000000000000000000000000000000000000000000000081525081600090816100c59190610802565b5080600190816100d59190610802565b5050506100f46100e961042e60201b60201c565b61043660201b60201c565b6000600760146101000a81548160ff0219169083151502179055506001600881905550600073ffffffffffffffffffffffffffffffffffffffff168373ffffffffffffffffffffffffffffffffffffffff1603610186576040517f08c379a000000000000000000000000000000000000000000000000000000000815260040161017d90610957565b60405180910390fd5b600073ffffffffffffffffffffffffffffffffffffffff168273ffffffffffffffffffffffffffffffffffffffff16036101f5576040517f08c379a00000000000000000000000000000000000000000000000000000000081526004016101ec906109e9565b60405180910390fd5b600073ffffffffffffffffffffffffffffffffffffffff168173ffffffffffffffffffffffffffffffffffffffff1603610264576040517f08c379a000000000000000000000000000000000000000000000000000000000815260040161025b90610a55565b60405180910390fd5b82600e60006101000a81548173ffffffffffffffffffffffffffffffffffffffff021916908373ffffffffffffffffffffffffffffffffffffffff16021790555081600d60006101000a81548173ffffffffffffffffffffffffffffffffffffffff021916908373ffffffffffffffffffffffffffffffffffffffff16021790555080600f60006101000a81548173ffffffffffffffffffffffffffffffffffffffff021916908373ffffffffffffffffffffffffffffffffffffffff1602179055506001600b819055506003601160006001600481111561034957610348610a75565b5b600481111561035b5761035a610a75565b5b8152602001908152602001600020819055506007601160006002600481111561038757610386610a75565b5b600481111561039957610398610a75565b5b815260200190815260200160002081905550600f60116000600360048111156103c5576103c4610a75565b5b60048111156103d7576103d6610a75565b5b81526020019081526020016000208190555060286011600060048081111561040257610401610a75565b5b600481111561041457610413610a75565b5b815260200190815260200160002081905550505050610aa4565b600033905090565b6000600760009054906101000a900473ffffffffffffffffffffffffffffffffffffffff16905081600760006101000a81548173ffffffffffffffffffffffffffffffffffffffff021916908373ffffffffffffffffffffffffffffffffffffffff1602179055508173ffffffffffffffffffffffffffffffffffffffff168173ffffffffffffffffffffffffffffffffffffffff167f8be0079c531659141344cd1fd0a4f28419497f9722a3daafe3b4186f6b6457e060405160405180910390a35050565b600080fd5b600073ffffffffffffffffffffffffffffffffffffffff82169050919050565b600061052c82610501565b9050919050565b61053c81610521565b811461054757600080fd5b50565b60008151905061055981610533565b92915050565b600080600060608486031215610578576105776104fc565b5b60006105868682870161054a565b93505060206105978682870161054a565b92505060406105a88682870161054a565b9150509250925092565b600081519050919050565b7f4e487b7100000000000000000000000000000000000000000000000000000000600052604160045260246000fd5b7f4e487b7100000000000000000000000000000000000000000000000000000000600052602260045260246000fd5b6000600282049050600182168061063357607f821691505b602082108103610646576106456105ec565b5b50919050565b60008190508160005260206000209050919050565b60006020601f8301049050919050565b600082821b905092915050565b6000600883026106ae7fffffffffffffffffffffffffffffffffffffffffffffffffffffffffffffffff82610671565b6106b88683610671565b95508019841693508086168417925050509392505050565b6000819050919050565b6000819050919050565b60006106ff6106fa6106f5846106d0565b6106da565b6106d0565b9050919050565b6000819050919050565b610719836106e4565b61072d61072582610706565b84845461067e565b825550505050565b600090565b610742610735565b61074d818484610710565b505050565b5b818110156107715761076660008261073a565b600181019050610753565b5050565b601f8211156107b6576107878161064c565b61079084610661565b8101602085101561079f578190505b6107b36107ab85610661565b830182610752565b50505b505050565b600082821c905092915050565b60006107d9600019846008026107bb565b1980831691505092915050565b60006107f283836107c8565b9150826002028217905092915050565b61080b826105b2565b67ffffffffffffffff811115610824576108236105bd565b5b61082e825461061b565b610839828285610775565b600060209050601f83116001811461086c576000841561085a578287015190505b61086485826107e6565b8655506108cc565b601f19841661087a8661064c565b60005b828110156108a25784890151825560018201915060208501945060208101905061087d565b868310156108bf57848901516108bb601f8916826107c8565b8355505b6001600288020188555050505b505050505050565b600082825260208201905092915050565b7f5669727475616c20746f6b656e2063616e6e6f74206265207a65726f2061646460008201527f7265737300000000000000000000000000000000000000000000000000000000602082015250565b60006109416024836108d4565b915061094c826108e5565b604082019050919050565b6000602082019050818103600083015261097081610934565b9050919050565b7f5645525420746f6b656e2063616e6e6f74206265207a65726f2061646472657360008201527f7300000000000000000000000000000000000000000000000000000000000000602082015250565b60006109d36021836108d4565b91506109de82610977565b604082019050919050565b60006020820190508181036000830152610a02816109c6565b9050919050565b7f54726561737572792063616e6e6f74206265207a65726f206164647265737300600082015250565b6000610a3f601f836108d4565b9150610a4a82610a09565b602082019050919050565b60006020820190508181036000830152610a6e81610a32565b9050919050565b7f4e487b7100000000000000000000000000000000000000000000000000000000600052602160045260246000fd5b615e8e80610ab36000396000f3fe608060405234801561001057600080fd5b50600436106102955760003560e01c80636352211e11610167578063b2da2715116100ce578063e985e9c511610087578063e985e9c5146107a1578063ed15677c146107d1578063f0f44260146107ed578063f24f069d14610809578063f2fde38b14610827578063f42bdd0e1461084357610295565b8063b2da2715146106f5578063b407315614610711578063b88d4fde1461071b578063b8fa436614610737578063c87b56dd14610755578063d7149aab1461078557610295565b80638456cb59116101205780638456cb59146106475780638da5cb5b1461065157806395d89b411461066f578063a22cb4651461068d578063ace79f4f146106a9578063afb0a369146106c557610295565b80636352211e14610583578063689a0bd6146105b357806370a08231146105d1578063715018a614610601578063719ce73e1461060b57806375794a3c1461062957610295565b80632a55205a1161020b57806344884348116101c457806344884348146104ad57806344ee8b3d146104c9578063480628ae146104f9578063555ec78b146105175780635c975abb1461054757806361d027b31461056557610295565b80632a55205a146103fc5780632d38cc351461042d57806333e196161461044b5780633f4ba83a1461046957806342842e0e14610473578063436be3721461048f57610295565b80630ca1c5c91161025d5780630ca1c5c914610350578063162094c41461036e578063186ba2531461038a578063194a5fc9146103a65780631f514c52146103c257806323b872dd146103e057610295565b806301ffc9a71461029a57806305fefda7146102ca57806306fdde03146102e6578063081812fc14610304578063095ea7b314610334575b600080fd5b6102b460048036038101906102af9190613c7d565b61085f565b6040516102c19190613cc5565b60405180910390f35b6102e460048036038101906102df9190613d16565b6108d9565b005b6102ee61092c565b6040516102fb9190613de6565b60405180910390f35b61031e60048036038101906103199190613e08565b6109be565b60405161032b9190613e76565b60405180910390f35b61034e60048036038101906103499190613ebd565b610a04565b005b610358610b1b565b6040516103659190613f0c565b60405180910390f35b6103886004803603810190610383919061405c565b610b31565b005b6103a4600480360381019061039f9190613e08565b610b8f565b005b6103c060048036038101906103bb91906140dd565b610ccd565b005b6103ca610d92565b6040516103d7919061417c565b60405180910390f35b6103fa60048036038101906103f59190614197565b610db8565b005b61041660048036038101906104119190613d16565b610e18565b6040516104249291906141ea565b60405180910390f35b610435610e72565b6040516104429190613f0c565b60405180910390f35b610453610f41565b6040516104609190613f0c565b60405180910390f35b61047161108d565b005b61048d60048036038101906104889190614197565b61109f565b005b6104976110bf565b6040516104a4919061423a565b60405180910390f35b6104c760048036038101906104c29190614255565b6110c5565b005b6104e360048036038101906104de919061429e565b611379565b6040516104f09190613f0c565b60405180910390f35b610501611391565b60405161050e919061417c565b60405180910390f35b610531600480360381019061052c9190613e08565b6113b7565b60405161053e9190614342565b60405180910390f35b61054f611429565b60405161055c9190613cc5565b60405180910390f35b61056d611440565b60405161057a9190613e76565b60405180910390f35b61059d60048036038101906105989190613e08565b611466565b6040516105aa9190613e76565b60405180910390f35b6105bb6114ec565b6040516105c89190613f0c565b60405180910390f35b6105eb60048036038101906105e6919061435d565b6114f2565b6040516105f89190613f0c565b60405180910390f35b6106096115a9565b005b6106136115bd565b6040516106209190613f0c565b60405180910390f35b6106316115c3565b60405161063e9190613f0c565b60405180910390f35b61064f6115c9565b005b6106596115db565b6040516106669190613e76565b60405180910390f35b610677611605565b6040516106849190613de6565b60405180910390f35b6106a760048036038101906106a291906143b6565b611697565b005b6106c360048036038101906106be9190613ebd565b6116ad565b005b6106df60048036038101906106da9190613e08565b611844565b6040516106ec9190614342565b60405180910390f35b61070f600480360381019061070a9190614255565b611864565b005b610719611a13565b005b61073560048036038101906107309190614497565b611bbd565b005b61073f611c1f565b60405161074c9190613f0c565b60405180910390f35b61076f600480360381019061076a9190613e08565b611c25565b60405161077c9190613de6565b60405180910390f35b61079f600480360381019061079a919061435d565b611c7f565b005b6107bb60048036038101906107b6919061451a565b611d71565b6040516107c89190613cc5565b60405180910390f35b6107eb60048036038101906107e69190613e08565b611e05565b005b6108076004803603810190610802919061435d565b611f93565b005b610811612085565b60405161081e9190613f0c565b60405180910390f35b610841600480360381019061083c919061435d565b61208f565b005b61085d6004803603810190610858919061435d565b612112565b005b60007f2a55205a000000000000000000000000000000000000000000000000000000007bffffffffffffffffffffffffffffffffffffffffffffffffffffffff1916827bffffffffffffffffffffffffffffffffffffffffffffffffffffffff191614806108d257506108d182612204565b5b9050919050565b6108e1612265565b8160098190555080600a819055507f6546f60f34df611fa42503098acc39d5ab88bc73febe64b3cc14e5a92e3a66a7828260405161092092919061455a565b60405180910390a15050565b60606000805461093b906145b2565b80601f0160208091040260200160405190810160405280929190818152602001828054610967906145b2565b80156109b45780601f10610989576101008083540402835291602001916109b4565b820191906000526020600020905b81548152906001019060200180831161099757829003601f168201915b5050505050905090565b60006109c9826122e3565b6004600083815260200190815260200160002060009054906101000a900473ffffffffffffffffffffffffffffffffffffffff169050919050565b6000610a0f82611466565b90508073ffffffffffffffffffffffffffffffffffffffff168373ffffffffffffffffffffffffffffffffffffffff1603610a7f576040517f08c379a0000000000000000000000000000000000000000000000000000000008152600401610a7690614655565b60405180910390fd5b8073ffffffffffffffffffffffffffffffffffffffff16610a9e61232e565b73ffffffffffffffffffffffffffffffffffffffff161480610acd5750610acc81610ac761232e565b611d71565b5b610b0c576040517f08c379a0000000000000000000000000000000000000000000000000000000008152600401610b03906146e7565b60405180910390fd5b610b168383612336565b505050565b60006001600b54610b2c9190614736565b905090565b610b39612265565b610b42826123ef565b610b81576040517f08c379a0000000000000000000000000000000000000000000000000000000008152600401610b78906147b6565b60405180910390fd5b610b8b8282612430565b5050565b610b97612265565b600d60009054906101000a900473ffffffffffffffffffffffffffffffffffffffff1673ffffffffffffffffffffffffffffffffffffffff166323b872dd3330846040518463ffffffff1660e01b8152600401610bf6939291906147d6565b6020604051808303816000875af1158015610c15573d6000803e3d6000fd5b505050506040513d601f19601f82011682018060405250810190610c399190614822565b610c78576040517f08c379a0000000000000000000000000000000000000000000000000000000008152600401610c6f9061489b565b60405180910390fd5b80600c6000828254610c8a91906148bb565b925050819055507f7bc22304ac771f50d6cc29b56387cb4855f284e7a1f83e6420fe9b8bbdaf45c9600c54604051610cc29190613f0c565b60405180910390a150565b610cd5612265565b6064811115610d19576040517f08c379a0000000000000000000000000000000000000000000000000000000008152600401610d109061493b565b60405180910390fd5b8060116000846004811115610d3157610d306142cb565b5b6004811115610d4357610d426142cb565b5b8152602001908152602001600020819055507fa74628ab88e39c22615acb79128db8683fe215f003fa969bd6b3232eba537a668282604051610d8692919061495b565b60405180910390a15050565b600e60009054906101000a900473ffffffffffffffffffffffffffffffffffffffff1681565b610dc9610dc361232e565b826124d4565b610e08576040517f08c379a0000000000000000000000000000000000000000000000000000000008152600401610dff906149f6565b60405180910390fd5b610e13838383612569565b505050565b600080600f60009054906101000a900473ffffffffffffffffffffffffffffffffffffffff166127106101f46bffffffffffffffffffffffff1685610e5d9190614a16565b610e679190614a87565b915091509250929050565b600080600d60009054906101000a900473ffffffffffffffffffffffffffffffffffffffff1673ffffffffffffffffffffffffffffffffffffffff166370a08231306040518263ffffffff1660e01b8152600401610ed09190613e76565b602060405180830381865afa158015610eed573d6000803e3d6000fd5b505050506040513d601f19601f82011682018060405250810190610f119190614acd565b90506000600c54905080821115610f37578082610f2e9190614736565b92505050610f3e565b6000925050505b90565b600080600d60009054906101000a900473ffffffffffffffffffffffffffffffffffffffff1673ffffffffffffffffffffffffffffffffffffffff166370a08231306040518263ffffffff1660e01b8152600401610f9f9190613e76565b602060405180830381865afa158015610fbc573d6000803e3d6000fd5b505050506040513d601f19601f82011682018060405250810190610fe09190614acd565b90506000600c549050808211156110835760008183610fff9190614736565b905082600c819055507f8845af29ae9372732931c9713be1d20249132c4048696505039a8996f5ba76a58133604051611039929190614afa565b60405180910390a17f7bc22304ac771f50d6cc29b56387cb4855f284e7a1f83e6420fe9b8bbdaf45c9836040516110709190613f0c565b60405180910390a180935050505061108a565b6000925050505b90565b611095612265565b61109d612862565b565b6110ba83838360405180602001604052806000815250611bbd565b505050565b6101f481565b6110cd6128c5565b6110d561290f565b6110dd61295e565b6000600d60009054906101000a900473ffffffffffffffffffffffffffffffffffffffff1690506000600a549050600073ffffffffffffffffffffffffffffffffffffffff168273ffffffffffffffffffffffffffffffffffffffff160361117a576040517f08c379a000000000000000000000000000000000000000000000000000000000815260040161117190614b6f565b60405180910390fd5b8173ffffffffffffffffffffffffffffffffffffffff166323b872dd3330846040518463ffffffff1660e01b81526004016111b7939291906147d6565b6020604051808303816000875af11580156111d6573d6000803e3d6000fd5b505050506040513d601f19601f820116820180604052508101906111fa9190614822565b611239576040517f08c379a000000000000000000000000000000000000000000000000000000000815260040161123090614bdb565b60405180910390fd5b6000606460198361124a9190614a16565b6112549190614a87565b9050600081836112649190614736565b90508373ffffffffffffffffffffffffffffffffffffffff1663a9059cbb600f60009054906101000a900473ffffffffffffffffffffffffffffffffffffffff16846040518363ffffffff1660e01b81526004016112c39291906141ea565b6020604051808303816000875af11580156112e2573d6000803e3d6000fd5b505050506040513d601f19601f820116820180604052508101906113069190614822565b611345576040517f08c379a000000000000000000000000000000000000000000000000000000000815260040161133c90614c47565b60405180910390fd5b80600c600082825461135791906148bb565b9250508190555061136a33866001612a5f565b50505050611376612e41565b50565b60116020528060005260406000206000915090505481565b600d60009054906101000a900473ffffffffffffffffffffffffffffffffffffffff1681565b60006113c2826123ef565b611401576040517f08c379a00000000000000000000000000000000000000000000000000000000081526004016113f8906147b6565b60405180910390fd5b6010600083815260200190815260200160002060009054906101000a900460ff169050919050565b6000600760149054906101000a900460ff16905090565b600f60009054906101000a900473ffffffffffffffffffffffffffffffffffffffff1681565b60008061147283612e4b565b9050600073ffffffffffffffffffffffffffffffffffffffff168173ffffffffffffffffffffffffffffffffffffffff16036114e3576040517f08c379a00000000000000000000000000000000000000000000000000000000081526004016114da90614cb3565b60405180910390fd5b80915050919050565b60095481565b60008073ffffffffffffffffffffffffffffffffffffffff168273ffffffffffffffffffffffffffffffffffffffff1603611562576040517f08c379a000000000000000000000000000000000000000000000000000000000815260040161155990614d45565b60405180910390fd5b600360008373ffffffffffffffffffffffffffffffffffffffff1673ffffffffffffffffffffffffffffffffffffffff168152602001908152602001600020549050919050565b6115b1612265565b6115bb6000612e88565b565b600c5481565b600b5481565b6115d1612265565b6115d9612f4e565b565b6000600760009054906101000a900473ffffffffffffffffffffffffffffffffffffffff16905090565b606060018054611614906145b2565b80601f0160208091040260200160405190810160405280929190818152602001828054611640906145b2565b801561168d5780601f106116625761010080835404028352916020019161168d565b820191906000526020600020905b81548152906001019060200180831161167057829003601f168201915b5050505050905090565b6116a96116a261232e565b8383612fb1565b5050565b6116b5612265565b600c548111156116fa576040517f08c379a00000000000000000000000000000000000000000000000000000000081526004016116f190614db1565b60405180910390fd5b80600c600082825461170c9190614736565b92505081905550600d60009054906101000a900473ffffffffffffffffffffffffffffffffffffffff1673ffffffffffffffffffffffffffffffffffffffff1663a9059cbb83836040518363ffffffff1660e01b81526004016117709291906141ea565b6020604051808303816000875af115801561178f573d6000803e3d6000fd5b505050506040513d601f19601f820116820180604052508101906117b39190614822565b6117f2576040517f08c379a00000000000000000000000000000000000000000000000000000000081526004016117e990614e1d565b60405180910390fd5b8173ffffffffffffffffffffffffffffffffffffffff167f95681e512bc0fe659e195e06c283eada494316f3d801213e48e7101af92bf770826040516118389190613f0c565b60405180910390a25050565b60106020528060005260406000206000915054906101000a900460ff1681565b61186c6128c5565b61187461290f565b61187c61295e565b6000600e60009054906101000a900473ffffffffffffffffffffffffffffffffffffffff16905060006009549050600073ffffffffffffffffffffffffffffffffffffffff168273ffffffffffffffffffffffffffffffffffffffff1603611919576040517f08c379a000000000000000000000000000000000000000000000000000000000815260040161191090614e89565b60405180910390fd5b8173ffffffffffffffffffffffffffffffffffffffff166323b872dd33600f60009054906101000a900473ffffffffffffffffffffffffffffffffffffffff16846040518463ffffffff1660e01b8152600401611978939291906147d6565b6020604051808303816000875af1158015611997573d6000803e3d6000fd5b505050506040513d601f19601f820116820180604052508101906119bb9190614822565b6119fa576040517f08c379a00000000000000000000000000000000000000000000000000000000081526004016119f190614ef5565b60405180910390fd5b611a0633846000612a5f565b5050611a10612e41565b50565b3073ffffffffffffffffffffffffffffffffffffffff163373ffffffffffffffffffffffffffffffffffffffff1614611a81576040517f08c379a0000000000000000000000000000000000000000000000000000000008152600401611a7890614f61565b60405180910390fd5b6000600d60009054906101000a900473ffffffffffffffffffffffffffffffffffffffff1673ffffffffffffffffffffffffffffffffffffffff166370a08231306040518263ffffffff1660e01b8152600401611ade9190613e76565b602060405180830381865afa158015611afb573d6000803e3d6000fd5b505050506040513d601f19601f82011682018060405250810190611b1f9190614acd565b90506000600c54905080821115611bb95760008183611b3e9190614736565b905082600c819055507f8845af29ae9372732931c9713be1d20249132c4048696505039a8996f5ba76a58132604051611b78929190614afa565b60405180910390a17f7bc22304ac771f50d6cc29b56387cb4855f284e7a1f83e6420fe9b8bbdaf45c983604051611baf9190613f0c565b60405180910390a1505b5050565b611bce611bc861232e565b836124d4565b611c0d576040517f08c379a0000000000000000000000000000000000000000000000000000000008152600401611c04906149f6565b60405180910390fd5b611c198484848461311d565b50505050565b600a5481565b6060611c30826123ef565b611c6f576040517f08c379a0000000000000000000000000000000000000000000000000000000008152600401611c66906147b6565b60405180910390fd5b611c7882613179565b9050919050565b611c87612265565b600073ffffffffffffffffffffffffffffffffffffffff168173ffffffffffffffffffffffffffffffffffffffff1603611cf6576040517f08c379a0000000000000000000000000000000000000000000000000000000008152600401611ced90614ff3565b60405180910390fd5b80600e60006101000a81548173ffffffffffffffffffffffffffffffffffffffff021916908373ffffffffffffffffffffffffffffffffffffffff1602179055507f642efe757f7c097df2555d74532321ce38535b3921193c8777a267303689883b81604051611d669190613e76565b60405180910390a150565b6000600560008473ffffffffffffffffffffffffffffffffffffffff1673ffffffffffffffffffffffffffffffffffffffff16815260200190815260200160002060008373ffffffffffffffffffffffffffffffffffffffff1673ffffffffffffffffffffffffffffffffffffffff16815260200190815260200160002060009054906101000a900460ff16905092915050565b60008111611e48576040517f08c379a0000000000000000000000000000000000000000000000000000000008152600401611e3f9061505f565b60405180910390fd5b600d60009054906101000a900473ffffffffffffffffffffffffffffffffffffffff1673ffffffffffffffffffffffffffffffffffffffff166323b872dd3330846040518463ffffffff1660e01b8152600401611ea7939291906147d6565b6020604051808303816000875af1158015611ec6573d6000803e3d6000fd5b505050506040513d601f19601f82011682018060405250810190611eea9190614822565b611f29576040517f08c379a0000000000000000000000000000000000000000000000000000000008152600401611f20906150cb565b60405180910390fd5b80600c6000828254611f3b91906148bb565b925050819055503373ffffffffffffffffffffffffffffffffffffffff167fd3da04b9295b0265da4cd8d1d9ea4f3bb84775e17288a007301f7193865b181882604051611f889190613f0c565b60405180910390a250565b611f9b612265565b600073ffffffffffffffffffffffffffffffffffffffff168173ffffffffffffffffffffffffffffffffffffffff160361200a576040517f08c379a000000000000000000000000000000000000000000000000000000000815260040161200190615137565b60405180910390fd5b80600f60006101000a81548173ffffffffffffffffffffffffffffffffffffffff021916908373ffffffffffffffffffffffffffffffffffffffff1602179055507f7dae230f18360d76a040c81f050aa14eb9d6dc7901b20fc5d855e2a20fe814d18160405161207a9190613e76565b60405180910390a150565b6000600c54905090565b612097612265565b600073ffffffffffffffffffffffffffffffffffffffff168173ffffffffffffffffffffffffffffffffffffffff1603612106576040517f08c379a00000000000000000000000000000000000000000000000000000000081526004016120fd906151c9565b60405180910390fd5b61210f81612e88565b50565b61211a612265565b600073ffffffffffffffffffffffffffffffffffffffff168173ffffffffffffffffffffffffffffffffffffffff1603612189576040517f08c379a00000000000000000000000000000000000000000000000000000000081526004016121809061525b565b60405180910390fd5b80600d60006101000a81548173ffffffffffffffffffffffffffffffffffffffff021916908373ffffffffffffffffffffffffffffffffffffffff1602179055507f6e54bd062be2216071d5874d64e175cd202a1df49312b7241043db3ddd25537b816040516121f99190613e76565b60405180910390a150565b6000634906490660e01b7bffffffffffffffffffffffffffffffffffffffffffffffffffffffff1916827bffffffffffffffffffffffffffffffffffffffffffffffffffffffff1916148061225e575061225d8261328b565b5b9050919050565b61226d61232e565b73ffffffffffffffffffffffffffffffffffffffff1661228b6115db565b73ffffffffffffffffffffffffffffffffffffffff16146122e1576040517f08c379a00000000000000000000000000000000000000000000000000000000081526004016122d8906152c7565b60405180910390fd5b565b6122ec816123ef565b61232b576040517f08c379a000000000000000000000000000000000000000000000000000000000815260040161232290614cb3565b60405180910390fd5b50565b600033905090565b816004600083815260200190815260200160002060006101000a81548173ffffffffffffffffffffffffffffffffffffffff021916908373ffffffffffffffffffffffffffffffffffffffff160217905550808273ffffffffffffffffffffffffffffffffffffffff166123a983611466565b73ffffffffffffffffffffffffffffffffffffffff167f8c5be1e5ebec7d5bd14f71427d1e84f3dd0314c0f7b2291e5b200ac8c7c3b92560405160405180910390a45050565b60008073ffffffffffffffffffffffffffffffffffffffff1661241183612e4b565b73ffffffffffffffffffffffffffffffffffffffff1614159050919050565b612439826123ef565b612478576040517f08c379a000000000000000000000000000000000000000000000000000000000815260040161246f90615359565b60405180910390fd5b80600660008481526020019081526020016000209081612498919061551b565b507ff8e1a15aba9398e019f0b49df1a4fde98ee17ae345cb5f6b5e2c27f5033e8ce7826040516124c89190613f0c565b60405180910390a15050565b6000806124e083611466565b90508073ffffffffffffffffffffffffffffffffffffffff168473ffffffffffffffffffffffffffffffffffffffff16148061252257506125218185611d71565b5b8061256057508373ffffffffffffffffffffffffffffffffffffffff16612548846109be565b73ffffffffffffffffffffffffffffffffffffffff16145b91505092915050565b8273ffffffffffffffffffffffffffffffffffffffff1661258982611466565b73ffffffffffffffffffffffffffffffffffffffff16146125df576040517f08c379a00000000000000000000000000000000000000000000000000000000081526004016125d69061565f565b60405180910390fd5b600073ffffffffffffffffffffffffffffffffffffffff168273ffffffffffffffffffffffffffffffffffffffff160361264e576040517f08c379a0000000000000000000000000000000000000000000000000000000008152600401612645906156f1565b60405180910390fd5b61265b838383600161336d565b8273ffffffffffffffffffffffffffffffffffffffff1661267b82611466565b73ffffffffffffffffffffffffffffffffffffffff16146126d1576040517f08c379a00000000000000000000000000000000000000000000000000000000081526004016126c89061565f565b60405180910390fd5b6004600082815260200190815260200160002060006101000a81549073ffffffffffffffffffffffffffffffffffffffff02191690556001600360008573ffffffffffffffffffffffffffffffffffffffff1673ffffffffffffffffffffffffffffffffffffffff168152602001908152602001600020600082825403925050819055506001600360008473ffffffffffffffffffffffffffffffffffffffff1673ffffffffffffffffffffffffffffffffffffffff16815260200190815260200160002060008282540192505081905550816002600083815260200190815260200160002060006101000a81548173ffffffffffffffffffffffffffffffffffffffff021916908373ffffffffffffffffffffffffffffffffffffffff160217905550808273ffffffffffffffffffffffffffffffffffffffff168473ffffffffffffffffffffffffffffffffffffffff167fddf252ad1be2c89b69c2b068fc378daa952ba7f163c4a11628f55a4df523b3ef60405160405180910390a461285d8383836001613373565b505050565b61286a613379565b6000600760146101000a81548160ff0219169083151502179055507f5db9ee0a495bf2e6ff9c91a7834c1ba4fdd244a5e8aa4e537bd38aeae4b073aa6128ae61232e565b6040516128bb9190613e76565b60405180910390a1565b6128cd611429565b1561290d576040517f08c379a00000000000000000000000000000000000000000000000000000000081526004016129049061575d565b60405180910390fd5b565b600260085403612954576040517f08c379a000000000000000000000000000000000000000000000000000000000815260040161294b906157c9565b60405180910390fd5b6002600881905550565b3073ffffffffffffffffffffffffffffffffffffffff1663b40731566040518163ffffffff1660e01b8152600401600060405180830381600087803b1580156129a657600080fd5b505af19250505080156129b7575060015b612a5c576129c36157f6565b806308c379a003612a1f57506129d7615818565b806129e25750612a21565b7f8bb3d3a8dd3e0b163e8b0769d8dc13826def9c7a44adf2ee31b7b46b4792c60281604051612a119190613de6565b60405180910390a150612a57565b505b7f8bb3d3a8dd3e0b163e8b0769d8dc13826def9c7a44adf2ee31b7b46b4792c602604051612a4e906158f4565b60405180910390a15b612a5d565b5b565b6000600c5490506000600b549050612a7785826133c2565b612a818185612430565b6000612a8c826133e0565b9050806010600084815260200190815260200160002060006101000a81548160ff02191690836004811115612ac457612ac36142cb565b5b02179055506000612ad482613486565b9050600081118015612ae65750838111155b15612d955760006064605f83612afc9190614a16565b612b069190614a87565b905060008183612b169190614736565b90508286612b249190614736565b955085600c81905550600d60009054906101000a900473ffffffffffffffffffffffffffffffffffffffff1673ffffffffffffffffffffffffffffffffffffffff1663a9059cbb8a846040518363ffffffff1660e01b8152600401612b8a9291906141ea565b6020604051808303816000875af1158015612ba9573d6000803e3d6000fd5b505050506040513d601f19601f82011682018060405250810190612bcd9190614822565b612c0c576040517f08c379a0000000000000000000000000000000000000000000000000000000008152600401612c0390615960565b60405180910390fd5b600d60009054906101000a900473ffffffffffffffffffffffffffffffffffffffff1673ffffffffffffffffffffffffffffffffffffffff1663a9059cbb600f60009054906101000a900473ffffffffffffffffffffffffffffffffffffffff16836040518363ffffffff1660e01b8152600401612c8b9291906141ea565b6020604051808303816000875af1158015612caa573d6000803e3d6000fd5b505050506040513d601f19601f82011682018060405250810190612cce9190614822565b612d0d576040517f08c379a0000000000000000000000000000000000000000000000000000000008152600401612d04906159cc565b60405180910390fd5b8873ffffffffffffffffffffffffffffffffffffffff167f95681e512bc0fe659e195e06c283eada494316f3d801213e48e7101af92bf77083604051612d539190613f0c565b60405180910390a27f7bc22304ac771f50d6cc29b56387cb4855f284e7a1f83e6420fe9b8bbdaf45c986604051612d8a9190613f0c565b60405180910390a150505b600183612da291906148bb565b600b819055508673ffffffffffffffffffffffffffffffffffffffff167fa08b3bf5b7af36b46fffc856a242e512024f345d8981c820b40ed15e1a7b5cae848489604051612df2939291906159ec565b60405180910390a28415612e38577f7bc22304ac771f50d6cc29b56387cb4855f284e7a1f83e6420fe9b8bbdaf45c984604051612e2f9190613f0c565b60405180910390a15b50505050505050565b6001600881905550565b60006002600083815260200190815260200160002060009054906101000a900473ffffffffffffffffffffffffffffffffffffffff169050919050565b6000600760009054906101000a900473ffffffffffffffffffffffffffffffffffffffff16905081600760006101000a81548173ffffffffffffffffffffffffffffffffffffffff021916908373ffffffffffffffffffffffffffffffffffffffff1602179055508173ffffffffffffffffffffffffffffffffffffffff168173ffffffffffffffffffffffffffffffffffffffff167f8be0079c531659141344cd1fd0a4f28419497f9722a3daafe3b4186f6b6457e060405160405180910390a35050565b612f566128c5565b6001600760146101000a81548160ff0219169083151502179055507f62e78cea01bee320cd4e420270b5ea74000d11b0c9f74754ebdbfc544b05a258612f9a61232e565b604051612fa79190613e76565b60405180910390a1565b8173ffffffffffffffffffffffffffffffffffffffff168373ffffffffffffffffffffffffffffffffffffffff160361301f576040517f08c379a000000000000000000000000000000000000000000000000000000000815260040161301690615a76565b60405180910390fd5b80600560008573ffffffffffffffffffffffffffffffffffffffff1673ffffffffffffffffffffffffffffffffffffffff16815260200190815260200160002060008473ffffffffffffffffffffffffffffffffffffffff1673ffffffffffffffffffffffffffffffffffffffff16815260200190815260200160002060006101000a81548160ff0219169083151502179055508173ffffffffffffffffffffffffffffffffffffffff168373ffffffffffffffffffffffffffffffffffffffff167f17307eab39ab6107e8899845ad3d59bd9653f200f220920489ca2b5937696c31836040516131109190613cc5565b60405180910390a3505050565b613128848484612569565b613134848484846134e5565b613173576040517f08c379a000000000000000000000000000000000000000000000000000000000815260040161316a90615b08565b60405180910390fd5b50505050565b6060613184826122e3565b60006006600084815260200190815260200160002080546131a4906145b2565b80601f01602080910402602001604051908101604052809291908181526020018280546131d0906145b2565b801561321d5780601f106131f25761010080835404028352916020019161321d565b820191906000526020600020905b81548152906001019060200180831161320057829003601f168201915b50505050509050600061322e61366c565b90506000815103613243578192505050613286565b600082511115613278578082604051602001613260929190615b64565b60405160208183030381529060405292505050613286565b61328184613683565b925050505b919050565b60007f80ac58cd000000000000000000000000000000000000000000000000000000007bffffffffffffffffffffffffffffffffffffffffffffffffffffffff1916827bffffffffffffffffffffffffffffffffffffffffffffffffffffffff1916148061335657507f5b5e139f000000000000000000000000000000000000000000000000000000007bffffffffffffffffffffffffffffffffffffffffffffffffffffffff1916827bffffffffffffffffffffffffffffffffffffffffffffffffffffffff1916145b806133665750613365826136eb565b5b9050919050565b50505050565b50505050565b613381611429565b6133c0576040517f08c379a00000000000000000000000000000000000000000000000000000000081526004016133b790615bd4565b60405180910390fd5b565b6133dc828260405180602001604052806000815250613755565b5050565b6000806127106001436133f39190614736565b4084604051602001613406929190615c40565b6040516020818303038152906040528051906020012060001c6134299190615c6c565b9050611b5881101561343f576000915050613481565b6122ab811015613453576001915050613481565b612625811015613467576002915050613481565b6126de81101561347b576003915050613481565b60049150505b919050565b600080601160008460048111156134a05761349f6142cb565b5b60048111156134b2576134b16142cb565b5b8152602001908152602001600020549050606481600c546134d39190614a16565b6134dd9190614a87565b915050919050565b60006135068473ffffffffffffffffffffffffffffffffffffffff166137b0565b1561365f578373ffffffffffffffffffffffffffffffffffffffff1663150b7a0261352f61232e565b8786866040518563ffffffff1660e01b81526004016135519493929190615cf2565b6020604051808303816000875af192505050801561358d57506040513d601f19601f8201168201806040525081019061358a9190615d53565b60015b61360f573d80600081146135bd576040519150601f19603f3d011682016040523d82523d6000602084013e6135c2565b606091505b506000815103613607576040517f08c379a00000000000000000000000000000000000000000000000000000000081526004016135fe90615b08565b60405180910390fd5b805181602001fd5b63150b7a0260e01b7bffffffffffffffffffffffffffffffffffffffffffffffffffffffff1916817bffffffffffffffffffffffffffffffffffffffffffffffffffffffff191614915050613664565b600190505b949350505050565b606060405180602001604052806000815250905090565b606061368e826122e3565b600061369861366c565b905060008151116136b857604051806020016040528060008152506136e3565b806136c2846137d3565b6040516020016136d3929190615b64565b6040516020818303038152906040525b915050919050565b60007f01ffc9a7000000000000000000000000000000000000000000000000000000007bffffffffffffffffffffffffffffffffffffffffffffffffffffffff1916827bffffffffffffffffffffffffffffffffffffffffffffffffffffffff1916149050919050565b61375f83836138a1565b61376c60008484846134e5565b6137ab576040517f08c379a00000000000000000000000000000000000000000000000000000000081526004016137a290615b08565b60405180910390fd5b505050565b6000808273ffffffffffffffffffffffffffffffffffffffff163b119050919050565b6060600060016137e284613abe565b01905060008167ffffffffffffffff81111561380157613800613f31565b5b6040519080825280601f01601f1916602001820160405280156138335781602001600182028036833780820191505090505b509050600082602001820190505b600115613896578080600190039150507f3031323334353637383961626364656600000000000000000000000000000000600a86061a8153600a858161388a57613889614a58565b5b04945060008503613841575b819350505050919050565b600073ffffffffffffffffffffffffffffffffffffffff168273ffffffffffffffffffffffffffffffffffffffff1603613910576040517f08c379a000000000000000000000000000000000000000000000000000000000815260040161390790615dcc565b60405180910390fd5b613919816123ef565b15613959576040517f08c379a000000000000000000000000000000000000000000000000000000000815260040161395090615e38565b60405180910390fd5b61396760008383600161336d565b613970816123ef565b156139b0576040517f08c379a00000000000000000000000000000000000000000000000000000000081526004016139a790615e38565b60405180910390fd5b6001600360008473ffffffffffffffffffffffffffffffffffffffff1673ffffffffffffffffffffffffffffffffffffffff16815260200190815260200160002060008282540192505081905550816002600083815260200190815260200160002060006101000a81548173ffffffffffffffffffffffffffffffffffffffff021916908373ffffffffffffffffffffffffffffffffffffffff160217905550808273ffffffffffffffffffffffffffffffffffffffff16600073ffffffffffffffffffffffffffffffffffffffff167fddf252ad1be2c89b69c2b068fc378daa952ba7f163c4a11628f55a4df523b3ef60405160405180910390a4613aba600083836001613373565b5050565b600080600090507a184f03e93ff9f4daa797ed6e38ed64bf6a1f0100000000000000008310613b1c577a184f03e93ff9f4daa797ed6e38ed64bf6a1f0100000000000000008381613b1257613b11614a58565b5b0492506040810190505b6d04ee2d6d415b85acef81000000008310613b59576d04ee2d6d415b85acef81000000008381613b4f57613b4e614a58565b5b0492506020810190505b662386f26fc100008310613b8857662386f26fc100008381613b7e57613b7d614a58565b5b0492506010810190505b6305f5e1008310613bb1576305f5e1008381613ba757613ba6614a58565b5b0492506008810190505b6127108310613bd6576127108381613bcc57613bcb614a58565b5b0492506004810190505b60648310613bf95760648381613bef57613bee614a58565b5b0492506002810190505b600a8310613c08576001810190505b80915050919050565b6000604051905090565b600080fd5b600080fd5b60007fffffffff0000000000000000000000000000000000000000000000000000000082169050919050565b613c5a81613c25565b8114613c6557600080fd5b50565b600081359050613c7781613c51565b92915050565b600060208284031215613c9357613c92613c1b565b5b6000613ca184828501613c68565b91505092915050565b60008115159050919050565b613cbf81613caa565b82525050565b6000602082019050613cda6000830184613cb6565b92915050565b6000819050919050565b613cf381613ce0565b8114613cfe57600080fd5b50565b600081359050613d1081613cea565b92915050565b60008060408385031215613d2d57613d2c613c1b565b5b6000613d3b85828601613d01565b9250506020613d4c85828601613d01565b9150509250929050565b600081519050919050565b600082825260208201905092915050565b60005b83811015613d90578082015181840152602081019050613d75565b60008484015250505050565b6000601f19601f8301169050919050565b6000613db882613d56565b613dc28185613d61565b9350613dd2818560208601613d72565b613ddb81613d9c565b840191505092915050565b60006020820190508181036000830152613e008184613dad565b905092915050565b600060208284031215613e1e57613e1d613c1b565b5b6000613e2c84828501613d01565b91505092915050565b600073ffffffffffffffffffffffffffffffffffffffff82169050919050565b6000613e6082613e35565b9050919050565b613e7081613e55565b82525050565b6000602082019050613e8b6000830184613e67565b92915050565b613e9a81613e55565b8114613ea557600080fd5b50565b600081359050613eb781613e91565b92915050565b60008060408385031215613ed457613ed3613c1b565b5b6000613ee285828601613ea8565b9250506020613ef385828601613d01565b9150509250929050565b613f0681613ce0565b82525050565b6000602082019050613f216000830184613efd565b92915050565b600080fd5b600080fd5b7f4e487b7100000000000000000000000000000000000000000000000000000000600052604160045260246000fd5b613f6982613d9c565b810181811067ffffffffffffffff82111715613f8857613f87613f31565b5b80604052505050565b6000613f9b613c11565b9050613fa78282613f60565b919050565b600067ffffffffffffffff821115613fc757613fc6613f31565b5b613fd082613d9c565b9050602081019050919050565b82818337600083830152505050565b6000613fff613ffa84613fac565b613f91565b90508281526020810184848401111561401b5761401a613f2c565b5b614026848285613fdd565b509392505050565b600082601f83011261404357614042613f27565b5b8135614053848260208601613fec565b91505092915050565b6000806040838503121561407357614072613c1b565b5b600061408185828601613d01565b925050602083013567ffffffffffffffff8111156140a2576140a1613c20565b5b6140ae8582860161402e565b9150509250929050565b600581106140c557600080fd5b50565b6000813590506140d7816140b8565b92915050565b600080604083850312156140f4576140f3613c1b565b5b6000614102858286016140c8565b925050602061411385828601613d01565b9150509250929050565b6000819050919050565b600061414261413d61413884613e35565b61411d565b613e35565b9050919050565b600061415482614127565b9050919050565b600061416682614149565b9050919050565b6141768161415b565b82525050565b6000602082019050614191600083018461416d565b92915050565b6000806000606084860312156141b0576141af613c1b565b5b60006141be86828701613ea8565b93505060206141cf86828701613ea8565b92505060406141e086828701613d01565b9150509250925092565b60006040820190506141ff6000830185613e67565b61420c6020830184613efd565b9392505050565b60006bffffffffffffffffffffffff82169050919050565b61423481614213565b82525050565b600060208201905061424f600083018461422b565b92915050565b60006020828403121561426b5761426a613c1b565b5b600082013567ffffffffffffffff81111561428957614288613c20565b5b6142958482850161402e565b91505092915050565b6000602082840312156142b4576142b3613c1b565b5b60006142c2848285016140c8565b91505092915050565b7f4e487b7100000000000000000000000000000000000000000000000000000000600052602160045260246000fd5b6005811061430b5761430a6142cb565b5b50565b600081905061431c826142fa565b919050565b600061432c8261430e565b9050919050565b61433c81614321565b82525050565b60006020820190506143576000830184614333565b92915050565b60006020828403121561437357614372613c1b565b5b600061438184828501613ea8565b91505092915050565b61439381613caa565b811461439e57600080fd5b50565b6000813590506143b08161438a565b92915050565b600080604083850312156143cd576143cc613c1b565b5b60006143db85828601613ea8565b92505060206143ec858286016143a1565b9150509250929050565b600067ffffffffffffffff82111561441157614410613f31565b5b61441a82613d9c565b9050602081019050919050565b600061443a614435846143f6565b613f91565b90508281526020810184848401111561445657614455613f2c565b5b614461848285613fdd565b509392505050565b600082601f83011261447e5761447d613f27565b5b813561448e848260208601614427565b91505092915050565b600080600080608085870312156144b1576144b0613c1b565b5b60006144bf87828801613ea8565b94505060206144d087828801613ea8565b93505060406144e187828801613d01565b925050606085013567ffffffffffffffff81111561450257614501613c20565b5b61450e87828801614469565b91505092959194509250565b6000806040838503121561453157614530613c1b565b5b600061453f85828601613ea8565b925050602061455085828601613ea8565b9150509250929050565b600060408201905061456f6000830185613efd565b61457c6020830184613efd565b9392505050565b7f4e487b7100000000000000000000000000000000000000000000000000000000600052602260045260246000fd5b600060028204905060018216806145ca57607f821691505b6020821081036145dd576145dc614583565b5b50919050565b7f4552433732313a20617070726f76616c20746f2063757272656e74206f776e6560008201527f7200000000000000000000000000000000000000000000000000000000000000602082015250565b600061463f602183613d61565b915061464a826145e3565b604082019050919050565b6000602082019050818103600083015261466e81614632565b9050919050565b7f4552433732313a20617070726f76652063616c6c6572206973206e6f7420746f60008201527f6b656e206f776e6572206f7220617070726f76656420666f7220616c6c000000602082015250565b60006146d1603d83613d61565b91506146dc82614675565b604082019050919050565b60006020820190508181036000830152614700816146c4565b9050919050565b7f4e487b7100000000000000000000000000000000000000000000000000000000600052601160045260246000fd5b600061474182613ce0565b915061474c83613ce0565b925082820390508181111561476457614763614707565b5b92915050565b7f546f6b656e20646f6573206e6f74206578697374000000000000000000000000600082015250565b60006147a0601483613d61565b91506147ab8261476a565b602082019050919050565b600060208201905081810360008301526147cf81614793565b9050919050565b60006060820190506147eb6000830186613e67565b6147f86020830185613e67565b6148056040830184613efd565b949350505050565b60008151905061481c8161438a565b92915050565b60006020828403121561483857614837613c1b565b5b60006148468482850161480d565b91505092915050565b7f5472616e73666572206661696c65640000000000000000000000000000000000600082015250565b6000614885600f83613d61565b91506148908261484f565b602082019050919050565b600060208201905081810360008301526148b481614878565b9050919050565b60006148c682613ce0565b91506148d183613ce0565b92508282019050808211156148e9576148e8614707565b5b92915050565b7f546f6f2068696768000000000000000000000000000000000000000000000000600082015250565b6000614925600883613d61565b9150614930826148ef565b602082019050919050565b6000602082019050818103600083015261495481614918565b9050919050565b60006040820190506149706000830185614333565b61497d6020830184613efd565b9392505050565b7f4552433732313a2063616c6c6572206973206e6f7420746f6b656e206f776e6560008201527f72206f7220617070726f76656400000000000000000000000000000000000000602082015250565b60006149e0602d83613d61565b91506149eb82614984565b604082019050919050565b60006020820190508181036000830152614a0f816149d3565b9050919050565b6000614a2182613ce0565b9150614a2c83613ce0565b9250828202614a3a81613ce0565b91508282048414831517614a5157614a50614707565b5b5092915050565b7f4e487b7100000000000000000000000000000000000000000000000000000000600052601260045260246000fd5b6000614a9282613ce0565b9150614a9d83613ce0565b925082614aad57614aac614a58565b5b828204905092915050565b600081519050614ac781613cea565b92915050565b600060208284031215614ae357614ae2613c1b565b5b6000614af184828501614ab8565b91505092915050565b6000604082019050614b0f6000830185613efd565b614b1c6020830184613e67565b9392505050565b7f5645525420746f6b656e206e6f74207365740000000000000000000000000000600082015250565b6000614b59601283613d61565b9150614b6482614b23565b602082019050919050565b60006020820190508181036000830152614b8881614b4c565b9050919050565b7f56455254207061796d656e74206661696c656400000000000000000000000000600082015250565b6000614bc5601383613d61565b9150614bd082614b8f565b602082019050919050565b60006020820190508181036000830152614bf481614bb8565b9050919050565b7f5472656173757279207472616e73666572206661696c65640000000000000000600082015250565b6000614c31601883613d61565b9150614c3c82614bfb565b602082019050919050565b60006020820190508181036000830152614c6081614c24565b9050919050565b7f4552433732313a20696e76616c696420746f6b656e2049440000000000000000600082015250565b6000614c9d601883613d61565b9150614ca882614c67565b602082019050919050565b60006020820190508181036000830152614ccc81614c90565b9050919050565b7f4552433732313a2061646472657373207a65726f206973206e6f74206120766160008201527f6c6964206f776e65720000000000000000000000000000000000000000000000602082015250565b6000614d2f602983613d61565b9150614d3a82614cd3565b604082019050919050565b60006020820190508181036000830152614d5e81614d22565b9050919050565b7f496e73756666696369656e74207072697a6520706f6f6c000000000000000000600082015250565b6000614d9b601783613d61565b9150614da682614d65565b602082019050919050565b60006020820190508181036000830152614dca81614d8e565b9050919050565b7f5072697a65207472616e73666572206661696c65640000000000000000000000600082015250565b6000614e07601583613d61565b9150614e1282614dd1565b602082019050919050565b60006020820190508181036000830152614e3681614dfa565b9050919050565b7f5669727475616c20746f6b656e206e6f74207365740000000000000000000000600082015250565b6000614e73601583613d61565b9150614e7e82614e3d565b602082019050919050565b60006020820190508181036000830152614ea281614e66565b9050919050565b7f5649525455414c207061796d656e74206661696c656400000000000000000000600082015250565b6000614edf601683613d61565b9150614eea82614ea9565b602082019050919050565b60006020820190508181036000830152614f0e81614ed2565b9050919050565b7f496e7465726e616c2066756e6374696f6e206f6e6c7900000000000000000000600082015250565b6000614f4b601683613d61565b9150614f5682614f15565b602082019050919050565b60006020820190508181036000830152614f7a81614f3e565b9050919050565b7f5669727475616c20746f6b656e2063616e6e6f74206265207a65726f2061646460008201527f7265737300000000000000000000000000000000000000000000000000000000602082015250565b6000614fdd602483613d61565b9150614fe882614f81565b604082019050919050565b6000602082019050818103600083015261500c81614fd0565b9050919050565b7f43616e6e6f74206465706f736974207a65726f00000000000000000000000000600082015250565b6000615049601383613d61565b915061505482615013565b602082019050919050565b600060208201905081810360008301526150788161503c565b9050919050565b7f56455254207472616e73666572206661696c6564000000000000000000000000600082015250565b60006150b5601483613d61565b91506150c08261507f565b602082019050919050565b600060208201905081810360008301526150e4816150a8565b9050919050565b7f54726561737572792063616e6e6f74206265207a65726f206164647265737300600082015250565b6000615121601f83613d61565b915061512c826150eb565b602082019050919050565b6000602082019050818103600083015261515081615114565b9050919050565b7f4f776e61626c653a206e6577206f776e657220697320746865207a65726f206160008201527f6464726573730000000000000000000000000000000000000000000000000000602082015250565b60006151b3602683613d61565b91506151be82615157565b604082019050919050565b600060208201905081810360008301526151e2816151a6565b9050919050565b7f5645525420746f6b656e2063616e6e6f74206265207a65726f2061646472657360008201527f7300000000000000000000000000000000000000000000000000000000000000602082015250565b6000615245602183613d61565b9150615250826151e9565b604082019050919050565b6000602082019050818103600083015261527481615238565b9050919050565b7f4f776e61626c653a2063616c6c6572206973206e6f7420746865206f776e6572600082015250565b60006152b1602083613d61565b91506152bc8261527b565b602082019050919050565b600060208201905081810360008301526152e0816152a4565b9050919050565b7f45524337323155524953746f726167653a2055524920736574206f66206e6f6e60008201527f6578697374656e7420746f6b656e000000000000000000000000000000000000602082015250565b6000615343602e83613d61565b915061534e826152e7565b604082019050919050565b6000602082019050818103600083015261537281615336565b9050919050565b60008190508160005260206000209050919050565b60006020601f8301049050919050565b600082821b905092915050565b6000600883026153db7fffffffffffffffffffffffffffffffffffffffffffffffffffffffffffffffff8261539e565b6153e5868361539e565b95508019841693508086168417925050509392505050565b600061541861541361540e84613ce0565b61411d565b613ce0565b9050919050565b6000819050919050565b615432836153fd565b61544661543e8261541f565b8484546153ab565b825550505050565b600090565b61545b61544e565b615466818484615429565b505050565b5b8181101561548a5761547f600082615453565b60018101905061546c565b5050565b601f8211156154cf576154a081615379565b6154a98461538e565b810160208510156154b8578190505b6154cc6154c48561538e565b83018261546b565b50505b505050565b600082821c905092915050565b60006154f2600019846008026154d4565b1980831691505092915050565b600061550b83836154e1565b9150826002028217905092915050565b61552482613d56565b67ffffffffffffffff81111561553d5761553c613f31565b5b61554782546145b2565b61555282828561548e565b600060209050601f8311600181146155855760008415615573578287015190505b61557d85826154ff565b8655506155e5565b601f19841661559386615379565b60005b828110156155bb57848901518255600182019150602085019450602081019050615596565b868310156155d857848901516155d4601f8916826154e1565b8355505b6001600288020188555050505b505050505050565b7f4552433732313a207472616e736665722066726f6d20696e636f72726563742060008201527f6f776e6572000000000000000000000000000000000000000000000000000000602082015250565b6000615649602583613d61565b9150615654826155ed565b604082019050919050565b600060208201905081810360008301526156788161563c565b9050919050565b7f4552433732313a207472616e7366657220746f20746865207a65726f2061646460008201527f7265737300000000000000000000000000000000000000000000000000000000602082015250565b60006156db602483613d61565b91506156e68261567f565b604082019050919050565b6000602082019050818103600083015261570a816156ce565b9050919050565b7f5061757361626c653a2070617573656400000000000000000000000000000000600082015250565b6000615747601083613d61565b915061575282615711565b602082019050919050565b600060208201905081810360008301526157768161573a565b9050919050565b7f5265656e7472616e637947756172643a207265656e7472616e742063616c6c00600082015250565b60006157b3601f83613d61565b91506157be8261577d565b602082019050919050565b600060208201905081810360008301526157e2816157a6565b9050919050565b60008160e01c9050919050565b600060033d11156158155760046000803e6158126000516157e9565b90505b90565b600060443d106158a55761582a613c11565b60043d036004823e80513d602482011167ffffffffffffffff821117156158525750506158a5565b808201805167ffffffffffffffff81111561587057505050506158a5565b80602083010160043d03850181111561588d5750505050506158a5565b61589c82602001850186613f60565b82955050505050505b90565b7f556e6b6e6f776e2073796e63206572726f720000000000000000000000000000600082015250565b60006158de601283613d61565b91506158e9826158a8565b602082019050919050565b6000602082019050818103600083015261590d816158d1565b9050919050565b7f5072697a65207061796f7574206661696c656400000000000000000000000000600082015250565b600061594a601383613d61565b915061595582615914565b602082019050919050565b600060208201905081810360008301526159798161593d565b9050919050565b7f547265617375727920637574206661696c656400000000000000000000000000600082015250565b60006159b6601383613d61565b91506159c182615980565b602082019050919050565b600060208201905081810360008301526159e5816159a9565b9050919050565b6000606082019050615a016000830186613efd565b615a0e6020830185614333565b8181036040830152615a208184613dad565b9050949350505050565b7f4552433732313a20617070726f766520746f2063616c6c657200000000000000600082015250565b6000615a60601983613d61565b9150615a6b82615a2a565b602082019050919050565b60006020820190508181036000830152615a8f81615a53565b9050919050565b7f4552433732313a207472616e7366657220746f206e6f6e20455243373231526560008201527f63656976657220696d706c656d656e7465720000000000000000000000000000602082015250565b6000615af2603283613d61565b9150615afd82615a96565b604082019050919050565b60006020820190508181036000830152615b2181615ae5565b9050919050565b600081905092915050565b6000615b3e82613d56565b615b488185615b28565b9350615b58818560208601613d72565b80840191505092915050565b6000615b708285615b33565b9150615b7c8284615b33565b91508190509392505050565b7f5061757361626c653a206e6f7420706175736564000000000000000000000000600082015250565b6000615bbe601483613d61565b9150615bc982615b88565b602082019050919050565b60006020820190508181036000830152615bed81615bb1565b9050919050565b6000819050919050565b6000819050919050565b615c19615c1482615bf4565b615bfe565b82525050565b6000819050919050565b615c3a615c3582613ce0565b615c1f565b82525050565b6000615c4c8285615c08565b602082019150615c5c8284615c29565b6020820191508190509392505050565b6000615c7782613ce0565b9150615c8283613ce0565b925082615c9257615c91614a58565b5b828206905092915050565b600081519050919050565b600082825260208201905092915050565b6000615cc482615c9d565b615cce8185615ca8565b9350615cde818560208601613d72565b615ce781613d9c565b840191505092915050565b6000608082019050615d076000830187613e67565b615d146020830186613e67565b615d216040830185613efd565b8181036060830152615d338184615cb9565b905095945050505050565b600081519050615d4d81613c51565b92915050565b600060208284031215615d6957615d68613c1b565b5b6000615d7784828501615d3e565b91505092915050565b7f4552433732313a206d696e7420746f20746865207a65726f2061646472657373600082015250565b6000615db6602083613d61565b9150615dc182615d80565b602082019050919050565b60006020820190508181036000830152615de581615da9565b9050919050565b7f4552433732313a20746f6b656e20616c7265616479206d696e74656400000000600082015250565b6000615e22601c83613d61565b9150615e2d82615dec565b602082019050919050565b60006020820190508181036000830152615e5181615e15565b905091905056fea2646970667358221220f5572355d991443055740a3359cbc94925abbfe4be75212052ef9b6da73260ae64736f6c634300081c0033",
  "linkReferences": {},
  "deployedLinkReferences": {}
}