{
  "_format": "hh-sol-artifact-1",
  "contractName": "VerticalProjectNFT",
  "sourceName": "contracts/VerticalProjectNFT.sol",
  "abi": [
    {
      "inputs": [
        {
          "internalType": "address",
          "name": "_virtualToken",
          "type": "address"
        },
        {
          "internalType": "address",
          "name": "_vertToken",
          "type": "address"
        },
        {
          "internalType": "address",
          "name": "_treasury",
          "type": "address"
        }
      ],
      "stateMutability": "nonpayable",
      "type": "constructor"
    },
    {
      "anonymous": false,
      "inputs": [
        {
          "indexed": true,
          "internalType": "address",
          "name": "owner",
          "type": "address"
        },
        {
          "indexed": true,
          "internalType": "address",
          "name": "approved",
          "type": "address"
        },
        {
          "indexed": true,
          "internalType": "uint256",
          "name": "tokenId",
          "type": "uint256"
        }
      ],
      "name": "Approval",
      "type": "event"
    },
    {
      "anonymous": false,
      "inputs": [
        {
          "indexed": true,
          "internalType": "address",
          "name": "owner",
          "type": "address"
        },
        {
          "indexed": true,
          "internalType": "address",
          "name": "operator",
          "type": "address"
        },
        {
          "indexed": false,
          "internalType": "bool",
          "name": "approved",
          "type": "bool"
        }
      ],
      "name": "ApprovalForAll",
      "type": "event"
    },
    {
      "anonymous": false,
      "inputs": [
        {
          "indexed": false,
          "internalType": "uint256",
          "name": "_fromTokenId",
          "type": "uint256"
        },
        {
          "indexed": false,
          "internalType": "uint256",
          "name": "_toTokenId",
          "type": "uint256"
        }
      ],
      "name": "BatchMetadataUpdate",
      "type": "event"
    },
    {
      "anonymous": false,
      "inputs": [
        {
          "indexed": false,
          "internalType": "uint256",
          "name": "_tokenId",
          "type": "uint256"
        }
      ],
      "name": "MetadataUpdate",
      "type": "event"
    },
    {
      "anonymous": false,
      "inputs": [
        {
          "indexed": true,
          "internalType": "address",
          "name": "user",
          "type": "address"
        },
        {
          "indexed": false,
          "internalType": "uint256",
          "name": "tokenId",
          "type": "uint256"
        },
        {
          "indexed": false,
          "internalType": "enum VerticalProjectNFT.Rarity",
          "name": "rarity",
          "type": "uint8"
        },
        {
          "indexed": false,
          "internalType": "string",
          "name": "uri",
          "type": "string"
        }
      ],
      "name": "NFTMinted",
      "type": "event"
    },
    {
      "anonymous": false,
      "inputs": [
        {
          "indexed": true,
          "internalType": "address",
          "name": "previousOwner",
          "type": "address"
        },
        {
          "indexed": true,
          "internalType": "address",
          "name": "newOwner",
          "type": "address"
        }
      ],
      "name": "OwnershipTransferred",
      "type": "event"
    },
    {
      "anonymous": false,
      "inputs": [
        {
          "indexed": false,
          "internalType": "address",
          "name": "account",
          "type": "address"
        }
      ],
      "name": "Paused",
      "type": "event"
    },
    {
      "anonymous": false,
      "inputs": [
        {
          "indexed": false,
          "internalType": "uint256",
          "name": "newVirtualPrice",
          "type": "uint256"
        },
        {
          "indexed": false,
          "internalType": "uint256",
          "name": "newVertPrice",
          "type": "uint256"
        }
      ],
      "name": "PricesUpdated",
      "type": "event"
    },
    {
      "anonymous": false,
      "inputs": [
        {
          "indexed": true,
          "internalType": "address",
          "name": "user",
          "type": "address"
        },
        {
          "indexed": false,
          "internalType": "uint256",
          "name": "amount",
          "type": "uint256"
        }
      ],
      "name": "PrizeClaimed",
      "type": "event"
    },
    {
      "anonymous": false,
      "inputs": [
        {
          "indexed": false,
          "internalType": "enum VerticalProjectNFT.Rarity",
          "name": "rarity",
          "type": "uint8"
        },
        {
          "indexed": false,
          "internalType": "uint256",
          "name": "newPercent",
          "type": "uint256"
        }
      ],
      "name": "PrizePercentUpdated",
      "type": "event"
    },
    {
      "anonymous": false,
      "inputs": [
        {
          "indexed": true,
          "internalType": "address",
          "name": "sender",
          "type": "address"
        },
        {
          "indexed": false,
          "internalType": "uint256",
          "name": "amount",
          "type": "uint256"
        }
      ],
      "name": "PrizePoolFunded",
      "type": "event"
    },
    {
      "anonymous": false,
      "inputs": [
        {
          "indexed": false,
          "internalType": "uint256",
          "name": "newTotal",
          "type": "uint256"
        }
      ],
      "name": "PrizePoolUpdated",
      "type": "event"
    },
    {
      "anonymous": false,
      "inputs": [
        {
          "indexed": true,
          "internalType": "address",
          "name": "from",
          "type": "address"
        },
        {
          "indexed": true,
          "internalType": "address",
          "name": "to",
          "type": "address"
        },
        {
          "indexed": true,
          "internalType": "uint256",
          "name": "tokenId",
          "type": "uint256"
        }
      ],
      "name": "Transfer",
      "type": "event"
    },
    {
      "anonymous": false,
      "inputs": [
        {
          "indexed": false,
          "internalType": "address",
          "name": "newTreasury",
          "type": "address"
        }
      ],
      "name": "TreasuryUpdated",
      "type": "event"
    },
    {
      "anonymous": false,
      "inputs": [
        {
          "indexed": false,
          "internalType": "address",
          "name": "account",
          "type": "address"
        }
      ],
      "name": "Unpaused",
      "type": "event"
    },
    {
      "anonymous": false,
      "inputs": [
        {
          "indexed": false,
          "internalType": "address",
          "name": "newVertToken",
          "type": "address"
        }
      ],
      "name": "VertTokenUpdated",
      "type": "event"
    },
    {
      "anonymous": false,
      "inputs": [
        {
          "indexed": false,
          "internalType": "address",
          "name": "newVirtualToken",
          "type": "address"
        }
      ],
      "name": "VirtualTokenUpdated",
      "type": "event"
    },
    {
      "inputs": [],
      "name": "ROYALTY_FEE_BPS",
      "outputs": [
        {
          "internalType": "uint96",
          "name": "",
          "type": "uint96"
        }
      ],
      "stateMutability": "view",
      "type": "function"
    },
    {
      "inputs": [
        {
          "internalType": "uint256",
          "name": "amount",
          "type": "uint256"
        }
      ],
      "name": "addToPrizePool",
      "outputs": [],
      "stateMutability": "nonpayable",
      "type": "function"
    },
    {
      "inputs": [
        {
          "internalType": "address",
          "name": "to",
          "type": "address"
        },
        {
          "internalType": "uint256",
          "name": "tokenId",
          "type": "uint256"
        }
      ],
      "name": "approve",
      "outputs": [],
      "stateMutability": "nonpayable",
      "type": "function"
    },
    {
      "inputs": [
        {
          "internalType": "address",
          "name": "owner",
          "type": "address"
        }
      ],
      "name": "balanceOf",
      "outputs": [
        {
          "internalType": "uint256",
          "name": "",
          "type": "uint256"
        }
      ],
      "stateMutability": "view",
      "type": "function"
    },
    {
      "inputs": [
        {
          "internalType": "address",
          "name": "to",
          "type": "address"
        },
        {
          "internalType": "uint256",
          "name": "amount",
          "type": "uint256"
        }
      ],
      "name": "claimPrize",
      "outputs": [],
      "stateMutability": "nonpayable",
      "type": "function"
    },
    {
      "inputs": [
        {
          "internalType": "uint256",
          "name": "amount",
          "type": "uint256"
        }
      ],
      "name": "depositToPrizePool",
      "outputs": [],
      "stateMutability": "nonpayable",
      "type": "function"
    },
    {
      "inputs": [
        {
          "internalType": "uint256",
          "name": "tokenId",
          "type": "uint256"
        }
      ],
      "name": "getApproved",
      "outputs": [
        {
          "internalType": "address",
          "name": "",
          "type": "address"
        }
      ],
      "stateMutability": "view",
      "type": "function"
    },
    {
      "inputs": [],
      "name": "getPrizePoolBalance",
      "outputs": [
        {
          "internalType": "uint256",
          "name": "",
          "type": "uint256"
        }
      ],
      "stateMutability": "view",
      "type": "function"
    },
    {
      "inputs": [
        {
          "internalType": "uint256",
          "name": "tokenId",
          "type": "uint256"
        }
      ],
      "name": "getTokenRarity",
      "outputs": [
        {
          "internalType": "enum VerticalProjectNFT.Rarity",
          "name": "",
          "type": "uint8"
        }
      ],
      "stateMutability": "view",
      "type": "function"
    },
    {
      "inputs": [],
      "name": "getTotalMinted",
      "outputs": [
        {
          "internalType": "uint256",
          "name": "",
          "type": "uint256"
        }
      ],
      "stateMutability": "view",
      "type": "function"
    },
    {
      "inputs": [
        {
          "internalType": "address",
          "name": "owner",
          "type": "address"
        },
        {
          "internalType": "address",
          "name": "operator",
          "type": "address"
        }
      ],
      "name": "isApprovedForAll",
      "outputs": [
        {
          "internalType": "bool",
          "name": "",
          "type": "bool"
        }
      ],
      "stateMutability": "view",
      "type": "function"
    },
    {
      "inputs": [
        {
          "internalType": "string",
          "name": "tokenURI",
          "type": "string"
        }
      ],
      "name": "mintWithVert",
      "outputs": [],
      "stateMutability": "nonpayable",
      "type": "function"
    },
    {
      "inputs": [
        {
          "internalType": "string",
          "name": "tokenURI",
          "type": "string"
        }
      ],
      "name": "mintWithVirtual",
      "outputs": [],
      "stateMutability": "nonpayable",
      "type": "function"
    },
    {
      "inputs": [],
      "name": "name",
      "outputs": [
        {
          "internalType": "string",
          "name": "",
          "type": "string"
        }
      ],
      "stateMutability": "view",
      "type": "function"
    },
    {
      "inputs": [],
      "name": "nextTokenId",
      "outputs": [
        {
          "internalType": "uint256",
          "name": "",
          "type": "uint256"
        }
      ],
      "stateMutability": "view",
      "type": "function"
    },
    {
      "inputs": [],
      "name": "owner",
      "outputs": [
        {
          "internalType": "address",
          "name": "",
          "type": "address"
        }
      ],
      "stateMutability": "view",
      "type": "function"
    },
    {
      "inputs": [
        {
          "internalType": "uint256",
          "name": "tokenId",
          "type": "uint256"
        }
      ],
      "name": "ownerOf",
      "outputs": [
        {
          "internalType": "address",
          "name": "",
          "type": "address"
        }
      ],
      "stateMutability": "view",
      "type": "function"
    },
    {
      "inputs": [],
      "name": "pause",
      "outputs": [],
      "stateMutability": "nonpayable",
      "type": "function"
    },
    {
      "inputs": [],
      "name": "paused",
      "outputs": [
        {
          "internalType": "bool",
          "name": "",
          "type": "bool"
        }
      ],
      "stateMutability": "view",
      "type": "function"
    },
    {
      "inputs": [],
      "name": "priceVert",
      "outputs": [
        {
          "internalType": "uint256",
          "name": "",
          "type": "uint256"
        }
      ],
      "stateMutability": "view",
      "type": "function"
    },
    {
      "inputs": [],
      "name": "priceVirtual",
      "outputs": [
        {
          "internalType": "uint256",
          "name": "",
          "type": "uint256"
        }
      ],
      "stateMutability": "view",
      "type": "function"
    },
    {
      "inputs": [
        {
          "internalType": "enum VerticalProjectNFT.Rarity",
          "name": "",
          "type": "uint8"
        }
      ],
      "name": "prizePercentByRarity",
      "outputs": [
        {
          "internalType": "uint256",
          "name": "",
          "type": "uint256"
        }
      ],
      "stateMutability": "view",
      "type": "function"
    },
    {
      "inputs": [],
      "name": "prizePool",
      "outputs": [
        {
          "internalType": "uint256",
          "name": "",
          "type": "uint256"
        }
      ],
      "stateMutability": "view",
      "type": "function"
    },
    {
      "inputs": [],
      "name": "renounceOwnership",
      "outputs": [],
      "stateMutability": "nonpayable",
      "type": "function"
    },
    {
      "inputs": [
        {
          "internalType": "uint256",
          "name": "",
          "type": "uint256"
        },
        {
          "internalType": "uint256",
          "name": "salePrice",
          "type": "uint256"
        }
      ],
      "name": "royaltyInfo",
      "outputs": [
        {
          "internalType": "address",
          "name": "",
          "type": "address"
        },
        {
          "internalType": "uint256",
          "name": "",
          "type": "uint256"
        }
      ],
      "stateMutability": "view",
      "type": "function"
    },
    {
      "inputs": [
        {
          "internalType": "address",
          "name": "from",
          "type": "address"
        },
        {
          "internalType": "address",
          "name": "to",
          "type": "address"
        },
        {
          "internalType": "uint256",
          "name": "tokenId",
          "type": "uint256"
        }
      ],
      "name": "safeTransferFrom",
      "outputs": [],
      "stateMutability": "nonpayable",
      "type": "function"
    },
    {
      "inputs": [
        {
          "internalType": "address",
          "name": "from",
          "type": "address"
        },
        {
          "internalType": "address",
          "name": "to",
          "type": "address"
        },
        {
          "internalType": "uint256",
          "name": "tokenId",
          "type": "uint256"
        },
        {
          "internalType": "bytes",
          "name": "data",
          "type": "bytes"
        }
      ],
      "name": "safeTransferFrom",
      "outputs": [],
      "stateMutability": "nonpayable",
      "type": "function"
    },
    {
      "inputs": [
        {
          "internalType": "address",
          "name": "operator",
          "type": "address"
        },
        {
          "internalType": "bool",
          "name": "approved",
          "type": "bool"
        }
      ],
      "name": "setApprovalForAll",
      "outputs": [],
      "stateMutability": "nonpayable",
      "type": "function"
    },
    {
      "inputs": [
        {
          "internalType": "uint256",
          "name": "newVirtualPrice",
          "type": "uint256"
        },
        {
          "internalType": "uint256",
          "name": "newVertPrice",
          "type": "uint256"
        }
      ],
      "name": "setPrices",
      "outputs": [],
      "stateMutability": "nonpayable",
      "type": "function"
    },
    {
      "inputs": [
        {
          "internalType": "enum VerticalProjectNFT.Rarity",
          "name": "rarity",
          "type": "uint8"
        },
        {
          "internalType": "uint256",
          "name": "percent",
          "type": "uint256"
        }
      ],
      "name": "setPrizePercent",
      "outputs": [],
      "stateMutability": "nonpayable",
      "type": "function"
    },
    {
      "inputs": [
        {
          "internalType": "uint256",
          "name": "tokenId",
          "type": "uint256"
        },
        {
          "internalType": "string",
          "name": "_tokenURI",
          "type": "string"
        }
      ],
      "name": "setTokenURI",
      "outputs": [],
      "stateMutability": "nonpayable",
      "type": "function"
    },
    {
      "inputs": [
        {
          "internalType": "address",
          "name": "addr",
          "type": "address"
        }
      ],
      "name": "setTreasury",
      "outputs": [],
      "stateMutability": "nonpayable",
      "type": "function"
    },
    {
      "inputs": [
        {
          "internalType": "address",
          "name": "_vertToken",
          "type": "address"
        }
      ],
      "name": "setVertToken",
      "outputs": [],
      "stateMutability": "nonpayable",
      "type": "function"
    },
    {
      "inputs": [
        {
          "internalType": "address",
          "name": "_virtualToken",
          "type": "address"
        }
      ],
      "name": "setVirtualToken",
      "outputs": [],
      "stateMutability": "nonpayable",
      "type": "function"
    },
    {
      "inputs": [
        {
          "internalType": "bytes4",
          "name": "interfaceId",
          "type": "bytes4"
        }
      ],
      "name": "supportsInterface",
      "outputs": [
        {
          "internalType": "bool",
          "name": "",
          "type": "bool"
        }
      ],
      "stateMutability": "view",
      "type": "function"
    },
    {
      "inputs": [],
      "name": "symbol",
      "outputs": [
        {
          "internalType": "string",
          "name": "",
          "type": "string"
        }
      ],
      "stateMutability": "view",
      "type": "function"
    },
    {
      "inputs": [
        {
          "internalType": "uint256",
          "name": "",
          "type": "uint256"
        }
      ],
      "name": "tokenRarity",
      "outputs": [
        {
          "internalType": "enum VerticalProjectNFT.Rarity",
          "name": "",
          "type": "uint8"
        }
      ],
      "stateMutability": "view",
      "type": "function"
    },
    {
      "inputs": [
        {
          "internalType": "uint256",
          "name": "tokenId",
          "type": "uint256"
        }
      ],
      "name": "tokenURI",
      "outputs": [
        {
          "internalType": "string",
          "name": "",
          "type": "string"
        }
      ],
      "stateMutability": "view",
      "type": "function"
    },
    {
      "inputs": [
        {
          "internalType": "address",
          "name": "from",
          "type": "address"
        },
        {
          "internalType": "address",
          "name": "to",
          "type": "address"
        },
        {
          "internalType": "uint256",
          "name": "tokenId",
          "type": "uint256"
        }
      ],
      "name": "transferFrom",
      "outputs": [],
      "stateMutability": "nonpayable",
      "type": "function"
    },
    {
      "inputs": [
        {
          "internalType": "address",
          "name": "newOwner",
          "type": "address"
        }
      ],
      "name": "transferOwnership",
      "outputs": [],
      "stateMutability": "nonpayable",
      "type": "function"
    },
    {
      "inputs": [],
      "name": "treasury",
      "outputs": [
        {
          "internalType": "address",
          "name": "",
          "type": "address"
        }
      ],
      "stateMutability": "view",
      "type": "function"
    },
    {
      "inputs": [],
      "name": "unpause",
      "outputs": [],
      "stateMutability": "nonpayable",
      "type": "function"
    },
    {
      "inputs": [],
      "name": "vertToken",
      "outputs": [
        {
          "internalType": "contract IERC20",
          "name": "",
          "type": "address"
        }
      ],
      "stateMutability": "view",
      "type": "function"
    },
    {
      "inputs": [],
      "name": "virtualToken",
      "outputs": [
        {
          "internalType": "contract IERC20",
          "name": "",
          "type": "address"
        }
      ],
      "stateMutability": "view",
      "type": "function"
    }
  ],
  "bytecode": "0x60806040526722b1c8c1227a00006009556714d1120d7b160000600a5534801561002857600080fd5b50604051616202380380616202833981810160405281019061004a919061055f565b6040518060400160405280601081526020017f566572746963616c2050726f6a656374000000000000000000000000000000008152506040518060400160405280600781526020017f564552544e46540000000000000000000000000000000000000000000000000081525081600090816100c59190610802565b5080600190816100d59190610802565b5050506100f46100e961042e60201b60201c565b61043660201b60201c565b6000600760146101000a81548160ff0219169083151502179055506001600881905550600073ffffffffffffffffffffffffffffffffffffffff168373ffffffffffffffffffffffffffffffffffffffff1603610186576040517f08c379a000000000000000000000000000000000000000000000000000000000815260040161017d90610957565b60405180910390fd5b600073ffffffffffffffffffffffffffffffffffffffff168273ffffffffffffffffffffffffffffffffffffffff16036101f5576040517f08c379a00000000000000000000000000000000000000000000000000000000081526004016101ec906109e9565b60405180910390fd5b600073ffffffffffffffffffffffffffffffffffffffff168173ffffffffffffffffffffffffffffffffffffffff1603610264576040517f08c379a000000000000000000000000000000000000000000000000000000000815260040161025b90610a55565b60405180910390fd5b82600e60006101000a81548173ffffffffffffffffffffffffffffffffffffffff021916908373ffffffffffffffffffffffffffffffffffffffff16021790555081600d60006101000a81548173ffffffffffffffffffffffffffffffffffffffff021916908373ffffffffffffffffffffffffffffffffffffffff16021790555080600f60006101000a81548173ffffffffffffffffffffffffffffffffffffffff021916908373ffffffffffffffffffffffffffffffffffffffff1602179055506001600b819055506003601160006001600481111561034957610348610a75565b5b600481111561035b5761035a610a75565b5b8152602001908152602001600020819055506007601160006002600481111561038757610386610a75565b5b600481111561039957610398610a75565b5b815260200190815260200160002081905550600f60116000600360048111156103c5576103c4610a75565b5b60048111156103d7576103d6610a75565b5b81526020019081526020016000208190555060286011600060048081111561040257610401610a75565b5b600481111561041457610413610a75565b5b815260200190815260200160002081905550505050610aa4565b600033905090565b6000600760009054906101000a900473ffffffffffffffffffffffffffffffffffffffff16905081600760006101000a81548173ffffffffffffffffffffffffffffffffffffffff021916908373ffffffffffffffffffffffffffffffffffffffff1602179055508173ffffffffffffffffffffffffffffffffffffffff168173ffffffffffffffffffffffffffffffffffffffff167f8be0079c531659141344cd1fd0a4f28419497f9722a3daafe3b4186f6b6457e060405160405180910390a35050565b600080fd5b600073ffffffffffffffffffffffffffffffffffffffff82169050919050565b600061052c82610501565b9050919050565b61053c81610521565b811461054757600080fd5b50565b60008151905061055981610533565b92915050565b600080600060608486031215610578576105776104fc565b5b60006105868682870161054a565b93505060206105978682870161054a565b92505060406105a88682870161054a565b9150509250925092565b600081519050919050565b7f4e487b7100000000000000000000000000000000000000000000000000000000600052604160045260246000fd5b7f4e487b7100000000000000000000000000000000000000000000000000000000600052602260045260246000fd5b6000600282049050600182168061063357607f821691505b602082108103610646576106456105ec565b5b50919050565b60008190508160005260206000209050919050565b60006020601f8301049050919050565b600082821b905092915050565b6000600883026106ae7fffffffffffffffffffffffffffffffffffffffffffffffffffffffffffffffff82610671565b6106b88683610671565b95508019841693508086168417925050509392505050565b6000819050919050565b6000819050919050565b60006106ff6106fa6106f5846106d0565b6106da565b6106d0565b9050919050565b6000819050919050565b610719836106e4565b61072d61072582610706565b84845461067e565b825550505050565b600090565b610742610735565b61074d818484610710565b505050565b5b818110156107715761076660008261073a565b600181019050610753565b5050565b601f8211156107b6576107878161064c565b61079084610661565b8101602085101561079f578190505b6107b36107ab85610661565b830182610752565b50505b505050565b600082821c905092915050565b60006107d9600019846008026107bb565b1980831691505092915050565b60006107f283836107c8565b9150826002028217905092915050565b61080b826105b2565b67ffffffffffffffff811115610824576108236105bd565b5b61082e825461061b565b610839828285610775565b600060209050601f83116001811461086c576000841561085a578287015190505b61086485826107e6565b8655506108cc565b601f19841661087a8661064c565b60005b828110156108a25784890151825560018201915060208501945060208101905061087d565b868310156108bf57848901516108bb601f8916826107c8565b8355505b6001600288020188555050505b505050505050565b600082825260208201905092915050565b7f5669727475616c20746f6b656e2063616e6e6f74206265207a65726f2061646460008201527f7265737300000000000000000000000000000000000000000000000000000000602082015250565b60006109416024836108d4565b915061094c826108e5565b604082019050919050565b6000602082019050818103600083015261097081610934565b9050919050565b7f5645525420746f6b656e2063616e6e6f74206265207a65726f2061646472657360008201527f7300000000000000000000000000000000000000000000000000000000000000602082015250565b60006109d36021836108d4565b91506109de82610977565b604082019050919050565b60006020820190508181036000830152610a02816109c6565b9050919050565b7f54726561737572792063616e6e6f74206265207a65726f206164647265737300600082015250565b6000610a3f601f836108d4565b9150610a4a82610a09565b602082019050919050565b60006020820190508181036000830152610a6e81610a32565b9050919050565b7f4e487b7100000000000000000000000000000000000000000000000000000000600052602160045260246000fd5b61574f80610ab36000396000f3fe608060405234801561001057600080fd5b50600436106102745760003560e01c8063689a0bd611610151578063b2da2715116100c3578063e985e9c511610087578063e985e9c51461073a578063ed15677c1461076a578063f0f4426014610786578063f24f069d146107a2578063f2fde38b146107c0578063f42bdd0e146107dc57610274565b8063b2da271514610698578063b88d4fde146106b4578063b8fa4366146106d0578063c87b56dd146106ee578063d7149aab1461071e57610274565b80638456cb59116101155780638456cb59146105ea5780638da5cb5b146105f457806395d89b4114610612578063a22cb46514610630578063ace79f4f1461064c578063afb0a3691461066857610274565b8063689a0bd61461055657806370a0823114610574578063715018a6146105a4578063719ce73e146105ae57806375794a3c146105cc57610274565b80632a55205a116101ea57806344ee8b3d116101ae57806344ee8b3d1461046c578063480628ae1461049c578063555ec78b146104ba5780635c975abb146104ea57806361d027b3146105085780636352211e1461052657610274565b80632a55205a146103db5780633f4ba83a1461040c57806342842e0e14610416578063436be37214610432578063448843481461045057610274565b80630ca1c5c91161023c5780630ca1c5c91461032f578063162094c41461034d578063186ba25314610369578063194a5fc9146103855780631f514c52146103a157806323b872dd146103bf57610274565b806301ffc9a71461027957806305fefda7146102a957806306fdde03146102c5578063081812fc146102e3578063095ea7b314610313575b600080fd5b610293600480360381019061028e9190613740565b6107f8565b6040516102a09190613788565b60405180910390f35b6102c360048036038101906102be91906137d9565b610872565b005b6102cd6108c5565b6040516102da91906138a9565b60405180910390f35b6102fd60048036038101906102f891906138cb565b610957565b60405161030a9190613939565b60405180910390f35b61032d60048036038101906103289190613980565b61099d565b005b610337610ab4565b60405161034491906139cf565b60405180910390f35b61036760048036038101906103629190613b1f565b610aca565b005b610383600480360381019061037e91906138cb565b610b28565b005b61039f600480360381019061039a9190613ba0565b610c66565b005b6103a9610d2b565b6040516103b69190613c3f565b60405180910390f35b6103d960048036038101906103d49190613c5a565b610d51565b005b6103f560048036038101906103f091906137d9565b610db1565b604051610403929190613cad565b60405180910390f35b610414610e0b565b005b610430600480360381019061042b9190613c5a565b610e1d565b005b61043a610e3d565b6040516104479190613cfd565b60405180910390f35b61046a60048036038101906104659190613d18565b610e43565b005b61048660048036038101906104819190613d61565b6110ef565b60405161049391906139cf565b60405180910390f35b6104a4611107565b6040516104b19190613c3f565b60405180910390f35b6104d460048036038101906104cf91906138cb565b61112d565b6040516104e19190613e05565b60405180910390f35b6104f261119f565b6040516104ff9190613788565b60405180910390f35b6105106111b6565b60405161051d9190613939565b60405180910390f35b610540600480360381019061053b91906138cb565b6111dc565b60405161054d9190613939565b60405180910390f35b61055e611262565b60405161056b91906139cf565b60405180910390f35b61058e60048036038101906105899190613e20565b611268565b60405161059b91906139cf565b60405180910390f35b6105ac61131f565b005b6105b6611333565b6040516105c391906139cf565b60405180910390f35b6105d4611339565b6040516105e191906139cf565b60405180910390f35b6105f261133f565b005b6105fc611351565b6040516106099190613939565b60405180910390f35b61061a61137b565b60405161062791906138a9565b60405180910390f35b61064a60048036038101906106459190613e79565b61140d565b005b61066660048036038101906106619190613980565b611423565b005b610682600480360381019061067d91906138cb565b6115ba565b60405161068f9190613e05565b60405180910390f35b6106b260048036038101906106ad9190613d18565b6115da565b005b6106ce60048036038101906106c99190613f5a565b611781565b005b6106d86117e3565b6040516106e591906139cf565b60405180910390f35b610708600480360381019061070391906138cb565b6117e9565b60405161071591906138a9565b60405180910390f35b61073860048036038101906107339190613e20565b611843565b005b610754600480360381019061074f9190613fdd565b611935565b6040516107619190613788565b60405180910390f35b610784600480360381019061077f91906138cb565b6119c9565b005b6107a0600480360381019061079b9190613e20565b611b57565b005b6107aa611c49565b6040516107b791906139cf565b60405180910390f35b6107da60048036038101906107d59190613e20565b611c53565b005b6107f660048036038101906107f19190613e20565b611cd6565b005b60007f2a55205a000000000000000000000000000000000000000000000000000000007bffffffffffffffffffffffffffffffffffffffffffffffffffffffff1916827bffffffffffffffffffffffffffffffffffffffffffffffffffffffff1916148061086b575061086a82611dc8565b5b9050919050565b61087a611e29565b8160098190555080600a819055507f6546f60f34df611fa42503098acc39d5ab88bc73febe64b3cc14e5a92e3a66a782826040516108b992919061401d565b60405180910390a15050565b6060600080546108d490614075565b80601f016020809104026020016040519081016040528092919081815260200182805461090090614075565b801561094d5780601f106109225761010080835404028352916020019161094d565b820191906000526020600020905b81548152906001019060200180831161093057829003601f168201915b5050505050905090565b600061096282611ea7565b6004600083815260200190815260200160002060009054906101000a900473ffffffffffffffffffffffffffffffffffffffff169050919050565b60006109a8826111dc565b90508073ffffffffffffffffffffffffffffffffffffffff168373ffffffffffffffffffffffffffffffffffffffff1603610a18576040517f08c379a0000000000000000000000000000000000000000000000000000000008152600401610a0f90614118565b60405180910390fd5b8073ffffffffffffffffffffffffffffffffffffffff16610a37611ef2565b73ffffffffffffffffffffffffffffffffffffffff161480610a665750610a6581610a60611ef2565b611935565b5b610aa5576040517f08c379a0000000000000000000000000000000000000000000000000000000008152600401610a9c906141aa565b60405180910390fd5b610aaf8383611efa565b505050565b60006001600b54610ac591906141f9565b905090565b610ad2611e29565b610adb82611fb3565b610b1a576040517f08c379a0000000000000000000000000000000000000000000000000000000008152600401610b1190614279565b60405180910390fd5b610b248282611ff4565b5050565b610b30611e29565b600d60009054906101000a900473ffffffffffffffffffffffffffffffffffffffff1673ffffffffffffffffffffffffffffffffffffffff166323b872dd3330846040518463ffffffff1660e01b8152600401610b8f93929190614299565b6020604051808303816000875af1158015610bae573d6000803e3d6000fd5b505050506040513d601f19601f82011682018060405250810190610bd291906142e5565b610c11576040517f08c379a0000000000000000000000000000000000000000000000000000000008152600401610c089061435e565b60405180910390fd5b80600c6000828254610c23919061437e565b925050819055507f7bc22304ac771f50d6cc29b56387cb4855f284e7a1f83e6420fe9b8bbdaf45c9600c54604051610c5b91906139cf565b60405180910390a150565b610c6e611e29565b6064811115610cb2576040517f08c379a0000000000000000000000000000000000000000000000000000000008152600401610ca9906143fe565b60405180910390fd5b8060116000846004811115610cca57610cc9613d8e565b5b6004811115610cdc57610cdb613d8e565b5b8152602001908152602001600020819055507fa74628ab88e39c22615acb79128db8683fe215f003fa969bd6b3232eba537a668282604051610d1f92919061441e565b60405180910390a15050565b600e60009054906101000a900473ffffffffffffffffffffffffffffffffffffffff1681565b610d62610d5c611ef2565b82612098565b610da1576040517f08c379a0000000000000000000000000000000000000000000000000000000008152600401610d98906144b9565b60405180910390fd5b610dac83838361212d565b505050565b600080600f60009054906101000a900473ffffffffffffffffffffffffffffffffffffffff166127106101f46bffffffffffffffffffffffff1685610df691906144d9565b610e00919061454a565b915091509250929050565b610e13611e29565b610e1b612426565b565b610e3883838360405180602001604052806000815250611781565b505050565b6101f481565b610e4b612489565b610e536124d3565b6000600d60009054906101000a900473ffffffffffffffffffffffffffffffffffffffff1690506000600a549050600073ffffffffffffffffffffffffffffffffffffffff168273ffffffffffffffffffffffffffffffffffffffff1603610ef0576040517f08c379a0000000000000000000000000000000000000000000000000000000008152600401610ee7906145c7565b60405180910390fd5b8173ffffffffffffffffffffffffffffffffffffffff166323b872dd3330846040518463ffffffff1660e01b8152600401610f2d93929190614299565b6020604051808303816000875af1158015610f4c573d6000803e3d6000fd5b505050506040513d601f19601f82011682018060405250810190610f7091906142e5565b610faf576040517f08c379a0000000000000000000000000000000000000000000000000000000008152600401610fa690614633565b60405180910390fd5b60006064601983610fc091906144d9565b610fca919061454a565b905060008183610fda91906141f9565b90508373ffffffffffffffffffffffffffffffffffffffff1663a9059cbb600f60009054906101000a900473ffffffffffffffffffffffffffffffffffffffff16846040518363ffffffff1660e01b8152600401611039929190613cad565b6020604051808303816000875af1158015611058573d6000803e3d6000fd5b505050506040513d601f19601f8201168201806040525081019061107c91906142e5565b6110bb576040517f08c379a00000000000000000000000000000000000000000000000000000000081526004016110b29061469f565b60405180910390fd5b80600c60008282546110cd919061437e565b925050819055506110e033866001612522565b505050506110ec612904565b50565b60116020528060005260406000206000915090505481565b600d60009054906101000a900473ffffffffffffffffffffffffffffffffffffffff1681565b600061113882611fb3565b611177576040517f08c379a000000000000000000000000000000000000000000000000000000000815260040161116e90614279565b60405180910390fd5b6010600083815260200190815260200160002060009054906101000a900460ff169050919050565b6000600760149054906101000a900460ff16905090565b600f60009054906101000a900473ffffffffffffffffffffffffffffffffffffffff1681565b6000806111e88361290e565b9050600073ffffffffffffffffffffffffffffffffffffffff168173ffffffffffffffffffffffffffffffffffffffff1603611259576040517f08c379a00000000000000000000000000000000000000000000000000000000081526004016112509061470b565b60405180910390fd5b80915050919050565b60095481565b60008073ffffffffffffffffffffffffffffffffffffffff168273ffffffffffffffffffffffffffffffffffffffff16036112d8576040517f08c379a00000000000000000000000000000000000000000000000000000000081526004016112cf9061479d565b60405180910390fd5b600360008373ffffffffffffffffffffffffffffffffffffffff1673ffffffffffffffffffffffffffffffffffffffff168152602001908152602001600020549050919050565b611327611e29565b611331600061294b565b565b600c5481565b600b5481565b611347611e29565b61134f612a11565b565b6000600760009054906101000a900473ffffffffffffffffffffffffffffffffffffffff16905090565b60606001805461138a90614075565b80601f01602080910402602001604051908101604052809291908181526020018280546113b690614075565b80156114035780601f106113d857610100808354040283529160200191611403565b820191906000526020600020905b8154815290600101906020018083116113e657829003601f168201915b5050505050905090565b61141f611418611ef2565b8383612a74565b5050565b61142b611e29565b600c54811115611470576040517f08c379a000000000000000000000000000000000000000000000000000000000815260040161146790614809565b60405180910390fd5b80600c600082825461148291906141f9565b92505081905550600d60009054906101000a900473ffffffffffffffffffffffffffffffffffffffff1673ffffffffffffffffffffffffffffffffffffffff1663a9059cbb83836040518363ffffffff1660e01b81526004016114e6929190613cad565b6020604051808303816000875af1158015611505573d6000803e3d6000fd5b505050506040513d601f19601f8201168201806040525081019061152991906142e5565b611568576040517f08c379a000000000000000000000000000000000000000000000000000000000815260040161155f90614875565b60405180910390fd5b8173ffffffffffffffffffffffffffffffffffffffff167f95681e512bc0fe659e195e06c283eada494316f3d801213e48e7101af92bf770826040516115ae91906139cf565b60405180910390a25050565b60106020528060005260406000206000915054906101000a900460ff1681565b6115e2612489565b6115ea6124d3565b6000600e60009054906101000a900473ffffffffffffffffffffffffffffffffffffffff16905060006009549050600073ffffffffffffffffffffffffffffffffffffffff168273ffffffffffffffffffffffffffffffffffffffff1603611687576040517f08c379a000000000000000000000000000000000000000000000000000000000815260040161167e906148e1565b60405180910390fd5b8173ffffffffffffffffffffffffffffffffffffffff166323b872dd33600f60009054906101000a900473ffffffffffffffffffffffffffffffffffffffff16846040518463ffffffff1660e01b81526004016116e693929190614299565b6020604051808303816000875af1158015611705573d6000803e3d6000fd5b505050506040513d601f19601f8201168201806040525081019061172991906142e5565b611768576040517f08c379a000000000000000000000000000000000000000000000000000000000815260040161175f9061494d565b60405180910390fd5b61177433846000612522565b505061177e612904565b50565b61179261178c611ef2565b83612098565b6117d1576040517f08c379a00000000000000000000000000000000000000000000000000000000081526004016117c8906144b9565b60405180910390fd5b6117dd84848484612be0565b50505050565b600a5481565b60606117f482611fb3565b611833576040517f08c379a000000000000000000000000000000000000000000000000000000000815260040161182a90614279565b60405180910390fd5b61183c82612c3c565b9050919050565b61184b611e29565b600073ffffffffffffffffffffffffffffffffffffffff168173ffffffffffffffffffffffffffffffffffffffff16036118ba576040517f08c379a00000000000000000000000000000000000000000000000000000000081526004016118b1906149df565b60405180910390fd5b80600e60006101000a81548173ffffffffffffffffffffffffffffffffffffffff021916908373ffffffffffffffffffffffffffffffffffffffff1602179055507f642efe757f7c097df2555d74532321ce38535b3921193c8777a267303689883b8160405161192a9190613939565b60405180910390a150565b6000600560008473ffffffffffffffffffffffffffffffffffffffff1673ffffffffffffffffffffffffffffffffffffffff16815260200190815260200160002060008373ffffffffffffffffffffffffffffffffffffffff1673ffffffffffffffffffffffffffffffffffffffff16815260200190815260200160002060009054906101000a900460ff16905092915050565b60008111611a0c576040517f08c379a0000000000000000000000000000000000000000000000000000000008152600401611a0390614a4b565b60405180910390fd5b600d60009054906101000a900473ffffffffffffffffffffffffffffffffffffffff1673ffffffffffffffffffffffffffffffffffffffff166323b872dd3330846040518463ffffffff1660e01b8152600401611a6b93929190614299565b6020604051808303816000875af1158015611a8a573d6000803e3d6000fd5b505050506040513d601f19601f82011682018060405250810190611aae91906142e5565b611aed576040517f08c379a0000000000000000000000000000000000000000000000000000000008152600401611ae490614ab7565b60405180910390fd5b80600c6000828254611aff919061437e565b925050819055503373ffffffffffffffffffffffffffffffffffffffff167fd3da04b9295b0265da4cd8d1d9ea4f3bb84775e17288a007301f7193865b181882604051611b4c91906139cf565b60405180910390a250565b611b5f611e29565b600073ffffffffffffffffffffffffffffffffffffffff168173ffffffffffffffffffffffffffffffffffffffff1603611bce576040517f08c379a0000000000000000000000000000000000000000000000000000000008152600401611bc590614b23565b60405180910390fd5b80600f60006101000a81548173ffffffffffffffffffffffffffffffffffffffff021916908373ffffffffffffffffffffffffffffffffffffffff1602179055507f7dae230f18360d76a040c81f050aa14eb9d6dc7901b20fc5d855e2a20fe814d181604051611c3e9190613939565b60405180910390a150565b6000600c54905090565b611c5b611e29565b600073ffffffffffffffffffffffffffffffffffffffff168173ffffffffffffffffffffffffffffffffffffffff1603611cca576040517f08c379a0000000000000000000000000000000000000000000000000000000008152600401611cc190614bb5565b60405180910390fd5b611cd38161294b565b50565b611cde611e29565b600073ffffffffffffffffffffffffffffffffffffffff168173ffffffffffffffffffffffffffffffffffffffff1603611d4d576040517f08c379a0000000000000000000000000000000000000000000000000000000008152600401611d4490614c47565b60405180910390fd5b80600d60006101000a81548173ffffffffffffffffffffffffffffffffffffffff021916908373ffffffffffffffffffffffffffffffffffffffff1602179055507f6e54bd062be2216071d5874d64e175cd202a1df49312b7241043db3ddd25537b81604051611dbd9190613939565b60405180910390a150565b6000634906490660e01b7bffffffffffffffffffffffffffffffffffffffffffffffffffffffff1916827bffffffffffffffffffffffffffffffffffffffffffffffffffffffff19161480611e225750611e2182612d4e565b5b9050919050565b611e31611ef2565b73ffffffffffffffffffffffffffffffffffffffff16611e4f611351565b73ffffffffffffffffffffffffffffffffffffffff1614611ea5576040517f08c379a0000000000000000000000000000000000000000000000000000000008152600401611e9c90614cb3565b60405180910390fd5b565b611eb081611fb3565b611eef576040517f08c379a0000000000000000000000000000000000000000000000000000000008152600401611ee69061470b565b60405180910390fd5b50565b600033905090565b816004600083815260200190815260200160002060006101000a81548173ffffffffffffffffffffffffffffffffffffffff021916908373ffffffffffffffffffffffffffffffffffffffff160217905550808273ffffffffffffffffffffffffffffffffffffffff16611f6d836111dc565b73ffffffffffffffffffffffffffffffffffffffff167f8c5be1e5ebec7d5bd14f71427d1e84f3dd0314c0f7b2291e5b200ac8c7c3b92560405160405180910390a45050565b60008073ffffffffffffffffffffffffffffffffffffffff16611fd58361290e565b73ffffffffffffffffffffffffffffffffffffffff1614159050919050565b611ffd82611fb3565b61203c576040517f08c379a000000000000000000000000000000000000000000000000000000000815260040161203390614d45565b60405180910390fd5b8060066000848152602001908152602001600020908161205c9190614f07565b507ff8e1a15aba9398e019f0b49df1a4fde98ee17ae345cb5f6b5e2c27f5033e8ce78260405161208c91906139cf565b60405180910390a15050565b6000806120a4836111dc565b90508073ffffffffffffffffffffffffffffffffffffffff168473ffffffffffffffffffffffffffffffffffffffff1614806120e657506120e58185611935565b5b8061212457508373ffffffffffffffffffffffffffffffffffffffff1661210c84610957565b73ffffffffffffffffffffffffffffffffffffffff16145b91505092915050565b8273ffffffffffffffffffffffffffffffffffffffff1661214d826111dc565b73ffffffffffffffffffffffffffffffffffffffff16146121a3576040517f08c379a000000000000000000000000000000000000000000000000000000000815260040161219a9061504b565b60405180910390fd5b600073ffffffffffffffffffffffffffffffffffffffff168273ffffffffffffffffffffffffffffffffffffffff1603612212576040517f08c379a0000000000000000000000000000000000000000000000000000000008152600401612209906150dd565b60405180910390fd5b61221f8383836001612e30565b8273ffffffffffffffffffffffffffffffffffffffff1661223f826111dc565b73ffffffffffffffffffffffffffffffffffffffff1614612295576040517f08c379a000000000000000000000000000000000000000000000000000000000815260040161228c9061504b565b60405180910390fd5b6004600082815260200190815260200160002060006101000a81549073ffffffffffffffffffffffffffffffffffffffff02191690556001600360008573ffffffffffffffffffffffffffffffffffffffff1673ffffffffffffffffffffffffffffffffffffffff168152602001908152602001600020600082825403925050819055506001600360008473ffffffffffffffffffffffffffffffffffffffff1673ffffffffffffffffffffffffffffffffffffffff16815260200190815260200160002060008282540192505081905550816002600083815260200190815260200160002060006101000a81548173ffffffffffffffffffffffffffffffffffffffff021916908373ffffffffffffffffffffffffffffffffffffffff160217905550808273ffffffffffffffffffffffffffffffffffffffff168473ffffffffffffffffffffffffffffffffffffffff167fddf252ad1be2c89b69c2b068fc378daa952ba7f163c4a11628f55a4df523b3ef60405160405180910390a46124218383836001612e36565b505050565b61242e612e3c565b6000600760146101000a81548160ff0219169083151502179055507f5db9ee0a495bf2e6ff9c91a7834c1ba4fdd244a5e8aa4e537bd38aeae4b073aa612472611ef2565b60405161247f9190613939565b60405180910390a1565b61249161119f565b156124d1576040517f08c379a00000000000000000000000000000000000000000000000000000000081526004016124c890615149565b60405180910390fd5b565b600260085403612518576040517f08c379a000000000000000000000000000000000000000000000000000000000815260040161250f906151b5565b60405180910390fd5b6002600881905550565b6000600c5490506000600b54905061253a8582612e85565b6125448185611ff4565b600061254f82612ea3565b9050806010600084815260200190815260200160002060006101000a81548160ff0219169083600481111561258757612586613d8e565b5b0217905550600061259782612f49565b90506000811180156125a95750838111155b156128585760006064605f836125bf91906144d9565b6125c9919061454a565b9050600081836125d991906141f9565b905082866125e791906141f9565b955085600c81905550600d60009054906101000a900473ffffffffffffffffffffffffffffffffffffffff1673ffffffffffffffffffffffffffffffffffffffff1663a9059cbb8a846040518363ffffffff1660e01b815260040161264d929190613cad565b6020604051808303816000875af115801561266c573d6000803e3d6000fd5b505050506040513d601f19601f8201168201806040525081019061269091906142e5565b6126cf576040517f08c379a00000000000000000000000000000000000000000000000000000000081526004016126c690615221565b60405180910390fd5b600d60009054906101000a900473ffffffffffffffffffffffffffffffffffffffff1673ffffffffffffffffffffffffffffffffffffffff1663a9059cbb600f60009054906101000a900473ffffffffffffffffffffffffffffffffffffffff16836040518363ffffffff1660e01b815260040161274e929190613cad565b6020604051808303816000875af115801561276d573d6000803e3d6000fd5b505050506040513d601f19601f8201168201806040525081019061279191906142e5565b6127d0576040517f08c379a00000000000000000000000000000000000000000000000000000000081526004016127c79061528d565b60405180910390fd5b8873ffffffffffffffffffffffffffffffffffffffff167f95681e512bc0fe659e195e06c283eada494316f3d801213e48e7101af92bf7708360405161281691906139cf565b60405180910390a27f7bc22304ac771f50d6cc29b56387cb4855f284e7a1f83e6420fe9b8bbdaf45c98660405161284d91906139cf565b60405180910390a150505b600183612865919061437e565b600b819055508673ffffffffffffffffffffffffffffffffffffffff167fa08b3bf5b7af36b46fffc856a242e512024f345d8981c820b40ed15e1a7b5cae8484896040516128b5939291906152ad565b60405180910390a284156128fb577f7bc22304ac771f50d6cc29b56387cb4855f284e7a1f83e6420fe9b8bbdaf45c9846040516128f291906139cf565b60405180910390a15b50505050505050565b6001600881905550565b60006002600083815260200190815260200160002060009054906101000a900473ffffffffffffffffffffffffffffffffffffffff169050919050565b6000600760009054906101000a900473ffffffffffffffffffffffffffffffffffffffff16905081600760006101000a81548173ffffffffffffffffffffffffffffffffffffffff021916908373ffffffffffffffffffffffffffffffffffffffff1602179055508173ffffffffffffffffffffffffffffffffffffffff168173ffffffffffffffffffffffffffffffffffffffff167f8be0079c531659141344cd1fd0a4f28419497f9722a3daafe3b4186f6b6457e060405160405180910390a35050565b612a19612489565b6001600760146101000a81548160ff0219169083151502179055507f62e78cea01bee320cd4e420270b5ea74000d11b0c9f74754ebdbfc544b05a258612a5d611ef2565b604051612a6a9190613939565b60405180910390a1565b8173ffffffffffffffffffffffffffffffffffffffff168373ffffffffffffffffffffffffffffffffffffffff1603612ae2576040517f08c379a0000000000000000000000000000000000000000000000000000000008152600401612ad990615337565b60405180910390fd5b80600560008573ffffffffffffffffffffffffffffffffffffffff1673ffffffffffffffffffffffffffffffffffffffff16815260200190815260200160002060008473ffffffffffffffffffffffffffffffffffffffff1673ffffffffffffffffffffffffffffffffffffffff16815260200190815260200160002060006101000a81548160ff0219169083151502179055508173ffffffffffffffffffffffffffffffffffffffff168373ffffffffffffffffffffffffffffffffffffffff167f17307eab39ab6107e8899845ad3d59bd9653f200f220920489ca2b5937696c3183604051612bd39190613788565b60405180910390a3505050565b612beb84848461212d565b612bf784848484612fa8565b612c36576040517f08c379a0000000000000000000000000000000000000000000000000000000008152600401612c2d906153c9565b60405180910390fd5b50505050565b6060612c4782611ea7565b6000600660008481526020019081526020016000208054612c6790614075565b80601f0160208091040260200160405190810160405280929190818152602001828054612c9390614075565b8015612ce05780601f10612cb557610100808354040283529160200191612ce0565b820191906000526020600020905b815481529060010190602001808311612cc357829003601f168201915b505050505090506000612cf161312f565b90506000815103612d06578192505050612d49565b600082511115612d3b578082604051602001612d23929190615425565b60405160208183030381529060405292505050612d49565b612d4484613146565b925050505b919050565b60007f80ac58cd000000000000000000000000000000000000000000000000000000007bffffffffffffffffffffffffffffffffffffffffffffffffffffffff1916827bffffffffffffffffffffffffffffffffffffffffffffffffffffffff19161480612e1957507f5b5e139f000000000000000000000000000000000000000000000000000000007bffffffffffffffffffffffffffffffffffffffffffffffffffffffff1916827bffffffffffffffffffffffffffffffffffffffffffffffffffffffff1916145b80612e295750612e28826131ae565b5b9050919050565b50505050565b50505050565b612e4461119f565b612e83576040517f08c379a0000000000000000000000000000000000000000000000000000000008152600401612e7a90615495565b60405180910390fd5b565b612e9f828260405180602001604052806000815250613218565b5050565b600080612710600143612eb691906141f9565b4084604051602001612ec9929190615501565b6040516020818303038152906040528051906020012060001c612eec919061552d565b9050611b58811015612f02576000915050612f44565b6122ab811015612f16576001915050612f44565b612625811015612f2a576002915050612f44565b6126de811015612f3e576003915050612f44565b60049150505b919050565b60008060116000846004811115612f6357612f62613d8e565b5b6004811115612f7557612f74613d8e565b5b8152602001908152602001600020549050606481600c54612f9691906144d9565b612fa0919061454a565b915050919050565b6000612fc98473ffffffffffffffffffffffffffffffffffffffff16613273565b15613122578373ffffffffffffffffffffffffffffffffffffffff1663150b7a02612ff2611ef2565b8786866040518563ffffffff1660e01b815260040161301494939291906155b3565b6020604051808303816000875af192505050801561305057506040513d601f19601f8201168201806040525081019061304d9190615614565b60015b6130d2573d8060008114613080576040519150601f19603f3d011682016040523d82523d6000602084013e613085565b606091505b5060008151036130ca576040517f08c379a00000000000000000000000000000000000000000000000000000000081526004016130c1906153c9565b60405180910390fd5b805181602001fd5b63150b7a0260e01b7bffffffffffffffffffffffffffffffffffffffffffffffffffffffff1916817bffffffffffffffffffffffffffffffffffffffffffffffffffffffff191614915050613127565b600190505b949350505050565b606060405180602001604052806000815250905090565b606061315182611ea7565b600061315b61312f565b9050600081511161317b57604051806020016040528060008152506131a6565b8061318584613296565b604051602001613196929190615425565b6040516020818303038152906040525b915050919050565b60007f01ffc9a7000000000000000000000000000000000000000000000000000000007bffffffffffffffffffffffffffffffffffffffffffffffffffffffff1916827bffffffffffffffffffffffffffffffffffffffffffffffffffffffff1916149050919050565b6132228383613364565b61322f6000848484612fa8565b61326e576040517f08c379a0000000000000000000000000000000000000000000000000000000008152600401613265906153c9565b60405180910390fd5b505050565b6000808273ffffffffffffffffffffffffffffffffffffffff163b119050919050565b6060600060016132a584613581565b01905060008167ffffffffffffffff8111156132c4576132c36139f4565b5b6040519080825280601f01601f1916602001820160405280156132f65781602001600182028036833780820191505090505b509050600082602001820190505b600115613359578080600190039150507f3031323334353637383961626364656600000000000000000000000000000000600a86061a8153600a858161334d5761334c61451b565b5b04945060008503613304575b819350505050919050565b600073ffffffffffffffffffffffffffffffffffffffff168273ffffffffffffffffffffffffffffffffffffffff16036133d3576040517f08c379a00000000000000000000000000000000000000000000000000000000081526004016133ca9061568d565b60405180910390fd5b6133dc81611fb3565b1561341c576040517f08c379a0000000000000000000000000000000000000000000000000000000008152600401613413906156f9565b60405180910390fd5b61342a600083836001612e30565b61343381611fb3565b15613473576040517f08c379a000000000000000000000000000000000000000000000000000000000815260040161346a906156f9565b60405180910390fd5b6001600360008473ffffffffffffffffffffffffffffffffffffffff1673ffffffffffffffffffffffffffffffffffffffff16815260200190815260200160002060008282540192505081905550816002600083815260200190815260200160002060006101000a81548173ffffffffffffffffffffffffffffffffffffffff021916908373ffffffffffffffffffffffffffffffffffffffff160217905550808273ffffffffffffffffffffffffffffffffffffffff16600073ffffffffffffffffffffffffffffffffffffffff167fddf252ad1be2c89b69c2b068fc378daa952ba7f163c4a11628f55a4df523b3ef60405160405180910390a461357d600083836001612e36565b5050565b600080600090507a184f03e93ff9f4daa797ed6e38ed64bf6a1f01000000000000000083106135df577a184f03e93ff9f4daa797ed6e38ed64bf6a1f01000000000000000083816135d5576135d461451b565b5b0492506040810190505b6d04ee2d6d415b85acef8100000000831061361c576d04ee2d6d415b85acef810000000083816136125761361161451b565b5b0492506020810190505b662386f26fc10000831061364b57662386f26fc1000083816136415761364061451b565b5b0492506010810190505b6305f5e1008310613674576305f5e100838161366a5761366961451b565b5b0492506008810190505b612710831061369957612710838161368f5761368e61451b565b5b0492506004810190505b606483106136bc57606483816136b2576136b161451b565b5b0492506002810190505b600a83106136cb576001810190505b80915050919050565b6000604051905090565b600080fd5b600080fd5b60007fffffffff0000000000000000000000000000000000000000000000000000000082169050919050565b61371d816136e8565b811461372857600080fd5b50565b60008135905061373a81613714565b92915050565b600060208284031215613756576137556136de565b5b60006137648482850161372b565b91505092915050565b60008115159050919050565b6137828161376d565b82525050565b600060208201905061379d6000830184613779565b92915050565b6000819050919050565b6137b6816137a3565b81146137c157600080fd5b50565b6000813590506137d3816137ad565b92915050565b600080604083850312156137f0576137ef6136de565b5b60006137fe858286016137c4565b925050602061380f858286016137c4565b9150509250929050565b600081519050919050565b600082825260208201905092915050565b60005b83811015613853578082015181840152602081019050613838565b60008484015250505050565b6000601f19601f8301169050919050565b600061387b82613819565b6138858185613824565b9350613895818560208601613835565b61389e8161385f565b840191505092915050565b600060208201905081810360008301526138c38184613870565b905092915050565b6000602082840312156138e1576138e06136de565b5b60006138ef848285016137c4565b91505092915050565b600073ffffffffffffffffffffffffffffffffffffffff82169050919050565b6000613923826138f8565b9050919050565b61393381613918565b82525050565b600060208201905061394e600083018461392a565b92915050565b61395d81613918565b811461396857600080fd5b50565b60008135905061397a81613954565b92915050565b60008060408385031215613997576139966136de565b5b60006139a58582860161396b565b92505060206139b6858286016137c4565b9150509250929050565b6139c9816137a3565b82525050565b60006020820190506139e460008301846139c0565b92915050565b600080fd5b600080fd5b7f4e487b7100000000000000000000000000000000000000000000000000000000600052604160045260246000fd5b613a2c8261385f565b810181811067ffffffffffffffff82111715613a4b57613a4a6139f4565b5b80604052505050565b6000613a5e6136d4565b9050613a6a8282613a23565b919050565b600067ffffffffffffffff821115613a8a57613a896139f4565b5b613a938261385f565b9050602081019050919050565b82818337600083830152505050565b6000613ac2613abd84613a6f565b613a54565b905082815260208101848484011115613ade57613add6139ef565b5b613ae9848285613aa0565b509392505050565b600082601f830112613b0657613b056139ea565b5b8135613b16848260208601613aaf565b91505092915050565b60008060408385031215613b3657613b356136de565b5b6000613b44858286016137c4565b925050602083013567ffffffffffffffff811115613b6557613b646136e3565b5b613b7185828601613af1565b9150509250929050565b60058110613b8857600080fd5b50565b600081359050613b9a81613b7b565b92915050565b60008060408385031215613bb757613bb66136de565b5b6000613bc585828601613b8b565b9250506020613bd6858286016137c4565b9150509250929050565b6000819050919050565b6000613c05613c00613bfb846138f8565b613be0565b6138f8565b9050919050565b6000613c1782613bea565b9050919050565b6000613c2982613c0c565b9050919050565b613c3981613c1e565b82525050565b6000602082019050613c546000830184613c30565b92915050565b600080600060608486031215613c7357613c726136de565b5b6000613c818682870161396b565b9350506020613c928682870161396b565b9250506040613ca3868287016137c4565b9150509250925092565b6000604082019050613cc2600083018561392a565b613ccf60208301846139c0565b9392505050565b60006bffffffffffffffffffffffff82169050919050565b613cf781613cd6565b82525050565b6000602082019050613d126000830184613cee565b92915050565b600060208284031215613d2e57613d2d6136de565b5b600082013567ffffffffffffffff811115613d4c57613d4b6136e3565b5b613d5884828501613af1565b91505092915050565b600060208284031215613d7757613d766136de565b5b6000613d8584828501613b8b565b91505092915050565b7f4e487b7100000000000000000000000000000000000000000000000000000000600052602160045260246000fd5b60058110613dce57613dcd613d8e565b5b50565b6000819050613ddf82613dbd565b919050565b6000613def82613dd1565b9050919050565b613dff81613de4565b82525050565b6000602082019050613e1a6000830184613df6565b92915050565b600060208284031215613e3657613e356136de565b5b6000613e448482850161396b565b91505092915050565b613e568161376d565b8114613e6157600080fd5b50565b600081359050613e7381613e4d565b92915050565b60008060408385031215613e9057613e8f6136de565b5b6000613e9e8582860161396b565b9250506020613eaf85828601613e64565b9150509250929050565b600067ffffffffffffffff821115613ed457613ed36139f4565b5b613edd8261385f565b9050602081019050919050565b6000613efd613ef884613eb9565b613a54565b905082815260208101848484011115613f1957613f186139ef565b5b613f24848285613aa0565b509392505050565b600082601f830112613f4157613f406139ea565b5b8135613f51848260208601613eea565b91505092915050565b60008060008060808587031215613f7457613f736136de565b5b6000613f828782880161396b565b9450506020613f938782880161396b565b9350506040613fa4878288016137c4565b925050606085013567ffffffffffffffff811115613fc557613fc46136e3565b5b613fd187828801613f2c565b91505092959194509250565b60008060408385031215613ff457613ff36136de565b5b60006140028582860161396b565b92505060206140138582860161396b565b9150509250929050565b600060408201905061403260008301856139c0565b61403f60208301846139c0565b9392505050565b7f4e487b7100000000000000000000000000000000000000000000000000000000600052602260045260246000fd5b6000600282049050600182168061408d57607f821691505b6020821081036140a05761409f614046565b5b50919050565b7f4552433732313a20617070726f76616c20746f2063757272656e74206f776e6560008201527f7200000000000000000000000000000000000000000000000000000000000000602082015250565b6000614102602183613824565b915061410d826140a6565b604082019050919050565b60006020820190508181036000830152614131816140f5565b9050919050565b7f4552433732313a20617070726f76652063616c6c6572206973206e6f7420746f60008201527f6b656e206f776e6572206f7220617070726f76656420666f7220616c6c000000602082015250565b6000614194603d83613824565b915061419f82614138565b604082019050919050565b600060208201905081810360008301526141c381614187565b9050919050565b7f4e487b7100000000000000000000000000000000000000000000000000000000600052601160045260246000fd5b6000614204826137a3565b915061420f836137a3565b9250828203905081811115614227576142266141ca565b5b92915050565b7f546f6b656e20646f6573206e6f74206578697374000000000000000000000000600082015250565b6000614263601483613824565b915061426e8261422d565b602082019050919050565b6000602082019050818103600083015261429281614256565b9050919050565b60006060820190506142ae600083018661392a565b6142bb602083018561392a565b6142c860408301846139c0565b949350505050565b6000815190506142df81613e4d565b92915050565b6000602082840312156142fb576142fa6136de565b5b6000614309848285016142d0565b91505092915050565b7f5472616e73666572206661696c65640000000000000000000000000000000000600082015250565b6000614348600f83613824565b915061435382614312565b602082019050919050565b600060208201905081810360008301526143778161433b565b9050919050565b6000614389826137a3565b9150614394836137a3565b92508282019050808211156143ac576143ab6141ca565b5b92915050565b7f546f6f2068696768000000000000000000000000000000000000000000000000600082015250565b60006143e8600883613824565b91506143f3826143b2565b602082019050919050565b60006020820190508181036000830152614417816143db565b9050919050565b60006040820190506144336000830185613df6565b61444060208301846139c0565b9392505050565b7f4552433732313a2063616c6c6572206973206e6f7420746f6b656e206f776e6560008201527f72206f7220617070726f76656400000000000000000000000000000000000000602082015250565b60006144a3602d83613824565b91506144ae82614447565b604082019050919050565b600060208201905081810360008301526144d281614496565b9050919050565b60006144e4826137a3565b91506144ef836137a3565b92508282026144fd816137a3565b91508282048414831517614514576145136141ca565b5b5092915050565b7f4e487b7100000000000000000000000000000000000000000000000000000000600052601260045260246000fd5b6000614555826137a3565b9150614560836137a3565b9250826145705761456f61451b565b5b828204905092915050565b7f5645525420746f6b656e206e6f74207365740000000000000000000000000000600082015250565b60006145b1601283613824565b91506145bc8261457b565b602082019050919050565b600060208201905081810360008301526145e0816145a4565b9050919050565b7f56455254207061796d656e74206661696c656400000000000000000000000000600082015250565b600061461d601383613824565b9150614628826145e7565b602082019050919050565b6000602082019050818103600083015261464c81614610565b9050919050565b7f5472656173757279207472616e73666572206661696c65640000000000000000600082015250565b6000614689601883613824565b915061469482614653565b602082019050919050565b600060208201905081810360008301526146b88161467c565b9050919050565b7f4552433732313a20696e76616c696420746f6b656e2049440000000000000000600082015250565b60006146f5601883613824565b9150614700826146bf565b602082019050919050565b60006020820190508181036000830152614724816146e8565b9050919050565b7f4552433732313a2061646472657373207a65726f206973206e6f74206120766160008201527f6c6964206f776e65720000000000000000000000000000000000000000000000602082015250565b6000614787602983613824565b91506147928261472b565b604082019050919050565b600060208201905081810360008301526147b68161477a565b9050919050565b7f496e73756666696369656e74207072697a6520706f6f6c000000000000000000600082015250565b60006147f3601783613824565b91506147fe826147bd565b602082019050919050565b60006020820190508181036000830152614822816147e6565b9050919050565b7f5072697a65207472616e73666572206661696c65640000000000000000000000600082015250565b600061485f601583613824565b915061486a82614829565b602082019050919050565b6000602082019050818103600083015261488e81614852565b9050919050565b7f5669727475616c20746f6b656e206e6f74207365740000000000000000000000600082015250565b60006148cb601583613824565b91506148d682614895565b602082019050919050565b600060208201905081810360008301526148fa816148be565b9050919050565b7f5649525455414c207061796d656e74206661696c656400000000000000000000600082015250565b6000614937601683613824565b915061494282614901565b602082019050919050565b600060208201905081810360008301526149668161492a565b9050919050565b7f5669727475616c20746f6b656e2063616e6e6f74206265207a65726f2061646460008201527f7265737300000000000000000000000000000000000000000000000000000000602082015250565b60006149c9602483613824565b91506149d48261496d565b604082019050919050565b600060208201905081810360008301526149f8816149bc565b9050919050565b7f43616e6e6f74206465706f736974207a65726f00000000000000000000000000600082015250565b6000614a35601383613824565b9150614a40826149ff565b602082019050919050565b60006020820190508181036000830152614a6481614a28565b9050919050565b7f56455254207472616e73666572206661696c6564000000000000000000000000600082015250565b6000614aa1601483613824565b9150614aac82614a6b565b602082019050919050565b60006020820190508181036000830152614ad081614a94565b9050919050565b7f54726561737572792063616e6e6f74206265207a65726f206164647265737300600082015250565b6000614b0d601f83613824565b9150614b1882614ad7565b602082019050919050565b60006020820190508181036000830152614b3c81614b00565b9050919050565b7f4f776e61626c653a206e6577206f776e657220697320746865207a65726f206160008201527f6464726573730000000000000000000000000000000000000000000000000000602082015250565b6000614b9f602683613824565b9150614baa82614b43565b604082019050919050565b60006020820190508181036000830152614bce81614b92565b9050919050565b7f5645525420746f6b656e2063616e6e6f74206265207a65726f2061646472657360008201527f7300000000000000000000000000000000000000000000000000000000000000602082015250565b6000614c31602183613824565b9150614c3c82614bd5565b604082019050919050565b60006020820190508181036000830152614c6081614c24565b9050919050565b7f4f776e61626c653a2063616c6c6572206973206e6f7420746865206f776e6572600082015250565b6000614c9d602083613824565b9150614ca882614c67565b602082019050919050565b60006020820190508181036000830152614ccc81614c90565b9050919050565b7f45524337323155524953746f726167653a2055524920736574206f66206e6f6e60008201527f6578697374656e7420746f6b656e000000000000000000000000000000000000602082015250565b6000614d2f602e83613824565b9150614d3a82614cd3565b604082019050919050565b60006020820190508181036000830152614d5e81614d22565b9050919050565b60008190508160005260206000209050919050565b60006020601f8301049050919050565b600082821b905092915050565b600060088302614dc77fffffffffffffffffffffffffffffffffffffffffffffffffffffffffffffffff82614d8a565b614dd18683614d8a565b95508019841693508086168417925050509392505050565b6000614e04614dff614dfa846137a3565b613be0565b6137a3565b9050919050565b6000819050919050565b614e1e83614de9565b614e32614e2a82614e0b565b848454614d97565b825550505050565b600090565b614e47614e3a565b614e52818484614e15565b505050565b5b81811015614e7657614e6b600082614e3f565b600181019050614e58565b5050565b601f821115614ebb57614e8c81614d65565b614e9584614d7a565b81016020851015614ea4578190505b614eb8614eb085614d7a565b830182614e57565b50505b505050565b600082821c905092915050565b6000614ede60001984600802614ec0565b1980831691505092915050565b6000614ef78383614ecd565b9150826002028217905092915050565b614f1082613819565b67ffffffffffffffff811115614f2957614f286139f4565b5b614f338254614075565b614f3e828285614e7a565b600060209050601f831160018114614f715760008415614f5f578287015190505b614f698582614eeb565b865550614fd1565b601f198416614f7f86614d65565b60005b82811015614fa757848901518255600182019150602085019450602081019050614f82565b86831015614fc45784890151614fc0601f891682614ecd565b8355505b6001600288020188555050505b505050505050565b7f4552433732313a207472616e736665722066726f6d20696e636f72726563742060008201527f6f776e6572000000000000000000000000000000000000000000000000000000602082015250565b6000615035602583613824565b915061504082614fd9565b604082019050919050565b6000602082019050818103600083015261506481615028565b9050919050565b7f4552433732313a207472616e7366657220746f20746865207a65726f2061646460008201527f7265737300000000000000000000000000000000000000000000000000000000602082015250565b60006150c7602483613824565b91506150d28261506b565b604082019050919050565b600060208201905081810360008301526150f6816150ba565b9050919050565b7f5061757361626c653a2070617573656400000000000000000000000000000000600082015250565b6000615133601083613824565b915061513e826150fd565b602082019050919050565b6000602082019050818103600083015261516281615126565b9050919050565b7f5265656e7472616e637947756172643a207265656e7472616e742063616c6c00600082015250565b600061519f601f83613824565b91506151aa82615169565b602082019050919050565b600060208201905081810360008301526151ce81615192565b9050919050565b7f5072697a65207061796f7574206661696c656400000000000000000000000000600082015250565b600061520b601383613824565b9150615216826151d5565b602082019050919050565b6000602082019050818103600083015261523a816151fe565b9050919050565b7f547265617375727920637574206661696c656400000000000000000000000000600082015250565b6000615277601383613824565b915061528282615241565b602082019050919050565b600060208201905081810360008301526152a68161526a565b9050919050565b60006060820190506152c260008301866139c0565b6152cf6020830185613df6565b81810360408301526152e18184613870565b9050949350505050565b7f4552433732313a20617070726f766520746f2063616c6c657200000000000000600082015250565b6000615321601983613824565b915061532c826152eb565b602082019050919050565b6000602082019050818103600083015261535081615314565b9050919050565b7f4552433732313a207472616e7366657220746f206e6f6e20455243373231526560008201527f63656976657220696d706c656d656e7465720000000000000000000000000000602082015250565b60006153b3603283613824565b91506153be82615357565b604082019050919050565b600060208201905081810360008301526153e2816153a6565b9050919050565b600081905092915050565b60006153ff82613819565b61540981856153e9565b9350615419818560208601613835565b80840191505092915050565b600061543182856153f4565b915061543d82846153f4565b91508190509392505050565b7f5061757361626c653a206e6f7420706175736564000000000000000000000000600082015250565b600061547f601483613824565b915061548a82615449565b602082019050919050565b600060208201905081810360008301526154ae81615472565b9050919050565b6000819050919050565b6000819050919050565b6154da6154d5826154b5565b6154bf565b82525050565b6000819050919050565b6154fb6154f6826137a3565b6154e0565b82525050565b600061550d82856154c9565b60208201915061551d82846154ea565b6020820191508190509392505050565b6000615538826137a3565b9150615543836137a3565b9250826155535761555261451b565b5b828206905092915050565b600081519050919050565b600082825260208201905092915050565b60006155858261555e565b61558f8185615569565b935061559f818560208601613835565b6155a88161385f565b840191505092915050565b60006080820190506155c8600083018761392a565b6155d5602083018661392a565b6155e260408301856139c0565b81810360608301526155f4818461557a565b905095945050505050565b60008151905061560e81613714565b92915050565b60006020828403121561562a576156296136de565b5b6000615638848285016155ff565b91505092915050565b7f4552433732313a206d696e7420746f20746865207a65726f2061646472657373600082015250565b6000615677602083613824565b915061568282615641565b602082019050919050565b600060208201905081810360008301526156a68161566a565b9050919050565b7f4552433732313a20746f6b656e20616c7265616479206d696e74656400000000600082015250565b60006156e3601c83613824565b91506156ee826156ad565b602082019050919050565b60006020820190508181036000830152615712816156d6565b905091905056fea26469706673582212202d5738e1bb39e30df99e76a5691d3f0bb0c563b69cf21728fbecac9d9143dc7064736f6c634300081c0033",
  "linkReferences": {},
  "deployedLinkReferences": {}
}