{"contracts/VerticalProjectNFT.sol":{"VerticalProjectNFT":{"abi":[{"inputs":[{"internalType":"address","name":"_virtualToken","type":"address"},{"internalType":"address","name":"_vertToken","type":"address"},{"internalType":"address","name":"_treasury","type":"address"}],"stateMutability":"nonpayable","type":"constructor"},{"anonymous":false,"inputs":[{"indexed":true,"internalType":"address","name":"owner","type":"address"},{"indexed":true,"internalType":"address","name":"approved","type":"address"},{"indexed":true,"internalType":"uint256","name":"tokenId","type":"uint256"}],"name":"Approval","type":"event"},{"anonymous":false,"inputs":[{"indexed":true,"internalType":"address","name":"owner","type":"address"},{"indexed":true,"internalType":"address","name":"operator","type":"address"},{"indexed":false,"internalType":"bool","name":"approved","type":"bool"}],"name":"ApprovalForAll","type":"event"},{"anonymous":false,"inputs":[{"indexed":false,"internalType":"uint256","name":"_fromTokenId","type":"uint256"},{"indexed":false,"internalType":"uint256","name":"_toTokenId","type":"uint256"}],"name":"BatchMetadataUpdate","type":"event"},{"anonymous":false,"inputs":[{"indexed":false,"internalType":"uint256","name":"_tokenId","type":"uint256"}],"name":"MetadataUpdate","type":"event"},{"anonymous":false,"inputs":[{"indexed":true,"internalType":"address","name":"user","type":"address"},{"indexed":false,"internalType":"uint256","name":"tokenId","type":"uint256"},{"indexed":false,"internalType":"enum VerticalProjectNFT.Rarity","name":"rarity","type":"uint8"},{"indexed":false,"internalType":"string","name":"uri","type":"string"}],"name":"NFTMinted","type":"event"},{"anonymous":false,"inputs":[{"indexed":true,"internalType":"address","name":"previousOwner","type":"address"},{"indexed":true,"internalType":"address","name":"newOwner","type":"address"}],"name":"OwnershipTransferred","type":"event"},{"anonymous":false,"inputs":[{"indexed":false,"internalType":"address","name":"account","type":"address"}],"name":"Paused","type":"event"},{"anonymous":false,"inputs":[{"indexed":false,"internalType":"uint256","name":"newVirtualPrice","type":"uint256"},{"indexed":false,"internalType":"uint256","name":"newVertPrice","type":"uint256"}],"name":"PricesUpdated","type":"event"},{"anonymous":false,"inputs":[{"indexed":true,"internalType":"address","name":"user","type":"address"},{"indexed":false,"internalType":"uint256","name":"amount","type":"uint256"}],"name":"PrizeClaimed","type":"event"},{"anonymous":false,"inputs":[{"indexed":false,"internalType":"enum VerticalProjectNFT.Rarity","name":"rarity","type":"uint8"},{"indexed":false,"internalType":"uint256","name":"newPercent","type":"uint256"}],"name":"PrizePercentUpdated","type":"event"},{"anonymous":false,"inputs":[{"indexed":true,"internalType":"address","name":"sender","type":"address"},{"indexed":false,"internalType":"uint256","name":"amount","type":"uint256"}],"name":"PrizePoolFunded","type":"event"},{"anonymous":false,"inputs":[{"indexed":false,"internalType":"uint256","name":"newTotal","type":"uint256"}],"name":"PrizePoolUpdated","type":"event"},{"anonymous":false,"inputs":[{"indexed":true,"internalType":"address","name":"from","type":"address"},{"indexed":true,"internalType":"address","name":"to","type":"address"},{"indexed":true,"internalType":"uint256","name":"tokenId","type":"uint256"}],"name":"Transfer","type":"event"},{"anonymous":false,"inputs":[{"indexed":false,"internalType":"address","name":"newTreasury","type":"address"}],"name":"TreasuryUpdated","type":"event"},{"anonymous":false,"inputs":[{"indexed":false,"internalType":"address","name":"account","type":"address"}],"name":"Unpaused","type":"event"},{"anonymous":false,"inputs":[{"indexed":false,"internalType":"address","name":"newVertToken","type":"address"}],"name":"VertTokenUpdated","type":"event"},{"anonymous":false,"inputs":[{"indexed":false,"internalType":"address","name":"newVirtualToken","type":"address"}],"name":"VirtualTokenUpdated","type":"event"},{"inputs":[],"name":"ROYALTY_FEE_BPS","outputs":[{"internalType":"uint96","name":"","type":"uint96"}],"stateMutability":"view","type":"function"},{"inputs":[{"internalType":"uint256","name":"amount","type":"uint256"}],"name":"addToPrizePool","outputs":[],"stateMutability":"nonpayable","type":"function"},{"inputs":[{"internalType":"address","name":"to","type":"address"},{"internalType":"uint256","name":"tokenId","type":"uint256"}],"name":"approve","outputs":[],"stateMutability":"nonpayable","type":"function"},{"inputs":[{"internalType":"address","name":"owner","type":"address"}],"name":"balanceOf","outputs":[{"internalType":"uint256","name":"","type":"uint256"}],"stateMutability":"view","type":"function"},{"inputs":[{"internalType":"address","name":"to","type":"address"},{"internalType":"uint256","name":"amount","type":"uint256"}],"name":"claimPrize","outputs":[],"stateMutability":"nonpayable","type":"function"},{"inputs":[{"internalType":"uint256","name":"amount","type":"uint256"}],"name":"depositToPrizePool","outputs":[],"stateMutability":"nonpayable","type":"function"},{"inputs":[{"internalType":"uint256","name":"tokenId","type":"uint256"}],"name":"getApproved","outputs":[{"internalType":"address","name":"","type":"address"}],"stateMutability":"view","type":"function"},{"inputs":[],"name":"getPrizePoolBalance","outputs":[{"internalType":"uint256","name":"","type":"uint256"}],"stateMutability":"view","type":"function"},{"inputs":[{"internalType":"uint256","name":"tokenId","type":"uint256"}],"name":"getTokenRarity","outputs":[{"internalType":"enum VerticalProjectNFT.Rarity","name":"","type":"uint8"}],"stateMutability":"view","type":"function"},{"inputs":[],"name":"getTotalMinted","outputs":[{"internalType":"uint256","name":"","type":"uint256"}],"stateMutability":"view","type":"function"},{"inputs":[{"internalType":"address","name":"owner","type":"address"},{"internalType":"address","name":"operator","type":"address"}],"name":"isApprovedForAll","outputs":[{"internalType":"bool","name":"","type":"bool"}],"stateMutability":"view","type":"function"},{"inputs":[{"internalType":"string","name":"tokenURI","type":"string"}],"name":"mintWithVert","outputs":[],"stateMutability":"nonpayable","type":"function"},{"inputs":[{"internalType":"string","name":"tokenURI","type":"string"}],"name":"mintWithVirtual","outputs":[],"stateMutability":"nonpayable","type":"function"},{"inputs":[],"name":"name","outputs":[{"internalType":"string","name":"","type":"string"}],"stateMutability":"view","type":"function"},{"inputs":[],"name":"nextTokenId","outputs":[{"internalType":"uint256","name":"","type":"uint256"}],"stateMutability":"view","type":"function"},{"inputs":[],"name":"owner","outputs":[{"internalType":"address","name":"","type":"address"}],"stateMutability":"view","type":"function"},{"inputs":[{"internalType":"uint256","name":"tokenId","type":"uint256"}],"name":"ownerOf","outputs":[{"internalType":"address","name":"","type":"address"}],"stateMutability":"view","type":"function"},{"inputs":[],"name":"pause","outputs":[],"stateMutability":"nonpayable","type":"function"},{"inputs":[],"name":"paused","outputs":[{"internalType":"bool","name":"","type":"bool"}],"stateMutability":"view","type":"function"},{"inputs":[],"name":"priceVert","outputs":[{"internalType":"uint256","name":"","type":"uint256"}],"stateMutability":"view","type":"function"},{"inputs":[],"name":"priceVirtual","outputs":[{"internalType":"uint256","name":"","type":"uint256"}],"stateMutability":"view","type":"function"},{"inputs":[{"internalType":"enum VerticalProjectNFT.Rarity","name":"","type":"uint8"}],"name":"prizePercentByRarity","outputs":[{"internalType":"uint256","name":"","type":"uint256"}],"stateMutability":"view","type":"function"},{"inputs":[],"name":"prizePool","outputs":[{"internalType":"uint256","name":"","type":"uint256"}],"stateMutability":"view","type":"function"},{"inputs":[],"name":"renounceOwnership","outputs":[],"stateMutability":"nonpayable","type":"function"},{"inputs":[{"internalType":"uint256","name":"","type":"uint256"},{"internalType":"uint256","name":"salePrice","type":"uint256"}],"name":"royaltyInfo","outputs":[{"internalType":"address","name":"","type":"address"},{"internalType":"uint256","name":"","type":"uint256"}],"stateMutability":"view","type":"function"},{"inputs":[{"internalType":"address","name":"from","type":"address"},{"internalType":"address","name":"to","type":"address"},{"internalType":"uint256","name":"tokenId","type":"uint256"}],"name":"safeTransferFrom","outputs":[],"stateMutability":"nonpayable","type":"function"},{"inputs":[{"internalType":"address","name":"from","type":"address"},{"internalType":"address","name":"to","type":"address"},{"internalType":"uint256","name":"tokenId","type":"uint256"},{"internalType":"bytes","name":"data","type":"bytes"}],"name":"safeTransferFrom","outputs":[],"stateMutability":"nonpayable","type":"function"},{"inputs":[{"internalType":"address","name":"operator","type":"address"},{"internalType":"bool","name":"approved","type":"bool"}],"name":"setApprovalForAll","outputs":[],"stateMutability":"nonpayable","type":"function"},{"inputs":[{"internalType":"uint256","name":"newVirtualPrice","type":"uint256"},{"internalType":"uint256","name":"newVertPrice","type":"uint256"}],"name":"setPrices","outputs":[],"stateMutability":"nonpayable","type":"function"},{"inputs":[{"internalType":"enum VerticalProjectNFT.Rarity","name":"rarity","type":"uint8"},{"internalType":"uint256","name":"percent","type":"uint256"}],"name":"setPrizePercent","outputs":[],"stateMutability":"nonpayable","type":"function"},{"inputs":[{"internalType":"uint256","name":"tokenId","type":"uint256"},{"internalType":"string","name":"_tokenURI","type":"string"}],"name":"setTokenURI","outputs":[],"stateMutability":"nonpayable","type":"function"},{"inputs":[{"internalType":"address","name":"addr","type":"address"}],"name":"setTreasury","outputs":[],"stateMutability":"nonpayable","type":"function"},{"inputs":[{"internalType":"address","name":"_vertToken","type":"address"}],"name":"setVertToken","outputs":[],"stateMutability":"nonpayable","type":"function"},{"inputs":[{"internalType":"address","name":"_virtualToken","type":"address"}],"name":"setVirtualToken","outputs":[],"stateMutability":"nonpayable","type":"function"},{"inputs":[{"internalType":"bytes4","name":"interfaceId","type":"bytes4"}],"name":"supportsInterface","outputs":[{"internalType":"bool","name":"","type":"bool"}],"stateMutability":"view","type":"function"},{"inputs":[],"name":"symbol","outputs":[{"internalType":"string","name":"","type":"string"}],"stateMutability":"view","type":"function"},{"inputs":[{"internalType":"uint256","name":"","type":"uint256"}],"name":"tokenRarity","outputs":[{"internalType":"enum VerticalProjectNFT.Rarity","name":"","type":"uint8"}],"stateMutability":"view","type":"function"},{"inputs":[{"internalType":"uint256","name":"tokenId","type":"uint256"}],"name":"tokenURI","outputs":[{"internalType":"string","name":"","type":"string"}],"stateMutability":"view","type":"function"},{"inputs":[{"internalType":"address","name":"from","type":"address"},{"internalType":"address","name":"to","type":"address"},{"internalType":"uint256","name":"tokenId","type":"uint256"}],"name":"transferFrom","outputs":[],"stateMutability":"nonpayable","type":"function"},{"inputs":[{"internalType":"address","name":"newOwner","type":"address"}],"name":"transferOwnership","outputs":[],"stateMutability":"nonpayable","type":"function"},{"inputs":[],"name":"treasury","outputs":[{"internalType":"address","name":"","type":"address"}],"stateMutability":"view","type":"function"},{"inputs":[],"name":"unpause","outputs":[],"stateMutability":"nonpayable","type":"function"},{"inputs":[],"name":"vertToken","outputs":[{"internalType":"contract IERC20","name":"","type":"address"}],"stateMutability":"view","type":"function"},{"inputs":[],"name":"virtualToken","outputs":[{"internalType":"contract IERC20","name":"","type":"address"}],"stateMutability":"view","type":"function"}],"evm":{"bytecode":{"linkReferences":{},"object":"60806040526722b1c8c1227a00006009556714d1120d7b160000600a5534801561002857600080fd5b50604051616202380380616202833981810160405281019061004a919061055f565b6040518060400160405280601081526020017f566572746963616c2050726f6a656374000000000000000000000000000000008152506040518060400160405280600781526020017f564552544e46540000000000000000000000000000000000000000000000000081525081600090816100c59190610802565b5080600190816100d59190610802565b5050506100f46100e961042e60201b60201c565b61043660201b60201c565b6000600760146101000a81548160ff0219169083151502179055506001600881905550600073ffffffffffffffffffffffffffffffffffffffff168373ffffffffffffffffffffffffffffffffffffffff1603610186576040517f08c379a000000000000000000000000000000000000000000000000000000000815260040161017d90610957565b60405180910390fd5b600073ffffffffffffffffffffffffffffffffffffffff168273ffffffffffffffffffffffffffffffffffffffff16036101f5576040517f08c379a00000000000000000000000000000000000000000000000000000000081526004016101ec906109e9565b60405180910390fd5b600073ffffffffffffffffffffffffffffffffffffffff168173ffffffffffffffffffffffffffffffffffffffff1603610264576040517f08c379a000000000000000000000000000000000000000000000000000000000815260040161025b90610a55565b60405180910390fd5b82600e60006101000a81548173ffffffffffffffffffffffffffffffffffffffff021916908373ffffffffffffffffffffffffffffffffffffffff16021790555081600d60006101000a81548173ffffffffffffffffffffffffffffffffffffffff021916908373ffffffffffffffffffffffffffffffffffffffff16021790555080600f60006101000a81548173ffffffffffffffffffffffffffffffffffffffff021916908373ffffffffffffffffffffffffffffffffffffffff1602179055506001600b819055506003601160006001600481111561034957610348610a75565b5b600481111561035b5761035a610a75565b5b8152602001908152602001600020819055506007601160006002600481111561038757610386610a75565b5b600481111561039957610398610a75565b5b815260200190815260200160002081905550600f60116000600360048111156103c5576103c4610a75565b5b60048111156103d7576103d6610a75565b5b81526020019081526020016000208190555060286011600060048081111561040257610401610a75565b5b600481111561041457610413610a75565b5b815260200190815260200160002081905550505050610aa4565b600033905090565b6000600760009054906101000a900473ffffffffffffffffffffffffffffffffffffffff16905081600760006101000a81548173ffffffffffffffffffffffffffffffffffffffff021916908373ffffffffffffffffffffffffffffffffffffffff1602179055508173ffffffffffffffffffffffffffffffffffffffff168173ffffffffffffffffffffffffffffffffffffffff167f8be0079c531659141344cd1fd0a4f28419497f9722a3daafe3b4186f6b6457e060405160405180910390a35050565b600080fd5b600073ffffffffffffffffffffffffffffffffffffffff82169050919050565b600061052c82610501565b9050919050565b61053c81610521565b811461054757600080fd5b50565b60008151905061055981610533565b92915050565b600080600060608486031215610578576105776104fc565b5b60006105868682870161054a565b93505060206105978682870161054a565b92505060406105a88682870161054a565b9150509250925092565b600081519050919050565b7f4e487b7100000000000000000000000000000000000000000000000000000000600052604160045260246000fd5b7f4e487b7100000000000000000000000000000000000000000000000000000000600052602260045260246000fd5b6000600282049050600182168061063357607f821691505b602082108103610646576106456105ec565b5b50919050565b60008190508160005260206000209050919050565b60006020601f8301049050919050565b600082821b905092915050565b6000600883026106ae7fffffffffffffffffffffffffffffffffffffffffffffffffffffffffffffffff82610671565b6106b88683610671565b95508019841693508086168417925050509392505050565b6000819050919050565b6000819050919050565b60006106ff6106fa6106f5846106d0565b6106da565b6106d0565b9050919050565b6000819050919050565b610719836106e4565b61072d61072582610706565b84845461067e565b825550505050565b600090565b610742610735565b61074d818484610710565b505050565b5b818110156107715761076660008261073a565b600181019050610753565b5050565b601f8211156107b6576107878161064c565b61079084610661565b8101602085101561079f578190505b6107b36107ab85610661565b830182610752565b50505b505050565b600082821c905092915050565b60006107d9600019846008026107bb565b1980831691505092915050565b60006107f283836107c8565b9150826002028217905092915050565b61080b826105b2565b67ffffffffffffffff811115610824576108236105bd565b5b61082e825461061b565b610839828285610775565b600060209050601f83116001811461086c576000841561085a578287015190505b61086485826107e6565b8655506108cc565b601f19841661087a8661064c565b60005b828110156108a25784890151825560018201915060208501945060208101905061087d565b868310156108bf57848901516108bb601f8916826107c8565b8355505b6001600288020188555050505b505050505050565b600082825260208201905092915050565b7f5669727475616c20746f6b656e2063616e6e6f74206265207a65726f2061646460008201527f7265737300000000000000000000000000000000000000000000000000000000602082015250565b60006109416024836108d4565b915061094c826108e5565b604082019050919050565b6000602082019050818103600083015261097081610934565b9050919050565b7f5645525420746f6b656e2063616e6e6f74206265207a65726f2061646472657360008201527f7300000000000000000000000000000000000000000000000000000000000000602082015250565b60006109d36021836108d4565b91506109de82610977565b604082019050919050565b60006020820190508181036000830152610a02816109c6565b9050919050565b7f54726561737572792063616e6e6f74206265207a65726f206164647265737300600082015250565b6000610a3f601f836108d4565b9150610a4a82610a09565b602082019050919050565b60006020820190508181036000830152610a6e81610a32565b9050919050565b7f4e487b7100000000000000000000000000000000000000000000000000000000600052602160045260246000fd5b61574f80610ab36000396000f3fe608060405234801561001057600080fd5b50600436106102745760003560e01c8063689a0bd611610151578063b2da2715116100c3578063e985e9c511610087578063e985e9c51461073a578063ed15677c1461076a578063f0f4426014610786578063f24f069d146107a2578063f2fde38b146107c0578063f42bdd0e146107dc57610274565b8063b2da271514610698578063b88d4fde146106b4578063b8fa4366146106d0578063c87b56dd146106ee578063d7149aab1461071e57610274565b80638456cb59116101155780638456cb59146105ea5780638da5cb5b146105f457806395d89b4114610612578063a22cb46514610630578063ace79f4f1461064c578063afb0a3691461066857610274565b8063689a0bd61461055657806370a0823114610574578063715018a6146105a4578063719ce73e146105ae57806375794a3c146105cc57610274565b80632a55205a116101ea57806344ee8b3d116101ae57806344ee8b3d1461046c578063480628ae1461049c578063555ec78b146104ba5780635c975abb146104ea57806361d027b3146105085780636352211e1461052657610274565b80632a55205a146103db5780633f4ba83a1461040c57806342842e0e14610416578063436be37214610432578063448843481461045057610274565b80630ca1c5c91161023c5780630ca1c5c91461032f578063162094c41461034d578063186ba25314610369578063194a5fc9146103855780631f514c52146103a157806323b872dd146103bf57610274565b806301ffc9a71461027957806305fefda7146102a957806306fdde03146102c5578063081812fc146102e3578063095ea7b314610313575b600080fd5b610293600480360381019061028e9190613740565b6107f8565b6040516102a09190613788565b60405180910390f35b6102c360048036038101906102be91906137d9565b610872565b005b6102cd6108c5565b6040516102da91906138a9565b60405180910390f35b6102fd60048036038101906102f891906138cb565b610957565b60405161030a9190613939565b60405180910390f35b61032d60048036038101906103289190613980565b61099d565b005b610337610ab4565b60405161034491906139cf565b60405180910390f35b61036760048036038101906103629190613b1f565b610aca565b005b610383600480360381019061037e91906138cb565b610b28565b005b61039f600480360381019061039a9190613ba0565b610c66565b005b6103a9610d2b565b6040516103b69190613c3f565b60405180910390f35b6103d960048036038101906103d49190613c5a565b610d51565b005b6103f560048036038101906103f091906137d9565b610db1565b604051610403929190613cad565b60405180910390f35b610414610e0b565b005b610430600480360381019061042b9190613c5a565b610e1d565b005b61043a610e3d565b6040516104479190613cfd565b60405180910390f35b61046a60048036038101906104659190613d18565b610e43565b005b61048660048036038101906104819190613d61565b6110ef565b60405161049391906139cf565b60405180910390f35b6104a4611107565b6040516104b19190613c3f565b60405180910390f35b6104d460048036038101906104cf91906138cb565b61112d565b6040516104e19190613e05565b60405180910390f35b6104f261119f565b6040516104ff9190613788565b60405180910390f35b6105106111b6565b60405161051d9190613939565b60405180910390f35b610540600480360381019061053b91906138cb565b6111dc565b60405161054d9190613939565b60405180910390f35b61055e611262565b60405161056b91906139cf565b60405180910390f35b61058e60048036038101906105899190613e20565b611268565b60405161059b91906139cf565b60405180910390f35b6105ac61131f565b005b6105b6611333565b6040516105c391906139cf565b60405180910390f35b6105d4611339565b6040516105e191906139cf565b60405180910390f35b6105f261133f565b005b6105fc611351565b6040516106099190613939565b60405180910390f35b61061a61137b565b60405161062791906138a9565b60405180910390f35b61064a60048036038101906106459190613e79565b61140d565b005b61066660048036038101906106619190613980565b611423565b005b610682600480360381019061067d91906138cb565b6115ba565b60405161068f9190613e05565b60405180910390f35b6106b260048036038101906106ad9190613d18565b6115da565b005b6106ce60048036038101906106c99190613f5a565b611781565b005b6106d86117e3565b6040516106e591906139cf565b60405180910390f35b610708600480360381019061070391906138cb565b6117e9565b60405161071591906138a9565b60405180910390f35b61073860048036038101906107339190613e20565b611843565b005b610754600480360381019061074f9190613fdd565b611935565b6040516107619190613788565b60405180910390f35b610784600480360381019061077f91906138cb565b6119c9565b005b6107a0600480360381019061079b9190613e20565b611b57565b005b6107aa611c49565b6040516107b791906139cf565b60405180910390f35b6107da60048036038101906107d59190613e20565b611c53565b005b6107f660048036038101906107f19190613e20565b611cd6565b005b60007f2a55205a000000000000000000000000000000000000000000000000000000007bffffffffffffffffffffffffffffffffffffffffffffffffffffffff1916827bffffffffffffffffffffffffffffffffffffffffffffffffffffffff1916148061086b575061086a82611dc8565b5b9050919050565b61087a611e29565b8160098190555080600a819055507f6546f60f34df611fa42503098acc39d5ab88bc73febe64b3cc14e5a92e3a66a782826040516108b992919061401d565b60405180910390a15050565b6060600080546108d490614075565b80601f016020809104026020016040519081016040528092919081815260200182805461090090614075565b801561094d5780601f106109225761010080835404028352916020019161094d565b820191906000526020600020905b81548152906001019060200180831161093057829003601f168201915b5050505050905090565b600061096282611ea7565b6004600083815260200190815260200160002060009054906101000a900473ffffffffffffffffffffffffffffffffffffffff169050919050565b60006109a8826111dc565b90508073ffffffffffffffffffffffffffffffffffffffff168373ffffffffffffffffffffffffffffffffffffffff1603610a18576040517f08c379a0000000000000000000000000000000000000000000000000000000008152600401610a0f90614118565b60405180910390fd5b8073ffffffffffffffffffffffffffffffffffffffff16610a37611ef2565b73ffffffffffffffffffffffffffffffffffffffff161480610a665750610a6581610a60611ef2565b611935565b5b610aa5576040517f08c379a0000000000000000000000000000000000000000000000000000000008152600401610a9c906141aa565b60405180910390fd5b610aaf8383611efa565b505050565b60006001600b54610ac591906141f9565b905090565b610ad2611e29565b610adb82611fb3565b610b1a576040517f08c379a0000000000000000000000000000000000000000000000000000000008152600401610b1190614279565b60405180910390fd5b610b248282611ff4565b5050565b610b30611e29565b600d60009054906101000a900473ffffffffffffffffffffffffffffffffffffffff1673ffffffffffffffffffffffffffffffffffffffff166323b872dd3330846040518463ffffffff1660e01b8152600401610b8f93929190614299565b6020604051808303816000875af1158015610bae573d6000803e3d6000fd5b505050506040513d601f19601f82011682018060405250810190610bd291906142e5565b610c11576040517f08c379a0000000000000000000000000000000000000000000000000000000008152600401610c089061435e565b60405180910390fd5b80600c6000828254610c23919061437e565b925050819055507f7bc22304ac771f50d6cc29b56387cb4855f284e7a1f83e6420fe9b8bbdaf45c9600c54604051610c5b91906139cf565b60405180910390a150565b610c6e611e29565b6064811115610cb2576040517f08c379a0000000000000000000000000000000000000000000000000000000008152600401610ca9906143fe565b60405180910390fd5b8060116000846004811115610cca57610cc9613d8e565b5b6004811115610cdc57610cdb613d8e565b5b8152602001908152602001600020819055507fa74628ab88e39c22615acb79128db8683fe215f003fa969bd6b3232eba537a668282604051610d1f92919061441e565b60405180910390a15050565b600e60009054906101000a900473ffffffffffffffffffffffffffffffffffffffff1681565b610d62610d5c611ef2565b82612098565b610da1576040517f08c379a0000000000000000000000000000000000000000000000000000000008152600401610d98906144b9565b60405180910390fd5b610dac83838361212d565b505050565b600080600f60009054906101000a900473ffffffffffffffffffffffffffffffffffffffff166127106101f46bffffffffffffffffffffffff1685610df691906144d9565b610e00919061454a565b915091509250929050565b610e13611e29565b610e1b612426565b565b610e3883838360405180602001604052806000815250611781565b505050565b6101f481565b610e4b612489565b610e536124d3565b6000600d60009054906101000a900473ffffffffffffffffffffffffffffffffffffffff1690506000600a549050600073ffffffffffffffffffffffffffffffffffffffff168273ffffffffffffffffffffffffffffffffffffffff1603610ef0576040517f08c379a0000000000000000000000000000000000000000000000000000000008152600401610ee7906145c7565b60405180910390fd5b8173ffffffffffffffffffffffffffffffffffffffff166323b872dd3330846040518463ffffffff1660e01b8152600401610f2d93929190614299565b6020604051808303816000875af1158015610f4c573d6000803e3d6000fd5b505050506040513d601f19601f82011682018060405250810190610f7091906142e5565b610faf576040517f08c379a0000000000000000000000000000000000000000000000000000000008152600401610fa690614633565b60405180910390fd5b60006064601983610fc091906144d9565b610fca919061454a565b905060008183610fda91906141f9565b90508373ffffffffffffffffffffffffffffffffffffffff1663a9059cbb600f60009054906101000a900473ffffffffffffffffffffffffffffffffffffffff16846040518363ffffffff1660e01b8152600401611039929190613cad565b6020604051808303816000875af1158015611058573d6000803e3d6000fd5b505050506040513d601f19601f8201168201806040525081019061107c91906142e5565b6110bb576040517f08c379a00000000000000000000000000000000000000000000000000000000081526004016110b29061469f565b60405180910390fd5b80600c60008282546110cd919061437e565b925050819055506110e033866001612522565b505050506110ec612904565b50565b60116020528060005260406000206000915090505481565b600d60009054906101000a900473ffffffffffffffffffffffffffffffffffffffff1681565b600061113882611fb3565b611177576040517f08c379a000000000000000000000000000000000000000000000000000000000815260040161116e90614279565b60405180910390fd5b6010600083815260200190815260200160002060009054906101000a900460ff169050919050565b6000600760149054906101000a900460ff16905090565b600f60009054906101000a900473ffffffffffffffffffffffffffffffffffffffff1681565b6000806111e88361290e565b9050600073ffffffffffffffffffffffffffffffffffffffff168173ffffffffffffffffffffffffffffffffffffffff1603611259576040517f08c379a00000000000000000000000000000000000000000000000000000000081526004016112509061470b565b60405180910390fd5b80915050919050565b60095481565b60008073ffffffffffffffffffffffffffffffffffffffff168273ffffffffffffffffffffffffffffffffffffffff16036112d8576040517f08c379a00000000000000000000000000000000000000000000000000000000081526004016112cf9061479d565b60405180910390fd5b600360008373ffffffffffffffffffffffffffffffffffffffff1673ffffffffffffffffffffffffffffffffffffffff168152602001908152602001600020549050919050565b611327611e29565b611331600061294b565b565b600c5481565b600b5481565b611347611e29565b61134f612a11565b565b6000600760009054906101000a900473ffffffffffffffffffffffffffffffffffffffff16905090565b60606001805461138a90614075565b80601f01602080910402602001604051908101604052809291908181526020018280546113b690614075565b80156114035780601f106113d857610100808354040283529160200191611403565b820191906000526020600020905b8154815290600101906020018083116113e657829003601f168201915b5050505050905090565b61141f611418611ef2565b8383612a74565b5050565b61142b611e29565b600c54811115611470576040517f08c379a000000000000000000000000000000000000000000000000000000000815260040161146790614809565b60405180910390fd5b80600c600082825461148291906141f9565b92505081905550600d60009054906101000a900473ffffffffffffffffffffffffffffffffffffffff1673ffffffffffffffffffffffffffffffffffffffff1663a9059cbb83836040518363ffffffff1660e01b81526004016114e6929190613cad565b6020604051808303816000875af1158015611505573d6000803e3d6000fd5b505050506040513d601f19601f8201168201806040525081019061152991906142e5565b611568576040517f08c379a000000000000000000000000000000000000000000000000000000000815260040161155f90614875565b60405180910390fd5b8173ffffffffffffffffffffffffffffffffffffffff167f95681e512bc0fe659e195e06c283eada494316f3d801213e48e7101af92bf770826040516115ae91906139cf565b60405180910390a25050565b60106020528060005260406000206000915054906101000a900460ff1681565b6115e2612489565b6115ea6124d3565b6000600e60009054906101000a900473ffffffffffffffffffffffffffffffffffffffff16905060006009549050600073ffffffffffffffffffffffffffffffffffffffff168273ffffffffffffffffffffffffffffffffffffffff1603611687576040517f08c379a000000000000000000000000000000000000000000000000000000000815260040161167e906148e1565b60405180910390fd5b8173ffffffffffffffffffffffffffffffffffffffff166323b872dd33600f60009054906101000a900473ffffffffffffffffffffffffffffffffffffffff16846040518463ffffffff1660e01b81526004016116e693929190614299565b6020604051808303816000875af1158015611705573d6000803e3d6000fd5b505050506040513d601f19601f8201168201806040525081019061172991906142e5565b611768576040517f08c379a000000000000000000000000000000000000000000000000000000000815260040161175f9061494d565b60405180910390fd5b61177433846000612522565b505061177e612904565b50565b61179261178c611ef2565b83612098565b6117d1576040517f08c379a00000000000000000000000000000000000000000000000000000000081526004016117c8906144b9565b60405180910390fd5b6117dd84848484612be0565b50505050565b600a5481565b60606117f482611fb3565b611833576040517f08c379a000000000000000000000000000000000000000000000000000000000815260040161182a90614279565b60405180910390fd5b61183c82612c3c565b9050919050565b61184b611e29565b600073ffffffffffffffffffffffffffffffffffffffff168173ffffffffffffffffffffffffffffffffffffffff16036118ba576040517f08c379a00000000000000000000000000000000000000000000000000000000081526004016118b1906149df565b60405180910390fd5b80600e60006101000a81548173ffffffffffffffffffffffffffffffffffffffff021916908373ffffffffffffffffffffffffffffffffffffffff1602179055507f642efe757f7c097df2555d74532321ce38535b3921193c8777a267303689883b8160405161192a9190613939565b60405180910390a150565b6000600560008473ffffffffffffffffffffffffffffffffffffffff1673ffffffffffffffffffffffffffffffffffffffff16815260200190815260200160002060008373ffffffffffffffffffffffffffffffffffffffff1673ffffffffffffffffffffffffffffffffffffffff16815260200190815260200160002060009054906101000a900460ff16905092915050565b60008111611a0c576040517f08c379a0000000000000000000000000000000000000000000000000000000008152600401611a0390614a4b565b60405180910390fd5b600d60009054906101000a900473ffffffffffffffffffffffffffffffffffffffff1673ffffffffffffffffffffffffffffffffffffffff166323b872dd3330846040518463ffffffff1660e01b8152600401611a6b93929190614299565b6020604051808303816000875af1158015611a8a573d6000803e3d6000fd5b505050506040513d601f19601f82011682018060405250810190611aae91906142e5565b611aed576040517f08c379a0000000000000000000000000000000000000000000000000000000008152600401611ae490614ab7565b60405180910390fd5b80600c6000828254611aff919061437e565b925050819055503373ffffffffffffffffffffffffffffffffffffffff167fd3da04b9295b0265da4cd8d1d9ea4f3bb84775e17288a007301f7193865b181882604051611b4c91906139cf565b60405180910390a250565b611b5f611e29565b600073ffffffffffffffffffffffffffffffffffffffff168173ffffffffffffffffffffffffffffffffffffffff1603611bce576040517f08c379a0000000000000000000000000000000000000000000000000000000008152600401611bc590614b23565b60405180910390fd5b80600f60006101000a81548173ffffffffffffffffffffffffffffffffffffffff021916908373ffffffffffffffffffffffffffffffffffffffff1602179055507f7dae230f18360d76a040c81f050aa14eb9d6dc7901b20fc5d855e2a20fe814d181604051611c3e9190613939565b60405180910390a150565b6000600c54905090565b611c5b611e29565b600073ffffffffffffffffffffffffffffffffffffffff168173ffffffffffffffffffffffffffffffffffffffff1603611cca576040517f08c379a0000000000000000000000000000000000000000000000000000000008152600401611cc190614bb5565b60405180910390fd5b611cd38161294b565b50565b611cde611e29565b600073ffffffffffffffffffffffffffffffffffffffff168173ffffffffffffffffffffffffffffffffffffffff1603611d4d576040517f08c379a0000000000000000000000000000000000000000000000000000000008152600401611d4490614c47565b60405180910390fd5b80600d60006101000a81548173ffffffffffffffffffffffffffffffffffffffff021916908373ffffffffffffffffffffffffffffffffffffffff1602179055507f6e54bd062be2216071d5874d64e175cd202a1df49312b7241043db3ddd25537b81604051611dbd9190613939565b60405180910390a150565b6000634906490660e01b7bffffffffffffffffffffffffffffffffffffffffffffffffffffffff1916827bffffffffffffffffffffffffffffffffffffffffffffffffffffffff19161480611e225750611e2182612d4e565b5b9050919050565b611e31611ef2565b73ffffffffffffffffffffffffffffffffffffffff16611e4f611351565b73ffffffffffffffffffffffffffffffffffffffff1614611ea5576040517f08c379a0000000000000000000000000000000000000000000000000000000008152600401611e9c90614cb3565b60405180910390fd5b565b611eb081611fb3565b611eef576040517f08c379a0000000000000000000000000000000000000000000000000000000008152600401611ee69061470b565b60405180910390fd5b50565b600033905090565b816004600083815260200190815260200160002060006101000a81548173ffffffffffffffffffffffffffffffffffffffff021916908373ffffffffffffffffffffffffffffffffffffffff160217905550808273ffffffffffffffffffffffffffffffffffffffff16611f6d836111dc565b73ffffffffffffffffffffffffffffffffffffffff167f8c5be1e5ebec7d5bd14f71427d1e84f3dd0314c0f7b2291e5b200ac8c7c3b92560405160405180910390a45050565b60008073ffffffffffffffffffffffffffffffffffffffff16611fd58361290e565b73ffffffffffffffffffffffffffffffffffffffff1614159050919050565b611ffd82611fb3565b61203c576040517f08c379a000000000000000000000000000000000000000000000000000000000815260040161203390614d45565b60405180910390fd5b8060066000848152602001908152602001600020908161205c9190614f07565b507ff8e1a15aba9398e019f0b49df1a4fde98ee17ae345cb5f6b5e2c27f5033e8ce78260405161208c91906139cf565b60405180910390a15050565b6000806120a4836111dc565b90508073ffffffffffffffffffffffffffffffffffffffff168473ffffffffffffffffffffffffffffffffffffffff1614806120e657506120e58185611935565b5b8061212457508373ffffffffffffffffffffffffffffffffffffffff1661210c84610957565b73ffffffffffffffffffffffffffffffffffffffff16145b91505092915050565b8273ffffffffffffffffffffffffffffffffffffffff1661214d826111dc565b73ffffffffffffffffffffffffffffffffffffffff16146121a3576040517f08c379a000000000000000000000000000000000000000000000000000000000815260040161219a9061504b565b60405180910390fd5b600073ffffffffffffffffffffffffffffffffffffffff168273ffffffffffffffffffffffffffffffffffffffff1603612212576040517f08c379a0000000000000000000000000000000000000000000000000000000008152600401612209906150dd565b60405180910390fd5b61221f8383836001612e30565b8273ffffffffffffffffffffffffffffffffffffffff1661223f826111dc565b73ffffffffffffffffffffffffffffffffffffffff1614612295576040517f08c379a000000000000000000000000000000000000000000000000000000000815260040161228c9061504b565b60405180910390fd5b6004600082815260200190815260200160002060006101000a81549073ffffffffffffffffffffffffffffffffffffffff02191690556001600360008573ffffffffffffffffffffffffffffffffffffffff1673ffffffffffffffffffffffffffffffffffffffff168152602001908152602001600020600082825403925050819055506001600360008473ffffffffffffffffffffffffffffffffffffffff1673ffffffffffffffffffffffffffffffffffffffff16815260200190815260200160002060008282540192505081905550816002600083815260200190815260200160002060006101000a81548173ffffffffffffffffffffffffffffffffffffffff021916908373ffffffffffffffffffffffffffffffffffffffff160217905550808273ffffffffffffffffffffffffffffffffffffffff168473ffffffffffffffffffffffffffffffffffffffff167fddf252ad1be2c89b69c2b068fc378daa952ba7f163c4a11628f55a4df523b3ef60405160405180910390a46124218383836001612e36565b505050565b61242e612e3c565b6000600760146101000a81548160ff0219169083151502179055507f5db9ee0a495bf2e6ff9c91a7834c1ba4fdd244a5e8aa4e537bd38aeae4b073aa612472611ef2565b60405161247f9190613939565b60405180910390a1565b61249161119f565b156124d1576040517f08c379a00000000000000000000000000000000000000000000000000000000081526004016124c890615149565b60405180910390fd5b565b600260085403612518576040517f08c379a000000000000000000000000000000000000000000000000000000000815260040161250f906151b5565b60405180910390fd5b6002600881905550565b6000600c5490506000600b54905061253a8582612e85565b6125448185611ff4565b600061254f82612ea3565b9050806010600084815260200190815260200160002060006101000a81548160ff0219169083600481111561258757612586613d8e565b5b0217905550600061259782612f49565b90506000811180156125a95750838111155b156128585760006064605f836125bf91906144d9565b6125c9919061454a565b9050600081836125d991906141f9565b905082866125e791906141f9565b955085600c81905550600d60009054906101000a900473ffffffffffffffffffffffffffffffffffffffff1673ffffffffffffffffffffffffffffffffffffffff1663a9059cbb8a846040518363ffffffff1660e01b815260040161264d929190613cad565b6020604051808303816000875af115801561266c573d6000803e3d6000fd5b505050506040513d601f19601f8201168201806040525081019061269091906142e5565b6126cf576040517f08c379a00000000000000000000000000000000000000000000000000000000081526004016126c690615221565b60405180910390fd5b600d60009054906101000a900473ffffffffffffffffffffffffffffffffffffffff1673ffffffffffffffffffffffffffffffffffffffff1663a9059cbb600f60009054906101000a900473ffffffffffffffffffffffffffffffffffffffff16836040518363ffffffff1660e01b815260040161274e929190613cad565b6020604051808303816000875af115801561276d573d6000803e3d6000fd5b505050506040513d601f19601f8201168201806040525081019061279191906142e5565b6127d0576040517f08c379a00000000000000000000000000000000000000000000000000000000081526004016127c79061528d565b60405180910390fd5b8873ffffffffffffffffffffffffffffffffffffffff167f95681e512bc0fe659e195e06c283eada494316f3d801213e48e7101af92bf7708360405161281691906139cf565b60405180910390a27f7bc22304ac771f50d6cc29b56387cb4855f284e7a1f83e6420fe9b8bbdaf45c98660405161284d91906139cf565b60405180910390a150505b600183612865919061437e565b600b819055508673ffffffffffffffffffffffffffffffffffffffff167fa08b3bf5b7af36b46fffc856a242e512024f345d8981c820b40ed15e1a7b5cae8484896040516128b5939291906152ad565b60405180910390a284156128fb577f7bc22304ac771f50d6cc29b56387cb4855f284e7a1f83e6420fe9b8bbdaf45c9846040516128f291906139cf565b60405180910390a15b50505050505050565b6001600881905550565b60006002600083815260200190815260200160002060009054906101000a900473ffffffffffffffffffffffffffffffffffffffff169050919050565b6000600760009054906101000a900473ffffffffffffffffffffffffffffffffffffffff16905081600760006101000a81548173ffffffffffffffffffffffffffffffffffffffff021916908373ffffffffffffffffffffffffffffffffffffffff1602179055508173ffffffffffffffffffffffffffffffffffffffff168173ffffffffffffffffffffffffffffffffffffffff167f8be0079c531659141344cd1fd0a4f28419497f9722a3daafe3b4186f6b6457e060405160405180910390a35050565b612a19612489565b6001600760146101000a81548160ff0219169083151502179055507f62e78cea01bee320cd4e420270b5ea74000d11b0c9f74754ebdbfc544b05a258612a5d611ef2565b604051612a6a9190613939565b60405180910390a1565b8173ffffffffffffffffffffffffffffffffffffffff168373ffffffffffffffffffffffffffffffffffffffff1603612ae2576040517f08c379a0000000000000000000000000000000000000000000000000000000008152600401612ad990615337565b60405180910390fd5b80600560008573ffffffffffffffffffffffffffffffffffffffff1673ffffffffffffffffffffffffffffffffffffffff16815260200190815260200160002060008473ffffffffffffffffffffffffffffffffffffffff1673ffffffffffffffffffffffffffffffffffffffff16815260200190815260200160002060006101000a81548160ff0219169083151502179055508173ffffffffffffffffffffffffffffffffffffffff168373ffffffffffffffffffffffffffffffffffffffff167f17307eab39ab6107e8899845ad3d59bd9653f200f220920489ca2b5937696c3183604051612bd39190613788565b60405180910390a3505050565b612beb84848461212d565b612bf784848484612fa8565b612c36576040517f08c379a0000000000000000000000000000000000000000000000000000000008152600401612c2d906153c9565b60405180910390fd5b50505050565b6060612c4782611ea7565b6000600660008481526020019081526020016000208054612c6790614075565b80601f0160208091040260200160405190810160405280929190818152602001828054612c9390614075565b8015612ce05780601f10612cb557610100808354040283529160200191612ce0565b820191906000526020600020905b815481529060010190602001808311612cc357829003601f168201915b505050505090506000612cf161312f565b90506000815103612d06578192505050612d49565b600082511115612d3b578082604051602001612d23929190615425565b60405160208183030381529060405292505050612d49565b612d4484613146565b925050505b919050565b60007f80ac58cd000000000000000000000000000000000000000000000000000000007bffffffffffffffffffffffffffffffffffffffffffffffffffffffff1916827bffffffffffffffffffffffffffffffffffffffffffffffffffffffff19161480612e1957507f5b5e139f000000000000000000000000000000000000000000000000000000007bffffffffffffffffffffffffffffffffffffffffffffffffffffffff1916827bffffffffffffffffffffffffffffffffffffffffffffffffffffffff1916145b80612e295750612e28826131ae565b5b9050919050565b50505050565b50505050565b612e4461119f565b612e83576040517f08c379a0000000000000000000000000000000000000000000000000000000008152600401612e7a90615495565b60405180910390fd5b565b612e9f828260405180602001604052806000815250613218565b5050565b600080612710600143612eb691906141f9565b4084604051602001612ec9929190615501565b6040516020818303038152906040528051906020012060001c612eec919061552d565b9050611b58811015612f02576000915050612f44565b6122ab811015612f16576001915050612f44565b612625811015612f2a576002915050612f44565b6126de811015612f3e576003915050612f44565b60049150505b919050565b60008060116000846004811115612f6357612f62613d8e565b5b6004811115612f7557612f74613d8e565b5b8152602001908152602001600020549050606481600c54612f9691906144d9565b612fa0919061454a565b915050919050565b6000612fc98473ffffffffffffffffffffffffffffffffffffffff16613273565b15613122578373ffffffffffffffffffffffffffffffffffffffff1663150b7a02612ff2611ef2565b8786866040518563ffffffff1660e01b815260040161301494939291906155b3565b6020604051808303816000875af192505050801561305057506040513d601f19601f8201168201806040525081019061304d9190615614565b60015b6130d2573d8060008114613080576040519150601f19603f3d011682016040523d82523d6000602084013e613085565b606091505b5060008151036130ca576040517f08c379a00000000000000000000000000000000000000000000000000000000081526004016130c1906153c9565b60405180910390fd5b805181602001fd5b63150b7a0260e01b7bffffffffffffffffffffffffffffffffffffffffffffffffffffffff1916817bffffffffffffffffffffffffffffffffffffffffffffffffffffffff191614915050613127565b600190505b949350505050565b606060405180602001604052806000815250905090565b606061315182611ea7565b600061315b61312f565b9050600081511161317b57604051806020016040528060008152506131a6565b8061318584613296565b604051602001613196929190615425565b6040516020818303038152906040525b915050919050565b60007f01ffc9a7000000000000000000000000000000000000000000000000000000007bffffffffffffffffffffffffffffffffffffffffffffffffffffffff1916827bffffffffffffffffffffffffffffffffffffffffffffffffffffffff1916149050919050565b6132228383613364565b61322f6000848484612fa8565b61326e576040517f08c379a0000000000000000000000000000000000000000000000000000000008152600401613265906153c9565b60405180910390fd5b505050565b6000808273ffffffffffffffffffffffffffffffffffffffff163b119050919050565b6060600060016132a584613581565b01905060008167ffffffffffffffff8111156132c4576132c36139f4565b5b6040519080825280601f01601f1916602001820160405280156132f65781602001600182028036833780820191505090505b509050600082602001820190505b600115613359578080600190039150507f3031323334353637383961626364656600000000000000000000000000000000600a86061a8153600a858161334d5761334c61451b565b5b04945060008503613304575b819350505050919050565b600073ffffffffffffffffffffffffffffffffffffffff168273ffffffffffffffffffffffffffffffffffffffff16036133d3576040517f08c379a00000000000000000000000000000000000000000000000000000000081526004016133ca9061568d565b60405180910390fd5b6133dc81611fb3565b1561341c576040517f08c379a0000000000000000000000000000000000000000000000000000000008152600401613413906156f9565b60405180910390fd5b61342a600083836001612e30565b61343381611fb3565b15613473576040517f08c379a000000000000000000000000000000000000000000000000000000000815260040161346a906156f9565b60405180910390fd5b6001600360008473ffffffffffffffffffffffffffffffffffffffff1673ffffffffffffffffffffffffffffffffffffffff16815260200190815260200160002060008282540192505081905550816002600083815260200190815260200160002060006101000a81548173ffffffffffffffffffffffffffffffffffffffff021916908373ffffffffffffffffffffffffffffffffffffffff160217905550808273ffffffffffffffffffffffffffffffffffffffff16600073ffffffffffffffffffffffffffffffffffffffff167fddf252ad1be2c89b69c2b068fc378daa952ba7f163c4a11628f55a4df523b3ef60405160405180910390a461357d600083836001612e36565b5050565b600080600090507a184f03e93ff9f4daa797ed6e38ed64bf6a1f01000000000000000083106135df577a184f03e93ff9f4daa797ed6e38ed64bf6a1f01000000000000000083816135d5576135d461451b565b5b0492506040810190505b6d04ee2d6d415b85acef8100000000831061361c576d04ee2d6d415b85acef810000000083816136125761361161451b565b5b0492506020810190505b662386f26fc10000831061364b57662386f26fc1000083816136415761364061451b565b5b0492506010810190505b6305f5e1008310613674576305f5e100838161366a5761366961451b565b5b0492506008810190505b612710831061369957612710838161368f5761368e61451b565b5b0492506004810190505b606483106136bc57606483816136b2576136b161451b565b5b0492506002810190505b600a83106136cb576001810190505b80915050919050565b6000604051905090565b600080fd5b600080fd5b60007fffffffff0000000000000000000000000000000000000000000000000000000082169050919050565b61371d816136e8565b811461372857600080fd5b50565b60008135905061373a81613714565b92915050565b600060208284031215613756576137556136de565b5b60006137648482850161372b565b91505092915050565b60008115159050919050565b6137828161376d565b82525050565b600060208201905061379d6000830184613779565b92915050565b6000819050919050565b6137b6816137a3565b81146137c157600080fd5b50565b6000813590506137d3816137ad565b92915050565b600080604083850312156137f0576137ef6136de565b5b60006137fe858286016137c4565b925050602061380f858286016137c4565b9150509250929050565b600081519050919050565b600082825260208201905092915050565b60005b83811015613853578082015181840152602081019050613838565b60008484015250505050565b6000601f19601f8301169050919050565b600061387b82613819565b6138858185613824565b9350613895818560208601613835565b61389e8161385f565b840191505092915050565b600060208201905081810360008301526138c38184613870565b905092915050565b6000602082840312156138e1576138e06136de565b5b60006138ef848285016137c4565b91505092915050565b600073ffffffffffffffffffffffffffffffffffffffff82169050919050565b6000613923826138f8565b9050919050565b61393381613918565b82525050565b600060208201905061394e600083018461392a565b92915050565b61395d81613918565b811461396857600080fd5b50565b60008135905061397a81613954565b92915050565b60008060408385031215613997576139966136de565b5b60006139a58582860161396b565b92505060206139b6858286016137c4565b9150509250929050565b6139c9816137a3565b82525050565b60006020820190506139e460008301846139c0565b92915050565b600080fd5b600080fd5b7f4e487b7100000000000000000000000000000000000000000000000000000000600052604160045260246000fd5b613a2c8261385f565b810181811067ffffffffffffffff82111715613a4b57613a4a6139f4565b5b80604052505050565b6000613a5e6136d4565b9050613a6a8282613a23565b919050565b600067ffffffffffffffff821115613a8a57613a896139f4565b5b613a938261385f565b9050602081019050919050565b82818337600083830152505050565b6000613ac2613abd84613a6f565b613a54565b905082815260208101848484011115613ade57613add6139ef565b5b613ae9848285613aa0565b509392505050565b600082601f830112613b0657613b056139ea565b5b8135613b16848260208601613aaf565b91505092915050565b60008060408385031215613b3657613b356136de565b5b6000613b44858286016137c4565b925050602083013567ffffffffffffffff811115613b6557613b646136e3565b5b613b7185828601613af1565b9150509250929050565b60058110613b8857600080fd5b50565b600081359050613b9a81613b7b565b92915050565b60008060408385031215613bb757613bb66136de565b5b6000613bc585828601613b8b565b9250506020613bd6858286016137c4565b9150509250929050565b6000819050919050565b6000613c05613c00613bfb846138f8565b613be0565b6138f8565b9050919050565b6000613c1782613bea565b9050919050565b6000613c2982613c0c565b9050919050565b613c3981613c1e565b82525050565b6000602082019050613c546000830184613c30565b92915050565b600080600060608486031215613c7357613c726136de565b5b6000613c818682870161396b565b9350506020613c928682870161396b565b9250506040613ca3868287016137c4565b9150509250925092565b6000604082019050613cc2600083018561392a565b613ccf60208301846139c0565b9392505050565b60006bffffffffffffffffffffffff82169050919050565b613cf781613cd6565b82525050565b6000602082019050613d126000830184613cee565b92915050565b600060208284031215613d2e57613d2d6136de565b5b600082013567ffffffffffffffff811115613d4c57613d4b6136e3565b5b613d5884828501613af1565b91505092915050565b600060208284031215613d7757613d766136de565b5b6000613d8584828501613b8b565b91505092915050565b7f4e487b7100000000000000000000000000000000000000000000000000000000600052602160045260246000fd5b60058110613dce57613dcd613d8e565b5b50565b6000819050613ddf82613dbd565b919050565b6000613def82613dd1565b9050919050565b613dff81613de4565b82525050565b6000602082019050613e1a6000830184613df6565b92915050565b600060208284031215613e3657613e356136de565b5b6000613e448482850161396b565b91505092915050565b613e568161376d565b8114613e6157600080fd5b50565b600081359050613e7381613e4d565b92915050565b60008060408385031215613e9057613e8f6136de565b5b6000613e9e8582860161396b565b9250506020613eaf85828601613e64565b9150509250929050565b600067ffffffffffffffff821115613ed457613ed36139f4565b5b613edd8261385f565b9050602081019050919050565b6000613efd613ef884613eb9565b613a54565b905082815260208101848484011115613f1957613f186139ef565b5b613f24848285613aa0565b509392505050565b600082601f830112613f4157613f406139ea565b5b8135613f51848260208601613eea565b91505092915050565b60008060008060808587031215613f7457613f736136de565b5b6000613f828782880161396b565b9450506020613f938782880161396b565b9350506040613fa4878288016137c4565b925050606085013567ffffffffffffffff811115613fc557613fc46136e3565b5b613fd187828801613f2c565b91505092959194509250565b60008060408385031215613ff457613ff36136de565b5b60006140028582860161396b565b92505060206140138582860161396b565b9150509250929050565b600060408201905061403260008301856139c0565b61403f60208301846139c0565b9392505050565b7f4e487b7100000000000000000000000000000000000000000000000000000000600052602260045260246000fd5b6000600282049050600182168061408d57607f821691505b6020821081036140a05761409f614046565b5b50919050565b7f4552433732313a20617070726f76616c20746f2063757272656e74206f776e6560008201527f7200000000000000000000000000000000000000000000000000000000000000602082015250565b6000614102602183613824565b915061410d826140a6565b604082019050919050565b60006020820190508181036000830152614131816140f5565b9050919050565b7f4552433732313a20617070726f76652063616c6c6572206973206e6f7420746f60008201527f6b656e206f776e6572206f7220617070726f76656420666f7220616c6c000000602082015250565b6000614194603d83613824565b915061419f82614138565b604082019050919050565b600060208201905081810360008301526141c381614187565b9050919050565b7f4e487b7100000000000000000000000000000000000000000000000000000000600052601160045260246000fd5b6000614204826137a3565b915061420f836137a3565b9250828203905081811115614227576142266141ca565b5b92915050565b7f546f6b656e20646f6573206e6f74206578697374000000000000000000000000600082015250565b6000614263601483613824565b915061426e8261422d565b602082019050919050565b6000602082019050818103600083015261429281614256565b9050919050565b60006060820190506142ae600083018661392a565b6142bb602083018561392a565b6142c860408301846139c0565b949350505050565b6000815190506142df81613e4d565b92915050565b6000602082840312156142fb576142fa6136de565b5b6000614309848285016142d0565b91505092915050565b7f5472616e73666572206661696c65640000000000000000000000000000000000600082015250565b6000614348600f83613824565b915061435382614312565b602082019050919050565b600060208201905081810360008301526143778161433b565b9050919050565b6000614389826137a3565b9150614394836137a3565b92508282019050808211156143ac576143ab6141ca565b5b92915050565b7f546f6f2068696768000000000000000000000000000000000000000000000000600082015250565b60006143e8600883613824565b91506143f3826143b2565b602082019050919050565b60006020820190508181036000830152614417816143db565b9050919050565b60006040820190506144336000830185613df6565b61444060208301846139c0565b9392505050565b7f4552433732313a2063616c6c6572206973206e6f7420746f6b656e206f776e6560008201527f72206f7220617070726f76656400000000000000000000000000000000000000602082015250565b60006144a3602d83613824565b91506144ae82614447565b604082019050919050565b600060208201905081810360008301526144d281614496565b9050919050565b60006144e4826137a3565b91506144ef836137a3565b92508282026144fd816137a3565b91508282048414831517614514576145136141ca565b5b5092915050565b7f4e487b7100000000000000000000000000000000000000000000000000000000600052601260045260246000fd5b6000614555826137a3565b9150614560836137a3565b9250826145705761456f61451b565b5b828204905092915050565b7f5645525420746f6b656e206e6f74207365740000000000000000000000000000600082015250565b60006145b1601283613824565b91506145bc8261457b565b602082019050919050565b600060208201905081810360008301526145e0816145a4565b9050919050565b7f56455254207061796d656e74206661696c656400000000000000000000000000600082015250565b600061461d601383613824565b9150614628826145e7565b602082019050919050565b6000602082019050818103600083015261464c81614610565b9050919050565b7f5472656173757279207472616e73666572206661696c65640000000000000000600082015250565b6000614689601883613824565b915061469482614653565b602082019050919050565b600060208201905081810360008301526146b88161467c565b9050919050565b7f4552433732313a20696e76616c696420746f6b656e2049440000000000000000600082015250565b60006146f5601883613824565b9150614700826146bf565b602082019050919050565b60006020820190508181036000830152614724816146e8565b9050919050565b7f4552433732313a2061646472657373207a65726f206973206e6f74206120766160008201527f6c6964206f776e65720000000000000000000000000000000000000000000000602082015250565b6000614787602983613824565b91506147928261472b565b604082019050919050565b600060208201905081810360008301526147b68161477a565b9050919050565b7f496e73756666696369656e74207072697a6520706f6f6c000000000000000000600082015250565b60006147f3601783613824565b91506147fe826147bd565b602082019050919050565b60006020820190508181036000830152614822816147e6565b9050919050565b7f5072697a65207472616e73666572206661696c65640000000000000000000000600082015250565b600061485f601583613824565b915061486a82614829565b602082019050919050565b6000602082019050818103600083015261488e81614852565b9050919050565b7f5669727475616c20746f6b656e206e6f74207365740000000000000000000000600082015250565b60006148cb601583613824565b91506148d682614895565b602082019050919050565b600060208201905081810360008301526148fa816148be565b9050919050565b7f5649525455414c207061796d656e74206661696c656400000000000000000000600082015250565b6000614937601683613824565b915061494282614901565b602082019050919050565b600060208201905081810360008301526149668161492a565b9050919050565b7f5669727475616c20746f6b656e2063616e6e6f74206265207a65726f2061646460008201527f7265737300000000000000000000000000000000000000000000000000000000602082015250565b60006149c9602483613824565b91506149d48261496d565b604082019050919050565b600060208201905081810360008301526149f8816149bc565b9050919050565b7f43616e6e6f74206465706f736974207a65726f00000000000000000000000000600082015250565b6000614a35601383613824565b9150614a40826149ff565b602082019050919050565b60006020820190508181036000830152614a6481614a28565b9050919050565b7f56455254207472616e73666572206661696c6564000000000000000000000000600082015250565b6000614aa1601483613824565b9150614aac82614a6b565b602082019050919050565b60006020820190508181036000830152614ad081614a94565b9050919050565b7f54726561737572792063616e6e6f74206265207a65726f206164647265737300600082015250565b6000614b0d601f83613824565b9150614b1882614ad7565b602082019050919050565b60006020820190508181036000830152614b3c81614b00565b9050919050565b7f4f776e61626c653a206e6577206f776e657220697320746865207a65726f206160008201527f6464726573730000000000000000000000000000000000000000000000000000602082015250565b6000614b9f602683613824565b9150614baa82614b43565b604082019050919050565b60006020820190508181036000830152614bce81614b92565b9050919050565b7f5645525420746f6b656e2063616e6e6f74206265207a65726f2061646472657360008201527f7300000000000000000000000000000000000000000000000000000000000000602082015250565b6000614c31602183613824565b9150614c3c82614bd5565b604082019050919050565b60006020820190508181036000830152614c6081614c24565b9050919050565b7f4f776e61626c653a2063616c6c6572206973206e6f7420746865206f776e6572600082015250565b6000614c9d602083613824565b9150614ca882614c67565b602082019050919050565b60006020820190508181036000830152614ccc81614c90565b9050919050565b7f45524337323155524953746f726167653a2055524920736574206f66206e6f6e60008201527f6578697374656e7420746f6b656e000000000000000000000000000000000000602082015250565b6000614d2f602e83613824565b9150614d3a82614cd3565b604082019050919050565b60006020820190508181036000830152614d5e81614d22565b9050919050565b60008190508160005260206000209050919050565b60006020601f8301049050919050565b600082821b905092915050565b600060088302614dc77fffffffffffffffffffffffffffffffffffffffffffffffffffffffffffffffff82614d8a565b614dd18683614d8a565b95508019841693508086168417925050509392505050565b6000614e04614dff614dfa846137a3565b613be0565b6137a3565b9050919050565b6000819050919050565b614e1e83614de9565b614e32614e2a82614e0b565b848454614d97565b825550505050565b600090565b614e47614e3a565b614e52818484614e15565b505050565b5b81811015614e7657614e6b600082614e3f565b600181019050614e58565b5050565b601f821115614ebb57614e8c81614d65565b614e9584614d7a565b81016020851015614ea4578190505b614eb8614eb085614d7a565b830182614e57565b50505b505050565b600082821c905092915050565b6000614ede60001984600802614ec0565b1980831691505092915050565b6000614ef78383614ecd565b9150826002028217905092915050565b614f1082613819565b67ffffffffffffffff811115614f2957614f286139f4565b5b614f338254614075565b614f3e828285614e7a565b600060209050601f831160018114614f715760008415614f5f578287015190505b614f698582614eeb565b865550614fd1565b601f198416614f7f86614d65565b60005b82811015614fa757848901518255600182019150602085019450602081019050614f82565b86831015614fc45784890151614fc0601f891682614ecd565b8355505b6001600288020188555050505b505050505050565b7f4552433732313a207472616e736665722066726f6d20696e636f72726563742060008201527f6f776e6572000000000000000000000000000000000000000000000000000000602082015250565b6000615035602583613824565b915061504082614fd9565b604082019050919050565b6000602082019050818103600083015261506481615028565b9050919050565b7f4552433732313a207472616e7366657220746f20746865207a65726f2061646460008201527f7265737300000000000000000000000000000000000000000000000000000000602082015250565b60006150c7602483613824565b91506150d28261506b565b604082019050919050565b600060208201905081810360008301526150f6816150ba565b9050919050565b7f5061757361626c653a2070617573656400000000000000000000000000000000600082015250565b6000615133601083613824565b915061513e826150fd565b602082019050919050565b6000602082019050818103600083015261516281615126565b9050919050565b7f5265656e7472616e637947756172643a207265656e7472616e742063616c6c00600082015250565b600061519f601f83613824565b91506151aa82615169565b602082019050919050565b600060208201905081810360008301526151ce81615192565b9050919050565b7f5072697a65207061796f7574206661696c656400000000000000000000000000600082015250565b600061520b601383613824565b9150615216826151d5565b602082019050919050565b6000602082019050818103600083015261523a816151fe565b9050919050565b7f547265617375727920637574206661696c656400000000000000000000000000600082015250565b6000615277601383613824565b915061528282615241565b602082019050919050565b600060208201905081810360008301526152a68161526a565b9050919050565b60006060820190506152c260008301866139c0565b6152cf6020830185613df6565b81810360408301526152e18184613870565b9050949350505050565b7f4552433732313a20617070726f766520746f2063616c6c657200000000000000600082015250565b6000615321601983613824565b915061532c826152eb565b602082019050919050565b6000602082019050818103600083015261535081615314565b9050919050565b7f4552433732313a207472616e7366657220746f206e6f6e20455243373231526560008201527f63656976657220696d706c656d656e7465720000000000000000000000000000602082015250565b60006153b3603283613824565b91506153be82615357565b604082019050919050565b600060208201905081810360008301526153e2816153a6565b9050919050565b600081905092915050565b60006153ff82613819565b61540981856153e9565b9350615419818560208601613835565b80840191505092915050565b600061543182856153f4565b915061543d82846153f4565b91508190509392505050565b7f5061757361626c653a206e6f7420706175736564000000000000000000000000600082015250565b600061547f601483613824565b915061548a82615449565b602082019050919050565b600060208201905081810360008301526154ae81615472565b9050919050565b6000819050919050565b6000819050919050565b6154da6154d5826154b5565b6154bf565b82525050565b6000819050919050565b6154fb6154f6826137a3565b6154e0565b82525050565b600061550d82856154c9565b60208201915061551d82846154ea565b6020820191508190509392505050565b6000615538826137a3565b9150615543836137a3565b9250826155535761555261451b565b5b828206905092915050565b600081519050919050565b600082825260208201905092915050565b60006155858261555e565b61558f8185615569565b935061559f818560208601613835565b6155a88161385f565b840191505092915050565b60006080820190506155c8600083018761392a565b6155d5602083018661392a565b6155e260408301856139c0565b81810360608301526155f4818461557a565b905095945050505050565b60008151905061560e81613714565b92915050565b60006020828403121561562a576156296136de565b5b6000615638848285016155ff565b91505092915050565b7f4552433732313a206d696e7420746f20746865207a65726f2061646472657373600082015250565b6000615677602083613824565b915061568282615641565b602082019050919050565b600060208201905081810360008301526156a68161566a565b9050919050565b7f4552433732313a20746f6b656e20616c7265616479206d696e74656400000000600082015250565b60006156e3601c83613824565b91506156ee826156ad565b602082019050919050565b60006020820190508181036000830152615712816156d6565b905091905056fea26469706673582212201599ea19a45728ee570283afc2639b7057507ab67c0652f604669593433d0f0364736f6c634300081c0033","opcodes":"PUSH1 0x80 PUSH1 0x40 MSTORE PUSH8 0x22B1C8C1227A0000 PUSH1 0x9 SSTORE PUSH8 0x14D1120D7B160000 PUSH1 0xA SSTORE CALLVALUE DUP1 ISZERO PUSH2 0x28 JUMPI PUSH1 0x0 DUP1 REVERT JUMPDEST POP PUSH1 0x40 MLOAD PUSH2 0x6202 CODESIZE SUB DUP1 PUSH2 0x6202 DUP4 CODECOPY DUP2 DUP2 ADD PUSH1 0x40 MSTORE DUP2 ADD SWAP1 PUSH2 0x4A SWAP2 SWAP1 PUSH2 0x55F JUMP JUMPDEST PUSH1 0x40 MLOAD DUP1 PUSH1 0x40 ADD PUSH1 0x40 MSTORE DUP1 PUSH1 0x10 DUP2 MSTORE PUSH1 0x20 ADD PUSH32 0x566572746963616C2050726F6A65637400000000000000000000000000000000 DUP2 MSTORE POP PUSH1 0x40 MLOAD DUP1 PUSH1 0x40 ADD PUSH1 0x40 MSTORE DUP1 PUSH1 0x7 DUP2 MSTORE PUSH1 0x20 ADD PUSH32 0x564552544E465400000000000000000000000000000000000000000000000000 DUP2 MSTORE POP DUP2 PUSH1 0x0 SWAP1 DUP2 PUSH2 0xC5 SWAP2 SWAP1 PUSH2 0x802 JUMP JUMPDEST POP DUP1 PUSH1 0x1 SWAP1 DUP2 PUSH2 0xD5 SWAP2 SWAP1 PUSH2 0x802 JUMP JUMPDEST POP POP POP PUSH2 0xF4 PUSH2 0xE9 PUSH2 0x42E PUSH1 0x20 SHL PUSH1 0x20 SHR JUMP JUMPDEST PUSH2 0x436 PUSH1 0x20 SHL PUSH1 0x20 SHR JUMP JUMPDEST PUSH1 0x0 PUSH1 0x7 PUSH1 0x14 PUSH2 0x100 EXP DUP2 SLOAD DUP2 PUSH1 0xFF MUL NOT AND SWAP1 DUP4 ISZERO ISZERO MUL OR SWAP1 SSTORE POP PUSH1 0x1 PUSH1 0x8 DUP2 SWAP1 SSTORE POP PUSH1 0x0 PUSH20 0xFFFFFFFFFFFFFFFFFFFFFFFFFFFFFFFFFFFFFFFF AND DUP4 PUSH20 0xFFFFFFFFFFFFFFFFFFFFFFFFFFFFFFFFFFFFFFFF AND SUB PUSH2 0x186 JUMPI PUSH1 0x40 MLOAD PUSH32 0x8C379A000000000000000000000000000000000000000000000000000000000 DUP2 MSTORE PUSH1 0x4 ADD PUSH2 0x17D SWAP1 PUSH2 0x957 JUMP JUMPDEST PUSH1 0x40 MLOAD DUP1 SWAP2 SUB SWAP1 REVERT JUMPDEST PUSH1 0x0 PUSH20 0xFFFFFFFFFFFFFFFFFFFFFFFFFFFFFFFFFFFFFFFF AND DUP3 PUSH20 0xFFFFFFFFFFFFFFFFFFFFFFFFFFFFFFFFFFFFFFFF AND SUB PUSH2 0x1F5 JUMPI PUSH1 0x40 MLOAD PUSH32 0x8C379A000000000000000000000000000000000000000000000000000000000 DUP2 MSTORE PUSH1 0x4 ADD PUSH2 0x1EC SWAP1 PUSH2 0x9E9 JUMP JUMPDEST PUSH1 0x40 MLOAD DUP1 SWAP2 SUB SWAP1 REVERT JUMPDEST PUSH1 0x0 PUSH20 0xFFFFFFFFFFFFFFFFFFFFFFFFFFFFFFFFFFFFFFFF AND DUP2 PUSH20 0xFFFFFFFFFFFFFFFFFFFFFFFFFFFFFFFFFFFFFFFF AND SUB PUSH2 0x264 JUMPI PUSH1 0x40 MLOAD PUSH32 0x8C379A000000000000000000000000000000000000000000000000000000000 DUP2 MSTORE PUSH1 0x4 ADD PUSH2 0x25B SWAP1 PUSH2 0xA55 JUMP JUMPDEST PUSH1 0x40 MLOAD DUP1 SWAP2 SUB SWAP1 REVERT JUMPDEST DUP3 PUSH1 0xE PUSH1 0x0 PUSH2 0x100 EXP DUP2 SLOAD DUP2 PUSH20 0xFFFFFFFFFFFFFFFFFFFFFFFFFFFFFFFFFFFFFFFF MUL NOT AND SWAP1 DUP4 PUSH20 0xFFFFFFFFFFFFFFFFFFFFFFFFFFFFFFFFFFFFFFFF AND MUL OR SWAP1 SSTORE POP DUP2 PUSH1 0xD PUSH1 0x0 PUSH2 0x100 EXP DUP2 SLOAD DUP2 PUSH20 0xFFFFFFFFFFFFFFFFFFFFFFFFFFFFFFFFFFFFFFFF MUL NOT AND SWAP1 DUP4 PUSH20 0xFFFFFFFFFFFFFFFFFFFFFFFFFFFFFFFFFFFFFFFF AND MUL OR SWAP1 SSTORE POP DUP1 PUSH1 0xF PUSH1 0x0 PUSH2 0x100 EXP DUP2 SLOAD DUP2 PUSH20 0xFFFFFFFFFFFFFFFFFFFFFFFFFFFFFFFFFFFFFFFF MUL NOT AND SWAP1 DUP4 PUSH20 0xFFFFFFFFFFFFFFFFFFFFFFFFFFFFFFFFFFFFFFFF AND MUL OR SWAP1 SSTORE POP PUSH1 0x1 PUSH1 0xB DUP2 SWAP1 SSTORE POP PUSH1 0x3 PUSH1 0x11 PUSH1 0x0 PUSH1 0x1 PUSH1 0x4 DUP2 GT ISZERO PUSH2 0x349 JUMPI PUSH2 0x348 PUSH2 0xA75 JUMP JUMPDEST JUMPDEST PUSH1 0x4 DUP2 GT ISZERO PUSH2 0x35B JUMPI PUSH2 0x35A PUSH2 0xA75 JUMP JUMPDEST JUMPDEST DUP2 MSTORE PUSH1 0x20 ADD SWAP1 DUP2 MSTORE PUSH1 0x20 ADD PUSH1 0x0 KECCAK256 DUP2 SWAP1 SSTORE POP PUSH1 0x7 PUSH1 0x11 PUSH1 0x0 PUSH1 0x2 PUSH1 0x4 DUP2 GT ISZERO PUSH2 0x387 JUMPI PUSH2 0x386 PUSH2 0xA75 JUMP JUMPDEST JUMPDEST PUSH1 0x4 DUP2 GT ISZERO PUSH2 0x399 JUMPI PUSH2 0x398 PUSH2 0xA75 JUMP JUMPDEST JUMPDEST DUP2 MSTORE PUSH1 0x20 ADD SWAP1 DUP2 MSTORE PUSH1 0x20 ADD PUSH1 0x0 KECCAK256 DUP2 SWAP1 SSTORE POP PUSH1 0xF PUSH1 0x11 PUSH1 0x0 PUSH1 0x3 PUSH1 0x4 DUP2 GT ISZERO PUSH2 0x3C5 JUMPI PUSH2 0x3C4 PUSH2 0xA75 JUMP JUMPDEST JUMPDEST PUSH1 0x4 DUP2 GT ISZERO PUSH2 0x3D7 JUMPI PUSH2 0x3D6 PUSH2 0xA75 JUMP JUMPDEST JUMPDEST DUP2 MSTORE PUSH1 0x20 ADD SWAP1 DUP2 MSTORE PUSH1 0x20 ADD PUSH1 0x0 KECCAK256 DUP2 SWAP1 SSTORE POP PUSH1 0x28 PUSH1 0x11 PUSH1 0x0 PUSH1 0x4 DUP1 DUP2 GT ISZERO PUSH2 0x402 JUMPI PUSH2 0x401 PUSH2 0xA75 JUMP JUMPDEST JUMPDEST PUSH1 0x4 DUP2 GT ISZERO PUSH2 0x414 JUMPI PUSH2 0x413 PUSH2 0xA75 JUMP JUMPDEST JUMPDEST DUP2 MSTORE PUSH1 0x20 ADD SWAP1 DUP2 MSTORE PUSH1 0x20 ADD PUSH1 0x0 KECCAK256 DUP2 SWAP1 SSTORE POP POP POP POP PUSH2 0xAA4 JUMP JUMPDEST PUSH1 0x0 CALLER SWAP1 POP SWAP1 JUMP JUMPDEST PUSH1 0x0 PUSH1 0x7 PUSH1 0x0 SWAP1 SLOAD SWAP1 PUSH2 0x100 EXP SWAP1 DIV PUSH20 0xFFFFFFFFFFFFFFFFFFFFFFFFFFFFFFFFFFFFFFFF AND SWAP1 POP DUP2 PUSH1 0x7 PUSH1 0x0 PUSH2 0x100 EXP DUP2 SLOAD DUP2 PUSH20 0xFFFFFFFFFFFFFFFFFFFFFFFFFFFFFFFFFFFFFFFF MUL NOT AND SWAP1 DUP4 PUSH20 0xFFFFFFFFFFFFFFFFFFFFFFFFFFFFFFFFFFFFFFFF AND MUL OR SWAP1 SSTORE POP DUP2 PUSH20 0xFFFFFFFFFFFFFFFFFFFFFFFFFFFFFFFFFFFFFFFF AND DUP2 PUSH20 0xFFFFFFFFFFFFFFFFFFFFFFFFFFFFFFFFFFFFFFFF AND PUSH32 0x8BE0079C531659141344CD1FD0A4F28419497F9722A3DAAFE3B4186F6B6457E0 PUSH1 0x40 MLOAD PUSH1 0x40 MLOAD DUP1 SWAP2 SUB SWAP1 LOG3 POP POP JUMP JUMPDEST PUSH1 0x0 DUP1 REVERT JUMPDEST PUSH1 0x0 PUSH20 0xFFFFFFFFFFFFFFFFFFFFFFFFFFFFFFFFFFFFFFFF DUP3 AND SWAP1 POP SWAP2 SWAP1 POP JUMP JUMPDEST PUSH1 0x0 PUSH2 0x52C DUP3 PUSH2 0x501 JUMP JUMPDEST SWAP1 POP SWAP2 SWAP1 POP JUMP JUMPDEST PUSH2 0x53C DUP2 PUSH2 0x521 JUMP JUMPDEST DUP2 EQ PUSH2 0x547 JUMPI PUSH1 0x0 DUP1 REVERT JUMPDEST POP JUMP JUMPDEST PUSH1 0x0 DUP2 MLOAD SWAP1 POP PUSH2 0x559 DUP2 PUSH2 0x533 JUMP JUMPDEST SWAP3 SWAP2 POP POP JUMP JUMPDEST PUSH1 0x0 DUP1 PUSH1 0x0 PUSH1 0x60 DUP5 DUP7 SUB SLT ISZERO PUSH2 0x578 JUMPI PUSH2 0x577 PUSH2 0x4FC JUMP JUMPDEST JUMPDEST PUSH1 0x0 PUSH2 0x586 DUP7 DUP3 DUP8 ADD PUSH2 0x54A JUMP JUMPDEST SWAP4 POP POP PUSH1 0x20 PUSH2 0x597 DUP7 DUP3 DUP8 ADD PUSH2 0x54A JUMP JUMPDEST SWAP3 POP POP PUSH1 0x40 PUSH2 0x5A8 DUP7 DUP3 DUP8 ADD PUSH2 0x54A JUMP JUMPDEST SWAP2 POP POP SWAP3 POP SWAP3 POP SWAP3 JUMP JUMPDEST PUSH1 0x0 DUP2 MLOAD SWAP1 POP SWAP2 SWAP1 POP JUMP JUMPDEST PUSH32 0x4E487B7100000000000000000000000000000000000000000000000000000000 PUSH1 0x0 MSTORE PUSH1 0x41 PUSH1 0x4 MSTORE PUSH1 0x24 PUSH1 0x0 REVERT JUMPDEST PUSH32 0x4E487B7100000000000000000000000000000000000000000000000000000000 PUSH1 0x0 MSTORE PUSH1 0x22 PUSH1 0x4 MSTORE PUSH1 0x24 PUSH1 0x0 REVERT JUMPDEST PUSH1 0x0 PUSH1 0x2 DUP3 DIV SWAP1 POP PUSH1 0x1 DUP3 AND DUP1 PUSH2 0x633 JUMPI PUSH1 0x7F DUP3 AND SWAP2 POP JUMPDEST PUSH1 0x20 DUP3 LT DUP2 SUB PUSH2 0x646 JUMPI PUSH2 0x645 PUSH2 0x5EC JUMP JUMPDEST JUMPDEST POP SWAP2 SWAP1 POP JUMP JUMPDEST PUSH1 0x0 DUP2 SWAP1 POP DUP2 PUSH1 0x0 MSTORE PUSH1 0x20 PUSH1 0x0 KECCAK256 SWAP1 POP SWAP2 SWAP1 POP JUMP JUMPDEST PUSH1 0x0 PUSH1 0x20 PUSH1 0x1F DUP4 ADD DIV SWAP1 POP SWAP2 SWAP1 POP JUMP JUMPDEST PUSH1 0x0 DUP3 DUP3 SHL SWAP1 POP SWAP3 SWAP2 POP POP JUMP JUMPDEST PUSH1 0x0 PUSH1 0x8 DUP4 MUL PUSH2 0x6AE PUSH32 0xFFFFFFFFFFFFFFFFFFFFFFFFFFFFFFFFFFFFFFFFFFFFFFFFFFFFFFFFFFFFFFFF DUP3 PUSH2 0x671 JUMP JUMPDEST PUSH2 0x6B8 DUP7 DUP4 PUSH2 0x671 JUMP JUMPDEST SWAP6 POP DUP1 NOT DUP5 AND SWAP4 POP DUP1 DUP7 AND DUP5 OR SWAP3 POP POP POP SWAP4 SWAP3 POP POP POP JUMP JUMPDEST PUSH1 0x0 DUP2 SWAP1 POP SWAP2 SWAP1 POP JUMP JUMPDEST PUSH1 0x0 DUP2 SWAP1 POP SWAP2 SWAP1 POP JUMP JUMPDEST PUSH1 0x0 PUSH2 0x6FF PUSH2 0x6FA PUSH2 0x6F5 DUP5 PUSH2 0x6D0 JUMP JUMPDEST PUSH2 0x6DA JUMP JUMPDEST PUSH2 0x6D0 JUMP JUMPDEST SWAP1 POP SWAP2 SWAP1 POP JUMP JUMPDEST PUSH1 0x0 DUP2 SWAP1 POP SWAP2 SWAP1 POP JUMP JUMPDEST PUSH2 0x719 DUP4 PUSH2 0x6E4 JUMP JUMPDEST PUSH2 0x72D PUSH2 0x725 DUP3 PUSH2 0x706 JUMP JUMPDEST DUP5 DUP5 SLOAD PUSH2 0x67E JUMP JUMPDEST DUP3 SSTORE POP POP POP POP JUMP JUMPDEST PUSH1 0x0 SWAP1 JUMP JUMPDEST PUSH2 0x742 PUSH2 0x735 JUMP JUMPDEST PUSH2 0x74D DUP2 DUP5 DUP5 PUSH2 0x710 JUMP JUMPDEST POP POP POP JUMP JUMPDEST JUMPDEST DUP2 DUP2 LT ISZERO PUSH2 0x771 JUMPI PUSH2 0x766 PUSH1 0x0 DUP3 PUSH2 0x73A JUMP JUMPDEST PUSH1 0x1 DUP2 ADD SWAP1 POP PUSH2 0x753 JUMP JUMPDEST POP POP JUMP JUMPDEST PUSH1 0x1F DUP3 GT ISZERO PUSH2 0x7B6 JUMPI PUSH2 0x787 DUP2 PUSH2 0x64C JUMP JUMPDEST PUSH2 0x790 DUP5 PUSH2 0x661 JUMP JUMPDEST DUP2 ADD PUSH1 0x20 DUP6 LT ISZERO PUSH2 0x79F JUMPI DUP2 SWAP1 POP JUMPDEST PUSH2 0x7B3 PUSH2 0x7AB DUP6 PUSH2 0x661 JUMP JUMPDEST DUP4 ADD DUP3 PUSH2 0x752 JUMP JUMPDEST POP POP JUMPDEST POP POP POP JUMP JUMPDEST PUSH1 0x0 DUP3 DUP3 SHR SWAP1 POP SWAP3 SWAP2 POP POP JUMP JUMPDEST PUSH1 0x0 PUSH2 0x7D9 PUSH1 0x0 NOT DUP5 PUSH1 0x8 MUL PUSH2 0x7BB JUMP JUMPDEST NOT DUP1 DUP4 AND SWAP2 POP POP SWAP3 SWAP2 POP POP JUMP JUMPDEST PUSH1 0x0 PUSH2 0x7F2 DUP4 DUP4 PUSH2 0x7C8 JUMP JUMPDEST SWAP2 POP DUP3 PUSH1 0x2 MUL DUP3 OR SWAP1 POP SWAP3 SWAP2 POP POP JUMP JUMPDEST PUSH2 0x80B DUP3 PUSH2 0x5B2 JUMP JUMPDEST PUSH8 0xFFFFFFFFFFFFFFFF DUP2 GT ISZERO PUSH2 0x824 JUMPI PUSH2 0x823 PUSH2 0x5BD JUMP JUMPDEST JUMPDEST PUSH2 0x82E DUP3 SLOAD PUSH2 0x61B JUMP JUMPDEST PUSH2 0x839 DUP3 DUP3 DUP6 PUSH2 0x775 JUMP JUMPDEST PUSH1 0x0 PUSH1 0x20 SWAP1 POP PUSH1 0x1F DUP4 GT PUSH1 0x1 DUP2 EQ PUSH2 0x86C JUMPI PUSH1 0x0 DUP5 ISZERO PUSH2 0x85A JUMPI DUP3 DUP8 ADD MLOAD SWAP1 POP JUMPDEST PUSH2 0x864 DUP6 DUP3 PUSH2 0x7E6 JUMP JUMPDEST DUP7 SSTORE POP PUSH2 0x8CC JUMP JUMPDEST PUSH1 0x1F NOT DUP5 AND PUSH2 0x87A DUP7 PUSH2 0x64C JUMP JUMPDEST PUSH1 0x0 JUMPDEST DUP3 DUP2 LT ISZERO PUSH2 0x8A2 JUMPI DUP5 DUP10 ADD MLOAD DUP3 SSTORE PUSH1 0x1 DUP3 ADD SWAP2 POP PUSH1 0x20 DUP6 ADD SWAP5 POP PUSH1 0x20 DUP2 ADD SWAP1 POP PUSH2 0x87D JUMP JUMPDEST DUP7 DUP4 LT ISZERO PUSH2 0x8BF JUMPI DUP5 DUP10 ADD MLOAD PUSH2 0x8BB PUSH1 0x1F DUP10 AND DUP3 PUSH2 0x7C8 JUMP JUMPDEST DUP4 SSTORE POP JUMPDEST PUSH1 0x1 PUSH1 0x2 DUP9 MUL ADD DUP9 SSTORE POP POP POP JUMPDEST POP POP POP POP POP POP JUMP JUMPDEST PUSH1 0x0 DUP3 DUP3 MSTORE PUSH1 0x20 DUP3 ADD SWAP1 POP SWAP3 SWAP2 POP POP JUMP JUMPDEST PUSH32 0x5669727475616C20746F6B656E2063616E6E6F74206265207A65726F20616464 PUSH1 0x0 DUP3 ADD MSTORE PUSH32 0x7265737300000000000000000000000000000000000000000000000000000000 PUSH1 0x20 DUP3 ADD MSTORE POP JUMP JUMPDEST PUSH1 0x0 PUSH2 0x941 PUSH1 0x24 DUP4 PUSH2 0x8D4 JUMP JUMPDEST SWAP2 POP PUSH2 0x94C DUP3 PUSH2 0x8E5 JUMP JUMPDEST PUSH1 0x40 DUP3 ADD SWAP1 POP SWAP2 SWAP1 POP JUMP JUMPDEST PUSH1 0x0 PUSH1 0x20 DUP3 ADD SWAP1 POP DUP2 DUP2 SUB PUSH1 0x0 DUP4 ADD MSTORE PUSH2 0x970 DUP2 PUSH2 0x934 JUMP JUMPDEST SWAP1 POP SWAP2 SWAP1 POP JUMP JUMPDEST PUSH32 0x5645525420746F6B656E2063616E6E6F74206265207A65726F20616464726573 PUSH1 0x0 DUP3 ADD MSTORE PUSH32 0x7300000000000000000000000000000000000000000000000000000000000000 PUSH1 0x20 DUP3 ADD MSTORE POP JUMP JUMPDEST PUSH1 0x0 PUSH2 0x9D3 PUSH1 0x21 DUP4 PUSH2 0x8D4 JUMP JUMPDEST SWAP2 POP PUSH2 0x9DE DUP3 PUSH2 0x977 JUMP JUMPDEST PUSH1 0x40 DUP3 ADD SWAP1 POP SWAP2 SWAP1 POP JUMP JUMPDEST PUSH1 0x0 PUSH1 0x20 DUP3 ADD SWAP1 POP DUP2 DUP2 SUB PUSH1 0x0 DUP4 ADD MSTORE PUSH2 0xA02 DUP2 PUSH2 0x9C6 JUMP JUMPDEST SWAP1 POP SWAP2 SWAP1 POP JUMP JUMPDEST PUSH32 0x54726561737572792063616E6E6F74206265207A65726F206164647265737300 PUSH1 0x0 DUP3 ADD MSTORE POP JUMP JUMPDEST PUSH1 0x0 PUSH2 0xA3F PUSH1 0x1F DUP4 PUSH2 0x8D4 JUMP JUMPDEST SWAP2 POP PUSH2 0xA4A DUP3 PUSH2 0xA09 JUMP JUMPDEST PUSH1 0x20 DUP3 ADD SWAP1 POP SWAP2 SWAP1 POP JUMP JUMPDEST PUSH1 0x0 PUSH1 0x20 DUP3 ADD SWAP1 POP DUP2 DUP2 SUB PUSH1 0x0 DUP4 ADD MSTORE PUSH2 0xA6E DUP2 PUSH2 0xA32 JUMP JUMPDEST SWAP1 POP SWAP2 SWAP1 POP JUMP JUMPDEST PUSH32 0x4E487B7100000000000000000000000000000000000000000000000000000000 PUSH1 0x0 MSTORE PUSH1 0x21 PUSH1 0x4 MSTORE PUSH1 0x24 PUSH1 0x0 REVERT JUMPDEST PUSH2 0x574F DUP1 PUSH2 0xAB3 PUSH1 0x0 CODECOPY PUSH1 0x0 RETURN INVALID PUSH1 0x80 PUSH1 0x40 MSTORE CALLVALUE DUP1 ISZERO PUSH2 0x10 JUMPI PUSH1 0x0 DUP1 REVERT JUMPDEST POP PUSH1 0x4 CALLDATASIZE LT PUSH2 0x274 JUMPI PUSH1 0x0 CALLDATALOAD PUSH1 0xE0 SHR DUP1 PUSH4 0x689A0BD6 GT PUSH2 0x151 JUMPI DUP1 PUSH4 0xB2DA2715 GT PUSH2 0xC3 JUMPI DUP1 PUSH4 0xE985E9C5 GT PUSH2 0x87 JUMPI DUP1 PUSH4 0xE985E9C5 EQ PUSH2 0x73A JUMPI DUP1 PUSH4 0xED15677C EQ PUSH2 0x76A JUMPI DUP1 PUSH4 0xF0F44260 EQ PUSH2 0x786 JUMPI DUP1 PUSH4 0xF24F069D EQ PUSH2 0x7A2 JUMPI DUP1 PUSH4 0xF2FDE38B EQ PUSH2 0x7C0 JUMPI DUP1 PUSH4 0xF42BDD0E EQ PUSH2 0x7DC JUMPI PUSH2 0x274 JUMP JUMPDEST DUP1 PUSH4 0xB2DA2715 EQ PUSH2 0x698 JUMPI DUP1 PUSH4 0xB88D4FDE EQ PUSH2 0x6B4 JUMPI DUP1 PUSH4 0xB8FA4366 EQ PUSH2 0x6D0 JUMPI DUP1 PUSH4 0xC87B56DD EQ PUSH2 0x6EE JUMPI DUP1 PUSH4 0xD7149AAB EQ PUSH2 0x71E JUMPI PUSH2 0x274 JUMP JUMPDEST DUP1 PUSH4 0x8456CB59 GT PUSH2 0x115 JUMPI DUP1 PUSH4 0x8456CB59 EQ PUSH2 0x5EA JUMPI DUP1 PUSH4 0x8DA5CB5B EQ PUSH2 0x5F4 JUMPI DUP1 PUSH4 0x95D89B41 EQ PUSH2 0x612 JUMPI DUP1 PUSH4 0xA22CB465 EQ PUSH2 0x630 JUMPI DUP1 PUSH4 0xACE79F4F EQ PUSH2 0x64C JUMPI DUP1 PUSH4 0xAFB0A369 EQ PUSH2 0x668 JUMPI PUSH2 0x274 JUMP JUMPDEST DUP1 PUSH4 0x689A0BD6 EQ PUSH2 0x556 JUMPI DUP1 PUSH4 0x70A08231 EQ PUSH2 0x574 JUMPI DUP1 PUSH4 0x715018A6 EQ PUSH2 0x5A4 JUMPI DUP1 PUSH4 0x719CE73E EQ PUSH2 0x5AE JUMPI DUP1 PUSH4 0x75794A3C EQ PUSH2 0x5CC JUMPI PUSH2 0x274 JUMP JUMPDEST DUP1 PUSH4 0x2A55205A GT PUSH2 0x1EA JUMPI DUP1 PUSH4 0x44EE8B3D GT PUSH2 0x1AE JUMPI DUP1 PUSH4 0x44EE8B3D EQ PUSH2 0x46C JUMPI DUP1 PUSH4 0x480628AE EQ PUSH2 0x49C JUMPI DUP1 PUSH4 0x555EC78B EQ PUSH2 0x4BA JUMPI DUP1 PUSH4 0x5C975ABB EQ PUSH2 0x4EA JUMPI DUP1 PUSH4 0x61D027B3 EQ PUSH2 0x508 JUMPI DUP1 PUSH4 0x6352211E EQ PUSH2 0x526 JUMPI PUSH2 0x274 JUMP JUMPDEST DUP1 PUSH4 0x2A55205A EQ PUSH2 0x3DB JUMPI DUP1 PUSH4 0x3F4BA83A EQ PUSH2 0x40C JUMPI DUP1 PUSH4 0x42842E0E EQ PUSH2 0x416 JUMPI DUP1 PUSH4 0x436BE372 EQ PUSH2 0x432 JUMPI DUP1 PUSH4 0x44884348 EQ PUSH2 0x450 JUMPI PUSH2 0x274 JUMP JUMPDEST DUP1 PUSH4 0xCA1C5C9 GT PUSH2 0x23C JUMPI DUP1 PUSH4 0xCA1C5C9 EQ PUSH2 0x32F JUMPI DUP1 PUSH4 0x162094C4 EQ PUSH2 0x34D JUMPI DUP1 PUSH4 0x186BA253 EQ PUSH2 0x369 JUMPI DUP1 PUSH4 0x194A5FC9 EQ PUSH2 0x385 JUMPI DUP1 PUSH4 0x1F514C52 EQ PUSH2 0x3A1 JUMPI DUP1 PUSH4 0x23B872DD EQ PUSH2 0x3BF JUMPI PUSH2 0x274 JUMP JUMPDEST DUP1 PUSH4 0x1FFC9A7 EQ PUSH2 0x279 JUMPI DUP1 PUSH4 0x5FEFDA7 EQ PUSH2 0x2A9 JUMPI DUP1 PUSH4 0x6FDDE03 EQ PUSH2 0x2C5 JUMPI DUP1 PUSH4 0x81812FC EQ PUSH2 0x2E3 JUMPI DUP1 PUSH4 0x95EA7B3 EQ PUSH2 0x313 JUMPI JUMPDEST PUSH1 0x0 DUP1 REVERT JUMPDEST PUSH2 0x293 PUSH1 0x4 DUP1 CALLDATASIZE SUB DUP2 ADD SWAP1 PUSH2 0x28E SWAP2 SWAP1 PUSH2 0x3740 JUMP JUMPDEST PUSH2 0x7F8 JUMP JUMPDEST PUSH1 0x40 MLOAD PUSH2 0x2A0 SWAP2 SWAP1 PUSH2 0x3788 JUMP JUMPDEST PUSH1 0x40 MLOAD DUP1 SWAP2 SUB SWAP1 RETURN JUMPDEST PUSH2 0x2C3 PUSH1 0x4 DUP1 CALLDATASIZE SUB DUP2 ADD SWAP1 PUSH2 0x2BE SWAP2 SWAP1 PUSH2 0x37D9 JUMP JUMPDEST PUSH2 0x872 JUMP JUMPDEST STOP JUMPDEST PUSH2 0x2CD PUSH2 0x8C5 JUMP JUMPDEST PUSH1 0x40 MLOAD PUSH2 0x2DA SWAP2 SWAP1 PUSH2 0x38A9 JUMP JUMPDEST PUSH1 0x40 MLOAD DUP1 SWAP2 SUB SWAP1 RETURN JUMPDEST PUSH2 0x2FD PUSH1 0x4 DUP1 CALLDATASIZE SUB DUP2 ADD SWAP1 PUSH2 0x2F8 SWAP2 SWAP1 PUSH2 0x38CB JUMP JUMPDEST PUSH2 0x957 JUMP JUMPDEST PUSH1 0x40 MLOAD PUSH2 0x30A SWAP2 SWAP1 PUSH2 0x3939 JUMP JUMPDEST PUSH1 0x40 MLOAD DUP1 SWAP2 SUB SWAP1 RETURN JUMPDEST PUSH2 0x32D PUSH1 0x4 DUP1 CALLDATASIZE SUB DUP2 ADD SWAP1 PUSH2 0x328 SWAP2 SWAP1 PUSH2 0x3980 JUMP JUMPDEST PUSH2 0x99D JUMP JUMPDEST STOP JUMPDEST PUSH2 0x337 PUSH2 0xAB4 JUMP JUMPDEST PUSH1 0x40 MLOAD PUSH2 0x344 SWAP2 SWAP1 PUSH2 0x39CF JUMP JUMPDEST PUSH1 0x40 MLOAD DUP1 SWAP2 SUB SWAP1 RETURN JUMPDEST PUSH2 0x367 PUSH1 0x4 DUP1 CALLDATASIZE SUB DUP2 ADD SWAP1 PUSH2 0x362 SWAP2 SWAP1 PUSH2 0x3B1F JUMP JUMPDEST PUSH2 0xACA JUMP JUMPDEST STOP JUMPDEST PUSH2 0x383 PUSH1 0x4 DUP1 CALLDATASIZE SUB DUP2 ADD SWAP1 PUSH2 0x37E SWAP2 SWAP1 PUSH2 0x38CB JUMP JUMPDEST PUSH2 0xB28 JUMP JUMPDEST STOP JUMPDEST PUSH2 0x39F PUSH1 0x4 DUP1 CALLDATASIZE SUB DUP2 ADD SWAP1 PUSH2 0x39A SWAP2 SWAP1 PUSH2 0x3BA0 JUMP JUMPDEST PUSH2 0xC66 JUMP JUMPDEST STOP JUMPDEST PUSH2 0x3A9 PUSH2 0xD2B JUMP JUMPDEST PUSH1 0x40 MLOAD PUSH2 0x3B6 SWAP2 SWAP1 PUSH2 0x3C3F JUMP JUMPDEST PUSH1 0x40 MLOAD DUP1 SWAP2 SUB SWAP1 RETURN JUMPDEST PUSH2 0x3D9 PUSH1 0x4 DUP1 CALLDATASIZE SUB DUP2 ADD SWAP1 PUSH2 0x3D4 SWAP2 SWAP1 PUSH2 0x3C5A JUMP JUMPDEST PUSH2 0xD51 JUMP JUMPDEST STOP JUMPDEST PUSH2 0x3F5 PUSH1 0x4 DUP1 CALLDATASIZE SUB DUP2 ADD SWAP1 PUSH2 0x3F0 SWAP2 SWAP1 PUSH2 0x37D9 JUMP JUMPDEST PUSH2 0xDB1 JUMP JUMPDEST PUSH1 0x40 MLOAD PUSH2 0x403 SWAP3 SWAP2 SWAP1 PUSH2 0x3CAD JUMP JUMPDEST PUSH1 0x40 MLOAD DUP1 SWAP2 SUB SWAP1 RETURN JUMPDEST PUSH2 0x414 PUSH2 0xE0B JUMP JUMPDEST STOP JUMPDEST PUSH2 0x430 PUSH1 0x4 DUP1 CALLDATASIZE SUB DUP2 ADD SWAP1 PUSH2 0x42B SWAP2 SWAP1 PUSH2 0x3C5A JUMP JUMPDEST PUSH2 0xE1D JUMP JUMPDEST STOP JUMPDEST PUSH2 0x43A PUSH2 0xE3D JUMP JUMPDEST PUSH1 0x40 MLOAD PUSH2 0x447 SWAP2 SWAP1 PUSH2 0x3CFD JUMP JUMPDEST PUSH1 0x40 MLOAD DUP1 SWAP2 SUB SWAP1 RETURN JUMPDEST PUSH2 0x46A PUSH1 0x4 DUP1 CALLDATASIZE SUB DUP2 ADD SWAP1 PUSH2 0x465 SWAP2 SWAP1 PUSH2 0x3D18 JUMP JUMPDEST PUSH2 0xE43 JUMP JUMPDEST STOP JUMPDEST PUSH2 0x486 PUSH1 0x4 DUP1 CALLDATASIZE SUB DUP2 ADD SWAP1 PUSH2 0x481 SWAP2 SWAP1 PUSH2 0x3D61 JUMP JUMPDEST PUSH2 0x10EF JUMP JUMPDEST PUSH1 0x40 MLOAD PUSH2 0x493 SWAP2 SWAP1 PUSH2 0x39CF JUMP JUMPDEST PUSH1 0x40 MLOAD DUP1 SWAP2 SUB SWAP1 RETURN JUMPDEST PUSH2 0x4A4 PUSH2 0x1107 JUMP JUMPDEST PUSH1 0x40 MLOAD PUSH2 0x4B1 SWAP2 SWAP1 PUSH2 0x3C3F JUMP JUMPDEST PUSH1 0x40 MLOAD DUP1 SWAP2 SUB SWAP1 RETURN JUMPDEST PUSH2 0x4D4 PUSH1 0x4 DUP1 CALLDATASIZE SUB DUP2 ADD SWAP1 PUSH2 0x4CF SWAP2 SWAP1 PUSH2 0x38CB JUMP JUMPDEST PUSH2 0x112D JUMP JUMPDEST PUSH1 0x40 MLOAD PUSH2 0x4E1 SWAP2 SWAP1 PUSH2 0x3E05 JUMP JUMPDEST PUSH1 0x40 MLOAD DUP1 SWAP2 SUB SWAP1 RETURN JUMPDEST PUSH2 0x4F2 PUSH2 0x119F JUMP JUMPDEST PUSH1 0x40 MLOAD PUSH2 0x4FF SWAP2 SWAP1 PUSH2 0x3788 JUMP JUMPDEST PUSH1 0x40 MLOAD DUP1 SWAP2 SUB SWAP1 RETURN JUMPDEST PUSH2 0x510 PUSH2 0x11B6 JUMP JUMPDEST PUSH1 0x40 MLOAD PUSH2 0x51D SWAP2 SWAP1 PUSH2 0x3939 JUMP JUMPDEST PUSH1 0x40 MLOAD DUP1 SWAP2 SUB SWAP1 RETURN JUMPDEST PUSH2 0x540 PUSH1 0x4 DUP1 CALLDATASIZE SUB DUP2 ADD SWAP1 PUSH2 0x53B SWAP2 SWAP1 PUSH2 0x38CB JUMP JUMPDEST PUSH2 0x11DC JUMP JUMPDEST PUSH1 0x40 MLOAD PUSH2 0x54D SWAP2 SWAP1 PUSH2 0x3939 JUMP JUMPDEST PUSH1 0x40 MLOAD DUP1 SWAP2 SUB SWAP1 RETURN JUMPDEST PUSH2 0x55E PUSH2 0x1262 JUMP JUMPDEST PUSH1 0x40 MLOAD PUSH2 0x56B SWAP2 SWAP1 PUSH2 0x39CF JUMP JUMPDEST PUSH1 0x40 MLOAD DUP1 SWAP2 SUB SWAP1 RETURN JUMPDEST PUSH2 0x58E PUSH1 0x4 DUP1 CALLDATASIZE SUB DUP2 ADD SWAP1 PUSH2 0x589 SWAP2 SWAP1 PUSH2 0x3E20 JUMP JUMPDEST PUSH2 0x1268 JUMP JUMPDEST PUSH1 0x40 MLOAD PUSH2 0x59B SWAP2 SWAP1 PUSH2 0x39CF JUMP JUMPDEST PUSH1 0x40 MLOAD DUP1 SWAP2 SUB SWAP1 RETURN JUMPDEST PUSH2 0x5AC PUSH2 0x131F JUMP JUMPDEST STOP JUMPDEST PUSH2 0x5B6 PUSH2 0x1333 JUMP JUMPDEST PUSH1 0x40 MLOAD PUSH2 0x5C3 SWAP2 SWAP1 PUSH2 0x39CF JUMP JUMPDEST PUSH1 0x40 MLOAD DUP1 SWAP2 SUB SWAP1 RETURN JUMPDEST PUSH2 0x5D4 PUSH2 0x1339 JUMP JUMPDEST PUSH1 0x40 MLOAD PUSH2 0x5E1 SWAP2 SWAP1 PUSH2 0x39CF JUMP JUMPDEST PUSH1 0x40 MLOAD DUP1 SWAP2 SUB SWAP1 RETURN JUMPDEST PUSH2 0x5F2 PUSH2 0x133F JUMP JUMPDEST STOP JUMPDEST PUSH2 0x5FC PUSH2 0x1351 JUMP JUMPDEST PUSH1 0x40 MLOAD PUSH2 0x609 SWAP2 SWAP1 PUSH2 0x3939 JUMP JUMPDEST PUSH1 0x40 MLOAD DUP1 SWAP2 SUB SWAP1 RETURN JUMPDEST PUSH2 0x61A PUSH2 0x137B JUMP JUMPDEST PUSH1 0x40 MLOAD PUSH2 0x627 SWAP2 SWAP1 PUSH2 0x38A9 JUMP JUMPDEST PUSH1 0x40 MLOAD DUP1 SWAP2 SUB SWAP1 RETURN JUMPDEST PUSH2 0x64A PUSH1 0x4 DUP1 CALLDATASIZE SUB DUP2 ADD SWAP1 PUSH2 0x645 SWAP2 SWAP1 PUSH2 0x3E79 JUMP JUMPDEST PUSH2 0x140D JUMP JUMPDEST STOP JUMPDEST PUSH2 0x666 PUSH1 0x4 DUP1 CALLDATASIZE SUB DUP2 ADD SWAP1 PUSH2 0x661 SWAP2 SWAP1 PUSH2 0x3980 JUMP JUMPDEST PUSH2 0x1423 JUMP JUMPDEST STOP JUMPDEST PUSH2 0x682 PUSH1 0x4 DUP1 CALLDATASIZE SUB DUP2 ADD SWAP1 PUSH2 0x67D SWAP2 SWAP1 PUSH2 0x38CB JUMP JUMPDEST PUSH2 0x15BA JUMP JUMPDEST PUSH1 0x40 MLOAD PUSH2 0x68F SWAP2 SWAP1 PUSH2 0x3E05 JUMP JUMPDEST PUSH1 0x40 MLOAD DUP1 SWAP2 SUB SWAP1 RETURN JUMPDEST PUSH2 0x6B2 PUSH1 0x4 DUP1 CALLDATASIZE SUB DUP2 ADD SWAP1 PUSH2 0x6AD SWAP2 SWAP1 PUSH2 0x3D18 JUMP JUMPDEST PUSH2 0x15DA JUMP JUMPDEST STOP JUMPDEST PUSH2 0x6CE PUSH1 0x4 DUP1 CALLDATASIZE SUB DUP2 ADD SWAP1 PUSH2 0x6C9 SWAP2 SWAP1 PUSH2 0x3F5A JUMP JUMPDEST PUSH2 0x1781 JUMP JUMPDEST STOP JUMPDEST PUSH2 0x6D8 PUSH2 0x17E3 JUMP JUMPDEST PUSH1 0x40 MLOAD PUSH2 0x6E5 SWAP2 SWAP1 PUSH2 0x39CF JUMP JUMPDEST PUSH1 0x40 MLOAD DUP1 SWAP2 SUB SWAP1 RETURN JUMPDEST PUSH2 0x708 PUSH1 0x4 DUP1 CALLDATASIZE SUB DUP2 ADD SWAP1 PUSH2 0x703 SWAP2 SWAP1 PUSH2 0x38CB JUMP JUMPDEST PUSH2 0x17E9 JUMP JUMPDEST PUSH1 0x40 MLOAD PUSH2 0x715 SWAP2 SWAP1 PUSH2 0x38A9 JUMP JUMPDEST PUSH1 0x40 MLOAD DUP1 SWAP2 SUB SWAP1 RETURN JUMPDEST PUSH2 0x738 PUSH1 0x4 DUP1 CALLDATASIZE SUB DUP2 ADD SWAP1 PUSH2 0x733 SWAP2 SWAP1 PUSH2 0x3E20 JUMP JUMPDEST PUSH2 0x1843 JUMP JUMPDEST STOP JUMPDEST PUSH2 0x754 PUSH1 0x4 DUP1 CALLDATASIZE SUB DUP2 ADD SWAP1 PUSH2 0x74F SWAP2 SWAP1 PUSH2 0x3FDD JUMP JUMPDEST PUSH2 0x1935 JUMP JUMPDEST PUSH1 0x40 MLOAD PUSH2 0x761 SWAP2 SWAP1 PUSH2 0x3788 JUMP JUMPDEST PUSH1 0x40 MLOAD DUP1 SWAP2 SUB SWAP1 RETURN JUMPDEST PUSH2 0x784 PUSH1 0x4 DUP1 CALLDATASIZE SUB DUP2 ADD SWAP1 PUSH2 0x77F SWAP2 SWAP1 PUSH2 0x38CB JUMP JUMPDEST PUSH2 0x19C9 JUMP JUMPDEST STOP JUMPDEST PUSH2 0x7A0 PUSH1 0x4 DUP1 CALLDATASIZE SUB DUP2 ADD SWAP1 PUSH2 0x79B SWAP2 SWAP1 PUSH2 0x3E20 JUMP JUMPDEST PUSH2 0x1B57 JUMP JUMPDEST STOP JUMPDEST PUSH2 0x7AA PUSH2 0x1C49 JUMP JUMPDEST PUSH1 0x40 MLOAD PUSH2 0x7B7 SWAP2 SWAP1 PUSH2 0x39CF JUMP JUMPDEST PUSH1 0x40 MLOAD DUP1 SWAP2 SUB SWAP1 RETURN JUMPDEST PUSH2 0x7DA PUSH1 0x4 DUP1 CALLDATASIZE SUB DUP2 ADD SWAP1 PUSH2 0x7D5 SWAP2 SWAP1 PUSH2 0x3E20 JUMP JUMPDEST PUSH2 0x1C53 JUMP JUMPDEST STOP JUMPDEST PUSH2 0x7F6 PUSH1 0x4 DUP1 CALLDATASIZE SUB DUP2 ADD SWAP1 PUSH2 0x7F1 SWAP2 SWAP1 PUSH2 0x3E20 JUMP JUMPDEST PUSH2 0x1CD6 JUMP JUMPDEST STOP JUMPDEST PUSH1 0x0 PUSH32 0x2A55205A00000000000000000000000000000000000000000000000000000000 PUSH28 0xFFFFFFFFFFFFFFFFFFFFFFFFFFFFFFFFFFFFFFFFFFFFFFFFFFFFFFFF NOT AND DUP3 PUSH28 0xFFFFFFFFFFFFFFFFFFFFFFFFFFFFFFFFFFFFFFFFFFFFFFFFFFFFFFFF NOT AND EQ DUP1 PUSH2 0x86B JUMPI POP PUSH2 0x86A DUP3 PUSH2 0x1DC8 JUMP JUMPDEST JUMPDEST SWAP1 POP SWAP2 SWAP1 POP JUMP JUMPDEST PUSH2 0x87A PUSH2 0x1E29 JUMP JUMPDEST DUP2 PUSH1 0x9 DUP2 SWAP1 SSTORE POP DUP1 PUSH1 0xA DUP2 SWAP1 SSTORE POP PUSH32 0x6546F60F34DF611FA42503098ACC39D5AB88BC73FEBE64B3CC14E5A92E3A66A7 DUP3 DUP3 PUSH1 0x40 MLOAD PUSH2 0x8B9 SWAP3 SWAP2 SWAP1 PUSH2 0x401D JUMP JUMPDEST PUSH1 0x40 MLOAD DUP1 SWAP2 SUB SWAP1 LOG1 POP POP JUMP JUMPDEST PUSH1 0x60 PUSH1 0x0 DUP1 SLOAD PUSH2 0x8D4 SWAP1 PUSH2 0x4075 JUMP JUMPDEST DUP1 PUSH1 0x1F ADD PUSH1 0x20 DUP1 SWAP2 DIV MUL PUSH1 0x20 ADD PUSH1 0x40 MLOAD SWAP1 DUP2 ADD PUSH1 0x40 MSTORE DUP1 SWAP3 SWAP2 SWAP1 DUP2 DUP2 MSTORE PUSH1 0x20 ADD DUP3 DUP1 SLOAD PUSH2 0x900 SWAP1 PUSH2 0x4075 JUMP JUMPDEST DUP1 ISZERO PUSH2 0x94D JUMPI DUP1 PUSH1 0x1F LT PUSH2 0x922 JUMPI PUSH2 0x100 DUP1 DUP4 SLOAD DIV MUL DUP4 MSTORE SWAP2 PUSH1 0x20 ADD SWAP2 PUSH2 0x94D JUMP JUMPDEST DUP3 ADD SWAP2 SWAP1 PUSH1 0x0 MSTORE PUSH1 0x20 PUSH1 0x0 KECCAK256 SWAP1 JUMPDEST DUP2 SLOAD DUP2 MSTORE SWAP1 PUSH1 0x1 ADD SWAP1 PUSH1 0x20 ADD DUP1 DUP4 GT PUSH2 0x930 JUMPI DUP3 SWAP1 SUB PUSH1 0x1F AND DUP3 ADD SWAP2 JUMPDEST POP POP POP POP POP SWAP1 POP SWAP1 JUMP JUMPDEST PUSH1 0x0 PUSH2 0x962 DUP3 PUSH2 0x1EA7 JUMP JUMPDEST PUSH1 0x4 PUSH1 0x0 DUP4 DUP2 MSTORE PUSH1 0x20 ADD SWAP1 DUP2 MSTORE PUSH1 0x20 ADD PUSH1 0x0 KECCAK256 PUSH1 0x0 SWAP1 SLOAD SWAP1 PUSH2 0x100 EXP SWAP1 DIV PUSH20 0xFFFFFFFFFFFFFFFFFFFFFFFFFFFFFFFFFFFFFFFF AND SWAP1 POP SWAP2 SWAP1 POP JUMP JUMPDEST PUSH1 0x0 PUSH2 0x9A8 DUP3 PUSH2 0x11DC JUMP JUMPDEST SWAP1 POP DUP1 PUSH20 0xFFFFFFFFFFFFFFFFFFFFFFFFFFFFFFFFFFFFFFFF AND DUP4 PUSH20 0xFFFFFFFFFFFFFFFFFFFFFFFFFFFFFFFFFFFFFFFF AND SUB PUSH2 0xA18 JUMPI PUSH1 0x40 MLOAD PUSH32 0x8C379A000000000000000000000000000000000000000000000000000000000 DUP2 MSTORE PUSH1 0x4 ADD PUSH2 0xA0F SWAP1 PUSH2 0x4118 JUMP JUMPDEST PUSH1 0x40 MLOAD DUP1 SWAP2 SUB SWAP1 REVERT JUMPDEST DUP1 PUSH20 0xFFFFFFFFFFFFFFFFFFFFFFFFFFFFFFFFFFFFFFFF AND PUSH2 0xA37 PUSH2 0x1EF2 JUMP JUMPDEST PUSH20 0xFFFFFFFFFFFFFFFFFFFFFFFFFFFFFFFFFFFFFFFF AND EQ DUP1 PUSH2 0xA66 JUMPI POP PUSH2 0xA65 DUP2 PUSH2 0xA60 PUSH2 0x1EF2 JUMP JUMPDEST PUSH2 0x1935 JUMP JUMPDEST JUMPDEST PUSH2 0xAA5 JUMPI PUSH1 0x40 MLOAD PUSH32 0x8C379A000000000000000000000000000000000000000000000000000000000 DUP2 MSTORE PUSH1 0x4 ADD PUSH2 0xA9C SWAP1 PUSH2 0x41AA JUMP JUMPDEST PUSH1 0x40 MLOAD DUP1 SWAP2 SUB SWAP1 REVERT JUMPDEST PUSH2 0xAAF DUP4 DUP4 PUSH2 0x1EFA JUMP JUMPDEST POP POP POP JUMP JUMPDEST PUSH1 0x0 PUSH1 0x1 PUSH1 0xB SLOAD PUSH2 0xAC5 SWAP2 SWAP1 PUSH2 0x41F9 JUMP JUMPDEST SWAP1 POP SWAP1 JUMP JUMPDEST PUSH2 0xAD2 PUSH2 0x1E29 JUMP JUMPDEST PUSH2 0xADB DUP3 PUSH2 0x1FB3 JUMP JUMPDEST PUSH2 0xB1A JUMPI PUSH1 0x40 MLOAD PUSH32 0x8C379A000000000000000000000000000000000000000000000000000000000 DUP2 MSTORE PUSH1 0x4 ADD PUSH2 0xB11 SWAP1 PUSH2 0x4279 JUMP JUMPDEST PUSH1 0x40 MLOAD DUP1 SWAP2 SUB SWAP1 REVERT JUMPDEST PUSH2 0xB24 DUP3 DUP3 PUSH2 0x1FF4 JUMP JUMPDEST POP POP JUMP JUMPDEST PUSH2 0xB30 PUSH2 0x1E29 JUMP JUMPDEST PUSH1 0xD PUSH1 0x0 SWAP1 SLOAD SWAP1 PUSH2 0x100 EXP SWAP1 DIV PUSH20 0xFFFFFFFFFFFFFFFFFFFFFFFFFFFFFFFFFFFFFFFF AND PUSH20 0xFFFFFFFFFFFFFFFFFFFFFFFFFFFFFFFFFFFFFFFF AND PUSH4 0x23B872DD CALLER ADDRESS DUP5 PUSH1 0x40 MLOAD DUP5 PUSH4 0xFFFFFFFF AND PUSH1 0xE0 SHL DUP2 MSTORE PUSH1 0x4 ADD PUSH2 0xB8F SWAP4 SWAP3 SWAP2 SWAP1 PUSH2 0x4299 JUMP JUMPDEST PUSH1 0x20 PUSH1 0x40 MLOAD DUP1 DUP4 SUB DUP2 PUSH1 0x0 DUP8 GAS CALL ISZERO DUP1 ISZERO PUSH2 0xBAE JUMPI RETURNDATASIZE PUSH1 0x0 DUP1 RETURNDATACOPY RETURNDATASIZE PUSH1 0x0 REVERT JUMPDEST POP POP POP POP PUSH1 0x40 MLOAD RETURNDATASIZE PUSH1 0x1F NOT PUSH1 0x1F DUP3 ADD AND DUP3 ADD DUP1 PUSH1 0x40 MSTORE POP DUP2 ADD SWAP1 PUSH2 0xBD2 SWAP2 SWAP1 PUSH2 0x42E5 JUMP JUMPDEST PUSH2 0xC11 JUMPI PUSH1 0x40 MLOAD PUSH32 0x8C379A000000000000000000000000000000000000000000000000000000000 DUP2 MSTORE PUSH1 0x4 ADD PUSH2 0xC08 SWAP1 PUSH2 0x435E JUMP JUMPDEST PUSH1 0x40 MLOAD DUP1 SWAP2 SUB SWAP1 REVERT JUMPDEST DUP1 PUSH1 0xC PUSH1 0x0 DUP3 DUP3 SLOAD PUSH2 0xC23 SWAP2 SWAP1 PUSH2 0x437E JUMP JUMPDEST SWAP3 POP POP DUP2 SWAP1 SSTORE POP PUSH32 0x7BC22304AC771F50D6CC29B56387CB4855F284E7A1F83E6420FE9B8BBDAF45C9 PUSH1 0xC SLOAD PUSH1 0x40 MLOAD PUSH2 0xC5B SWAP2 SWAP1 PUSH2 0x39CF JUMP JUMPDEST PUSH1 0x40 MLOAD DUP1 SWAP2 SUB SWAP1 LOG1 POP JUMP JUMPDEST PUSH2 0xC6E PUSH2 0x1E29 JUMP JUMPDEST PUSH1 0x64 DUP2 GT ISZERO PUSH2 0xCB2 JUMPI PUSH1 0x40 MLOAD PUSH32 0x8C379A000000000000000000000000000000000000000000000000000000000 DUP2 MSTORE PUSH1 0x4 ADD PUSH2 0xCA9 SWAP1 PUSH2 0x43FE JUMP JUMPDEST PUSH1 0x40 MLOAD DUP1 SWAP2 SUB SWAP1 REVERT JUMPDEST DUP1 PUSH1 0x11 PUSH1 0x0 DUP5 PUSH1 0x4 DUP2 GT ISZERO PUSH2 0xCCA JUMPI PUSH2 0xCC9 PUSH2 0x3D8E JUMP JUMPDEST JUMPDEST PUSH1 0x4 DUP2 GT ISZERO PUSH2 0xCDC JUMPI PUSH2 0xCDB PUSH2 0x3D8E JUMP JUMPDEST JUMPDEST DUP2 MSTORE PUSH1 0x20 ADD SWAP1 DUP2 MSTORE PUSH1 0x20 ADD PUSH1 0x0 KECCAK256 DUP2 SWAP1 SSTORE POP PUSH32 0xA74628AB88E39C22615ACB79128DB8683FE215F003FA969BD6B3232EBA537A66 DUP3 DUP3 PUSH1 0x40 MLOAD PUSH2 0xD1F SWAP3 SWAP2 SWAP1 PUSH2 0x441E JUMP JUMPDEST PUSH1 0x40 MLOAD DUP1 SWAP2 SUB SWAP1 LOG1 POP POP JUMP JUMPDEST PUSH1 0xE PUSH1 0x0 SWAP1 SLOAD SWAP1 PUSH2 0x100 EXP SWAP1 DIV PUSH20 0xFFFFFFFFFFFFFFFFFFFFFFFFFFFFFFFFFFFFFFFF AND DUP2 JUMP JUMPDEST PUSH2 0xD62 PUSH2 0xD5C PUSH2 0x1EF2 JUMP JUMPDEST DUP3 PUSH2 0x2098 JUMP JUMPDEST PUSH2 0xDA1 JUMPI PUSH1 0x40 MLOAD PUSH32 0x8C379A000000000000000000000000000000000000000000000000000000000 DUP2 MSTORE PUSH1 0x4 ADD PUSH2 0xD98 SWAP1 PUSH2 0x44B9 JUMP JUMPDEST PUSH1 0x40 MLOAD DUP1 SWAP2 SUB SWAP1 REVERT JUMPDEST PUSH2 0xDAC DUP4 DUP4 DUP4 PUSH2 0x212D JUMP JUMPDEST POP POP POP JUMP JUMPDEST PUSH1 0x0 DUP1 PUSH1 0xF PUSH1 0x0 SWAP1 SLOAD SWAP1 PUSH2 0x100 EXP SWAP1 DIV PUSH20 0xFFFFFFFFFFFFFFFFFFFFFFFFFFFFFFFFFFFFFFFF AND PUSH2 0x2710 PUSH2 0x1F4 PUSH12 0xFFFFFFFFFFFFFFFFFFFFFFFF AND DUP6 PUSH2 0xDF6 SWAP2 SWAP1 PUSH2 0x44D9 JUMP JUMPDEST PUSH2 0xE00 SWAP2 SWAP1 PUSH2 0x454A JUMP JUMPDEST SWAP2 POP SWAP2 POP SWAP3 POP SWAP3 SWAP1 POP JUMP JUMPDEST PUSH2 0xE13 PUSH2 0x1E29 JUMP JUMPDEST PUSH2 0xE1B PUSH2 0x2426 JUMP JUMPDEST JUMP JUMPDEST PUSH2 0xE38 DUP4 DUP4 DUP4 PUSH1 0x40 MLOAD DUP1 PUSH1 0x20 ADD PUSH1 0x40 MSTORE DUP1 PUSH1 0x0 DUP2 MSTORE POP PUSH2 0x1781 JUMP JUMPDEST POP POP POP JUMP JUMPDEST PUSH2 0x1F4 DUP2 JUMP JUMPDEST PUSH2 0xE4B PUSH2 0x2489 JUMP JUMPDEST PUSH2 0xE53 PUSH2 0x24D3 JUMP JUMPDEST PUSH1 0x0 PUSH1 0xD PUSH1 0x0 SWAP1 SLOAD SWAP1 PUSH2 0x100 EXP SWAP1 DIV PUSH20 0xFFFFFFFFFFFFFFFFFFFFFFFFFFFFFFFFFFFFFFFF AND SWAP1 POP PUSH1 0x0 PUSH1 0xA SLOAD SWAP1 POP PUSH1 0x0 PUSH20 0xFFFFFFFFFFFFFFFFFFFFFFFFFFFFFFFFFFFFFFFF AND DUP3 PUSH20 0xFFFFFFFFFFFFFFFFFFFFFFFFFFFFFFFFFFFFFFFF AND SUB PUSH2 0xEF0 JUMPI PUSH1 0x40 MLOAD PUSH32 0x8C379A000000000000000000000000000000000000000000000000000000000 DUP2 MSTORE PUSH1 0x4 ADD PUSH2 0xEE7 SWAP1 PUSH2 0x45C7 JUMP JUMPDEST PUSH1 0x40 MLOAD DUP1 SWAP2 SUB SWAP1 REVERT JUMPDEST DUP2 PUSH20 0xFFFFFFFFFFFFFFFFFFFFFFFFFFFFFFFFFFFFFFFF AND PUSH4 0x23B872DD CALLER ADDRESS DUP5 PUSH1 0x40 MLOAD DUP5 PUSH4 0xFFFFFFFF AND PUSH1 0xE0 SHL DUP2 MSTORE PUSH1 0x4 ADD PUSH2 0xF2D SWAP4 SWAP3 SWAP2 SWAP1 PUSH2 0x4299 JUMP JUMPDEST PUSH1 0x20 PUSH1 0x40 MLOAD DUP1 DUP4 SUB DUP2 PUSH1 0x0 DUP8 GAS CALL ISZERO DUP1 ISZERO PUSH2 0xF4C JUMPI RETURNDATASIZE PUSH1 0x0 DUP1 RETURNDATACOPY RETURNDATASIZE PUSH1 0x0 REVERT JUMPDEST POP POP POP POP PUSH1 0x40 MLOAD RETURNDATASIZE PUSH1 0x1F NOT PUSH1 0x1F DUP3 ADD AND DUP3 ADD DUP1 PUSH1 0x40 MSTORE POP DUP2 ADD SWAP1 PUSH2 0xF70 SWAP2 SWAP1 PUSH2 0x42E5 JUMP JUMPDEST PUSH2 0xFAF JUMPI PUSH1 0x40 MLOAD PUSH32 0x8C379A000000000000000000000000000000000000000000000000000000000 DUP2 MSTORE PUSH1 0x4 ADD PUSH2 0xFA6 SWAP1 PUSH2 0x4633 JUMP JUMPDEST PUSH1 0x40 MLOAD DUP1 SWAP2 SUB SWAP1 REVERT JUMPDEST PUSH1 0x0 PUSH1 0x64 PUSH1 0x19 DUP4 PUSH2 0xFC0 SWAP2 SWAP1 PUSH2 0x44D9 JUMP JUMPDEST PUSH2 0xFCA SWAP2 SWAP1 PUSH2 0x454A JUMP JUMPDEST SWAP1 POP PUSH1 0x0 DUP2 DUP4 PUSH2 0xFDA SWAP2 SWAP1 PUSH2 0x41F9 JUMP JUMPDEST SWAP1 POP DUP4 PUSH20 0xFFFFFFFFFFFFFFFFFFFFFFFFFFFFFFFFFFFFFFFF AND PUSH4 0xA9059CBB PUSH1 0xF PUSH1 0x0 SWAP1 SLOAD SWAP1 PUSH2 0x100 EXP SWAP1 DIV PUSH20 0xFFFFFFFFFFFFFFFFFFFFFFFFFFFFFFFFFFFFFFFF AND DUP5 PUSH1 0x40 MLOAD DUP4 PUSH4 0xFFFFFFFF AND PUSH1 0xE0 SHL DUP2 MSTORE PUSH1 0x4 ADD PUSH2 0x1039 SWAP3 SWAP2 SWAP1 PUSH2 0x3CAD JUMP JUMPDEST PUSH1 0x20 PUSH1 0x40 MLOAD DUP1 DUP4 SUB DUP2 PUSH1 0x0 DUP8 GAS CALL ISZERO DUP1 ISZERO PUSH2 0x1058 JUMPI RETURNDATASIZE PUSH1 0x0 DUP1 RETURNDATACOPY RETURNDATASIZE PUSH1 0x0 REVERT JUMPDEST POP POP POP POP PUSH1 0x40 MLOAD RETURNDATASIZE PUSH1 0x1F NOT PUSH1 0x1F DUP3 ADD AND DUP3 ADD DUP1 PUSH1 0x40 MSTORE POP DUP2 ADD SWAP1 PUSH2 0x107C SWAP2 SWAP1 PUSH2 0x42E5 JUMP JUMPDEST PUSH2 0x10BB JUMPI PUSH1 0x40 MLOAD PUSH32 0x8C379A000000000000000000000000000000000000000000000000000000000 DUP2 MSTORE PUSH1 0x4 ADD PUSH2 0x10B2 SWAP1 PUSH2 0x469F JUMP JUMPDEST PUSH1 0x40 MLOAD DUP1 SWAP2 SUB SWAP1 REVERT JUMPDEST DUP1 PUSH1 0xC PUSH1 0x0 DUP3 DUP3 SLOAD PUSH2 0x10CD SWAP2 SWAP1 PUSH2 0x437E JUMP JUMPDEST SWAP3 POP POP DUP2 SWAP1 SSTORE POP PUSH2 0x10E0 CALLER DUP7 PUSH1 0x1 PUSH2 0x2522 JUMP JUMPDEST POP POP POP POP PUSH2 0x10EC PUSH2 0x2904 JUMP JUMPDEST POP JUMP JUMPDEST PUSH1 0x11 PUSH1 0x20 MSTORE DUP1 PUSH1 0x0 MSTORE PUSH1 0x40 PUSH1 0x0 KECCAK256 PUSH1 0x0 SWAP2 POP SWAP1 POP SLOAD DUP2 JUMP JUMPDEST PUSH1 0xD PUSH1 0x0 SWAP1 SLOAD SWAP1 PUSH2 0x100 EXP SWAP1 DIV PUSH20 0xFFFFFFFFFFFFFFFFFFFFFFFFFFFFFFFFFFFFFFFF AND DUP2 JUMP JUMPDEST PUSH1 0x0 PUSH2 0x1138 DUP3 PUSH2 0x1FB3 JUMP JUMPDEST PUSH2 0x1177 JUMPI PUSH1 0x40 MLOAD PUSH32 0x8C379A000000000000000000000000000000000000000000000000000000000 DUP2 MSTORE PUSH1 0x4 ADD PUSH2 0x116E SWAP1 PUSH2 0x4279 JUMP JUMPDEST PUSH1 0x40 MLOAD DUP1 SWAP2 SUB SWAP1 REVERT JUMPDEST PUSH1 0x10 PUSH1 0x0 DUP4 DUP2 MSTORE PUSH1 0x20 ADD SWAP1 DUP2 MSTORE PUSH1 0x20 ADD PUSH1 0x0 KECCAK256 PUSH1 0x0 SWAP1 SLOAD SWAP1 PUSH2 0x100 EXP SWAP1 DIV PUSH1 0xFF AND SWAP1 POP SWAP2 SWAP1 POP JUMP JUMPDEST PUSH1 0x0 PUSH1 0x7 PUSH1 0x14 SWAP1 SLOAD SWAP1 PUSH2 0x100 EXP SWAP1 DIV PUSH1 0xFF AND SWAP1 POP SWAP1 JUMP JUMPDEST PUSH1 0xF PUSH1 0x0 SWAP1 SLOAD SWAP1 PUSH2 0x100 EXP SWAP1 DIV PUSH20 0xFFFFFFFFFFFFFFFFFFFFFFFFFFFFFFFFFFFFFFFF AND DUP2 JUMP JUMPDEST PUSH1 0x0 DUP1 PUSH2 0x11E8 DUP4 PUSH2 0x290E JUMP JUMPDEST SWAP1 POP PUSH1 0x0 PUSH20 0xFFFFFFFFFFFFFFFFFFFFFFFFFFFFFFFFFFFFFFFF AND DUP2 PUSH20 0xFFFFFFFFFFFFFFFFFFFFFFFFFFFFFFFFFFFFFFFF AND SUB PUSH2 0x1259 JUMPI PUSH1 0x40 MLOAD PUSH32 0x8C379A000000000000000000000000000000000000000000000000000000000 DUP2 MSTORE PUSH1 0x4 ADD PUSH2 0x1250 SWAP1 PUSH2 0x470B JUMP JUMPDEST PUSH1 0x40 MLOAD DUP1 SWAP2 SUB SWAP1 REVERT JUMPDEST DUP1 SWAP2 POP POP SWAP2 SWAP1 POP JUMP JUMPDEST PUSH1 0x9 SLOAD DUP2 JUMP JUMPDEST PUSH1 0x0 DUP1 PUSH20 0xFFFFFFFFFFFFFFFFFFFFFFFFFFFFFFFFFFFFFFFF AND DUP3 PUSH20 0xFFFFFFFFFFFFFFFFFFFFFFFFFFFFFFFFFFFFFFFF AND SUB PUSH2 0x12D8 JUMPI PUSH1 0x40 MLOAD PUSH32 0x8C379A000000000000000000000000000000000000000000000000000000000 DUP2 MSTORE PUSH1 0x4 ADD PUSH2 0x12CF SWAP1 PUSH2 0x479D JUMP JUMPDEST PUSH1 0x40 MLOAD DUP1 SWAP2 SUB SWAP1 REVERT JUMPDEST PUSH1 0x3 PUSH1 0x0 DUP4 PUSH20 0xFFFFFFFFFFFFFFFFFFFFFFFFFFFFFFFFFFFFFFFF AND PUSH20 0xFFFFFFFFFFFFFFFFFFFFFFFFFFFFFFFFFFFFFFFF AND DUP2 MSTORE PUSH1 0x20 ADD SWAP1 DUP2 MSTORE PUSH1 0x20 ADD PUSH1 0x0 KECCAK256 SLOAD SWAP1 POP SWAP2 SWAP1 POP JUMP JUMPDEST PUSH2 0x1327 PUSH2 0x1E29 JUMP JUMPDEST PUSH2 0x1331 PUSH1 0x0 PUSH2 0x294B JUMP JUMPDEST JUMP JUMPDEST PUSH1 0xC SLOAD DUP2 JUMP JUMPDEST PUSH1 0xB SLOAD DUP2 JUMP JUMPDEST PUSH2 0x1347 PUSH2 0x1E29 JUMP JUMPDEST PUSH2 0x134F PUSH2 0x2A11 JUMP JUMPDEST JUMP JUMPDEST PUSH1 0x0 PUSH1 0x7 PUSH1 0x0 SWAP1 SLOAD SWAP1 PUSH2 0x100 EXP SWAP1 DIV PUSH20 0xFFFFFFFFFFFFFFFFFFFFFFFFFFFFFFFFFFFFFFFF AND SWAP1 POP SWAP1 JUMP JUMPDEST PUSH1 0x60 PUSH1 0x1 DUP1 SLOAD PUSH2 0x138A SWAP1 PUSH2 0x4075 JUMP JUMPDEST DUP1 PUSH1 0x1F ADD PUSH1 0x20 DUP1 SWAP2 DIV MUL PUSH1 0x20 ADD PUSH1 0x40 MLOAD SWAP1 DUP2 ADD PUSH1 0x40 MSTORE DUP1 SWAP3 SWAP2 SWAP1 DUP2 DUP2 MSTORE PUSH1 0x20 ADD DUP3 DUP1 SLOAD PUSH2 0x13B6 SWAP1 PUSH2 0x4075 JUMP JUMPDEST DUP1 ISZERO PUSH2 0x1403 JUMPI DUP1 PUSH1 0x1F LT PUSH2 0x13D8 JUMPI PUSH2 0x100 DUP1 DUP4 SLOAD DIV MUL DUP4 MSTORE SWAP2 PUSH1 0x20 ADD SWAP2 PUSH2 0x1403 JUMP JUMPDEST DUP3 ADD SWAP2 SWAP1 PUSH1 0x0 MSTORE PUSH1 0x20 PUSH1 0x0 KECCAK256 SWAP1 JUMPDEST DUP2 SLOAD DUP2 MSTORE SWAP1 PUSH1 0x1 ADD SWAP1 PUSH1 0x20 ADD DUP1 DUP4 GT PUSH2 0x13E6 JUMPI DUP3 SWAP1 SUB PUSH1 0x1F AND DUP3 ADD SWAP2 JUMPDEST POP POP POP POP POP SWAP1 POP SWAP1 JUMP JUMPDEST PUSH2 0x141F PUSH2 0x1418 PUSH2 0x1EF2 JUMP JUMPDEST DUP4 DUP4 PUSH2 0x2A74 JUMP JUMPDEST POP POP JUMP JUMPDEST PUSH2 0x142B PUSH2 0x1E29 JUMP JUMPDEST PUSH1 0xC SLOAD DUP2 GT ISZERO PUSH2 0x1470 JUMPI PUSH1 0x40 MLOAD PUSH32 0x8C379A000000000000000000000000000000000000000000000000000000000 DUP2 MSTORE PUSH1 0x4 ADD PUSH2 0x1467 SWAP1 PUSH2 0x4809 JUMP JUMPDEST PUSH1 0x40 MLOAD DUP1 SWAP2 SUB SWAP1 REVERT JUMPDEST DUP1 PUSH1 0xC PUSH1 0x0 DUP3 DUP3 SLOAD PUSH2 0x1482 SWAP2 SWAP1 PUSH2 0x41F9 JUMP JUMPDEST SWAP3 POP POP DUP2 SWAP1 SSTORE POP PUSH1 0xD PUSH1 0x0 SWAP1 SLOAD SWAP1 PUSH2 0x100 EXP SWAP1 DIV PUSH20 0xFFFFFFFFFFFFFFFFFFFFFFFFFFFFFFFFFFFFFFFF AND PUSH20 0xFFFFFFFFFFFFFFFFFFFFFFFFFFFFFFFFFFFFFFFF AND PUSH4 0xA9059CBB DUP4 DUP4 PUSH1 0x40 MLOAD DUP4 PUSH4 0xFFFFFFFF AND PUSH1 0xE0 SHL DUP2 MSTORE PUSH1 0x4 ADD PUSH2 0x14E6 SWAP3 SWAP2 SWAP1 PUSH2 0x3CAD JUMP JUMPDEST PUSH1 0x20 PUSH1 0x40 MLOAD DUP1 DUP4 SUB DUP2 PUSH1 0x0 DUP8 GAS CALL ISZERO DUP1 ISZERO PUSH2 0x1505 JUMPI RETURNDATASIZE PUSH1 0x0 DUP1 RETURNDATACOPY RETURNDATASIZE PUSH1 0x0 REVERT JUMPDEST POP POP POP POP PUSH1 0x40 MLOAD RETURNDATASIZE PUSH1 0x1F NOT PUSH1 0x1F DUP3 ADD AND DUP3 ADD DUP1 PUSH1 0x40 MSTORE POP DUP2 ADD SWAP1 PUSH2 0x1529 SWAP2 SWAP1 PUSH2 0x42E5 JUMP JUMPDEST PUSH2 0x1568 JUMPI PUSH1 0x40 MLOAD PUSH32 0x8C379A000000000000000000000000000000000000000000000000000000000 DUP2 MSTORE PUSH1 0x4 ADD PUSH2 0x155F SWAP1 PUSH2 0x4875 JUMP JUMPDEST PUSH1 0x40 MLOAD DUP1 SWAP2 SUB SWAP1 REVERT JUMPDEST DUP2 PUSH20 0xFFFFFFFFFFFFFFFFFFFFFFFFFFFFFFFFFFFFFFFF AND PUSH32 0x95681E512BC0FE659E195E06C283EADA494316F3D801213E48E7101AF92BF770 DUP3 PUSH1 0x40 MLOAD PUSH2 0x15AE SWAP2 SWAP1 PUSH2 0x39CF JUMP JUMPDEST PUSH1 0x40 MLOAD DUP1 SWAP2 SUB SWAP1 LOG2 POP POP JUMP JUMPDEST PUSH1 0x10 PUSH1 0x20 MSTORE DUP1 PUSH1 0x0 MSTORE PUSH1 0x40 PUSH1 0x0 KECCAK256 PUSH1 0x0 SWAP2 POP SLOAD SWAP1 PUSH2 0x100 EXP SWAP1 DIV PUSH1 0xFF AND DUP2 JUMP JUMPDEST PUSH2 0x15E2 PUSH2 0x2489 JUMP JUMPDEST PUSH2 0x15EA PUSH2 0x24D3 JUMP JUMPDEST PUSH1 0x0 PUSH1 0xE PUSH1 0x0 SWAP1 SLOAD SWAP1 PUSH2 0x100 EXP SWAP1 DIV PUSH20 0xFFFFFFFFFFFFFFFFFFFFFFFFFFFFFFFFFFFFFFFF AND SWAP1 POP PUSH1 0x0 PUSH1 0x9 SLOAD SWAP1 POP PUSH1 0x0 PUSH20 0xFFFFFFFFFFFFFFFFFFFFFFFFFFFFFFFFFFFFFFFF AND DUP3 PUSH20 0xFFFFFFFFFFFFFFFFFFFFFFFFFFFFFFFFFFFFFFFF AND SUB PUSH2 0x1687 JUMPI PUSH1 0x40 MLOAD PUSH32 0x8C379A000000000000000000000000000000000000000000000000000000000 DUP2 MSTORE PUSH1 0x4 ADD PUSH2 0x167E SWAP1 PUSH2 0x48E1 JUMP JUMPDEST PUSH1 0x40 MLOAD DUP1 SWAP2 SUB SWAP1 REVERT JUMPDEST DUP2 PUSH20 0xFFFFFFFFFFFFFFFFFFFFFFFFFFFFFFFFFFFFFFFF AND PUSH4 0x23B872DD CALLER PUSH1 0xF PUSH1 0x0 SWAP1 SLOAD SWAP1 PUSH2 0x100 EXP SWAP1 DIV PUSH20 0xFFFFFFFFFFFFFFFFFFFFFFFFFFFFFFFFFFFFFFFF AND DUP5 PUSH1 0x40 MLOAD DUP5 PUSH4 0xFFFFFFFF AND PUSH1 0xE0 SHL DUP2 MSTORE PUSH1 0x4 ADD PUSH2 0x16E6 SWAP4 SWAP3 SWAP2 SWAP1 PUSH2 0x4299 JUMP JUMPDEST PUSH1 0x20 PUSH1 0x40 MLOAD DUP1 DUP4 SUB DUP2 PUSH1 0x0 DUP8 GAS CALL ISZERO DUP1 ISZERO PUSH2 0x1705 JUMPI RETURNDATASIZE PUSH1 0x0 DUP1 RETURNDATACOPY RETURNDATASIZE PUSH1 0x0 REVERT JUMPDEST POP POP POP POP PUSH1 0x40 MLOAD RETURNDATASIZE PUSH1 0x1F NOT PUSH1 0x1F DUP3 ADD AND DUP3 ADD DUP1 PUSH1 0x40 MSTORE POP DUP2 ADD SWAP1 PUSH2 0x1729 SWAP2 SWAP1 PUSH2 0x42E5 JUMP JUMPDEST PUSH2 0x1768 JUMPI PUSH1 0x40 MLOAD PUSH32 0x8C379A000000000000000000000000000000000000000000000000000000000 DUP2 MSTORE PUSH1 0x4 ADD PUSH2 0x175F SWAP1 PUSH2 0x494D JUMP JUMPDEST PUSH1 0x40 MLOAD DUP1 SWAP2 SUB SWAP1 REVERT JUMPDEST PUSH2 0x1774 CALLER DUP5 PUSH1 0x0 PUSH2 0x2522 JUMP JUMPDEST POP POP PUSH2 0x177E PUSH2 0x2904 JUMP JUMPDEST POP JUMP JUMPDEST PUSH2 0x1792 PUSH2 0x178C PUSH2 0x1EF2 JUMP JUMPDEST DUP4 PUSH2 0x2098 JUMP JUMPDEST PUSH2 0x17D1 JUMPI PUSH1 0x40 MLOAD PUSH32 0x8C379A000000000000000000000000000000000000000000000000000000000 DUP2 MSTORE PUSH1 0x4 ADD PUSH2 0x17C8 SWAP1 PUSH2 0x44B9 JUMP JUMPDEST PUSH1 0x40 MLOAD DUP1 SWAP2 SUB SWAP1 REVERT JUMPDEST PUSH2 0x17DD DUP5 DUP5 DUP5 DUP5 PUSH2 0x2BE0 JUMP JUMPDEST POP POP POP POP JUMP JUMPDEST PUSH1 0xA SLOAD DUP2 JUMP JUMPDEST PUSH1 0x60 PUSH2 0x17F4 DUP3 PUSH2 0x1FB3 JUMP JUMPDEST PUSH2 0x1833 JUMPI PUSH1 0x40 MLOAD PUSH32 0x8C379A000000000000000000000000000000000000000000000000000000000 DUP2 MSTORE PUSH1 0x4 ADD PUSH2 0x182A SWAP1 PUSH2 0x4279 JUMP JUMPDEST PUSH1 0x40 MLOAD DUP1 SWAP2 SUB SWAP1 REVERT JUMPDEST PUSH2 0x183C DUP3 PUSH2 0x2C3C JUMP JUMPDEST SWAP1 POP SWAP2 SWAP1 POP JUMP JUMPDEST PUSH2 0x184B PUSH2 0x1E29 JUMP JUMPDEST PUSH1 0x0 PUSH20 0xFFFFFFFFFFFFFFFFFFFFFFFFFFFFFFFFFFFFFFFF AND DUP2 PUSH20 0xFFFFFFFFFFFFFFFFFFFFFFFFFFFFFFFFFFFFFFFF AND SUB PUSH2 0x18BA JUMPI PUSH1 0x40 MLOAD PUSH32 0x8C379A000000000000000000000000000000000000000000000000000000000 DUP2 MSTORE PUSH1 0x4 ADD PUSH2 0x18B1 SWAP1 PUSH2 0x49DF JUMP JUMPDEST PUSH1 0x40 MLOAD DUP1 SWAP2 SUB SWAP1 REVERT JUMPDEST DUP1 PUSH1 0xE PUSH1 0x0 PUSH2 0x100 EXP DUP2 SLOAD DUP2 PUSH20 0xFFFFFFFFFFFFFFFFFFFFFFFFFFFFFFFFFFFFFFFF MUL NOT AND SWAP1 DUP4 PUSH20 0xFFFFFFFFFFFFFFFFFFFFFFFFFFFFFFFFFFFFFFFF AND MUL OR SWAP1 SSTORE POP PUSH32 0x642EFE757F7C097DF2555D74532321CE38535B3921193C8777A267303689883B DUP2 PUSH1 0x40 MLOAD PUSH2 0x192A SWAP2 SWAP1 PUSH2 0x3939 JUMP JUMPDEST PUSH1 0x40 MLOAD DUP1 SWAP2 SUB SWAP1 LOG1 POP JUMP JUMPDEST PUSH1 0x0 PUSH1 0x5 PUSH1 0x0 DUP5 PUSH20 0xFFFFFFFFFFFFFFFFFFFFFFFFFFFFFFFFFFFFFFFF AND PUSH20 0xFFFFFFFFFFFFFFFFFFFFFFFFFFFFFFFFFFFFFFFF AND DUP2 MSTORE PUSH1 0x20 ADD SWAP1 DUP2 MSTORE PUSH1 0x20 ADD PUSH1 0x0 KECCAK256 PUSH1 0x0 DUP4 PUSH20 0xFFFFFFFFFFFFFFFFFFFFFFFFFFFFFFFFFFFFFFFF AND PUSH20 0xFFFFFFFFFFFFFFFFFFFFFFFFFFFFFFFFFFFFFFFF AND DUP2 MSTORE PUSH1 0x20 ADD SWAP1 DUP2 MSTORE PUSH1 0x20 ADD PUSH1 0x0 KECCAK256 PUSH1 0x0 SWAP1 SLOAD SWAP1 PUSH2 0x100 EXP SWAP1 DIV PUSH1 0xFF AND SWAP1 POP SWAP3 SWAP2 POP POP JUMP JUMPDEST PUSH1 0x0 DUP2 GT PUSH2 0x1A0C JUMPI PUSH1 0x40 MLOAD PUSH32 0x8C379A000000000000000000000000000000000000000000000000000000000 DUP2 MSTORE PUSH1 0x4 ADD PUSH2 0x1A03 SWAP1 PUSH2 0x4A4B JUMP JUMPDEST PUSH1 0x40 MLOAD DUP1 SWAP2 SUB SWAP1 REVERT JUMPDEST PUSH1 0xD PUSH1 0x0 SWAP1 SLOAD SWAP1 PUSH2 0x100 EXP SWAP1 DIV PUSH20 0xFFFFFFFFFFFFFFFFFFFFFFFFFFFFFFFFFFFFFFFF AND PUSH20 0xFFFFFFFFFFFFFFFFFFFFFFFFFFFFFFFFFFFFFFFF AND PUSH4 0x23B872DD CALLER ADDRESS DUP5 PUSH1 0x40 MLOAD DUP5 PUSH4 0xFFFFFFFF AND PUSH1 0xE0 SHL DUP2 MSTORE PUSH1 0x4 ADD PUSH2 0x1A6B SWAP4 SWAP3 SWAP2 SWAP1 PUSH2 0x4299 JUMP JUMPDEST PUSH1 0x20 PUSH1 0x40 MLOAD DUP1 DUP4 SUB DUP2 PUSH1 0x0 DUP8 GAS CALL ISZERO DUP1 ISZERO PUSH2 0x1A8A JUMPI RETURNDATASIZE PUSH1 0x0 DUP1 RETURNDATACOPY RETURNDATASIZE PUSH1 0x0 REVERT JUMPDEST POP POP POP POP PUSH1 0x40 MLOAD RETURNDATASIZE PUSH1 0x1F NOT PUSH1 0x1F DUP3 ADD AND DUP3 ADD DUP1 PUSH1 0x40 MSTORE POP DUP2 ADD SWAP1 PUSH2 0x1AAE SWAP2 SWAP1 PUSH2 0x42E5 JUMP JUMPDEST PUSH2 0x1AED JUMPI PUSH1 0x40 MLOAD PUSH32 0x8C379A000000000000000000000000000000000000000000000000000000000 DUP2 MSTORE PUSH1 0x4 ADD PUSH2 0x1AE4 SWAP1 PUSH2 0x4AB7 JUMP JUMPDEST PUSH1 0x40 MLOAD DUP1 SWAP2 SUB SWAP1 REVERT JUMPDEST DUP1 PUSH1 0xC PUSH1 0x0 DUP3 DUP3 SLOAD PUSH2 0x1AFF SWAP2 SWAP1 PUSH2 0x437E JUMP JUMPDEST SWAP3 POP POP DUP2 SWAP1 SSTORE POP CALLER PUSH20 0xFFFFFFFFFFFFFFFFFFFFFFFFFFFFFFFFFFFFFFFF AND PUSH32 0xD3DA04B9295B0265DA4CD8D1D9EA4F3BB84775E17288A007301F7193865B1818 DUP3 PUSH1 0x40 MLOAD PUSH2 0x1B4C SWAP2 SWAP1 PUSH2 0x39CF JUMP JUMPDEST PUSH1 0x40 MLOAD DUP1 SWAP2 SUB SWAP1 LOG2 POP JUMP JUMPDEST PUSH2 0x1B5F PUSH2 0x1E29 JUMP JUMPDEST PUSH1 0x0 PUSH20 0xFFFFFFFFFFFFFFFFFFFFFFFFFFFFFFFFFFFFFFFF AND DUP2 PUSH20 0xFFFFFFFFFFFFFFFFFFFFFFFFFFFFFFFFFFFFFFFF AND SUB PUSH2 0x1BCE JUMPI PUSH1 0x40 MLOAD PUSH32 0x8C379A000000000000000000000000000000000000000000000000000000000 DUP2 MSTORE PUSH1 0x4 ADD PUSH2 0x1BC5 SWAP1 PUSH2 0x4B23 JUMP JUMPDEST PUSH1 0x40 MLOAD DUP1 SWAP2 SUB SWAP1 REVERT JUMPDEST DUP1 PUSH1 0xF PUSH1 0x0 PUSH2 0x100 EXP DUP2 SLOAD DUP2 PUSH20 0xFFFFFFFFFFFFFFFFFFFFFFFFFFFFFFFFFFFFFFFF MUL NOT AND SWAP1 DUP4 PUSH20 0xFFFFFFFFFFFFFFFFFFFFFFFFFFFFFFFFFFFFFFFF AND MUL OR SWAP1 SSTORE POP PUSH32 0x7DAE230F18360D76A040C81F050AA14EB9D6DC7901B20FC5D855E2A20FE814D1 DUP2 PUSH1 0x40 MLOAD PUSH2 0x1C3E SWAP2 SWAP1 PUSH2 0x3939 JUMP JUMPDEST PUSH1 0x40 MLOAD DUP1 SWAP2 SUB SWAP1 LOG1 POP JUMP JUMPDEST PUSH1 0x0 PUSH1 0xC SLOAD SWAP1 POP SWAP1 JUMP JUMPDEST PUSH2 0x1C5B PUSH2 0x1E29 JUMP JUMPDEST PUSH1 0x0 PUSH20 0xFFFFFFFFFFFFFFFFFFFFFFFFFFFFFFFFFFFFFFFF AND DUP2 PUSH20 0xFFFFFFFFFFFFFFFFFFFFFFFFFFFFFFFFFFFFFFFF AND SUB PUSH2 0x1CCA JUMPI PUSH1 0x40 MLOAD PUSH32 0x8C379A000000000000000000000000000000000000000000000000000000000 DUP2 MSTORE PUSH1 0x4 ADD PUSH2 0x1CC1 SWAP1 PUSH2 0x4BB5 JUMP JUMPDEST PUSH1 0x40 MLOAD DUP1 SWAP2 SUB SWAP1 REVERT JUMPDEST PUSH2 0x1CD3 DUP2 PUSH2 0x294B JUMP JUMPDEST POP JUMP JUMPDEST PUSH2 0x1CDE PUSH2 0x1E29 JUMP JUMPDEST PUSH1 0x0 PUSH20 0xFFFFFFFFFFFFFFFFFFFFFFFFFFFFFFFFFFFFFFFF AND DUP2 PUSH20 0xFFFFFFFFFFFFFFFFFFFFFFFFFFFFFFFFFFFFFFFF AND SUB PUSH2 0x1D4D JUMPI PUSH1 0x40 MLOAD PUSH32 0x8C379A000000000000000000000000000000000000000000000000000000000 DUP2 MSTORE PUSH1 0x4 ADD PUSH2 0x1D44 SWAP1 PUSH2 0x4C47 JUMP JUMPDEST PUSH1 0x40 MLOAD DUP1 SWAP2 SUB SWAP1 REVERT JUMPDEST DUP1 PUSH1 0xD PUSH1 0x0 PUSH2 0x100 EXP DUP2 SLOAD DUP2 PUSH20 0xFFFFFFFFFFFFFFFFFFFFFFFFFFFFFFFFFFFFFFFF MUL NOT AND SWAP1 DUP4 PUSH20 0xFFFFFFFFFFFFFFFFFFFFFFFFFFFFFFFFFFFFFFFF AND MUL OR SWAP1 SSTORE POP PUSH32 0x6E54BD062BE2216071D5874D64E175CD202A1DF49312B7241043DB3DDD25537B DUP2 PUSH1 0x40 MLOAD PUSH2 0x1DBD SWAP2 SWAP1 PUSH2 0x3939 JUMP JUMPDEST PUSH1 0x40 MLOAD DUP1 SWAP2 SUB SWAP1 LOG1 POP JUMP JUMPDEST PUSH1 0x0 PUSH4 0x49064906 PUSH1 0xE0 SHL PUSH28 0xFFFFFFFFFFFFFFFFFFFFFFFFFFFFFFFFFFFFFFFFFFFFFFFFFFFFFFFF NOT AND DUP3 PUSH28 0xFFFFFFFFFFFFFFFFFFFFFFFFFFFFFFFFFFFFFFFFFFFFFFFFFFFFFFFF NOT AND EQ DUP1 PUSH2 0x1E22 JUMPI POP PUSH2 0x1E21 DUP3 PUSH2 0x2D4E JUMP JUMPDEST JUMPDEST SWAP1 POP SWAP2 SWAP1 POP JUMP JUMPDEST PUSH2 0x1E31 PUSH2 0x1EF2 JUMP JUMPDEST PUSH20 0xFFFFFFFFFFFFFFFFFFFFFFFFFFFFFFFFFFFFFFFF AND PUSH2 0x1E4F PUSH2 0x1351 JUMP JUMPDEST PUSH20 0xFFFFFFFFFFFFFFFFFFFFFFFFFFFFFFFFFFFFFFFF AND EQ PUSH2 0x1EA5 JUMPI PUSH1 0x40 MLOAD PUSH32 0x8C379A000000000000000000000000000000000000000000000000000000000 DUP2 MSTORE PUSH1 0x4 ADD PUSH2 0x1E9C SWAP1 PUSH2 0x4CB3 JUMP JUMPDEST PUSH1 0x40 MLOAD DUP1 SWAP2 SUB SWAP1 REVERT JUMPDEST JUMP JUMPDEST PUSH2 0x1EB0 DUP2 PUSH2 0x1FB3 JUMP JUMPDEST PUSH2 0x1EEF JUMPI PUSH1 0x40 MLOAD PUSH32 0x8C379A000000000000000000000000000000000000000000000000000000000 DUP2 MSTORE PUSH1 0x4 ADD PUSH2 0x1EE6 SWAP1 PUSH2 0x470B JUMP JUMPDEST PUSH1 0x40 MLOAD DUP1 SWAP2 SUB SWAP1 REVERT JUMPDEST POP JUMP JUMPDEST PUSH1 0x0 CALLER SWAP1 POP SWAP1 JUMP JUMPDEST DUP2 PUSH1 0x4 PUSH1 0x0 DUP4 DUP2 MSTORE PUSH1 0x20 ADD SWAP1 DUP2 MSTORE PUSH1 0x20 ADD PUSH1 0x0 KECCAK256 PUSH1 0x0 PUSH2 0x100 EXP DUP2 SLOAD DUP2 PUSH20 0xFFFFFFFFFFFFFFFFFFFFFFFFFFFFFFFFFFFFFFFF MUL NOT AND SWAP1 DUP4 PUSH20 0xFFFFFFFFFFFFFFFFFFFFFFFFFFFFFFFFFFFFFFFF AND MUL OR SWAP1 SSTORE POP DUP1 DUP3 PUSH20 0xFFFFFFFFFFFFFFFFFFFFFFFFFFFFFFFFFFFFFFFF AND PUSH2 0x1F6D DUP4 PUSH2 0x11DC JUMP JUMPDEST PUSH20 0xFFFFFFFFFFFFFFFFFFFFFFFFFFFFFFFFFFFFFFFF AND PUSH32 0x8C5BE1E5EBEC7D5BD14F71427D1E84F3DD0314C0F7B2291E5B200AC8C7C3B925 PUSH1 0x40 MLOAD PUSH1 0x40 MLOAD DUP1 SWAP2 SUB SWAP1 LOG4 POP POP JUMP JUMPDEST PUSH1 0x0 DUP1 PUSH20 0xFFFFFFFFFFFFFFFFFFFFFFFFFFFFFFFFFFFFFFFF AND PUSH2 0x1FD5 DUP4 PUSH2 0x290E JUMP JUMPDEST PUSH20 0xFFFFFFFFFFFFFFFFFFFFFFFFFFFFFFFFFFFFFFFF AND EQ ISZERO SWAP1 POP SWAP2 SWAP1 POP JUMP JUMPDEST PUSH2 0x1FFD DUP3 PUSH2 0x1FB3 JUMP JUMPDEST PUSH2 0x203C JUMPI PUSH1 0x40 MLOAD PUSH32 0x8C379A000000000000000000000000000000000000000000000000000000000 DUP2 MSTORE PUSH1 0x4 ADD PUSH2 0x2033 SWAP1 PUSH2 0x4D45 JUMP JUMPDEST PUSH1 0x40 MLOAD DUP1 SWAP2 SUB SWAP1 REVERT JUMPDEST DUP1 PUSH1 0x6 PUSH1 0x0 DUP5 DUP2 MSTORE PUSH1 0x20 ADD SWAP1 DUP2 MSTORE PUSH1 0x20 ADD PUSH1 0x0 KECCAK256 SWAP1 DUP2 PUSH2 0x205C SWAP2 SWAP1 PUSH2 0x4F07 JUMP JUMPDEST POP PUSH32 0xF8E1A15ABA9398E019F0B49DF1A4FDE98EE17AE345CB5F6B5E2C27F5033E8CE7 DUP3 PUSH1 0x40 MLOAD PUSH2 0x208C SWAP2 SWAP1 PUSH2 0x39CF JUMP JUMPDEST PUSH1 0x40 MLOAD DUP1 SWAP2 SUB SWAP1 LOG1 POP POP JUMP JUMPDEST PUSH1 0x0 DUP1 PUSH2 0x20A4 DUP4 PUSH2 0x11DC JUMP JUMPDEST SWAP1 POP DUP1 PUSH20 0xFFFFFFFFFFFFFFFFFFFFFFFFFFFFFFFFFFFFFFFF AND DUP5 PUSH20 0xFFFFFFFFFFFFFFFFFFFFFFFFFFFFFFFFFFFFFFFF AND EQ DUP1 PUSH2 0x20E6 JUMPI POP PUSH2 0x20E5 DUP2 DUP6 PUSH2 0x1935 JUMP JUMPDEST JUMPDEST DUP1 PUSH2 0x2124 JUMPI POP DUP4 PUSH20 0xFFFFFFFFFFFFFFFFFFFFFFFFFFFFFFFFFFFFFFFF AND PUSH2 0x210C DUP5 PUSH2 0x957 JUMP JUMPDEST PUSH20 0xFFFFFFFFFFFFFFFFFFFFFFFFFFFFFFFFFFFFFFFF AND EQ JUMPDEST SWAP2 POP POP SWAP3 SWAP2 POP POP JUMP JUMPDEST DUP3 PUSH20 0xFFFFFFFFFFFFFFFFFFFFFFFFFFFFFFFFFFFFFFFF AND PUSH2 0x214D DUP3 PUSH2 0x11DC JUMP JUMPDEST PUSH20 0xFFFFFFFFFFFFFFFFFFFFFFFFFFFFFFFFFFFFFFFF AND EQ PUSH2 0x21A3 JUMPI PUSH1 0x40 MLOAD PUSH32 0x8C379A000000000000000000000000000000000000000000000000000000000 DUP2 MSTORE PUSH1 0x4 ADD PUSH2 0x219A SWAP1 PUSH2 0x504B JUMP JUMPDEST PUSH1 0x40 MLOAD DUP1 SWAP2 SUB SWAP1 REVERT JUMPDEST PUSH1 0x0 PUSH20 0xFFFFFFFFFFFFFFFFFFFFFFFFFFFFFFFFFFFFFFFF AND DUP3 PUSH20 0xFFFFFFFFFFFFFFFFFFFFFFFFFFFFFFFFFFFFFFFF AND SUB PUSH2 0x2212 JUMPI PUSH1 0x40 MLOAD PUSH32 0x8C379A000000000000000000000000000000000000000000000000000000000 DUP2 MSTORE PUSH1 0x4 ADD PUSH2 0x2209 SWAP1 PUSH2 0x50DD JUMP JUMPDEST PUSH1 0x40 MLOAD DUP1 SWAP2 SUB SWAP1 REVERT JUMPDEST PUSH2 0x221F DUP4 DUP4 DUP4 PUSH1 0x1 PUSH2 0x2E30 JUMP JUMPDEST DUP3 PUSH20 0xFFFFFFFFFFFFFFFFFFFFFFFFFFFFFFFFFFFFFFFF AND PUSH2 0x223F DUP3 PUSH2 0x11DC JUMP JUMPDEST PUSH20 0xFFFFFFFFFFFFFFFFFFFFFFFFFFFFFFFFFFFFFFFF AND EQ PUSH2 0x2295 JUMPI PUSH1 0x40 MLOAD PUSH32 0x8C379A000000000000000000000000000000000000000000000000000000000 DUP2 MSTORE PUSH1 0x4 ADD PUSH2 0x228C SWAP1 PUSH2 0x504B JUMP JUMPDEST PUSH1 0x40 MLOAD DUP1 SWAP2 SUB SWAP1 REVERT JUMPDEST PUSH1 0x4 PUSH1 0x0 DUP3 DUP2 MSTORE PUSH1 0x20 ADD SWAP1 DUP2 MSTORE PUSH1 0x20 ADD PUSH1 0x0 KECCAK256 PUSH1 0x0 PUSH2 0x100 EXP DUP2 SLOAD SWAP1 PUSH20 0xFFFFFFFFFFFFFFFFFFFFFFFFFFFFFFFFFFFFFFFF MUL NOT AND SWAP1 SSTORE PUSH1 0x1 PUSH1 0x3 PUSH1 0x0 DUP6 PUSH20 0xFFFFFFFFFFFFFFFFFFFFFFFFFFFFFFFFFFFFFFFF AND PUSH20 0xFFFFFFFFFFFFFFFFFFFFFFFFFFFFFFFFFFFFFFFF AND DUP2 MSTORE PUSH1 0x20 ADD SWAP1 DUP2 MSTORE PUSH1 0x20 ADD PUSH1 0x0 KECCAK256 PUSH1 0x0 DUP3 DUP3 SLOAD SUB SWAP3 POP POP DUP2 SWAP1 SSTORE POP PUSH1 0x1 PUSH1 0x3 PUSH1 0x0 DUP5 PUSH20 0xFFFFFFFFFFFFFFFFFFFFFFFFFFFFFFFFFFFFFFFF AND PUSH20 0xFFFFFFFFFFFFFFFFFFFFFFFFFFFFFFFFFFFFFFFF AND DUP2 MSTORE PUSH1 0x20 ADD SWAP1 DUP2 MSTORE PUSH1 0x20 ADD PUSH1 0x0 KECCAK256 PUSH1 0x0 DUP3 DUP3 SLOAD ADD SWAP3 POP POP DUP2 SWAP1 SSTORE POP DUP2 PUSH1 0x2 PUSH1 0x0 DUP4 DUP2 MSTORE PUSH1 0x20 ADD SWAP1 DUP2 MSTORE PUSH1 0x20 ADD PUSH1 0x0 KECCAK256 PUSH1 0x0 PUSH2 0x100 EXP DUP2 SLOAD DUP2 PUSH20 0xFFFFFFFFFFFFFFFFFFFFFFFFFFFFFFFFFFFFFFFF MUL NOT AND SWAP1 DUP4 PUSH20 0xFFFFFFFFFFFFFFFFFFFFFFFFFFFFFFFFFFFFFFFF AND MUL OR SWAP1 SSTORE POP DUP1 DUP3 PUSH20 0xFFFFFFFFFFFFFFFFFFFFFFFFFFFFFFFFFFFFFFFF AND DUP5 PUSH20 0xFFFFFFFFFFFFFFFFFFFFFFFFFFFFFFFFFFFFFFFF AND PUSH32 0xDDF252AD1BE2C89B69C2B068FC378DAA952BA7F163C4A11628F55A4DF523B3EF PUSH1 0x40 MLOAD PUSH1 0x40 MLOAD DUP1 SWAP2 SUB SWAP1 LOG4 PUSH2 0x2421 DUP4 DUP4 DUP4 PUSH1 0x1 PUSH2 0x2E36 JUMP JUMPDEST POP POP POP JUMP JUMPDEST PUSH2 0x242E PUSH2 0x2E3C JUMP JUMPDEST PUSH1 0x0 PUSH1 0x7 PUSH1 0x14 PUSH2 0x100 EXP DUP2 SLOAD DUP2 PUSH1 0xFF MUL NOT AND SWAP1 DUP4 ISZERO ISZERO MUL OR SWAP1 SSTORE POP PUSH32 0x5DB9EE0A495BF2E6FF9C91A7834C1BA4FDD244A5E8AA4E537BD38AEAE4B073AA PUSH2 0x2472 PUSH2 0x1EF2 JUMP JUMPDEST PUSH1 0x40 MLOAD PUSH2 0x247F SWAP2 SWAP1 PUSH2 0x3939 JUMP JUMPDEST PUSH1 0x40 MLOAD DUP1 SWAP2 SUB SWAP1 LOG1 JUMP JUMPDEST PUSH2 0x2491 PUSH2 0x119F JUMP JUMPDEST ISZERO PUSH2 0x24D1 JUMPI PUSH1 0x40 MLOAD PUSH32 0x8C379A000000000000000000000000000000000000000000000000000000000 DUP2 MSTORE PUSH1 0x4 ADD PUSH2 0x24C8 SWAP1 PUSH2 0x5149 JUMP JUMPDEST PUSH1 0x40 MLOAD DUP1 SWAP2 SUB SWAP1 REVERT JUMPDEST JUMP JUMPDEST PUSH1 0x2 PUSH1 0x8 SLOAD SUB PUSH2 0x2518 JUMPI PUSH1 0x40 MLOAD PUSH32 0x8C379A000000000000000000000000000000000000000000000000000000000 DUP2 MSTORE PUSH1 0x4 ADD PUSH2 0x250F SWAP1 PUSH2 0x51B5 JUMP JUMPDEST PUSH1 0x40 MLOAD DUP1 SWAP2 SUB SWAP1 REVERT JUMPDEST PUSH1 0x2 PUSH1 0x8 DUP2 SWAP1 SSTORE POP JUMP JUMPDEST PUSH1 0x0 PUSH1 0xC SLOAD SWAP1 POP PUSH1 0x0 PUSH1 0xB SLOAD SWAP1 POP PUSH2 0x253A DUP6 DUP3 PUSH2 0x2E85 JUMP JUMPDEST PUSH2 0x2544 DUP2 DUP6 PUSH2 0x1FF4 JUMP JUMPDEST PUSH1 0x0 PUSH2 0x254F DUP3 PUSH2 0x2EA3 JUMP JUMPDEST SWAP1 POP DUP1 PUSH1 0x10 PUSH1 0x0 DUP5 DUP2 MSTORE PUSH1 0x20 ADD SWAP1 DUP2 MSTORE PUSH1 0x20 ADD PUSH1 0x0 KECCAK256 PUSH1 0x0 PUSH2 0x100 EXP DUP2 SLOAD DUP2 PUSH1 0xFF MUL NOT AND SWAP1 DUP4 PUSH1 0x4 DUP2 GT ISZERO PUSH2 0x2587 JUMPI PUSH2 0x2586 PUSH2 0x3D8E JUMP JUMPDEST JUMPDEST MUL OR SWAP1 SSTORE POP PUSH1 0x0 PUSH2 0x2597 DUP3 PUSH2 0x2F49 JUMP JUMPDEST SWAP1 POP PUSH1 0x0 DUP2 GT DUP1 ISZERO PUSH2 0x25A9 JUMPI POP DUP4 DUP2 GT ISZERO JUMPDEST ISZERO PUSH2 0x2858 JUMPI PUSH1 0x0 PUSH1 0x64 PUSH1 0x5F DUP4 PUSH2 0x25BF SWAP2 SWAP1 PUSH2 0x44D9 JUMP JUMPDEST PUSH2 0x25C9 SWAP2 SWAP1 PUSH2 0x454A JUMP JUMPDEST SWAP1 POP PUSH1 0x0 DUP2 DUP4 PUSH2 0x25D9 SWAP2 SWAP1 PUSH2 0x41F9 JUMP JUMPDEST SWAP1 POP DUP3 DUP7 PUSH2 0x25E7 SWAP2 SWAP1 PUSH2 0x41F9 JUMP JUMPDEST SWAP6 POP DUP6 PUSH1 0xC DUP2 SWAP1 SSTORE POP PUSH1 0xD PUSH1 0x0 SWAP1 SLOAD SWAP1 PUSH2 0x100 EXP SWAP1 DIV PUSH20 0xFFFFFFFFFFFFFFFFFFFFFFFFFFFFFFFFFFFFFFFF AND PUSH20 0xFFFFFFFFFFFFFFFFFFFFFFFFFFFFFFFFFFFFFFFF AND PUSH4 0xA9059CBB DUP11 DUP5 PUSH1 0x40 MLOAD DUP4 PUSH4 0xFFFFFFFF AND PUSH1 0xE0 SHL DUP2 MSTORE PUSH1 0x4 ADD PUSH2 0x264D SWAP3 SWAP2 SWAP1 PUSH2 0x3CAD JUMP JUMPDEST PUSH1 0x20 PUSH1 0x40 MLOAD DUP1 DUP4 SUB DUP2 PUSH1 0x0 DUP8 GAS CALL ISZERO DUP1 ISZERO PUSH2 0x266C JUMPI RETURNDATASIZE PUSH1 0x0 DUP1 RETURNDATACOPY RETURNDATASIZE PUSH1 0x0 REVERT JUMPDEST POP POP POP POP PUSH1 0x40 MLOAD RETURNDATASIZE PUSH1 0x1F NOT PUSH1 0x1F DUP3 ADD AND DUP3 ADD DUP1 PUSH1 0x40 MSTORE POP DUP2 ADD SWAP1 PUSH2 0x2690 SWAP2 SWAP1 PUSH2 0x42E5 JUMP JUMPDEST PUSH2 0x26CF JUMPI PUSH1 0x40 MLOAD PUSH32 0x8C379A000000000000000000000000000000000000000000000000000000000 DUP2 MSTORE PUSH1 0x4 ADD PUSH2 0x26C6 SWAP1 PUSH2 0x5221 JUMP JUMPDEST PUSH1 0x40 MLOAD DUP1 SWAP2 SUB SWAP1 REVERT JUMPDEST PUSH1 0xD PUSH1 0x0 SWAP1 SLOAD SWAP1 PUSH2 0x100 EXP SWAP1 DIV PUSH20 0xFFFFFFFFFFFFFFFFFFFFFFFFFFFFFFFFFFFFFFFF AND PUSH20 0xFFFFFFFFFFFFFFFFFFFFFFFFFFFFFFFFFFFFFFFF AND PUSH4 0xA9059CBB PUSH1 0xF PUSH1 0x0 SWAP1 SLOAD SWAP1 PUSH2 0x100 EXP SWAP1 DIV PUSH20 0xFFFFFFFFFFFFFFFFFFFFFFFFFFFFFFFFFFFFFFFF AND DUP4 PUSH1 0x40 MLOAD DUP4 PUSH4 0xFFFFFFFF AND PUSH1 0xE0 SHL DUP2 MSTORE PUSH1 0x4 ADD PUSH2 0x274E SWAP3 SWAP2 SWAP1 PUSH2 0x3CAD JUMP JUMPDEST PUSH1 0x20 PUSH1 0x40 MLOAD DUP1 DUP4 SUB DUP2 PUSH1 0x0 DUP8 GAS CALL ISZERO DUP1 ISZERO PUSH2 0x276D JUMPI RETURNDATASIZE PUSH1 0x0 DUP1 RETURNDATACOPY RETURNDATASIZE PUSH1 0x0 REVERT JUMPDEST POP POP POP POP PUSH1 0x40 MLOAD RETURNDATASIZE PUSH1 0x1F NOT PUSH1 0x1F DUP3 ADD AND DUP3 ADD DUP1 PUSH1 0x40 MSTORE POP DUP2 ADD SWAP1 PUSH2 0x2791 SWAP2 SWAP1 PUSH2 0x42E5 JUMP JUMPDEST PUSH2 0x27D0 JUMPI PUSH1 0x40 MLOAD PUSH32 0x8C379A000000000000000000000000000000000000000000000000000000000 DUP2 MSTORE PUSH1 0x4 ADD PUSH2 0x27C7 SWAP1 PUSH2 0x528D JUMP JUMPDEST PUSH1 0x40 MLOAD DUP1 SWAP2 SUB SWAP1 REVERT JUMPDEST DUP9 PUSH20 0xFFFFFFFFFFFFFFFFFFFFFFFFFFFFFFFFFFFFFFFF AND PUSH32 0x95681E512BC0FE659E195E06C283EADA494316F3D801213E48E7101AF92BF770 DUP4 PUSH1 0x40 MLOAD PUSH2 0x2816 SWAP2 SWAP1 PUSH2 0x39CF JUMP JUMPDEST PUSH1 0x40 MLOAD DUP1 SWAP2 SUB SWAP1 LOG2 PUSH32 0x7BC22304AC771F50D6CC29B56387CB4855F284E7A1F83E6420FE9B8BBDAF45C9 DUP7 PUSH1 0x40 MLOAD PUSH2 0x284D SWAP2 SWAP1 PUSH2 0x39CF JUMP JUMPDEST PUSH1 0x40 MLOAD DUP1 SWAP2 SUB SWAP1 LOG1 POP POP JUMPDEST PUSH1 0x1 DUP4 PUSH2 0x2865 SWAP2 SWAP1 PUSH2 0x437E JUMP JUMPDEST PUSH1 0xB DUP2 SWAP1 SSTORE POP DUP7 PUSH20 0xFFFFFFFFFFFFFFFFFFFFFFFFFFFFFFFFFFFFFFFF AND PUSH32 0xA08B3BF5B7AF36B46FFFC856A242E512024F345D8981C820B40ED15E1A7B5CAE DUP5 DUP5 DUP10 PUSH1 0x40 MLOAD PUSH2 0x28B5 SWAP4 SWAP3 SWAP2 SWAP1 PUSH2 0x52AD JUMP JUMPDEST PUSH1 0x40 MLOAD DUP1 SWAP2 SUB SWAP1 LOG2 DUP5 ISZERO PUSH2 0x28FB JUMPI PUSH32 0x7BC22304AC771F50D6CC29B56387CB4855F284E7A1F83E6420FE9B8BBDAF45C9 DUP5 PUSH1 0x40 MLOAD PUSH2 0x28F2 SWAP2 SWAP1 PUSH2 0x39CF JUMP JUMPDEST PUSH1 0x40 MLOAD DUP1 SWAP2 SUB SWAP1 LOG1 JUMPDEST POP POP POP POP POP POP POP JUMP JUMPDEST PUSH1 0x1 PUSH1 0x8 DUP2 SWAP1 SSTORE POP JUMP JUMPDEST PUSH1 0x0 PUSH1 0x2 PUSH1 0x0 DUP4 DUP2 MSTORE PUSH1 0x20 ADD SWAP1 DUP2 MSTORE PUSH1 0x20 ADD PUSH1 0x0 KECCAK256 PUSH1 0x0 SWAP1 SLOAD SWAP1 PUSH2 0x100 EXP SWAP1 DIV PUSH20 0xFFFFFFFFFFFFFFFFFFFFFFFFFFFFFFFFFFFFFFFF AND SWAP1 POP SWAP2 SWAP1 POP JUMP JUMPDEST PUSH1 0x0 PUSH1 0x7 PUSH1 0x0 SWAP1 SLOAD SWAP1 PUSH2 0x100 EXP SWAP1 DIV PUSH20 0xFFFFFFFFFFFFFFFFFFFFFFFFFFFFFFFFFFFFFFFF AND SWAP1 POP DUP2 PUSH1 0x7 PUSH1 0x0 PUSH2 0x100 EXP DUP2 SLOAD DUP2 PUSH20 0xFFFFFFFFFFFFFFFFFFFFFFFFFFFFFFFFFFFFFFFF MUL NOT AND SWAP1 DUP4 PUSH20 0xFFFFFFFFFFFFFFFFFFFFFFFFFFFFFFFFFFFFFFFF AND MUL OR SWAP1 SSTORE POP DUP2 PUSH20 0xFFFFFFFFFFFFFFFFFFFFFFFFFFFFFFFFFFFFFFFF AND DUP2 PUSH20 0xFFFFFFFFFFFFFFFFFFFFFFFFFFFFFFFFFFFFFFFF AND PUSH32 0x8BE0079C531659141344CD1FD0A4F28419497F9722A3DAAFE3B4186F6B6457E0 PUSH1 0x40 MLOAD PUSH1 0x40 MLOAD DUP1 SWAP2 SUB SWAP1 LOG3 POP POP JUMP JUMPDEST PUSH2 0x2A19 PUSH2 0x2489 JUMP JUMPDEST PUSH1 0x1 PUSH1 0x7 PUSH1 0x14 PUSH2 0x100 EXP DUP2 SLOAD DUP2 PUSH1 0xFF MUL NOT AND SWAP1 DUP4 ISZERO ISZERO MUL OR SWAP1 SSTORE POP PUSH32 0x62E78CEA01BEE320CD4E420270B5EA74000D11B0C9F74754EBDBFC544B05A258 PUSH2 0x2A5D PUSH2 0x1EF2 JUMP JUMPDEST PUSH1 0x40 MLOAD PUSH2 0x2A6A SWAP2 SWAP1 PUSH2 0x3939 JUMP JUMPDEST PUSH1 0x40 MLOAD DUP1 SWAP2 SUB SWAP1 LOG1 JUMP JUMPDEST DUP2 PUSH20 0xFFFFFFFFFFFFFFFFFFFFFFFFFFFFFFFFFFFFFFFF AND DUP4 PUSH20 0xFFFFFFFFFFFFFFFFFFFFFFFFFFFFFFFFFFFFFFFF AND SUB PUSH2 0x2AE2 JUMPI PUSH1 0x40 MLOAD PUSH32 0x8C379A000000000000000000000000000000000000000000000000000000000 DUP2 MSTORE PUSH1 0x4 ADD PUSH2 0x2AD9 SWAP1 PUSH2 0x5337 JUMP JUMPDEST PUSH1 0x40 MLOAD DUP1 SWAP2 SUB SWAP1 REVERT JUMPDEST DUP1 PUSH1 0x5 PUSH1 0x0 DUP6 PUSH20 0xFFFFFFFFFFFFFFFFFFFFFFFFFFFFFFFFFFFFFFFF AND PUSH20 0xFFFFFFFFFFFFFFFFFFFFFFFFFFFFFFFFFFFFFFFF AND DUP2 MSTORE PUSH1 0x20 ADD SWAP1 DUP2 MSTORE PUSH1 0x20 ADD PUSH1 0x0 KECCAK256 PUSH1 0x0 DUP5 PUSH20 0xFFFFFFFFFFFFFFFFFFFFFFFFFFFFFFFFFFFFFFFF AND PUSH20 0xFFFFFFFFFFFFFFFFFFFFFFFFFFFFFFFFFFFFFFFF AND DUP2 MSTORE PUSH1 0x20 ADD SWAP1 DUP2 MSTORE PUSH1 0x20 ADD PUSH1 0x0 KECCAK256 PUSH1 0x0 PUSH2 0x100 EXP DUP2 SLOAD DUP2 PUSH1 0xFF MUL NOT AND SWAP1 DUP4 ISZERO ISZERO MUL OR SWAP1 SSTORE POP DUP2 PUSH20 0xFFFFFFFFFFFFFFFFFFFFFFFFFFFFFFFFFFFFFFFF AND DUP4 PUSH20 0xFFFFFFFFFFFFFFFFFFFFFFFFFFFFFFFFFFFFFFFF AND PUSH32 0x17307EAB39AB6107E8899845AD3D59BD9653F200F220920489CA2B5937696C31 DUP4 PUSH1 0x40 MLOAD PUSH2 0x2BD3 SWAP2 SWAP1 PUSH2 0x3788 JUMP JUMPDEST PUSH1 0x40 MLOAD DUP1 SWAP2 SUB SWAP1 LOG3 POP POP POP JUMP JUMPDEST PUSH2 0x2BEB DUP5 DUP5 DUP5 PUSH2 0x212D JUMP JUMPDEST PUSH2 0x2BF7 DUP5 DUP5 DUP5 DUP5 PUSH2 0x2FA8 JUMP JUMPDEST PUSH2 0x2C36 JUMPI PUSH1 0x40 MLOAD PUSH32 0x8C379A000000000000000000000000000000000000000000000000000000000 DUP2 MSTORE PUSH1 0x4 ADD PUSH2 0x2C2D SWAP1 PUSH2 0x53C9 JUMP JUMPDEST PUSH1 0x40 MLOAD DUP1 SWAP2 SUB SWAP1 REVERT JUMPDEST POP POP POP POP JUMP JUMPDEST PUSH1 0x60 PUSH2 0x2C47 DUP3 PUSH2 0x1EA7 JUMP JUMPDEST PUSH1 0x0 PUSH1 0x6 PUSH1 0x0 DUP5 DUP2 MSTORE PUSH1 0x20 ADD SWAP1 DUP2 MSTORE PUSH1 0x20 ADD PUSH1 0x0 KECCAK256 DUP1 SLOAD PUSH2 0x2C67 SWAP1 PUSH2 0x4075 JUMP JUMPDEST DUP1 PUSH1 0x1F ADD PUSH1 0x20 DUP1 SWAP2 DIV MUL PUSH1 0x20 ADD PUSH1 0x40 MLOAD SWAP1 DUP2 ADD PUSH1 0x40 MSTORE DUP1 SWAP3 SWAP2 SWAP1 DUP2 DUP2 MSTORE PUSH1 0x20 ADD DUP3 DUP1 SLOAD PUSH2 0x2C93 SWAP1 PUSH2 0x4075 JUMP JUMPDEST DUP1 ISZERO PUSH2 0x2CE0 JUMPI DUP1 PUSH1 0x1F LT PUSH2 0x2CB5 JUMPI PUSH2 0x100 DUP1 DUP4 SLOAD DIV MUL DUP4 MSTORE SWAP2 PUSH1 0x20 ADD SWAP2 PUSH2 0x2CE0 JUMP JUMPDEST DUP3 ADD SWAP2 SWAP1 PUSH1 0x0 MSTORE PUSH1 0x20 PUSH1 0x0 KECCAK256 SWAP1 JUMPDEST DUP2 SLOAD DUP2 MSTORE SWAP1 PUSH1 0x1 ADD SWAP1 PUSH1 0x20 ADD DUP1 DUP4 GT PUSH2 0x2CC3 JUMPI DUP3 SWAP1 SUB PUSH1 0x1F AND DUP3 ADD SWAP2 JUMPDEST POP POP POP POP POP SWAP1 POP PUSH1 0x0 PUSH2 0x2CF1 PUSH2 0x312F JUMP JUMPDEST SWAP1 POP PUSH1 0x0 DUP2 MLOAD SUB PUSH2 0x2D06 JUMPI DUP2 SWAP3 POP POP POP PUSH2 0x2D49 JUMP JUMPDEST PUSH1 0x0 DUP3 MLOAD GT ISZERO PUSH2 0x2D3B JUMPI DUP1 DUP3 PUSH1 0x40 MLOAD PUSH1 0x20 ADD PUSH2 0x2D23 SWAP3 SWAP2 SWAP1 PUSH2 0x5425 JUMP JUMPDEST PUSH1 0x40 MLOAD PUSH1 0x20 DUP2 DUP4 SUB SUB DUP2 MSTORE SWAP1 PUSH1 0x40 MSTORE SWAP3 POP POP POP PUSH2 0x2D49 JUMP JUMPDEST PUSH2 0x2D44 DUP5 PUSH2 0x3146 JUMP JUMPDEST SWAP3 POP POP POP JUMPDEST SWAP2 SWAP1 POP JUMP JUMPDEST PUSH1 0x0 PUSH32 0x80AC58CD00000000000000000000000000000000000000000000000000000000 PUSH28 0xFFFFFFFFFFFFFFFFFFFFFFFFFFFFFFFFFFFFFFFFFFFFFFFFFFFFFFFF NOT AND DUP3 PUSH28 0xFFFFFFFFFFFFFFFFFFFFFFFFFFFFFFFFFFFFFFFFFFFFFFFFFFFFFFFF NOT AND EQ DUP1 PUSH2 0x2E19 JUMPI POP PUSH32 0x5B5E139F00000000000000000000000000000000000000000000000000000000 PUSH28 0xFFFFFFFFFFFFFFFFFFFFFFFFFFFFFFFFFFFFFFFFFFFFFFFFFFFFFFFF NOT AND DUP3 PUSH28 0xFFFFFFFFFFFFFFFFFFFFFFFFFFFFFFFFFFFFFFFFFFFFFFFFFFFFFFFF NOT AND EQ JUMPDEST DUP1 PUSH2 0x2E29 JUMPI POP PUSH2 0x2E28 DUP3 PUSH2 0x31AE JUMP JUMPDEST JUMPDEST SWAP1 POP SWAP2 SWAP1 POP JUMP JUMPDEST POP POP POP POP JUMP JUMPDEST POP POP POP POP JUMP JUMPDEST PUSH2 0x2E44 PUSH2 0x119F JUMP JUMPDEST PUSH2 0x2E83 JUMPI PUSH1 0x40 MLOAD PUSH32 0x8C379A000000000000000000000000000000000000000000000000000000000 DUP2 MSTORE PUSH1 0x4 ADD PUSH2 0x2E7A SWAP1 PUSH2 0x5495 JUMP JUMPDEST PUSH1 0x40 MLOAD DUP1 SWAP2 SUB SWAP1 REVERT JUMPDEST JUMP JUMPDEST PUSH2 0x2E9F DUP3 DUP3 PUSH1 0x40 MLOAD DUP1 PUSH1 0x20 ADD PUSH1 0x40 MSTORE DUP1 PUSH1 0x0 DUP2 MSTORE POP PUSH2 0x3218 JUMP JUMPDEST POP POP JUMP JUMPDEST PUSH1 0x0 DUP1 PUSH2 0x2710 PUSH1 0x1 NUMBER PUSH2 0x2EB6 SWAP2 SWAP1 PUSH2 0x41F9 JUMP JUMPDEST BLOCKHASH DUP5 PUSH1 0x40 MLOAD PUSH1 0x20 ADD PUSH2 0x2EC9 SWAP3 SWAP2 SWAP1 PUSH2 0x5501 JUMP JUMPDEST PUSH1 0x40 MLOAD PUSH1 0x20 DUP2 DUP4 SUB SUB DUP2 MSTORE SWAP1 PUSH1 0x40 MSTORE DUP1 MLOAD SWAP1 PUSH1 0x20 ADD KECCAK256 PUSH1 0x0 SHR PUSH2 0x2EEC SWAP2 SWAP1 PUSH2 0x552D JUMP JUMPDEST SWAP1 POP PUSH2 0x1B58 DUP2 LT ISZERO PUSH2 0x2F02 JUMPI PUSH1 0x0 SWAP2 POP POP PUSH2 0x2F44 JUMP JUMPDEST PUSH2 0x22AB DUP2 LT ISZERO PUSH2 0x2F16 JUMPI PUSH1 0x1 SWAP2 POP POP PUSH2 0x2F44 JUMP JUMPDEST PUSH2 0x2625 DUP2 LT ISZERO PUSH2 0x2F2A JUMPI PUSH1 0x2 SWAP2 POP POP PUSH2 0x2F44 JUMP JUMPDEST PUSH2 0x26DE DUP2 LT ISZERO PUSH2 0x2F3E JUMPI PUSH1 0x3 SWAP2 POP POP PUSH2 0x2F44 JUMP JUMPDEST PUSH1 0x4 SWAP2 POP POP JUMPDEST SWAP2 SWAP1 POP JUMP JUMPDEST PUSH1 0x0 DUP1 PUSH1 0x11 PUSH1 0x0 DUP5 PUSH1 0x4 DUP2 GT ISZERO PUSH2 0x2F63 JUMPI PUSH2 0x2F62 PUSH2 0x3D8E JUMP JUMPDEST JUMPDEST PUSH1 0x4 DUP2 GT ISZERO PUSH2 0x2F75 JUMPI PUSH2 0x2F74 PUSH2 0x3D8E JUMP JUMPDEST JUMPDEST DUP2 MSTORE PUSH1 0x20 ADD SWAP1 DUP2 MSTORE PUSH1 0x20 ADD PUSH1 0x0 KECCAK256 SLOAD SWAP1 POP PUSH1 0x64 DUP2 PUSH1 0xC SLOAD PUSH2 0x2F96 SWAP2 SWAP1 PUSH2 0x44D9 JUMP JUMPDEST PUSH2 0x2FA0 SWAP2 SWAP1 PUSH2 0x454A JUMP JUMPDEST SWAP2 POP POP SWAP2 SWAP1 POP JUMP JUMPDEST PUSH1 0x0 PUSH2 0x2FC9 DUP5 PUSH20 0xFFFFFFFFFFFFFFFFFFFFFFFFFFFFFFFFFFFFFFFF AND PUSH2 0x3273 JUMP JUMPDEST ISZERO PUSH2 0x3122 JUMPI DUP4 PUSH20 0xFFFFFFFFFFFFFFFFFFFFFFFFFFFFFFFFFFFFFFFF AND PUSH4 0x150B7A02 PUSH2 0x2FF2 PUSH2 0x1EF2 JUMP JUMPDEST DUP8 DUP7 DUP7 PUSH1 0x40 MLOAD DUP6 PUSH4 0xFFFFFFFF AND PUSH1 0xE0 SHL DUP2 MSTORE PUSH1 0x4 ADD PUSH2 0x3014 SWAP5 SWAP4 SWAP3 SWAP2 SWAP1 PUSH2 0x55B3 JUMP JUMPDEST PUSH1 0x20 PUSH1 0x40 MLOAD DUP1 DUP4 SUB DUP2 PUSH1 0x0 DUP8 GAS CALL SWAP3 POP POP POP DUP1 ISZERO PUSH2 0x3050 JUMPI POP PUSH1 0x40 MLOAD RETURNDATASIZE PUSH1 0x1F NOT PUSH1 0x1F DUP3 ADD AND DUP3 ADD DUP1 PUSH1 0x40 MSTORE POP DUP2 ADD SWAP1 PUSH2 0x304D SWAP2 SWAP1 PUSH2 0x5614 JUMP JUMPDEST PUSH1 0x1 JUMPDEST PUSH2 0x30D2 JUMPI RETURNDATASIZE DUP1 PUSH1 0x0 DUP2 EQ PUSH2 0x3080 JUMPI PUSH1 0x40 MLOAD SWAP2 POP PUSH1 0x1F NOT PUSH1 0x3F RETURNDATASIZE ADD AND DUP3 ADD PUSH1 0x40 MSTORE RETURNDATASIZE DUP3 MSTORE RETURNDATASIZE PUSH1 0x0 PUSH1 0x20 DUP5 ADD RETURNDATACOPY PUSH2 0x3085 JUMP JUMPDEST PUSH1 0x60 SWAP2 POP JUMPDEST POP PUSH1 0x0 DUP2 MLOAD SUB PUSH2 0x30CA JUMPI PUSH1 0x40 MLOAD PUSH32 0x8C379A000000000000000000000000000000000000000000000000000000000 DUP2 MSTORE PUSH1 0x4 ADD PUSH2 0x30C1 SWAP1 PUSH2 0x53C9 JUMP JUMPDEST PUSH1 0x40 MLOAD DUP1 SWAP2 SUB SWAP1 REVERT JUMPDEST DUP1 MLOAD DUP2 PUSH1 0x20 ADD REVERT JUMPDEST PUSH4 0x150B7A02 PUSH1 0xE0 SHL PUSH28 0xFFFFFFFFFFFFFFFFFFFFFFFFFFFFFFFFFFFFFFFFFFFFFFFFFFFFFFFF NOT AND DUP2 PUSH28 0xFFFFFFFFFFFFFFFFFFFFFFFFFFFFFFFFFFFFFFFFFFFFFFFFFFFFFFFF NOT AND EQ SWAP2 POP POP PUSH2 0x3127 JUMP JUMPDEST PUSH1 0x1 SWAP1 POP JUMPDEST SWAP5 SWAP4 POP POP POP POP JUMP JUMPDEST PUSH1 0x60 PUSH1 0x40 MLOAD DUP1 PUSH1 0x20 ADD PUSH1 0x40 MSTORE DUP1 PUSH1 0x0 DUP2 MSTORE POP SWAP1 POP SWAP1 JUMP JUMPDEST PUSH1 0x60 PUSH2 0x3151 DUP3 PUSH2 0x1EA7 JUMP JUMPDEST PUSH1 0x0 PUSH2 0x315B PUSH2 0x312F JUMP JUMPDEST SWAP1 POP PUSH1 0x0 DUP2 MLOAD GT PUSH2 0x317B JUMPI PUSH1 0x40 MLOAD DUP1 PUSH1 0x20 ADD PUSH1 0x40 MSTORE DUP1 PUSH1 0x0 DUP2 MSTORE POP PUSH2 0x31A6 JUMP JUMPDEST DUP1 PUSH2 0x3185 DUP5 PUSH2 0x3296 JUMP JUMPDEST PUSH1 0x40 MLOAD PUSH1 0x20 ADD PUSH2 0x3196 SWAP3 SWAP2 SWAP1 PUSH2 0x5425 JUMP JUMPDEST PUSH1 0x40 MLOAD PUSH1 0x20 DUP2 DUP4 SUB SUB DUP2 MSTORE SWAP1 PUSH1 0x40 MSTORE JUMPDEST SWAP2 POP POP SWAP2 SWAP1 POP JUMP JUMPDEST PUSH1 0x0 PUSH32 0x1FFC9A700000000000000000000000000000000000000000000000000000000 PUSH28 0xFFFFFFFFFFFFFFFFFFFFFFFFFFFFFFFFFFFFFFFFFFFFFFFFFFFFFFFF NOT AND DUP3 PUSH28 0xFFFFFFFFFFFFFFFFFFFFFFFFFFFFFFFFFFFFFFFFFFFFFFFFFFFFFFFF NOT AND EQ SWAP1 POP SWAP2 SWAP1 POP JUMP JUMPDEST PUSH2 0x3222 DUP4 DUP4 PUSH2 0x3364 JUMP JUMPDEST PUSH2 0x322F PUSH1 0x0 DUP5 DUP5 DUP5 PUSH2 0x2FA8 JUMP JUMPDEST PUSH2 0x326E JUMPI PUSH1 0x40 MLOAD PUSH32 0x8C379A000000000000000000000000000000000000000000000000000000000 DUP2 MSTORE PUSH1 0x4 ADD PUSH2 0x3265 SWAP1 PUSH2 0x53C9 JUMP JUMPDEST PUSH1 0x40 MLOAD DUP1 SWAP2 SUB SWAP1 REVERT JUMPDEST POP POP POP JUMP JUMPDEST PUSH1 0x0 DUP1 DUP3 PUSH20 0xFFFFFFFFFFFFFFFFFFFFFFFFFFFFFFFFFFFFFFFF AND EXTCODESIZE GT SWAP1 POP SWAP2 SWAP1 POP JUMP JUMPDEST PUSH1 0x60 PUSH1 0x0 PUSH1 0x1 PUSH2 0x32A5 DUP5 PUSH2 0x3581 JUMP JUMPDEST ADD SWAP1 POP PUSH1 0x0 DUP2 PUSH8 0xFFFFFFFFFFFFFFFF DUP2 GT ISZERO PUSH2 0x32C4 JUMPI PUSH2 0x32C3 PUSH2 0x39F4 JUMP JUMPDEST JUMPDEST PUSH1 0x40 MLOAD SWAP1 DUP1 DUP3 MSTORE DUP1 PUSH1 0x1F ADD PUSH1 0x1F NOT AND PUSH1 0x20 ADD DUP3 ADD PUSH1 0x40 MSTORE DUP1 ISZERO PUSH2 0x32F6 JUMPI DUP2 PUSH1 0x20 ADD PUSH1 0x1 DUP3 MUL DUP1 CALLDATASIZE DUP4 CALLDATACOPY DUP1 DUP3 ADD SWAP2 POP POP SWAP1 POP JUMPDEST POP SWAP1 POP PUSH1 0x0 DUP3 PUSH1 0x20 ADD DUP3 ADD SWAP1 POP JUMPDEST PUSH1 0x1 ISZERO PUSH2 0x3359 JUMPI DUP1 DUP1 PUSH1 0x1 SWAP1 SUB SWAP2 POP POP PUSH32 0x3031323334353637383961626364656600000000000000000000000000000000 PUSH1 0xA DUP7 MOD BYTE DUP2 MSTORE8 PUSH1 0xA DUP6 DUP2 PUSH2 0x334D JUMPI PUSH2 0x334C PUSH2 0x451B JUMP JUMPDEST JUMPDEST DIV SWAP5 POP PUSH1 0x0 DUP6 SUB PUSH2 0x3304 JUMPI JUMPDEST DUP2 SWAP4 POP POP POP POP SWAP2 SWAP1 POP JUMP JUMPDEST PUSH1 0x0 PUSH20 0xFFFFFFFFFFFFFFFFFFFFFFFFFFFFFFFFFFFFFFFF AND DUP3 PUSH20 0xFFFFFFFFFFFFFFFFFFFFFFFFFFFFFFFFFFFFFFFF AND SUB PUSH2 0x33D3 JUMPI PUSH1 0x40 MLOAD PUSH32 0x8C379A000000000000000000000000000000000000000000000000000000000 DUP2 MSTORE PUSH1 0x4 ADD PUSH2 0x33CA SWAP1 PUSH2 0x568D JUMP JUMPDEST PUSH1 0x40 MLOAD DUP1 SWAP2 SUB SWAP1 REVERT JUMPDEST PUSH2 0x33DC DUP2 PUSH2 0x1FB3 JUMP JUMPDEST ISZERO PUSH2 0x341C JUMPI PUSH1 0x40 MLOAD PUSH32 0x8C379A000000000000000000000000000000000000000000000000000000000 DUP2 MSTORE PUSH1 0x4 ADD PUSH2 0x3413 SWAP1 PUSH2 0x56F9 JUMP JUMPDEST PUSH1 0x40 MLOAD DUP1 SWAP2 SUB SWAP1 REVERT JUMPDEST PUSH2 0x342A PUSH1 0x0 DUP4 DUP4 PUSH1 0x1 PUSH2 0x2E30 JUMP JUMPDEST PUSH2 0x3433 DUP2 PUSH2 0x1FB3 JUMP JUMPDEST ISZERO PUSH2 0x3473 JUMPI PUSH1 0x40 MLOAD PUSH32 0x8C379A000000000000000000000000000000000000000000000000000000000 DUP2 MSTORE PUSH1 0x4 ADD PUSH2 0x346A SWAP1 PUSH2 0x56F9 JUMP JUMPDEST PUSH1 0x40 MLOAD DUP1 SWAP2 SUB SWAP1 REVERT JUMPDEST PUSH1 0x1 PUSH1 0x3 PUSH1 0x0 DUP5 PUSH20 0xFFFFFFFFFFFFFFFFFFFFFFFFFFFFFFFFFFFFFFFF AND PUSH20 0xFFFFFFFFFFFFFFFFFFFFFFFFFFFFFFFFFFFFFFFF AND DUP2 MSTORE PUSH1 0x20 ADD SWAP1 DUP2 MSTORE PUSH1 0x20 ADD PUSH1 0x0 KECCAK256 PUSH1 0x0 DUP3 DUP3 SLOAD ADD SWAP3 POP POP DUP2 SWAP1 SSTORE POP DUP2 PUSH1 0x2 PUSH1 0x0 DUP4 DUP2 MSTORE PUSH1 0x20 ADD SWAP1 DUP2 MSTORE PUSH1 0x20 ADD PUSH1 0x0 KECCAK256 PUSH1 0x0 PUSH2 0x100 EXP DUP2 SLOAD DUP2 PUSH20 0xFFFFFFFFFFFFFFFFFFFFFFFFFFFFFFFFFFFFFFFF MUL NOT AND SWAP1 DUP4 PUSH20 0xFFFFFFFFFFFFFFFFFFFFFFFFFFFFFFFFFFFFFFFF AND MUL OR SWAP1 SSTORE POP DUP1 DUP3 PUSH20 0xFFFFFFFFFFFFFFFFFFFFFFFFFFFFFFFFFFFFFFFF AND PUSH1 0x0 PUSH20 0xFFFFFFFFFFFFFFFFFFFFFFFFFFFFFFFFFFFFFFFF AND PUSH32 0xDDF252AD1BE2C89B69C2B068FC378DAA952BA7F163C4A11628F55A4DF523B3EF PUSH1 0x40 MLOAD PUSH1 0x40 MLOAD DUP1 SWAP2 SUB SWAP1 LOG4 PUSH2 0x357D PUSH1 0x0 DUP4 DUP4 PUSH1 0x1 PUSH2 0x2E36 JUMP JUMPDEST POP POP JUMP JUMPDEST PUSH1 0x0 DUP1 PUSH1 0x0 SWAP1 POP PUSH27 0x184F03E93FF9F4DAA797ED6E38ED64BF6A1F010000000000000000 DUP4 LT PUSH2 0x35DF JUMPI PUSH27 0x184F03E93FF9F4DAA797ED6E38ED64BF6A1F010000000000000000 DUP4 DUP2 PUSH2 0x35D5 JUMPI PUSH2 0x35D4 PUSH2 0x451B JUMP JUMPDEST JUMPDEST DIV SWAP3 POP PUSH1 0x40 DUP2 ADD SWAP1 POP JUMPDEST PUSH14 0x4EE2D6D415B85ACEF8100000000 DUP4 LT PUSH2 0x361C JUMPI PUSH14 0x4EE2D6D415B85ACEF8100000000 DUP4 DUP2 PUSH2 0x3612 JUMPI PUSH2 0x3611 PUSH2 0x451B JUMP JUMPDEST JUMPDEST DIV SWAP3 POP PUSH1 0x20 DUP2 ADD SWAP1 POP JUMPDEST PUSH7 0x2386F26FC10000 DUP4 LT PUSH2 0x364B JUMPI PUSH7 0x2386F26FC10000 DUP4 DUP2 PUSH2 0x3641 JUMPI PUSH2 0x3640 PUSH2 0x451B JUMP JUMPDEST JUMPDEST DIV SWAP3 POP PUSH1 0x10 DUP2 ADD SWAP1 POP JUMPDEST PUSH4 0x5F5E100 DUP4 LT PUSH2 0x3674 JUMPI PUSH4 0x5F5E100 DUP4 DUP2 PUSH2 0x366A JUMPI PUSH2 0x3669 PUSH2 0x451B JUMP JUMPDEST JUMPDEST DIV SWAP3 POP PUSH1 0x8 DUP2 ADD SWAP1 POP JUMPDEST PUSH2 0x2710 DUP4 LT PUSH2 0x3699 JUMPI PUSH2 0x2710 DUP4 DUP2 PUSH2 0x368F JUMPI PUSH2 0x368E PUSH2 0x451B JUMP JUMPDEST JUMPDEST DIV SWAP3 POP PUSH1 0x4 DUP2 ADD SWAP1 POP JUMPDEST PUSH1 0x64 DUP4 LT PUSH2 0x36BC JUMPI PUSH1 0x64 DUP4 DUP2 PUSH2 0x36B2 JUMPI PUSH2 0x36B1 PUSH2 0x451B JUMP JUMPDEST JUMPDEST DIV SWAP3 POP PUSH1 0x2 DUP2 ADD SWAP1 POP JUMPDEST PUSH1 0xA DUP4 LT PUSH2 0x36CB JUMPI PUSH1 0x1 DUP2 ADD SWAP1 POP JUMPDEST DUP1 SWAP2 POP POP SWAP2 SWAP1 POP JUMP JUMPDEST PUSH1 0x0 PUSH1 0x40 MLOAD SWAP1 POP SWAP1 JUMP JUMPDEST PUSH1 0x0 DUP1 REVERT JUMPDEST PUSH1 0x0 DUP1 REVERT JUMPDEST PUSH1 0x0 PUSH32 0xFFFFFFFF00000000000000000000000000000000000000000000000000000000 DUP3 AND SWAP1 POP SWAP2 SWAP1 POP JUMP JUMPDEST PUSH2 0x371D DUP2 PUSH2 0x36E8 JUMP JUMPDEST DUP2 EQ PUSH2 0x3728 JUMPI PUSH1 0x0 DUP1 REVERT JUMPDEST POP JUMP JUMPDEST PUSH1 0x0 DUP2 CALLDATALOAD SWAP1 POP PUSH2 0x373A DUP2 PUSH2 0x3714 JUMP JUMPDEST SWAP3 SWAP2 POP POP JUMP JUMPDEST PUSH1 0x0 PUSH1 0x20 DUP3 DUP5 SUB SLT ISZERO PUSH2 0x3756 JUMPI PUSH2 0x3755 PUSH2 0x36DE JUMP JUMPDEST JUMPDEST PUSH1 0x0 PUSH2 0x3764 DUP5 DUP3 DUP6 ADD PUSH2 0x372B JUMP JUMPDEST SWAP2 POP POP SWAP3 SWAP2 POP POP JUMP JUMPDEST PUSH1 0x0 DUP2 ISZERO ISZERO SWAP1 POP SWAP2 SWAP1 POP JUMP JUMPDEST PUSH2 0x3782 DUP2 PUSH2 0x376D JUMP JUMPDEST DUP3 MSTORE POP POP JUMP JUMPDEST PUSH1 0x0 PUSH1 0x20 DUP3 ADD SWAP1 POP PUSH2 0x379D PUSH1 0x0 DUP4 ADD DUP5 PUSH2 0x3779 JUMP JUMPDEST SWAP3 SWAP2 POP POP JUMP JUMPDEST PUSH1 0x0 DUP2 SWAP1 POP SWAP2 SWAP1 POP JUMP JUMPDEST PUSH2 0x37B6 DUP2 PUSH2 0x37A3 JUMP JUMPDEST DUP2 EQ PUSH2 0x37C1 JUMPI PUSH1 0x0 DUP1 REVERT JUMPDEST POP JUMP JUMPDEST PUSH1 0x0 DUP2 CALLDATALOAD SWAP1 POP PUSH2 0x37D3 DUP2 PUSH2 0x37AD JUMP JUMPDEST SWAP3 SWAP2 POP POP JUMP JUMPDEST PUSH1 0x0 DUP1 PUSH1 0x40 DUP4 DUP6 SUB SLT ISZERO PUSH2 0x37F0 JUMPI PUSH2 0x37EF PUSH2 0x36DE JUMP JUMPDEST JUMPDEST PUSH1 0x0 PUSH2 0x37FE DUP6 DUP3 DUP7 ADD PUSH2 0x37C4 JUMP JUMPDEST SWAP3 POP POP PUSH1 0x20 PUSH2 0x380F DUP6 DUP3 DUP7 ADD PUSH2 0x37C4 JUMP JUMPDEST SWAP2 POP POP SWAP3 POP SWAP3 SWAP1 POP JUMP JUMPDEST PUSH1 0x0 DUP2 MLOAD SWAP1 POP SWAP2 SWAP1 POP JUMP JUMPDEST PUSH1 0x0 DUP3 DUP3 MSTORE PUSH1 0x20 DUP3 ADD SWAP1 POP SWAP3 SWAP2 POP POP JUMP JUMPDEST PUSH1 0x0 JUMPDEST DUP4 DUP2 LT ISZERO PUSH2 0x3853 JUMPI DUP1 DUP3 ADD MLOAD DUP2 DUP5 ADD MSTORE PUSH1 0x20 DUP2 ADD SWAP1 POP PUSH2 0x3838 JUMP JUMPDEST PUSH1 0x0 DUP5 DUP5 ADD MSTORE POP POP POP POP JUMP JUMPDEST PUSH1 0x0 PUSH1 0x1F NOT PUSH1 0x1F DUP4 ADD AND SWAP1 POP SWAP2 SWAP1 POP JUMP JUMPDEST PUSH1 0x0 PUSH2 0x387B DUP3 PUSH2 0x3819 JUMP JUMPDEST PUSH2 0x3885 DUP2 DUP6 PUSH2 0x3824 JUMP JUMPDEST SWAP4 POP PUSH2 0x3895 DUP2 DUP6 PUSH1 0x20 DUP7 ADD PUSH2 0x3835 JUMP JUMPDEST PUSH2 0x389E DUP2 PUSH2 0x385F JUMP JUMPDEST DUP5 ADD SWAP2 POP POP SWAP3 SWAP2 POP POP JUMP JUMPDEST PUSH1 0x0 PUSH1 0x20 DUP3 ADD SWAP1 POP DUP2 DUP2 SUB PUSH1 0x0 DUP4 ADD MSTORE PUSH2 0x38C3 DUP2 DUP5 PUSH2 0x3870 JUMP JUMPDEST SWAP1 POP SWAP3 SWAP2 POP POP JUMP JUMPDEST PUSH1 0x0 PUSH1 0x20 DUP3 DUP5 SUB SLT ISZERO PUSH2 0x38E1 JUMPI PUSH2 0x38E0 PUSH2 0x36DE JUMP JUMPDEST JUMPDEST PUSH1 0x0 PUSH2 0x38EF DUP5 DUP3 DUP6 ADD PUSH2 0x37C4 JUMP JUMPDEST SWAP2 POP POP SWAP3 SWAP2 POP POP JUMP JUMPDEST PUSH1 0x0 PUSH20 0xFFFFFFFFFFFFFFFFFFFFFFFFFFFFFFFFFFFFFFFF DUP3 AND SWAP1 POP SWAP2 SWAP1 POP JUMP JUMPDEST PUSH1 0x0 PUSH2 0x3923 DUP3 PUSH2 0x38F8 JUMP JUMPDEST SWAP1 POP SWAP2 SWAP1 POP JUMP JUMPDEST PUSH2 0x3933 DUP2 PUSH2 0x3918 JUMP JUMPDEST DUP3 MSTORE POP POP JUMP JUMPDEST PUSH1 0x0 PUSH1 0x20 DUP3 ADD SWAP1 POP PUSH2 0x394E PUSH1 0x0 DUP4 ADD DUP5 PUSH2 0x392A JUMP JUMPDEST SWAP3 SWAP2 POP POP JUMP JUMPDEST PUSH2 0x395D DUP2 PUSH2 0x3918 JUMP JUMPDEST DUP2 EQ PUSH2 0x3968 JUMPI PUSH1 0x0 DUP1 REVERT JUMPDEST POP JUMP JUMPDEST PUSH1 0x0 DUP2 CALLDATALOAD SWAP1 POP PUSH2 0x397A DUP2 PUSH2 0x3954 JUMP JUMPDEST SWAP3 SWAP2 POP POP JUMP JUMPDEST PUSH1 0x0 DUP1 PUSH1 0x40 DUP4 DUP6 SUB SLT ISZERO PUSH2 0x3997 JUMPI PUSH2 0x3996 PUSH2 0x36DE JUMP JUMPDEST JUMPDEST PUSH1 0x0 PUSH2 0x39A5 DUP6 DUP3 DUP7 ADD PUSH2 0x396B JUMP JUMPDEST SWAP3 POP POP PUSH1 0x20 PUSH2 0x39B6 DUP6 DUP3 DUP7 ADD PUSH2 0x37C4 JUMP JUMPDEST SWAP2 POP POP SWAP3 POP SWAP3 SWAP1 POP JUMP JUMPDEST PUSH2 0x39C9 DUP2 PUSH2 0x37A3 JUMP JUMPDEST DUP3 MSTORE POP POP JUMP JUMPDEST PUSH1 0x0 PUSH1 0x20 DUP3 ADD SWAP1 POP PUSH2 0x39E4 PUSH1 0x0 DUP4 ADD DUP5 PUSH2 0x39C0 JUMP JUMPDEST SWAP3 SWAP2 POP POP JUMP JUMPDEST PUSH1 0x0 DUP1 REVERT JUMPDEST PUSH1 0x0 DUP1 REVERT JUMPDEST PUSH32 0x4E487B7100000000000000000000000000000000000000000000000000000000 PUSH1 0x0 MSTORE PUSH1 0x41 PUSH1 0x4 MSTORE PUSH1 0x24 PUSH1 0x0 REVERT JUMPDEST PUSH2 0x3A2C DUP3 PUSH2 0x385F JUMP JUMPDEST DUP2 ADD DUP2 DUP2 LT PUSH8 0xFFFFFFFFFFFFFFFF DUP3 GT OR ISZERO PUSH2 0x3A4B JUMPI PUSH2 0x3A4A PUSH2 0x39F4 JUMP JUMPDEST JUMPDEST DUP1 PUSH1 0x40 MSTORE POP POP POP JUMP JUMPDEST PUSH1 0x0 PUSH2 0x3A5E PUSH2 0x36D4 JUMP JUMPDEST SWAP1 POP PUSH2 0x3A6A DUP3 DUP3 PUSH2 0x3A23 JUMP JUMPDEST SWAP2 SWAP1 POP JUMP JUMPDEST PUSH1 0x0 PUSH8 0xFFFFFFFFFFFFFFFF DUP3 GT ISZERO PUSH2 0x3A8A JUMPI PUSH2 0x3A89 PUSH2 0x39F4 JUMP JUMPDEST JUMPDEST PUSH2 0x3A93 DUP3 PUSH2 0x385F JUMP JUMPDEST SWAP1 POP PUSH1 0x20 DUP2 ADD SWAP1 POP SWAP2 SWAP1 POP JUMP JUMPDEST DUP3 DUP2 DUP4 CALLDATACOPY PUSH1 0x0 DUP4 DUP4 ADD MSTORE POP POP POP JUMP JUMPDEST PUSH1 0x0 PUSH2 0x3AC2 PUSH2 0x3ABD DUP5 PUSH2 0x3A6F JUMP JUMPDEST PUSH2 0x3A54 JUMP JUMPDEST SWAP1 POP DUP3 DUP2 MSTORE PUSH1 0x20 DUP2 ADD DUP5 DUP5 DUP5 ADD GT ISZERO PUSH2 0x3ADE JUMPI PUSH2 0x3ADD PUSH2 0x39EF JUMP JUMPDEST JUMPDEST PUSH2 0x3AE9 DUP5 DUP3 DUP6 PUSH2 0x3AA0 JUMP JUMPDEST POP SWAP4 SWAP3 POP POP POP JUMP JUMPDEST PUSH1 0x0 DUP3 PUSH1 0x1F DUP4 ADD SLT PUSH2 0x3B06 JUMPI PUSH2 0x3B05 PUSH2 0x39EA JUMP JUMPDEST JUMPDEST DUP2 CALLDATALOAD PUSH2 0x3B16 DUP5 DUP3 PUSH1 0x20 DUP7 ADD PUSH2 0x3AAF JUMP JUMPDEST SWAP2 POP POP SWAP3 SWAP2 POP POP JUMP JUMPDEST PUSH1 0x0 DUP1 PUSH1 0x40 DUP4 DUP6 SUB SLT ISZERO PUSH2 0x3B36 JUMPI PUSH2 0x3B35 PUSH2 0x36DE JUMP JUMPDEST JUMPDEST PUSH1 0x0 PUSH2 0x3B44 DUP6 DUP3 DUP7 ADD PUSH2 0x37C4 JUMP JUMPDEST SWAP3 POP POP PUSH1 0x20 DUP4 ADD CALLDATALOAD PUSH8 0xFFFFFFFFFFFFFFFF DUP2 GT ISZERO PUSH2 0x3B65 JUMPI PUSH2 0x3B64 PUSH2 0x36E3 JUMP JUMPDEST JUMPDEST PUSH2 0x3B71 DUP6 DUP3 DUP7 ADD PUSH2 0x3AF1 JUMP JUMPDEST SWAP2 POP POP SWAP3 POP SWAP3 SWAP1 POP JUMP JUMPDEST PUSH1 0x5 DUP2 LT PUSH2 0x3B88 JUMPI PUSH1 0x0 DUP1 REVERT JUMPDEST POP JUMP JUMPDEST PUSH1 0x0 DUP2 CALLDATALOAD SWAP1 POP PUSH2 0x3B9A DUP2 PUSH2 0x3B7B JUMP JUMPDEST SWAP3 SWAP2 POP POP JUMP JUMPDEST PUSH1 0x0 DUP1 PUSH1 0x40 DUP4 DUP6 SUB SLT ISZERO PUSH2 0x3BB7 JUMPI PUSH2 0x3BB6 PUSH2 0x36DE JUMP JUMPDEST JUMPDEST PUSH1 0x0 PUSH2 0x3BC5 DUP6 DUP3 DUP7 ADD PUSH2 0x3B8B JUMP JUMPDEST SWAP3 POP POP PUSH1 0x20 PUSH2 0x3BD6 DUP6 DUP3 DUP7 ADD PUSH2 0x37C4 JUMP JUMPDEST SWAP2 POP POP SWAP3 POP SWAP3 SWAP1 POP JUMP JUMPDEST PUSH1 0x0 DUP2 SWAP1 POP SWAP2 SWAP1 POP JUMP JUMPDEST PUSH1 0x0 PUSH2 0x3C05 PUSH2 0x3C00 PUSH2 0x3BFB DUP5 PUSH2 0x38F8 JUMP JUMPDEST PUSH2 0x3BE0 JUMP JUMPDEST PUSH2 0x38F8 JUMP JUMPDEST SWAP1 POP SWAP2 SWAP1 POP JUMP JUMPDEST PUSH1 0x0 PUSH2 0x3C17 DUP3 PUSH2 0x3BEA JUMP JUMPDEST SWAP1 POP SWAP2 SWAP1 POP JUMP JUMPDEST PUSH1 0x0 PUSH2 0x3C29 DUP3 PUSH2 0x3C0C JUMP JUMPDEST SWAP1 POP SWAP2 SWAP1 POP JUMP JUMPDEST PUSH2 0x3C39 DUP2 PUSH2 0x3C1E JUMP JUMPDEST DUP3 MSTORE POP POP JUMP JUMPDEST PUSH1 0x0 PUSH1 0x20 DUP3 ADD SWAP1 POP PUSH2 0x3C54 PUSH1 0x0 DUP4 ADD DUP5 PUSH2 0x3C30 JUMP JUMPDEST SWAP3 SWAP2 POP POP JUMP JUMPDEST PUSH1 0x0 DUP1 PUSH1 0x0 PUSH1 0x60 DUP5 DUP7 SUB SLT ISZERO PUSH2 0x3C73 JUMPI PUSH2 0x3C72 PUSH2 0x36DE JUMP JUMPDEST JUMPDEST PUSH1 0x0 PUSH2 0x3C81 DUP7 DUP3 DUP8 ADD PUSH2 0x396B JUMP JUMPDEST SWAP4 POP POP PUSH1 0x20 PUSH2 0x3C92 DUP7 DUP3 DUP8 ADD PUSH2 0x396B JUMP JUMPDEST SWAP3 POP POP PUSH1 0x40 PUSH2 0x3CA3 DUP7 DUP3 DUP8 ADD PUSH2 0x37C4 JUMP JUMPDEST SWAP2 POP POP SWAP3 POP SWAP3 POP SWAP3 JUMP JUMPDEST PUSH1 0x0 PUSH1 0x40 DUP3 ADD SWAP1 POP PUSH2 0x3CC2 PUSH1 0x0 DUP4 ADD DUP6 PUSH2 0x392A JUMP JUMPDEST PUSH2 0x3CCF PUSH1 0x20 DUP4 ADD DUP5 PUSH2 0x39C0 JUMP JUMPDEST SWAP4 SWAP3 POP POP POP JUMP JUMPDEST PUSH1 0x0 PUSH12 0xFFFFFFFFFFFFFFFFFFFFFFFF DUP3 AND SWAP1 POP SWAP2 SWAP1 POP JUMP JUMPDEST PUSH2 0x3CF7 DUP2 PUSH2 0x3CD6 JUMP JUMPDEST DUP3 MSTORE POP POP JUMP JUMPDEST PUSH1 0x0 PUSH1 0x20 DUP3 ADD SWAP1 POP PUSH2 0x3D12 PUSH1 0x0 DUP4 ADD DUP5 PUSH2 0x3CEE JUMP JUMPDEST SWAP3 SWAP2 POP POP JUMP JUMPDEST PUSH1 0x0 PUSH1 0x20 DUP3 DUP5 SUB SLT ISZERO PUSH2 0x3D2E JUMPI PUSH2 0x3D2D PUSH2 0x36DE JUMP JUMPDEST JUMPDEST PUSH1 0x0 DUP3 ADD CALLDATALOAD PUSH8 0xFFFFFFFFFFFFFFFF DUP2 GT ISZERO PUSH2 0x3D4C JUMPI PUSH2 0x3D4B PUSH2 0x36E3 JUMP JUMPDEST JUMPDEST PUSH2 0x3D58 DUP5 DUP3 DUP6 ADD PUSH2 0x3AF1 JUMP JUMPDEST SWAP2 POP POP SWAP3 SWAP2 POP POP JUMP JUMPDEST PUSH1 0x0 PUSH1 0x20 DUP3 DUP5 SUB SLT ISZERO PUSH2 0x3D77 JUMPI PUSH2 0x3D76 PUSH2 0x36DE JUMP JUMPDEST JUMPDEST PUSH1 0x0 PUSH2 0x3D85 DUP5 DUP3 DUP6 ADD PUSH2 0x3B8B JUMP JUMPDEST SWAP2 POP POP SWAP3 SWAP2 POP POP JUMP JUMPDEST PUSH32 0x4E487B7100000000000000000000000000000000000000000000000000000000 PUSH1 0x0 MSTORE PUSH1 0x21 PUSH1 0x4 MSTORE PUSH1 0x24 PUSH1 0x0 REVERT JUMPDEST PUSH1 0x5 DUP2 LT PUSH2 0x3DCE JUMPI PUSH2 0x3DCD PUSH2 0x3D8E JUMP JUMPDEST JUMPDEST POP JUMP JUMPDEST PUSH1 0x0 DUP2 SWAP1 POP PUSH2 0x3DDF DUP3 PUSH2 0x3DBD JUMP JUMPDEST SWAP2 SWAP1 POP JUMP JUMPDEST PUSH1 0x0 PUSH2 0x3DEF DUP3 PUSH2 0x3DD1 JUMP JUMPDEST SWAP1 POP SWAP2 SWAP1 POP JUMP JUMPDEST PUSH2 0x3DFF DUP2 PUSH2 0x3DE4 JUMP JUMPDEST DUP3 MSTORE POP POP JUMP JUMPDEST PUSH1 0x0 PUSH1 0x20 DUP3 ADD SWAP1 POP PUSH2 0x3E1A PUSH1 0x0 DUP4 ADD DUP5 PUSH2 0x3DF6 JUMP JUMPDEST SWAP3 SWAP2 POP POP JUMP JUMPDEST PUSH1 0x0 PUSH1 0x20 DUP3 DUP5 SUB SLT ISZERO PUSH2 0x3E36 JUMPI PUSH2 0x3E35 PUSH2 0x36DE JUMP JUMPDEST JUMPDEST PUSH1 0x0 PUSH2 0x3E44 DUP5 DUP3 DUP6 ADD PUSH2 0x396B JUMP JUMPDEST SWAP2 POP POP SWAP3 SWAP2 POP POP JUMP JUMPDEST PUSH2 0x3E56 DUP2 PUSH2 0x376D JUMP JUMPDEST DUP2 EQ PUSH2 0x3E61 JUMPI PUSH1 0x0 DUP1 REVERT JUMPDEST POP JUMP JUMPDEST PUSH1 0x0 DUP2 CALLDATALOAD SWAP1 POP PUSH2 0x3E73 DUP2 PUSH2 0x3E4D JUMP JUMPDEST SWAP3 SWAP2 POP POP JUMP JUMPDEST PUSH1 0x0 DUP1 PUSH1 0x40 DUP4 DUP6 SUB SLT ISZERO PUSH2 0x3E90 JUMPI PUSH2 0x3E8F PUSH2 0x36DE JUMP JUMPDEST JUMPDEST PUSH1 0x0 PUSH2 0x3E9E DUP6 DUP3 DUP7 ADD PUSH2 0x396B JUMP JUMPDEST SWAP3 POP POP PUSH1 0x20 PUSH2 0x3EAF DUP6 DUP3 DUP7 ADD PUSH2 0x3E64 JUMP JUMPDEST SWAP2 POP POP SWAP3 POP SWAP3 SWAP1 POP JUMP JUMPDEST PUSH1 0x0 PUSH8 0xFFFFFFFFFFFFFFFF DUP3 GT ISZERO PUSH2 0x3ED4 JUMPI PUSH2 0x3ED3 PUSH2 0x39F4 JUMP JUMPDEST JUMPDEST PUSH2 0x3EDD DUP3 PUSH2 0x385F JUMP JUMPDEST SWAP1 POP PUSH1 0x20 DUP2 ADD SWAP1 POP SWAP2 SWAP1 POP JUMP JUMPDEST PUSH1 0x0 PUSH2 0x3EFD PUSH2 0x3EF8 DUP5 PUSH2 0x3EB9 JUMP JUMPDEST PUSH2 0x3A54 JUMP JUMPDEST SWAP1 POP DUP3 DUP2 MSTORE PUSH1 0x20 DUP2 ADD DUP5 DUP5 DUP5 ADD GT ISZERO PUSH2 0x3F19 JUMPI PUSH2 0x3F18 PUSH2 0x39EF JUMP JUMPDEST JUMPDEST PUSH2 0x3F24 DUP5 DUP3 DUP6 PUSH2 0x3AA0 JUMP JUMPDEST POP SWAP4 SWAP3 POP POP POP JUMP JUMPDEST PUSH1 0x0 DUP3 PUSH1 0x1F DUP4 ADD SLT PUSH2 0x3F41 JUMPI PUSH2 0x3F40 PUSH2 0x39EA JUMP JUMPDEST JUMPDEST DUP2 CALLDATALOAD PUSH2 0x3F51 DUP5 DUP3 PUSH1 0x20 DUP7 ADD PUSH2 0x3EEA JUMP JUMPDEST SWAP2 POP POP SWAP3 SWAP2 POP POP JUMP JUMPDEST PUSH1 0x0 DUP1 PUSH1 0x0 DUP1 PUSH1 0x80 DUP6 DUP8 SUB SLT ISZERO PUSH2 0x3F74 JUMPI PUSH2 0x3F73 PUSH2 0x36DE JUMP JUMPDEST JUMPDEST PUSH1 0x0 PUSH2 0x3F82 DUP8 DUP3 DUP9 ADD PUSH2 0x396B JUMP JUMPDEST SWAP5 POP POP PUSH1 0x20 PUSH2 0x3F93 DUP8 DUP3 DUP9 ADD PUSH2 0x396B JUMP JUMPDEST SWAP4 POP POP PUSH1 0x40 PUSH2 0x3FA4 DUP8 DUP3 DUP9 ADD PUSH2 0x37C4 JUMP JUMPDEST SWAP3 POP POP PUSH1 0x60 DUP6 ADD CALLDATALOAD PUSH8 0xFFFFFFFFFFFFFFFF DUP2 GT ISZERO PUSH2 0x3FC5 JUMPI PUSH2 0x3FC4 PUSH2 0x36E3 JUMP JUMPDEST JUMPDEST PUSH2 0x3FD1 DUP8 DUP3 DUP9 ADD PUSH2 0x3F2C JUMP JUMPDEST SWAP2 POP POP SWAP3 SWAP6 SWAP2 SWAP5 POP SWAP3 POP JUMP JUMPDEST PUSH1 0x0 DUP1 PUSH1 0x40 DUP4 DUP6 SUB SLT ISZERO PUSH2 0x3FF4 JUMPI PUSH2 0x3FF3 PUSH2 0x36DE JUMP JUMPDEST JUMPDEST PUSH1 0x0 PUSH2 0x4002 DUP6 DUP3 DUP7 ADD PUSH2 0x396B JUMP JUMPDEST SWAP3 POP POP PUSH1 0x20 PUSH2 0x4013 DUP6 DUP3 DUP7 ADD PUSH2 0x396B JUMP JUMPDEST SWAP2 POP POP SWAP3 POP SWAP3 SWAP1 POP JUMP JUMPDEST PUSH1 0x0 PUSH1 0x40 DUP3 ADD SWAP1 POP PUSH2 0x4032 PUSH1 0x0 DUP4 ADD DUP6 PUSH2 0x39C0 JUMP JUMPDEST PUSH2 0x403F PUSH1 0x20 DUP4 ADD DUP5 PUSH2 0x39C0 JUMP JUMPDEST SWAP4 SWAP3 POP POP POP JUMP JUMPDEST PUSH32 0x4E487B7100000000000000000000000000000000000000000000000000000000 PUSH1 0x0 MSTORE PUSH1 0x22 PUSH1 0x4 MSTORE PUSH1 0x24 PUSH1 0x0 REVERT JUMPDEST PUSH1 0x0 PUSH1 0x2 DUP3 DIV SWAP1 POP PUSH1 0x1 DUP3 AND DUP1 PUSH2 0x408D JUMPI PUSH1 0x7F DUP3 AND SWAP2 POP JUMPDEST PUSH1 0x20 DUP3 LT DUP2 SUB PUSH2 0x40A0 JUMPI PUSH2 0x409F PUSH2 0x4046 JUMP JUMPDEST JUMPDEST POP SWAP2 SWAP1 POP JUMP JUMPDEST PUSH32 0x4552433732313A20617070726F76616C20746F2063757272656E74206F776E65 PUSH1 0x0 DUP3 ADD MSTORE PUSH32 0x7200000000000000000000000000000000000000000000000000000000000000 PUSH1 0x20 DUP3 ADD MSTORE POP JUMP JUMPDEST PUSH1 0x0 PUSH2 0x4102 PUSH1 0x21 DUP4 PUSH2 0x3824 JUMP JUMPDEST SWAP2 POP PUSH2 0x410D DUP3 PUSH2 0x40A6 JUMP JUMPDEST PUSH1 0x40 DUP3 ADD SWAP1 POP SWAP2 SWAP1 POP JUMP JUMPDEST PUSH1 0x0 PUSH1 0x20 DUP3 ADD SWAP1 POP DUP2 DUP2 SUB PUSH1 0x0 DUP4 ADD MSTORE PUSH2 0x4131 DUP2 PUSH2 0x40F5 JUMP JUMPDEST SWAP1 POP SWAP2 SWAP1 POP JUMP JUMPDEST PUSH32 0x4552433732313A20617070726F76652063616C6C6572206973206E6F7420746F PUSH1 0x0 DUP3 ADD MSTORE PUSH32 0x6B656E206F776E6572206F7220617070726F76656420666F7220616C6C000000 PUSH1 0x20 DUP3 ADD MSTORE POP JUMP JUMPDEST PUSH1 0x0 PUSH2 0x4194 PUSH1 0x3D DUP4 PUSH2 0x3824 JUMP JUMPDEST SWAP2 POP PUSH2 0x419F DUP3 PUSH2 0x4138 JUMP JUMPDEST PUSH1 0x40 DUP3 ADD SWAP1 POP SWAP2 SWAP1 POP JUMP JUMPDEST PUSH1 0x0 PUSH1 0x20 DUP3 ADD SWAP1 POP DUP2 DUP2 SUB PUSH1 0x0 DUP4 ADD MSTORE PUSH2 0x41C3 DUP2 PUSH2 0x4187 JUMP JUMPDEST SWAP1 POP SWAP2 SWAP1 POP JUMP JUMPDEST PUSH32 0x4E487B7100000000000000000000000000000000000000000000000000000000 PUSH1 0x0 MSTORE PUSH1 0x11 PUSH1 0x4 MSTORE PUSH1 0x24 PUSH1 0x0 REVERT JUMPDEST PUSH1 0x0 PUSH2 0x4204 DUP3 PUSH2 0x37A3 JUMP JUMPDEST SWAP2 POP PUSH2 0x420F DUP4 PUSH2 0x37A3 JUMP JUMPDEST SWAP3 POP DUP3 DUP3 SUB SWAP1 POP DUP2 DUP2 GT ISZERO PUSH2 0x4227 JUMPI PUSH2 0x4226 PUSH2 0x41CA JUMP JUMPDEST JUMPDEST SWAP3 SWAP2 POP POP JUMP JUMPDEST PUSH32 0x546F6B656E20646F6573206E6F74206578697374000000000000000000000000 PUSH1 0x0 DUP3 ADD MSTORE POP JUMP JUMPDEST PUSH1 0x0 PUSH2 0x4263 PUSH1 0x14 DUP4 PUSH2 0x3824 JUMP JUMPDEST SWAP2 POP PUSH2 0x426E DUP3 PUSH2 0x422D JUMP JUMPDEST PUSH1 0x20 DUP3 ADD SWAP1 POP SWAP2 SWAP1 POP JUMP JUMPDEST PUSH1 0x0 PUSH1 0x20 DUP3 ADD SWAP1 POP DUP2 DUP2 SUB PUSH1 0x0 DUP4 ADD MSTORE PUSH2 0x4292 DUP2 PUSH2 0x4256 JUMP JUMPDEST SWAP1 POP SWAP2 SWAP1 POP JUMP JUMPDEST PUSH1 0x0 PUSH1 0x60 DUP3 ADD SWAP1 POP PUSH2 0x42AE PUSH1 0x0 DUP4 ADD DUP7 PUSH2 0x392A JUMP JUMPDEST PUSH2 0x42BB PUSH1 0x20 DUP4 ADD DUP6 PUSH2 0x392A JUMP JUMPDEST PUSH2 0x42C8 PUSH1 0x40 DUP4 ADD DUP5 PUSH2 0x39C0 JUMP JUMPDEST SWAP5 SWAP4 POP POP POP POP JUMP JUMPDEST PUSH1 0x0 DUP2 MLOAD SWAP1 POP PUSH2 0x42DF DUP2 PUSH2 0x3E4D JUMP JUMPDEST SWAP3 SWAP2 POP POP JUMP JUMPDEST PUSH1 0x0 PUSH1 0x20 DUP3 DUP5 SUB SLT ISZERO PUSH2 0x42FB JUMPI PUSH2 0x42FA PUSH2 0x36DE JUMP JUMPDEST JUMPDEST PUSH1 0x0 PUSH2 0x4309 DUP5 DUP3 DUP6 ADD PUSH2 0x42D0 JUMP JUMPDEST SWAP2 POP POP SWAP3 SWAP2 POP POP JUMP JUMPDEST PUSH32 0x5472616E73666572206661696C65640000000000000000000000000000000000 PUSH1 0x0 DUP3 ADD MSTORE POP JUMP JUMPDEST PUSH1 0x0 PUSH2 0x4348 PUSH1 0xF DUP4 PUSH2 0x3824 JUMP JUMPDEST SWAP2 POP PUSH2 0x4353 DUP3 PUSH2 0x4312 JUMP JUMPDEST PUSH1 0x20 DUP3 ADD SWAP1 POP SWAP2 SWAP1 POP JUMP JUMPDEST PUSH1 0x0 PUSH1 0x20 DUP3 ADD SWAP1 POP DUP2 DUP2 SUB PUSH1 0x0 DUP4 ADD MSTORE PUSH2 0x4377 DUP2 PUSH2 0x433B JUMP JUMPDEST SWAP1 POP SWAP2 SWAP1 POP JUMP JUMPDEST PUSH1 0x0 PUSH2 0x4389 DUP3 PUSH2 0x37A3 JUMP JUMPDEST SWAP2 POP PUSH2 0x4394 DUP4 PUSH2 0x37A3 JUMP JUMPDEST SWAP3 POP DUP3 DUP3 ADD SWAP1 POP DUP1 DUP3 GT ISZERO PUSH2 0x43AC JUMPI PUSH2 0x43AB PUSH2 0x41CA JUMP JUMPDEST JUMPDEST SWAP3 SWAP2 POP POP JUMP JUMPDEST PUSH32 0x546F6F2068696768000000000000000000000000000000000000000000000000 PUSH1 0x0 DUP3 ADD MSTORE POP JUMP JUMPDEST PUSH1 0x0 PUSH2 0x43E8 PUSH1 0x8 DUP4 PUSH2 0x3824 JUMP JUMPDEST SWAP2 POP PUSH2 0x43F3 DUP3 PUSH2 0x43B2 JUMP JUMPDEST PUSH1 0x20 DUP3 ADD SWAP1 POP SWAP2 SWAP1 POP JUMP JUMPDEST PUSH1 0x0 PUSH1 0x20 DUP3 ADD SWAP1 POP DUP2 DUP2 SUB PUSH1 0x0 DUP4 ADD MSTORE PUSH2 0x4417 DUP2 PUSH2 0x43DB JUMP JUMPDEST SWAP1 POP SWAP2 SWAP1 POP JUMP JUMPDEST PUSH1 0x0 PUSH1 0x40 DUP3 ADD SWAP1 POP PUSH2 0x4433 PUSH1 0x0 DUP4 ADD DUP6 PUSH2 0x3DF6 JUMP JUMPDEST PUSH2 0x4440 PUSH1 0x20 DUP4 ADD DUP5 PUSH2 0x39C0 JUMP JUMPDEST SWAP4 SWAP3 POP POP POP JUMP JUMPDEST PUSH32 0x4552433732313A2063616C6C6572206973206E6F7420746F6B656E206F776E65 PUSH1 0x0 DUP3 ADD MSTORE PUSH32 0x72206F7220617070726F76656400000000000000000000000000000000000000 PUSH1 0x20 DUP3 ADD MSTORE POP JUMP JUMPDEST PUSH1 0x0 PUSH2 0x44A3 PUSH1 0x2D DUP4 PUSH2 0x3824 JUMP JUMPDEST SWAP2 POP PUSH2 0x44AE DUP3 PUSH2 0x4447 JUMP JUMPDEST PUSH1 0x40 DUP3 ADD SWAP1 POP SWAP2 SWAP1 POP JUMP JUMPDEST PUSH1 0x0 PUSH1 0x20 DUP3 ADD SWAP1 POP DUP2 DUP2 SUB PUSH1 0x0 DUP4 ADD MSTORE PUSH2 0x44D2 DUP2 PUSH2 0x4496 JUMP JUMPDEST SWAP1 POP SWAP2 SWAP1 POP JUMP JUMPDEST PUSH1 0x0 PUSH2 0x44E4 DUP3 PUSH2 0x37A3 JUMP JUMPDEST SWAP2 POP PUSH2 0x44EF DUP4 PUSH2 0x37A3 JUMP JUMPDEST SWAP3 POP DUP3 DUP3 MUL PUSH2 0x44FD DUP2 PUSH2 0x37A3 JUMP JUMPDEST SWAP2 POP DUP3 DUP3 DIV DUP5 EQ DUP4 ISZERO OR PUSH2 0x4514 JUMPI PUSH2 0x4513 PUSH2 0x41CA JUMP JUMPDEST JUMPDEST POP SWAP3 SWAP2 POP POP JUMP JUMPDEST PUSH32 0x4E487B7100000000000000000000000000000000000000000000000000000000 PUSH1 0x0 MSTORE PUSH1 0x12 PUSH1 0x4 MSTORE PUSH1 0x24 PUSH1 0x0 REVERT JUMPDEST PUSH1 0x0 PUSH2 0x4555 DUP3 PUSH2 0x37A3 JUMP JUMPDEST SWAP2 POP PUSH2 0x4560 DUP4 PUSH2 0x37A3 JUMP JUMPDEST SWAP3 POP DUP3 PUSH2 0x4570 JUMPI PUSH2 0x456F PUSH2 0x451B JUMP JUMPDEST JUMPDEST DUP3 DUP3 DIV SWAP1 POP SWAP3 SWAP2 POP POP JUMP JUMPDEST PUSH32 0x5645525420746F6B656E206E6F74207365740000000000000000000000000000 PUSH1 0x0 DUP3 ADD MSTORE POP JUMP JUMPDEST PUSH1 0x0 PUSH2 0x45B1 PUSH1 0x12 DUP4 PUSH2 0x3824 JUMP JUMPDEST SWAP2 POP PUSH2 0x45BC DUP3 PUSH2 0x457B JUMP JUMPDEST PUSH1 0x20 DUP3 ADD SWAP1 POP SWAP2 SWAP1 POP JUMP JUMPDEST PUSH1 0x0 PUSH1 0x20 DUP3 ADD SWAP1 POP DUP2 DUP2 SUB PUSH1 0x0 DUP4 ADD MSTORE PUSH2 0x45E0 DUP2 PUSH2 0x45A4 JUMP JUMPDEST SWAP1 POP SWAP2 SWAP1 POP JUMP JUMPDEST PUSH32 0x56455254207061796D656E74206661696C656400000000000000000000000000 PUSH1 0x0 DUP3 ADD MSTORE POP JUMP JUMPDEST PUSH1 0x0 PUSH2 0x461D PUSH1 0x13 DUP4 PUSH2 0x3824 JUMP JUMPDEST SWAP2 POP PUSH2 0x4628 DUP3 PUSH2 0x45E7 JUMP JUMPDEST PUSH1 0x20 DUP3 ADD SWAP1 POP SWAP2 SWAP1 POP JUMP JUMPDEST PUSH1 0x0 PUSH1 0x20 DUP3 ADD SWAP1 POP DUP2 DUP2 SUB PUSH1 0x0 DUP4 ADD MSTORE PUSH2 0x464C DUP2 PUSH2 0x4610 JUMP JUMPDEST SWAP1 POP SWAP2 SWAP1 POP JUMP JUMPDEST PUSH32 0x5472656173757279207472616E73666572206661696C65640000000000000000 PUSH1 0x0 DUP3 ADD MSTORE POP JUMP JUMPDEST PUSH1 0x0 PUSH2 0x4689 PUSH1 0x18 DUP4 PUSH2 0x3824 JUMP JUMPDEST SWAP2 POP PUSH2 0x4694 DUP3 PUSH2 0x4653 JUMP JUMPDEST PUSH1 0x20 DUP3 ADD SWAP1 POP SWAP2 SWAP1 POP JUMP JUMPDEST PUSH1 0x0 PUSH1 0x20 DUP3 ADD SWAP1 POP DUP2 DUP2 SUB PUSH1 0x0 DUP4 ADD MSTORE PUSH2 0x46B8 DUP2 PUSH2 0x467C JUMP JUMPDEST SWAP1 POP SWAP2 SWAP1 POP JUMP JUMPDEST PUSH32 0x4552433732313A20696E76616C696420746F6B656E2049440000000000000000 PUSH1 0x0 DUP3 ADD MSTORE POP JUMP JUMPDEST PUSH1 0x0 PUSH2 0x46F5 PUSH1 0x18 DUP4 PUSH2 0x3824 JUMP JUMPDEST SWAP2 POP PUSH2 0x4700 DUP3 PUSH2 0x46BF JUMP JUMPDEST PUSH1 0x20 DUP3 ADD SWAP1 POP SWAP2 SWAP1 POP JUMP JUMPDEST PUSH1 0x0 PUSH1 0x20 DUP3 ADD SWAP1 POP DUP2 DUP2 SUB PUSH1 0x0 DUP4 ADD MSTORE PUSH2 0x4724 DUP2 PUSH2 0x46E8 JUMP JUMPDEST SWAP1 POP SWAP2 SWAP1 POP JUMP JUMPDEST PUSH32 0x4552433732313A2061646472657373207A65726F206973206E6F742061207661 PUSH1 0x0 DUP3 ADD MSTORE PUSH32 0x6C6964206F776E65720000000000000000000000000000000000000000000000 PUSH1 0x20 DUP3 ADD MSTORE POP JUMP JUMPDEST PUSH1 0x0 PUSH2 0x4787 PUSH1 0x29 DUP4 PUSH2 0x3824 JUMP JUMPDEST SWAP2 POP PUSH2 0x4792 DUP3 PUSH2 0x472B JUMP JUMPDEST PUSH1 0x40 DUP3 ADD SWAP1 POP SWAP2 SWAP1 POP JUMP JUMPDEST PUSH1 0x0 PUSH1 0x20 DUP3 ADD SWAP1 POP DUP2 DUP2 SUB PUSH1 0x0 DUP4 ADD MSTORE PUSH2 0x47B6 DUP2 PUSH2 0x477A JUMP JUMPDEST SWAP1 POP SWAP2 SWAP1 POP JUMP JUMPDEST PUSH32 0x496E73756666696369656E74207072697A6520706F6F6C000000000000000000 PUSH1 0x0 DUP3 ADD MSTORE POP JUMP JUMPDEST PUSH1 0x0 PUSH2 0x47F3 PUSH1 0x17 DUP4 PUSH2 0x3824 JUMP JUMPDEST SWAP2 POP PUSH2 0x47FE DUP3 PUSH2 0x47BD JUMP JUMPDEST PUSH1 0x20 DUP3 ADD SWAP1 POP SWAP2 SWAP1 POP JUMP JUMPDEST PUSH1 0x0 PUSH1 0x20 DUP3 ADD SWAP1 POP DUP2 DUP2 SUB PUSH1 0x0 DUP4 ADD MSTORE PUSH2 0x4822 DUP2 PUSH2 0x47E6 JUMP JUMPDEST SWAP1 POP SWAP2 SWAP1 POP JUMP JUMPDEST PUSH32 0x5072697A65207472616E73666572206661696C65640000000000000000000000 PUSH1 0x0 DUP3 ADD MSTORE POP JUMP JUMPDEST PUSH1 0x0 PUSH2 0x485F PUSH1 0x15 DUP4 PUSH2 0x3824 JUMP JUMPDEST SWAP2 POP PUSH2 0x486A DUP3 PUSH2 0x4829 JUMP JUMPDEST PUSH1 0x20 DUP3 ADD SWAP1 POP SWAP2 SWAP1 POP JUMP JUMPDEST PUSH1 0x0 PUSH1 0x20 DUP3 ADD SWAP1 POP DUP2 DUP2 SUB PUSH1 0x0 DUP4 ADD MSTORE PUSH2 0x488E DUP2 PUSH2 0x4852 JUMP JUMPDEST SWAP1 POP SWAP2 SWAP1 POP JUMP JUMPDEST PUSH32 0x5669727475616C20746F6B656E206E6F74207365740000000000000000000000 PUSH1 0x0 DUP3 ADD MSTORE POP JUMP JUMPDEST PUSH1 0x0 PUSH2 0x48CB PUSH1 0x15 DUP4 PUSH2 0x3824 JUMP JUMPDEST SWAP2 POP PUSH2 0x48D6 DUP3 PUSH2 0x4895 JUMP JUMPDEST PUSH1 0x20 DUP3 ADD SWAP1 POP SWAP2 SWAP1 POP JUMP JUMPDEST PUSH1 0x0 PUSH1 0x20 DUP3 ADD SWAP1 POP DUP2 DUP2 SUB PUSH1 0x0 DUP4 ADD MSTORE PUSH2 0x48FA DUP2 PUSH2 0x48BE JUMP JUMPDEST SWAP1 POP SWAP2 SWAP1 POP JUMP JUMPDEST PUSH32 0x5649525455414C207061796D656E74206661696C656400000000000000000000 PUSH1 0x0 DUP3 ADD MSTORE POP JUMP JUMPDEST PUSH1 0x0 PUSH2 0x4937 PUSH1 0x16 DUP4 PUSH2 0x3824 JUMP JUMPDEST SWAP2 POP PUSH2 0x4942 DUP3 PUSH2 0x4901 JUMP JUMPDEST PUSH1 0x20 DUP3 ADD SWAP1 POP SWAP2 SWAP1 POP JUMP JUMPDEST PUSH1 0x0 PUSH1 0x20 DUP3 ADD SWAP1 POP DUP2 DUP2 SUB PUSH1 0x0 DUP4 ADD MSTORE PUSH2 0x4966 DUP2 PUSH2 0x492A JUMP JUMPDEST SWAP1 POP SWAP2 SWAP1 POP JUMP JUMPDEST PUSH32 0x5669727475616C20746F6B656E2063616E6E6F74206265207A65726F20616464 PUSH1 0x0 DUP3 ADD MSTORE PUSH32 0x7265737300000000000000000000000000000000000000000000000000000000 PUSH1 0x20 DUP3 ADD MSTORE POP JUMP JUMPDEST PUSH1 0x0 PUSH2 0x49C9 PUSH1 0x24 DUP4 PUSH2 0x3824 JUMP JUMPDEST SWAP2 POP PUSH2 0x49D4 DUP3 PUSH2 0x496D JUMP JUMPDEST PUSH1 0x40 DUP3 ADD SWAP1 POP SWAP2 SWAP1 POP JUMP JUMPDEST PUSH1 0x0 PUSH1 0x20 DUP3 ADD SWAP1 POP DUP2 DUP2 SUB PUSH1 0x0 DUP4 ADD MSTORE PUSH2 0x49F8 DUP2 PUSH2 0x49BC JUMP JUMPDEST SWAP1 POP SWAP2 SWAP1 POP JUMP JUMPDEST PUSH32 0x43616E6E6F74206465706F736974207A65726F00000000000000000000000000 PUSH1 0x0 DUP3 ADD MSTORE POP JUMP JUMPDEST PUSH1 0x0 PUSH2 0x4A35 PUSH1 0x13 DUP4 PUSH2 0x3824 JUMP JUMPDEST SWAP2 POP PUSH2 0x4A40 DUP3 PUSH2 0x49FF JUMP JUMPDEST PUSH1 0x20 DUP3 ADD SWAP1 POP SWAP2 SWAP1 POP JUMP JUMPDEST PUSH1 0x0 PUSH1 0x20 DUP3 ADD SWAP1 POP DUP2 DUP2 SUB PUSH1 0x0 DUP4 ADD MSTORE PUSH2 0x4A64 DUP2 PUSH2 0x4A28 JUMP JUMPDEST SWAP1 POP SWAP2 SWAP1 POP JUMP JUMPDEST PUSH32 0x56455254207472616E73666572206661696C6564000000000000000000000000 PUSH1 0x0 DUP3 ADD MSTORE POP JUMP JUMPDEST PUSH1 0x0 PUSH2 0x4AA1 PUSH1 0x14 DUP4 PUSH2 0x3824 JUMP JUMPDEST SWAP2 POP PUSH2 0x4AAC DUP3 PUSH2 0x4A6B JUMP JUMPDEST PUSH1 0x20 DUP3 ADD SWAP1 POP SWAP2 SWAP1 POP JUMP JUMPDEST PUSH1 0x0 PUSH1 0x20 DUP3 ADD SWAP1 POP DUP2 DUP2 SUB PUSH1 0x0 DUP4 ADD MSTORE PUSH2 0x4AD0 DUP2 PUSH2 0x4A94 JUMP JUMPDEST SWAP1 POP SWAP2 SWAP1 POP JUMP JUMPDEST PUSH32 0x54726561737572792063616E6E6F74206265207A65726F206164647265737300 PUSH1 0x0 DUP3 ADD MSTORE POP JUMP JUMPDEST PUSH1 0x0 PUSH2 0x4B0D PUSH1 0x1F DUP4 PUSH2 0x3824 JUMP JUMPDEST SWAP2 POP PUSH2 0x4B18 DUP3 PUSH2 0x4AD7 JUMP JUMPDEST PUSH1 0x20 DUP3 ADD SWAP1 POP SWAP2 SWAP1 POP JUMP JUMPDEST PUSH1 0x0 PUSH1 0x20 DUP3 ADD SWAP1 POP DUP2 DUP2 SUB PUSH1 0x0 DUP4 ADD MSTORE PUSH2 0x4B3C DUP2 PUSH2 0x4B00 JUMP JUMPDEST SWAP1 POP SWAP2 SWAP1 POP JUMP JUMPDEST PUSH32 0x4F776E61626C653A206E6577206F776E657220697320746865207A65726F2061 PUSH1 0x0 DUP3 ADD MSTORE PUSH32 0x6464726573730000000000000000000000000000000000000000000000000000 PUSH1 0x20 DUP3 ADD MSTORE POP JUMP JUMPDEST PUSH1 0x0 PUSH2 0x4B9F PUSH1 0x26 DUP4 PUSH2 0x3824 JUMP JUMPDEST SWAP2 POP PUSH2 0x4BAA DUP3 PUSH2 0x4B43 JUMP JUMPDEST PUSH1 0x40 DUP3 ADD SWAP1 POP SWAP2 SWAP1 POP JUMP JUMPDEST PUSH1 0x0 PUSH1 0x20 DUP3 ADD SWAP1 POP DUP2 DUP2 SUB PUSH1 0x0 DUP4 ADD MSTORE PUSH2 0x4BCE DUP2 PUSH2 0x4B92 JUMP JUMPDEST SWAP1 POP SWAP2 SWAP1 POP JUMP JUMPDEST PUSH32 0x5645525420746F6B656E2063616E6E6F74206265207A65726F20616464726573 PUSH1 0x0 DUP3 ADD MSTORE PUSH32 0x7300000000000000000000000000000000000000000000000000000000000000 PUSH1 0x20 DUP3 ADD MSTORE POP JUMP JUMPDEST PUSH1 0x0 PUSH2 0x4C31 PUSH1 0x21 DUP4 PUSH2 0x3824 JUMP JUMPDEST SWAP2 POP PUSH2 0x4C3C DUP3 PUSH2 0x4BD5 JUMP JUMPDEST PUSH1 0x40 DUP3 ADD SWAP1 POP SWAP2 SWAP1 POP JUMP JUMPDEST PUSH1 0x0 PUSH1 0x20 DUP3 ADD SWAP1 POP DUP2 DUP2 SUB PUSH1 0x0 DUP4 ADD MSTORE PUSH2 0x4C60 DUP2 PUSH2 0x4C24 JUMP JUMPDEST SWAP1 POP SWAP2 SWAP1 POP JUMP JUMPDEST PUSH32 0x4F776E61626C653A2063616C6C6572206973206E6F7420746865206F776E6572 PUSH1 0x0 DUP3 ADD MSTORE POP JUMP JUMPDEST PUSH1 0x0 PUSH2 0x4C9D PUSH1 0x20 DUP4 PUSH2 0x3824 JUMP JUMPDEST SWAP2 POP PUSH2 0x4CA8 DUP3 PUSH2 0x4C67 JUMP JUMPDEST PUSH1 0x20 DUP3 ADD SWAP1 POP SWAP2 SWAP1 POP JUMP JUMPDEST PUSH1 0x0 PUSH1 0x20 DUP3 ADD SWAP1 POP DUP2 DUP2 SUB PUSH1 0x0 DUP4 ADD MSTORE PUSH2 0x4CCC DUP2 PUSH2 0x4C90 JUMP JUMPDEST SWAP1 POP SWAP2 SWAP1 POP JUMP JUMPDEST PUSH32 0x45524337323155524953746F726167653A2055524920736574206F66206E6F6E PUSH1 0x0 DUP3 ADD MSTORE PUSH32 0x6578697374656E7420746F6B656E000000000000000000000000000000000000 PUSH1 0x20 DUP3 ADD MSTORE POP JUMP JUMPDEST PUSH1 0x0 PUSH2 0x4D2F PUSH1 0x2E DUP4 PUSH2 0x3824 JUMP JUMPDEST SWAP2 POP PUSH2 0x4D3A DUP3 PUSH2 0x4CD3 JUMP JUMPDEST PUSH1 0x40 DUP3 ADD SWAP1 POP SWAP2 SWAP1 POP JUMP JUMPDEST PUSH1 0x0 PUSH1 0x20 DUP3 ADD SWAP1 POP DUP2 DUP2 SUB PUSH1 0x0 DUP4 ADD MSTORE PUSH2 0x4D5E DUP2 PUSH2 0x4D22 JUMP JUMPDEST SWAP1 POP SWAP2 SWAP1 POP JUMP JUMPDEST PUSH1 0x0 DUP2 SWAP1 POP DUP2 PUSH1 0x0 MSTORE PUSH1 0x20 PUSH1 0x0 KECCAK256 SWAP1 POP SWAP2 SWAP1 POP JUMP JUMPDEST PUSH1 0x0 PUSH1 0x20 PUSH1 0x1F DUP4 ADD DIV SWAP1 POP SWAP2 SWAP1 POP JUMP JUMPDEST PUSH1 0x0 DUP3 DUP3 SHL SWAP1 POP SWAP3 SWAP2 POP POP JUMP JUMPDEST PUSH1 0x0 PUSH1 0x8 DUP4 MUL PUSH2 0x4DC7 PUSH32 0xFFFFFFFFFFFFFFFFFFFFFFFFFFFFFFFFFFFFFFFFFFFFFFFFFFFFFFFFFFFFFFFF DUP3 PUSH2 0x4D8A JUMP JUMPDEST PUSH2 0x4DD1 DUP7 DUP4 PUSH2 0x4D8A JUMP JUMPDEST SWAP6 POP DUP1 NOT DUP5 AND SWAP4 POP DUP1 DUP7 AND DUP5 OR SWAP3 POP POP POP SWAP4 SWAP3 POP POP POP JUMP JUMPDEST PUSH1 0x0 PUSH2 0x4E04 PUSH2 0x4DFF PUSH2 0x4DFA DUP5 PUSH2 0x37A3 JUMP JUMPDEST PUSH2 0x3BE0 JUMP JUMPDEST PUSH2 0x37A3 JUMP JUMPDEST SWAP1 POP SWAP2 SWAP1 POP JUMP JUMPDEST PUSH1 0x0 DUP2 SWAP1 POP SWAP2 SWAP1 POP JUMP JUMPDEST PUSH2 0x4E1E DUP4 PUSH2 0x4DE9 JUMP JUMPDEST PUSH2 0x4E32 PUSH2 0x4E2A DUP3 PUSH2 0x4E0B JUMP JUMPDEST DUP5 DUP5 SLOAD PUSH2 0x4D97 JUMP JUMPDEST DUP3 SSTORE POP POP POP POP JUMP JUMPDEST PUSH1 0x0 SWAP1 JUMP JUMPDEST PUSH2 0x4E47 PUSH2 0x4E3A JUMP JUMPDEST PUSH2 0x4E52 DUP2 DUP5 DUP5 PUSH2 0x4E15 JUMP JUMPDEST POP POP POP JUMP JUMPDEST JUMPDEST DUP2 DUP2 LT ISZERO PUSH2 0x4E76 JUMPI PUSH2 0x4E6B PUSH1 0x0 DUP3 PUSH2 0x4E3F JUMP JUMPDEST PUSH1 0x1 DUP2 ADD SWAP1 POP PUSH2 0x4E58 JUMP JUMPDEST POP POP JUMP JUMPDEST PUSH1 0x1F DUP3 GT ISZERO PUSH2 0x4EBB JUMPI PUSH2 0x4E8C DUP2 PUSH2 0x4D65 JUMP JUMPDEST PUSH2 0x4E95 DUP5 PUSH2 0x4D7A JUMP JUMPDEST DUP2 ADD PUSH1 0x20 DUP6 LT ISZERO PUSH2 0x4EA4 JUMPI DUP2 SWAP1 POP JUMPDEST PUSH2 0x4EB8 PUSH2 0x4EB0 DUP6 PUSH2 0x4D7A JUMP JUMPDEST DUP4 ADD DUP3 PUSH2 0x4E57 JUMP JUMPDEST POP POP JUMPDEST POP POP POP JUMP JUMPDEST PUSH1 0x0 DUP3 DUP3 SHR SWAP1 POP SWAP3 SWAP2 POP POP JUMP JUMPDEST PUSH1 0x0 PUSH2 0x4EDE PUSH1 0x0 NOT DUP5 PUSH1 0x8 MUL PUSH2 0x4EC0 JUMP JUMPDEST NOT DUP1 DUP4 AND SWAP2 POP POP SWAP3 SWAP2 POP POP JUMP JUMPDEST PUSH1 0x0 PUSH2 0x4EF7 DUP4 DUP4 PUSH2 0x4ECD JUMP JUMPDEST SWAP2 POP DUP3 PUSH1 0x2 MUL DUP3 OR SWAP1 POP SWAP3 SWAP2 POP POP JUMP JUMPDEST PUSH2 0x4F10 DUP3 PUSH2 0x3819 JUMP JUMPDEST PUSH8 0xFFFFFFFFFFFFFFFF DUP2 GT ISZERO PUSH2 0x4F29 JUMPI PUSH2 0x4F28 PUSH2 0x39F4 JUMP JUMPDEST JUMPDEST PUSH2 0x4F33 DUP3 SLOAD PUSH2 0x4075 JUMP JUMPDEST PUSH2 0x4F3E DUP3 DUP3 DUP6 PUSH2 0x4E7A JUMP JUMPDEST PUSH1 0x0 PUSH1 0x20 SWAP1 POP PUSH1 0x1F DUP4 GT PUSH1 0x1 DUP2 EQ PUSH2 0x4F71 JUMPI PUSH1 0x0 DUP5 ISZERO PUSH2 0x4F5F JUMPI DUP3 DUP8 ADD MLOAD SWAP1 POP JUMPDEST PUSH2 0x4F69 DUP6 DUP3 PUSH2 0x4EEB JUMP JUMPDEST DUP7 SSTORE POP PUSH2 0x4FD1 JUMP JUMPDEST PUSH1 0x1F NOT DUP5 AND PUSH2 0x4F7F DUP7 PUSH2 0x4D65 JUMP JUMPDEST PUSH1 0x0 JUMPDEST DUP3 DUP2 LT ISZERO PUSH2 0x4FA7 JUMPI DUP5 DUP10 ADD MLOAD DUP3 SSTORE PUSH1 0x1 DUP3 ADD SWAP2 POP PUSH1 0x20 DUP6 ADD SWAP5 POP PUSH1 0x20 DUP2 ADD SWAP1 POP PUSH2 0x4F82 JUMP JUMPDEST DUP7 DUP4 LT ISZERO PUSH2 0x4FC4 JUMPI DUP5 DUP10 ADD MLOAD PUSH2 0x4FC0 PUSH1 0x1F DUP10 AND DUP3 PUSH2 0x4ECD JUMP JUMPDEST DUP4 SSTORE POP JUMPDEST PUSH1 0x1 PUSH1 0x2 DUP9 MUL ADD DUP9 SSTORE POP POP POP JUMPDEST POP POP POP POP POP POP JUMP JUMPDEST PUSH32 0x4552433732313A207472616E736665722066726F6D20696E636F727265637420 PUSH1 0x0 DUP3 ADD MSTORE PUSH32 0x6F776E6572000000000000000000000000000000000000000000000000000000 PUSH1 0x20 DUP3 ADD MSTORE POP JUMP JUMPDEST PUSH1 0x0 PUSH2 0x5035 PUSH1 0x25 DUP4 PUSH2 0x3824 JUMP JUMPDEST SWAP2 POP PUSH2 0x5040 DUP3 PUSH2 0x4FD9 JUMP JUMPDEST PUSH1 0x40 DUP3 ADD SWAP1 POP SWAP2 SWAP1 POP JUMP JUMPDEST PUSH1 0x0 PUSH1 0x20 DUP3 ADD SWAP1 POP DUP2 DUP2 SUB PUSH1 0x0 DUP4 ADD MSTORE PUSH2 0x5064 DUP2 PUSH2 0x5028 JUMP JUMPDEST SWAP1 POP SWAP2 SWAP1 POP JUMP JUMPDEST PUSH32 0x4552433732313A207472616E7366657220746F20746865207A65726F20616464 PUSH1 0x0 DUP3 ADD MSTORE PUSH32 0x7265737300000000000000000000000000000000000000000000000000000000 PUSH1 0x20 DUP3 ADD MSTORE POP JUMP JUMPDEST PUSH1 0x0 PUSH2 0x50C7 PUSH1 0x24 DUP4 PUSH2 0x3824 JUMP JUMPDEST SWAP2 POP PUSH2 0x50D2 DUP3 PUSH2 0x506B JUMP JUMPDEST PUSH1 0x40 DUP3 ADD SWAP1 POP SWAP2 SWAP1 POP JUMP JUMPDEST PUSH1 0x0 PUSH1 0x20 DUP3 ADD SWAP1 POP DUP2 DUP2 SUB PUSH1 0x0 DUP4 ADD MSTORE PUSH2 0x50F6 DUP2 PUSH2 0x50BA JUMP JUMPDEST SWAP1 POP SWAP2 SWAP1 POP JUMP JUMPDEST PUSH32 0x5061757361626C653A2070617573656400000000000000000000000000000000 PUSH1 0x0 DUP3 ADD MSTORE POP JUMP JUMPDEST PUSH1 0x0 PUSH2 0x5133 PUSH1 0x10 DUP4 PUSH2 0x3824 JUMP JUMPDEST SWAP2 POP PUSH2 0x513E DUP3 PUSH2 0x50FD JUMP JUMPDEST PUSH1 0x20 DUP3 ADD SWAP1 POP SWAP2 SWAP1 POP JUMP JUMPDEST PUSH1 0x0 PUSH1 0x20 DUP3 ADD SWAP1 POP DUP2 DUP2 SUB PUSH1 0x0 DUP4 ADD MSTORE PUSH2 0x5162 DUP2 PUSH2 0x5126 JUMP JUMPDEST SWAP1 POP SWAP2 SWAP1 POP JUMP JUMPDEST PUSH32 0x5265656E7472616E637947756172643A207265656E7472616E742063616C6C00 PUSH1 0x0 DUP3 ADD MSTORE POP JUMP JUMPDEST PUSH1 0x0 PUSH2 0x519F PUSH1 0x1F DUP4 PUSH2 0x3824 JUMP JUMPDEST SWAP2 POP PUSH2 0x51AA DUP3 PUSH2 0x5169 JUMP JUMPDEST PUSH1 0x20 DUP3 ADD SWAP1 POP SWAP2 SWAP1 POP JUMP JUMPDEST PUSH1 0x0 PUSH1 0x20 DUP3 ADD SWAP1 POP DUP2 DUP2 SUB PUSH1 0x0 DUP4 ADD MSTORE PUSH2 0x51CE DUP2 PUSH2 0x5192 JUMP JUMPDEST SWAP1 POP SWAP2 SWAP1 POP JUMP JUMPDEST PUSH32 0x5072697A65207061796F7574206661696C656400000000000000000000000000 PUSH1 0x0 DUP3 ADD MSTORE POP JUMP JUMPDEST PUSH1 0x0 PUSH2 0x520B PUSH1 0x13 DUP4 PUSH2 0x3824 JUMP JUMPDEST SWAP2 POP PUSH2 0x5216 DUP3 PUSH2 0x51D5 JUMP JUMPDEST PUSH1 0x20 DUP3 ADD SWAP1 POP SWAP2 SWAP1 POP JUMP JUMPDEST PUSH1 0x0 PUSH1 0x20 DUP3 ADD SWAP1 POP DUP2 DUP2 SUB PUSH1 0x0 DUP4 ADD MSTORE PUSH2 0x523A DUP2 PUSH2 0x51FE JUMP JUMPDEST SWAP1 POP SWAP2 SWAP1 POP JUMP JUMPDEST PUSH32 0x547265617375727920637574206661696C656400000000000000000000000000 PUSH1 0x0 DUP3 ADD MSTORE POP JUMP JUMPDEST PUSH1 0x0 PUSH2 0x5277 PUSH1 0x13 DUP4 PUSH2 0x3824 JUMP JUMPDEST SWAP2 POP PUSH2 0x5282 DUP3 PUSH2 0x5241 JUMP JUMPDEST PUSH1 0x20 DUP3 ADD SWAP1 POP SWAP2 SWAP1 POP JUMP JUMPDEST PUSH1 0x0 PUSH1 0x20 DUP3 ADD SWAP1 POP DUP2 DUP2 SUB PUSH1 0x0 DUP4 ADD MSTORE PUSH2 0x52A6 DUP2 PUSH2 0x526A JUMP JUMPDEST SWAP1 POP SWAP2 SWAP1 POP JUMP JUMPDEST PUSH1 0x0 PUSH1 0x60 DUP3 ADD SWAP1 POP PUSH2 0x52C2 PUSH1 0x0 DUP4 ADD DUP7 PUSH2 0x39C0 JUMP JUMPDEST PUSH2 0x52CF PUSH1 0x20 DUP4 ADD DUP6 PUSH2 0x3DF6 JUMP JUMPDEST DUP2 DUP2 SUB PUSH1 0x40 DUP4 ADD MSTORE PUSH2 0x52E1 DUP2 DUP5 PUSH2 0x3870 JUMP JUMPDEST SWAP1 POP SWAP5 SWAP4 POP POP POP POP JUMP JUMPDEST PUSH32 0x4552433732313A20617070726F766520746F2063616C6C657200000000000000 PUSH1 0x0 DUP3 ADD MSTORE POP JUMP JUMPDEST PUSH1 0x0 PUSH2 0x5321 PUSH1 0x19 DUP4 PUSH2 0x3824 JUMP JUMPDEST SWAP2 POP PUSH2 0x532C DUP3 PUSH2 0x52EB JUMP JUMPDEST PUSH1 0x20 DUP3 ADD SWAP1 POP SWAP2 SWAP1 POP JUMP JUMPDEST PUSH1 0x0 PUSH1 0x20 DUP3 ADD SWAP1 POP DUP2 DUP2 SUB PUSH1 0x0 DUP4 ADD MSTORE PUSH2 0x5350 DUP2 PUSH2 0x5314 JUMP JUMPDEST SWAP1 POP SWAP2 SWAP1 POP JUMP JUMPDEST PUSH32 0x4552433732313A207472616E7366657220746F206E6F6E204552433732315265 PUSH1 0x0 DUP3 ADD MSTORE PUSH32 0x63656976657220696D706C656D656E7465720000000000000000000000000000 PUSH1 0x20 DUP3 ADD MSTORE POP JUMP JUMPDEST PUSH1 0x0 PUSH2 0x53B3 PUSH1 0x32 DUP4 PUSH2 0x3824 JUMP JUMPDEST SWAP2 POP PUSH2 0x53BE DUP3 PUSH2 0x5357 JUMP JUMPDEST PUSH1 0x40 DUP3 ADD SWAP1 POP SWAP2 SWAP1 POP JUMP JUMPDEST PUSH1 0x0 PUSH1 0x20 DUP3 ADD SWAP1 POP DUP2 DUP2 SUB PUSH1 0x0 DUP4 ADD MSTORE PUSH2 0x53E2 DUP2 PUSH2 0x53A6 JUMP JUMPDEST SWAP1 POP SWAP2 SWAP1 POP JUMP JUMPDEST PUSH1 0x0 DUP2 SWAP1 POP SWAP3 SWAP2 POP POP JUMP JUMPDEST PUSH1 0x0 PUSH2 0x53FF DUP3 PUSH2 0x3819 JUMP JUMPDEST PUSH2 0x5409 DUP2 DUP6 PUSH2 0x53E9 JUMP JUMPDEST SWAP4 POP PUSH2 0x5419 DUP2 DUP6 PUSH1 0x20 DUP7 ADD PUSH2 0x3835 JUMP JUMPDEST DUP1 DUP5 ADD SWAP2 POP POP SWAP3 SWAP2 POP POP JUMP JUMPDEST PUSH1 0x0 PUSH2 0x5431 DUP3 DUP6 PUSH2 0x53F4 JUMP JUMPDEST SWAP2 POP PUSH2 0x543D DUP3 DUP5 PUSH2 0x53F4 JUMP JUMPDEST SWAP2 POP DUP2 SWAP1 POP SWAP4 SWAP3 POP POP POP JUMP JUMPDEST PUSH32 0x5061757361626C653A206E6F7420706175736564000000000000000000000000 PUSH1 0x0 DUP3 ADD MSTORE POP JUMP JUMPDEST PUSH1 0x0 PUSH2 0x547F PUSH1 0x14 DUP4 PUSH2 0x3824 JUMP JUMPDEST SWAP2 POP PUSH2 0x548A DUP3 PUSH2 0x5449 JUMP JUMPDEST PUSH1 0x20 DUP3 ADD SWAP1 POP SWAP2 SWAP1 POP JUMP JUMPDEST PUSH1 0x0 PUSH1 0x20 DUP3 ADD SWAP1 POP DUP2 DUP2 SUB PUSH1 0x0 DUP4 ADD MSTORE PUSH2 0x54AE DUP2 PUSH2 0x5472 JUMP JUMPDEST SWAP1 POP SWAP2 SWAP1 POP JUMP JUMPDEST PUSH1 0x0 DUP2 SWAP1 POP SWAP2 SWAP1 POP JUMP JUMPDEST PUSH1 0x0 DUP2 SWAP1 POP SWAP2 SWAP1 POP JUMP JUMPDEST PUSH2 0x54DA PUSH2 0x54D5 DUP3 PUSH2 0x54B5 JUMP JUMPDEST PUSH2 0x54BF JUMP JUMPDEST DUP3 MSTORE POP POP JUMP JUMPDEST PUSH1 0x0 DUP2 SWAP1 POP SWAP2 SWAP1 POP JUMP JUMPDEST PUSH2 0x54FB PUSH2 0x54F6 DUP3 PUSH2 0x37A3 JUMP JUMPDEST PUSH2 0x54E0 JUMP JUMPDEST DUP3 MSTORE POP POP JUMP JUMPDEST PUSH1 0x0 PUSH2 0x550D DUP3 DUP6 PUSH2 0x54C9 JUMP JUMPDEST PUSH1 0x20 DUP3 ADD SWAP2 POP PUSH2 0x551D DUP3 DUP5 PUSH2 0x54EA JUMP JUMPDEST PUSH1 0x20 DUP3 ADD SWAP2 POP DUP2 SWAP1 POP SWAP4 SWAP3 POP POP POP JUMP JUMPDEST PUSH1 0x0 PUSH2 0x5538 DUP3 PUSH2 0x37A3 JUMP JUMPDEST SWAP2 POP PUSH2 0x5543 DUP4 PUSH2 0x37A3 JUMP JUMPDEST SWAP3 POP DUP3 PUSH2 0x5553 JUMPI PUSH2 0x5552 PUSH2 0x451B JUMP JUMPDEST JUMPDEST DUP3 DUP3 MOD SWAP1 POP SWAP3 SWAP2 POP POP JUMP JUMPDEST PUSH1 0x0 DUP2 MLOAD SWAP1 POP SWAP2 SWAP1 POP JUMP JUMPDEST PUSH1 0x0 DUP3 DUP3 MSTORE PUSH1 0x20 DUP3 ADD SWAP1 POP SWAP3 SWAP2 POP POP JUMP JUMPDEST PUSH1 0x0 PUSH2 0x5585 DUP3 PUSH2 0x555E JUMP JUMPDEST PUSH2 0x558F DUP2 DUP6 PUSH2 0x5569 JUMP JUMPDEST SWAP4 POP PUSH2 0x559F DUP2 DUP6 PUSH1 0x20 DUP7 ADD PUSH2 0x3835 JUMP JUMPDEST PUSH2 0x55A8 DUP2 PUSH2 0x385F JUMP JUMPDEST DUP5 ADD SWAP2 POP POP SWAP3 SWAP2 POP POP JUMP JUMPDEST PUSH1 0x0 PUSH1 0x80 DUP3 ADD SWAP1 POP PUSH2 0x55C8 PUSH1 0x0 DUP4 ADD DUP8 PUSH2 0x392A JUMP JUMPDEST PUSH2 0x55D5 PUSH1 0x20 DUP4 ADD DUP7 PUSH2 0x392A JUMP JUMPDEST PUSH2 0x55E2 PUSH1 0x40 DUP4 ADD DUP6 PUSH2 0x39C0 JUMP JUMPDEST DUP2 DUP2 SUB PUSH1 0x60 DUP4 ADD MSTORE PUSH2 0x55F4 DUP2 DUP5 PUSH2 0x557A JUMP JUMPDEST SWAP1 POP SWAP6 SWAP5 POP POP POP POP POP JUMP JUMPDEST PUSH1 0x0 DUP2 MLOAD SWAP1 POP PUSH2 0x560E DUP2 PUSH2 0x3714 JUMP JUMPDEST SWAP3 SWAP2 POP POP JUMP JUMPDEST PUSH1 0x0 PUSH1 0x20 DUP3 DUP5 SUB SLT ISZERO PUSH2 0x562A JUMPI PUSH2 0x5629 PUSH2 0x36DE JUMP JUMPDEST JUMPDEST PUSH1 0x0 PUSH2 0x5638 DUP5 DUP3 DUP6 ADD PUSH2 0x55FF JUMP JUMPDEST SWAP2 POP POP SWAP3 SWAP2 POP POP JUMP JUMPDEST PUSH32 0x4552433732313A206D696E7420746F20746865207A65726F2061646472657373 PUSH1 0x0 DUP3 ADD MSTORE POP JUMP JUMPDEST PUSH1 0x0 PUSH2 0x5677 PUSH1 0x20 DUP4 PUSH2 0x3824 JUMP JUMPDEST SWAP2 POP PUSH2 0x5682 DUP3 PUSH2 0x5641 JUMP JUMPDEST PUSH1 0x20 DUP3 ADD SWAP1 POP SWAP2 SWAP1 POP JUMP JUMPDEST PUSH1 0x0 PUSH1 0x20 DUP3 ADD SWAP1 POP DUP2 DUP2 SUB PUSH1 0x0 DUP4 ADD MSTORE PUSH2 0x56A6 DUP2 PUSH2 0x566A JUMP JUMPDEST SWAP1 POP SWAP2 SWAP1 POP JUMP JUMPDEST PUSH32 0x4552433732313A20746F6B656E20616C7265616479206D696E74656400000000 PUSH1 0x0 DUP3 ADD MSTORE POP JUMP JUMPDEST PUSH1 0x0 PUSH2 0x56E3 PUSH1 0x1C DUP4 PUSH2 0x3824 JUMP JUMPDEST SWAP2 POP PUSH2 0x56EE DUP3 PUSH2 0x56AD JUMP JUMPDEST PUSH1 0x20 DUP3 ADD SWAP1 POP SWAP2 SWAP1 POP JUMP JUMPDEST PUSH1 0x0 PUSH1 0x20 DUP3 ADD SWAP1 POP DUP2 DUP2 SUB PUSH1 0x0 DUP4 ADD MSTORE PUSH2 0x5712 DUP2 PUSH2 0x56D6 JUMP JUMPDEST SWAP1 POP SWAP2 SWAP1 POP JUMP INVALID LOG2 PUSH5 0x6970667358 0x22 SLT KECCAK256 ISZERO SWAP10 0xEA NOT LOG4 JUMPI 0x28 0xEE JUMPI MUL DUP4 0xAF 0xC2 PUSH4 0x9B705750 PUSH27 0xB67C0652F604669593433D0F0364736F6C634300081C0033000000 "},"methodIdentifiers":{"ROYALTY_FEE_BPS()":"436be372","addToPrizePool(uint256)":"186ba253","approve(address,uint256)":"095ea7b3","balanceOf(address)":"70a08231","claimPrize(address,uint256)":"ace79f4f","depositToPrizePool(uint256)":"ed15677c","getApproved(uint256)":"081812fc","getPrizePoolBalance()":"f24f069d","getTokenRarity(uint256)":"555ec78b","getTotalMinted()":"0ca1c5c9","isApprovedForAll(address,address)":"e985e9c5","mintWithVert(string)":"44884348","mintWithVirtual(string)":"b2da2715","name()":"06fdde03","nextTokenId()":"75794a3c","owner()":"8da5cb5b","ownerOf(uint256)":"6352211e","pause()":"8456cb59","paused()":"5c975abb","priceVert()":"b8fa4366","priceVirtual()":"689a0bd6","prizePercentByRarity(uint8)":"44ee8b3d","prizePool()":"719ce73e","renounceOwnership()":"715018a6","royaltyInfo(uint256,uint256)":"2a55205a","safeTransferFrom(address,address,uint256)":"42842e0e","safeTransferFrom(address,address,uint256,bytes)":"b88d4fde","setApprovalForAll(address,bool)":"a22cb465","setPrices(uint256,uint256)":"05fefda7","setPrizePercent(uint8,uint256)":"194a5fc9","setTokenURI(uint256,string)":"162094c4","setTreasury(address)":"f0f44260","setVertToken(address)":"f42bdd0e","setVirtualToken(address)":"d7149aab","supportsInterface(bytes4)":"01ffc9a7","symbol()":"95d89b41","tokenRarity(uint256)":"afb0a369","tokenURI(uint256)":"c87b56dd","transferFrom(address,address,uint256)":"23b872dd","transferOwnership(address)":"f2fde38b","treasury()":"61d027b3","unpause()":"3f4ba83a","vertToken()":"480628ae","virtualToken()":"1f514c52"}}}}}