{
  "_format": "hh-sol-artifact-1",
  "contractName": "VerticalProjectNFT_WithManualSync",
  "sourceName": "contracts/VerticalProjectNFT_WithManualSync(old).sol",
  "abi": [
    {
      "inputs": [
        {
          "internalType": "address",
          "name": "_virtualToken",
          "type": "address"
        },
        {
          "internalType": "address",
          "name": "_vertToken",
          "type": "address"
        },
        {
          "internalType": "address",
          "name": "_treasury",
          "type": "address"
        }
      ],
      "stateMutability": "nonpayable",
      "type": "constructor"
    },
    {
      "anonymous": false,
      "inputs": [
        {
          "indexed": true,
          "internalType": "address",
          "name": "owner",
          "type": "address"
        },
        {
          "indexed": true,
          "internalType": "address",
          "name": "approved",
          "type": "address"
        },
        {
          "indexed": true,
          "internalType": "uint256",
          "name": "tokenId",
          "type": "uint256"
        }
      ],
      "name": "Approval",
      "type": "event"
    },
    {
      "anonymous": false,
      "inputs": [
        {
          "indexed": true,
          "internalType": "address",
          "name": "owner",
          "type": "address"
        },
        {
          "indexed": true,
          "internalType": "address",
          "name": "operator",
          "type": "address"
        },
        {
          "indexed": false,
          "internalType": "bool",
          "name": "approved",
          "type": "bool"
        }
      ],
      "name": "ApprovalForAll",
      "type": "event"
    },
    {
      "anonymous": false,
      "inputs": [
        {
          "indexed": false,
          "internalType": "uint256",
          "name": "_fromTokenId",
          "type": "uint256"
        },
        {
          "indexed": false,
          "internalType": "uint256",
          "name": "_toTokenId",
          "type": "uint256"
        }
      ],
      "name": "BatchMetadataUpdate",
      "type": "event"
    },
    {
      "anonymous": false,
      "inputs": [
        {
          "indexed": false,
          "internalType": "uint256",
          "name": "_tokenId",
          "type": "uint256"
        }
      ],
      "name": "MetadataUpdate",
      "type": "event"
    },
    {
      "anonymous": false,
      "inputs": [
        {
          "indexed": true,
          "internalType": "address",
          "name": "user",
          "type": "address"
        },
        {
          "indexed": false,
          "internalType": "uint256",
          "name": "tokenId",
          "type": "uint256"
        },
        {
          "indexed": false,
          "internalType": "enum VerticalProjectNFT_WithManualSync.Rarity",
          "name": "rarity",
          "type": "uint8"
        },
        {
          "indexed": false,
          "internalType": "string",
          "name": "uri",
          "type": "string"
        }
      ],
      "name": "NFTMinted",
      "type": "event"
    },
    {
      "anonymous": false,
      "inputs": [
        {
          "indexed": true,
          "internalType": "address",
          "name": "previousOwner",
          "type": "address"
        },
        {
          "indexed": true,
          "internalType": "address",
          "name": "newOwner",
          "type": "address"
        }
      ],
      "name": "OwnershipTransferred",
      "type": "event"
    },
    {
      "anonymous": false,
      "inputs": [
        {
          "indexed": false,
          "internalType": "address",
          "name": "account",
          "type": "address"
        }
      ],
      "name": "Paused",
      "type": "event"
    },
    {
      "anonymous": false,
      "inputs": [
        {
          "indexed": false,
          "internalType": "uint256",
          "name": "newVirtualPrice",
          "type": "uint256"
        },
        {
          "indexed": false,
          "internalType": "uint256",
          "name": "newVertPrice",
          "type": "uint256"
        }
      ],
      "name": "PriceUpdated",
      "type": "event"
    },
    {
      "anonymous": false,
      "inputs": [
        {
          "indexed": false,
          "internalType": "uint256",
          "name": "newVirtualPrice",
          "type": "uint256"
        },
        {
          "indexed": false,
          "internalType": "uint256",
          "name": "newVertPrice",
          "type": "uint256"
        }
      ],
      "name": "PricesUpdated",
      "type": "event"
    },
    {
      "anonymous": false,
      "inputs": [
        {
          "indexed": true,
          "internalType": "address",
          "name": "user",
          "type": "address"
        },
        {
          "indexed": false,
          "internalType": "uint256",
          "name": "tokenId",
          "type": "uint256"
        },
        {
          "indexed": false,
          "internalType": "enum VerticalProjectNFT_WithManualSync.Rarity",
          "name": "rarity",
          "type": "uint8"
        },
        {
          "indexed": false,
          "internalType": "uint256",
          "name": "amount",
          "type": "uint256"
        }
      ],
      "name": "PrizeClaimed",
      "type": "event"
    },
    {
      "anonymous": false,
      "inputs": [
        {
          "indexed": false,
          "internalType": "enum VerticalProjectNFT_WithManualSync.Rarity",
          "name": "rarity",
          "type": "uint8"
        },
        {
          "indexed": false,
          "internalType": "uint256",
          "name": "percent",
          "type": "uint256"
        }
      ],
      "name": "PrizePercentUpdated",
      "type": "event"
    },
    {
      "anonymous": false,
      "inputs": [
        {
          "indexed": true,
          "internalType": "address",
          "name": "funder",
          "type": "address"
        },
        {
          "indexed": false,
          "internalType": "uint256",
          "name": "amount",
          "type": "uint256"
        }
      ],
      "name": "PrizePoolFunded",
      "type": "event"
    },
    {
      "anonymous": false,
      "inputs": [
        {
          "indexed": false,
          "internalType": "uint256",
          "name": "unaccountedAmount",
          "type": "uint256"
        },
        {
          "indexed": false,
          "internalType": "uint256",
          "name": "newPrizePool",
          "type": "uint256"
        }
      ],
      "name": "PrizePoolSynced",
      "type": "event"
    },
    {
      "anonymous": false,
      "inputs": [
        {
          "indexed": false,
          "internalType": "uint256",
          "name": "newBalance",
          "type": "uint256"
        }
      ],
      "name": "PrizePoolUpdated",
      "type": "event"
    },
    {
      "anonymous": false,
      "inputs": [
        {
          "indexed": true,
          "internalType": "address",
          "name": "from",
          "type": "address"
        },
        {
          "indexed": true,
          "internalType": "address",
          "name": "to",
          "type": "address"
        },
        {
          "indexed": true,
          "internalType": "uint256",
          "name": "tokenId",
          "type": "uint256"
        }
      ],
      "name": "Transfer",
      "type": "event"
    },
    {
      "anonymous": false,
      "inputs": [
        {
          "indexed": false,
          "internalType": "address",
          "name": "newTreasury",
          "type": "address"
        }
      ],
      "name": "TreasuryUpdated",
      "type": "event"
    },
    {
      "anonymous": false,
      "inputs": [
        {
          "indexed": false,
          "internalType": "address",
          "name": "account",
          "type": "address"
        }
      ],
      "name": "Unpaused",
      "type": "event"
    },
    {
      "anonymous": false,
      "inputs": [
        {
          "indexed": false,
          "internalType": "address",
          "name": "newVertToken",
          "type": "address"
        }
      ],
      "name": "VertTokenUpdated",
      "type": "event"
    },
    {
      "anonymous": false,
      "inputs": [
        {
          "indexed": false,
          "internalType": "address",
          "name": "newVirtualToken",
          "type": "address"
        }
      ],
      "name": "VirtualTokenUpdated",
      "type": "event"
    },
    {
      "inputs": [
        {
          "internalType": "uint256",
          "name": "amount",
          "type": "uint256"
        }
      ],
      "name": "addToPrizePool",
      "outputs": [],
      "stateMutability": "nonpayable",
      "type": "function"
    },
    {
      "inputs": [
        {
          "internalType": "address",
          "name": "to",
          "type": "address"
        },
        {
          "internalType": "uint256",
          "name": "tokenId",
          "type": "uint256"
        }
      ],
      "name": "approve",
      "outputs": [],
      "stateMutability": "nonpayable",
      "type": "function"
    },
    {
      "inputs": [
        {
          "internalType": "address",
          "name": "owner",
          "type": "address"
        }
      ],
      "name": "balanceOf",
      "outputs": [
        {
          "internalType": "uint256",
          "name": "",
          "type": "uint256"
        }
      ],
      "stateMutability": "view",
      "type": "function"
    },
    {
      "inputs": [
        {
          "internalType": "uint256",
          "name": "tokenId",
          "type": "uint256"
        }
      ],
      "name": "claimPrize",
      "outputs": [],
      "stateMutability": "nonpayable",
      "type": "function"
    },
    {
      "inputs": [
        {
          "internalType": "uint256",
          "name": "amount",
          "type": "uint256"
        }
      ],
      "name": "depositToPrizePool",
      "outputs": [],
      "stateMutability": "nonpayable",
      "type": "function"
    },
    {
      "inputs": [
        {
          "internalType": "uint256",
          "name": "tokenId",
          "type": "uint256"
        }
      ],
      "name": "getApproved",
      "outputs": [
        {
          "internalType": "address",
          "name": "",
          "type": "address"
        }
      ],
      "stateMutability": "view",
      "type": "function"
    },
    {
      "inputs": [],
      "name": "getPrizePoolBalance",
      "outputs": [
        {
          "internalType": "uint256",
          "name": "",
          "type": "uint256"
        }
      ],
      "stateMutability": "view",
      "type": "function"
    },
    {
      "inputs": [
        {
          "internalType": "uint256",
          "name": "tokenId",
          "type": "uint256"
        }
      ],
      "name": "getTokenRarity",
      "outputs": [
        {
          "internalType": "enum VerticalProjectNFT_WithManualSync.Rarity",
          "name": "",
          "type": "uint8"
        }
      ],
      "stateMutability": "view",
      "type": "function"
    },
    {
      "inputs": [],
      "name": "getTotalMinted",
      "outputs": [
        {
          "internalType": "uint256",
          "name": "",
          "type": "uint256"
        }
      ],
      "stateMutability": "view",
      "type": "function"
    },
    {
      "inputs": [],
      "name": "getUnaccountedBalance",
      "outputs": [
        {
          "internalType": "uint256",
          "name": "",
          "type": "uint256"
        }
      ],
      "stateMutability": "view",
      "type": "function"
    },
    {
      "inputs": [
        {
          "internalType": "address",
          "name": "owner",
          "type": "address"
        },
        {
          "internalType": "address",
          "name": "operator",
          "type": "address"
        }
      ],
      "name": "isApprovedForAll",
      "outputs": [
        {
          "internalType": "bool",
          "name": "",
          "type": "bool"
        }
      ],
      "stateMutability": "view",
      "type": "function"
    },
    {
      "inputs": [
        {
          "internalType": "string",
          "name": "_tokenURI",
          "type": "string"
        }
      ],
      "name": "mintWithVert",
      "outputs": [],
      "stateMutability": "nonpayable",
      "type": "function"
    },
    {
      "inputs": [
        {
          "internalType": "string",
          "name": "_tokenURI",
          "type": "string"
        }
      ],
      "name": "mintWithVirtual",
      "outputs": [],
      "stateMutability": "nonpayable",
      "type": "function"
    },
    {
      "inputs": [],
      "name": "name",
      "outputs": [
        {
          "internalType": "string",
          "name": "",
          "type": "string"
        }
      ],
      "stateMutability": "view",
      "type": "function"
    },
    {
      "inputs": [],
      "name": "nextTokenId",
      "outputs": [
        {
          "internalType": "uint256",
          "name": "",
          "type": "uint256"
        }
      ],
      "stateMutability": "view",
      "type": "function"
    },
    {
      "inputs": [],
      "name": "owner",
      "outputs": [
        {
          "internalType": "address",
          "name": "",
          "type": "address"
        }
      ],
      "stateMutability": "view",
      "type": "function"
    },
    {
      "inputs": [
        {
          "internalType": "uint256",
          "name": "tokenId",
          "type": "uint256"
        }
      ],
      "name": "ownerOf",
      "outputs": [
        {
          "internalType": "address",
          "name": "",
          "type": "address"
        }
      ],
      "stateMutability": "view",
      "type": "function"
    },
    {
      "inputs": [],
      "name": "pause",
      "outputs": [],
      "stateMutability": "nonpayable",
      "type": "function"
    },
    {
      "inputs": [],
      "name": "paused",
      "outputs": [
        {
          "internalType": "bool",
          "name": "",
          "type": "bool"
        }
      ],
      "stateMutability": "view",
      "type": "function"
    },
    {
      "inputs": [],
      "name": "priceVert",
      "outputs": [
        {
          "internalType": "uint256",
          "name": "",
          "type": "uint256"
        }
      ],
      "stateMutability": "view",
      "type": "function"
    },
    {
      "inputs": [],
      "name": "priceVirtual",
      "outputs": [
        {
          "internalType": "uint256",
          "name": "",
          "type": "uint256"
        }
      ],
      "stateMutability": "view",
      "type": "function"
    },
    {
      "inputs": [
        {
          "internalType": "enum VerticalProjectNFT_WithManualSync.Rarity",
          "name": "",
          "type": "uint8"
        }
      ],
      "name": "prizePercentByRarity",
      "outputs": [
        {
          "internalType": "uint256",
          "name": "",
          "type": "uint256"
        }
      ],
      "stateMutability": "view",
      "type": "function"
    },
    {
      "inputs": [],
      "name": "prizePool",
      "outputs": [
        {
          "internalType": "uint256",
          "name": "",
          "type": "uint256"
        }
      ],
      "stateMutability": "view",
      "type": "function"
    },
    {
      "inputs": [],
      "name": "renounceOwnership",
      "outputs": [],
      "stateMutability": "nonpayable",
      "type": "function"
    },
    {
      "inputs": [
        {
          "internalType": "uint256",
          "name": "",
          "type": "uint256"
        },
        {
          "internalType": "uint256",
          "name": "salePrice",
          "type": "uint256"
        }
      ],
      "name": "royaltyInfo",
      "outputs": [
        {
          "internalType": "address",
          "name": "",
          "type": "address"
        },
        {
          "internalType": "uint256",
          "name": "",
          "type": "uint256"
        }
      ],
      "stateMutability": "view",
      "type": "function"
    },
    {
      "inputs": [
        {
          "internalType": "address",
          "name": "from",
          "type": "address"
        },
        {
          "internalType": "address",
          "name": "to",
          "type": "address"
        },
        {
          "internalType": "uint256",
          "name": "tokenId",
          "type": "uint256"
        }
      ],
      "name": "safeTransferFrom",
      "outputs": [],
      "stateMutability": "nonpayable",
      "type": "function"
    },
    {
      "inputs": [
        {
          "internalType": "address",
          "name": "from",
          "type": "address"
        },
        {
          "internalType": "address",
          "name": "to",
          "type": "address"
        },
        {
          "internalType": "uint256",
          "name": "tokenId",
          "type": "uint256"
        },
        {
          "internalType": "bytes",
          "name": "data",
          "type": "bytes"
        }
      ],
      "name": "safeTransferFrom",
      "outputs": [],
      "stateMutability": "nonpayable",
      "type": "function"
    },
    {
      "inputs": [
        {
          "internalType": "address",
          "name": "operator",
          "type": "address"
        },
        {
          "internalType": "bool",
          "name": "approved",
          "type": "bool"
        }
      ],
      "name": "setApprovalForAll",
      "outputs": [],
      "stateMutability": "nonpayable",
      "type": "function"
    },
    {
      "inputs": [
        {
          "internalType": "uint256",
          "name": "newPrice",
          "type": "uint256"
        }
      ],
      "name": "setPriceVert",
      "outputs": [],
      "stateMutability": "nonpayable",
      "type": "function"
    },
    {
      "inputs": [
        {
          "internalType": "uint256",
          "name": "newPrice",
          "type": "uint256"
        }
      ],
      "name": "setPriceVirtual",
      "outputs": [],
      "stateMutability": "nonpayable",
      "type": "function"
    },
    {
      "inputs": [
        {
          "internalType": "uint256",
          "name": "newVirtualPrice",
          "type": "uint256"
        },
        {
          "internalType": "uint256",
          "name": "newVertPrice",
          "type": "uint256"
        }
      ],
      "name": "setPrices",
      "outputs": [],
      "stateMutability": "nonpayable",
      "type": "function"
    },
    {
      "inputs": [
        {
          "internalType": "enum VerticalProjectNFT_WithManualSync.Rarity",
          "name": "rarity",
          "type": "uint8"
        },
        {
          "internalType": "uint256",
          "name": "percent",
          "type": "uint256"
        }
      ],
      "name": "setPrizePercent",
      "outputs": [],
      "stateMutability": "nonpayable",
      "type": "function"
    },
    {
      "inputs": [
        {
          "internalType": "uint256",
          "name": "tokenId",
          "type": "uint256"
        },
        {
          "internalType": "string",
          "name": "_tokenURI",
          "type": "string"
        }
      ],
      "name": "setTokenURI",
      "outputs": [],
      "stateMutability": "nonpayable",
      "type": "function"
    },
    {
      "inputs": [
        {
          "internalType": "address",
          "name": "addr",
          "type": "address"
        }
      ],
      "name": "setTreasury",
      "outputs": [],
      "stateMutability": "nonpayable",
      "type": "function"
    },
    {
      "inputs": [
        {
          "internalType": "address",
          "name": "_vertToken",
          "type": "address"
        }
      ],
      "name": "setVertToken",
      "outputs": [],
      "stateMutability": "nonpayable",
      "type": "function"
    },
    {
      "inputs": [
        {
          "internalType": "address",
          "name": "_virtualToken",
          "type": "address"
        }
      ],
      "name": "setVirtualToken",
      "outputs": [],
      "stateMutability": "nonpayable",
      "type": "function"
    },
    {
      "inputs": [
        {
          "internalType": "bytes4",
          "name": "interfaceId",
          "type": "bytes4"
        }
      ],
      "name": "supportsInterface",
      "outputs": [
        {
          "internalType": "bool",
          "name": "",
          "type": "bool"
        }
      ],
      "stateMutability": "view",
      "type": "function"
    },
    {
      "inputs": [],
      "name": "symbol",
      "outputs": [
        {
          "internalType": "string",
          "name": "",
          "type": "string"
        }
      ],
      "stateMutability": "view",
      "type": "function"
    },
    {
      "inputs": [],
      "name": "syncPrizePool",
      "outputs": [],
      "stateMutability": "nonpayable",
      "type": "function"
    },
    {
      "inputs": [
        {
          "internalType": "uint256",
          "name": "",
          "type": "uint256"
        }
      ],
      "name": "tokenRarity",
      "outputs": [
        {
          "internalType": "enum VerticalProjectNFT_WithManualSync.Rarity",
          "name": "",
          "type": "uint8"
        }
      ],
      "stateMutability": "view",
      "type": "function"
    },
    {
      "inputs": [
        {
          "internalType": "uint256",
          "name": "tokenId",
          "type": "uint256"
        }
      ],
      "name": "tokenURI",
      "outputs": [
        {
          "internalType": "string",
          "name": "",
          "type": "string"
        }
      ],
      "stateMutability": "view",
      "type": "function"
    },
    {
      "inputs": [
        {
          "internalType": "address",
          "name": "from",
          "type": "address"
        },
        {
          "internalType": "address",
          "name": "to",
          "type": "address"
        },
        {
          "internalType": "uint256",
          "name": "tokenId",
          "type": "uint256"
        }
      ],
      "name": "transferFrom",
      "outputs": [],
      "stateMutability": "nonpayable",
      "type": "function"
    },
    {
      "inputs": [
        {
          "internalType": "address",
          "name": "newOwner",
          "type": "address"
        }
      ],
      "name": "transferOwnership",
      "outputs": [],
      "stateMutability": "nonpayable",
      "type": "function"
    },
    {
      "inputs": [],
      "name": "treasury",
      "outputs": [
        {
          "internalType": "address",
          "name": "",
          "type": "address"
        }
      ],
      "stateMutability": "view",
      "type": "function"
    },
    {
      "inputs": [],
      "name": "unpause",
      "outputs": [],
      "stateMutability": "nonpayable",
      "type": "function"
    },
    {
      "inputs": [],
      "name": "vertToken",
      "outputs": [
        {
          "internalType": "contract IERC20",
          "name": "",
          "type": "address"
        }
      ],
      "stateMutability": "view",
      "type": "function"
    },
    {
      "inputs": [],
      "name": "virtualToken",
      "outputs": [
        {
          "internalType": "contract IERC20",
          "name": "",
          "type": "address"
        }
      ],
      "stateMutability": "view",
      "type": "function"
    }
  ],
  "bytecode": "0x608060405267016345785d8a0000600d55681b1ae4d6e2ef500000600e5534801561002957600080fd5b506040516165de3803806165de833981810160405281019061004b9190610526565b6040518060400160405280601081526020017f566572746963616c2050726f6a656374000000000000000000000000000000008152506040518060400160405280600781526020017f564552544e46540000000000000000000000000000000000000000000000000081525081600090816100c691906107c9565b5080600190816100d691906107c9565b5050506100f56100ea6103f560201b60201c565b6103fd60201b60201c565b60016008819055506000600960006101000a81548160ff021916908315150217905550600073ffffffffffffffffffffffffffffffffffffffff168373ffffffffffffffffffffffffffffffffffffffff1603610187576040517f08c379a000000000000000000000000000000000000000000000000000000000815260040161017e9061091e565b60405180910390fd5b600073ffffffffffffffffffffffffffffffffffffffff168173ffffffffffffffffffffffffffffffffffffffff16036101f6576040517f08c379a00000000000000000000000000000000000000000000000000000000081526004016101ed9061098a565b60405180910390fd5b82600960016101000a81548173ffffffffffffffffffffffffffffffffffffffff021916908373ffffffffffffffffffffffffffffffffffffffff160217905550600073ffffffffffffffffffffffffffffffffffffffff168273ffffffffffffffffffffffffffffffffffffffff16146102ad5781600a60006101000a81548173ffffffffffffffffffffffffffffffffffffffff021916908373ffffffffffffffffffffffffffffffffffffffff1602179055505b80600b60006101000a81548173ffffffffffffffffffffffffffffffffffffffff021916908373ffffffffffffffffffffffffffffffffffffffff1602179055506001600c81905550600360106000600160048111156103105761030f6109aa565b5b6004811115610322576103216109aa565b5b8152602001908152602001600020819055506007601060006002600481111561034e5761034d6109aa565b5b60048111156103605761035f6109aa565b5b815260200190815260200160002081905550600f601060006003600481111561038c5761038b6109aa565b5b600481111561039e5761039d6109aa565b5b8152602001908152602001600020819055506028601060006004808111156103c9576103c86109aa565b5b60048111156103db576103da6109aa565b5b8152602001908152602001600020819055505050506109d9565b600033905090565b6000600760009054906101000a900473ffffffffffffffffffffffffffffffffffffffff16905081600760006101000a81548173ffffffffffffffffffffffffffffffffffffffff021916908373ffffffffffffffffffffffffffffffffffffffff1602179055508173ffffffffffffffffffffffffffffffffffffffff168173ffffffffffffffffffffffffffffffffffffffff167f8be0079c531659141344cd1fd0a4f28419497f9722a3daafe3b4186f6b6457e060405160405180910390a35050565b600080fd5b600073ffffffffffffffffffffffffffffffffffffffff82169050919050565b60006104f3826104c8565b9050919050565b610503816104e8565b811461050e57600080fd5b50565b600081519050610520816104fa565b92915050565b60008060006060848603121561053f5761053e6104c3565b5b600061054d86828701610511565b935050602061055e86828701610511565b925050604061056f86828701610511565b9150509250925092565b600081519050919050565b7f4e487b7100000000000000000000000000000000000000000000000000000000600052604160045260246000fd5b7f4e487b7100000000000000000000000000000000000000000000000000000000600052602260045260246000fd5b600060028204905060018216806105fa57607f821691505b60208210810361060d5761060c6105b3565b5b50919050565b60008190508160005260206000209050919050565b60006020601f8301049050919050565b600082821b905092915050565b6000600883026106757fffffffffffffffffffffffffffffffffffffffffffffffffffffffffffffffff82610638565b61067f8683610638565b95508019841693508086168417925050509392505050565b6000819050919050565b6000819050919050565b60006106c66106c16106bc84610697565b6106a1565b610697565b9050919050565b6000819050919050565b6106e0836106ab565b6106f46106ec826106cd565b848454610645565b825550505050565b600090565b6107096106fc565b6107148184846106d7565b505050565b5b818110156107385761072d600082610701565b60018101905061071a565b5050565b601f82111561077d5761074e81610613565b61075784610628565b81016020851015610766578190505b61077a61077285610628565b830182610719565b50505b505050565b600082821c905092915050565b60006107a060001984600802610782565b1980831691505092915050565b60006107b9838361078f565b9150826002028217905092915050565b6107d282610579565b67ffffffffffffffff8111156107eb576107ea610584565b5b6107f582546105e2565b61080082828561073c565b600060209050601f8311600181146108335760008415610821578287015190505b61082b85826107ad565b865550610893565b601f19841661084186610613565b60005b8281101561086957848901518255600182019150602085019450602081019050610844565b868310156108865784890151610882601f89168261078f565b8355505b6001600288020188555050505b505050505050565b600082825260208201905092915050565b7f5669727475616c20746f6b656e2063616e6e6f74206265207a65726f2061646460008201527f7265737300000000000000000000000000000000000000000000000000000000602082015250565b600061090860248361089b565b9150610913826108ac565b604082019050919050565b60006020820190508181036000830152610937816108fb565b9050919050565b7f54726561737572792063616e6e6f74206265207a65726f206164647265737300600082015250565b6000610974601f8361089b565b915061097f8261093e565b602082019050919050565b600060208201905081810360008301526109a381610967565b9050919050565b7f4e487b7100000000000000000000000000000000000000000000000000000000600052602160045260246000fd5b615bf6806109e86000396000f3fe608060405234801561001057600080fd5b50600436106102955760003560e01c80636352211e11610167578063b2da2715116100ce578063e985e9c511610087578063e985e9c51461079d578063ed15677c146107cd578063f0f44260146107e9578063f24f069d14610805578063f2fde38b14610823578063f42bdd0e1461083f57610295565b8063b2da2715146106df578063b88d4fde146106fb578063b8fa436614610717578063c87b56dd14610735578063d709815414610765578063d7149aab1461078157610295565b806375794a3c1161012057806375794a3c1461062f5780638456cb591461064d5780638da5cb5b1461065757806395d89b4114610675578063a22cb46514610693578063afb0a369146106af57610295565b80636352211e1461056d578063689a0bd61461059d57806370a08231146105bb578063711f64ea146105eb578063715018a614610607578063719ce73e1461061157610295565b806323b872dd1161020b57806344884348116101c4578063448843481461049757806344ee8b3d146104b3578063480628ae146104e3578063555ec78b146105015780635c975abb1461053157806361d027b31461054f57610295565b806323b872dd146103fc5780632a55205a146104185780632d38cc351461044957806333e19616146104675780633f4ba83a1461047157806342842e0e1461047b57610295565b80630adc221d1161025d5780630adc221d146103505780630ca1c5c91461036c578063162094c41461038a578063186ba253146103a6578063194a5fc9146103c25780631f514c52146103de57610295565b806301ffc9a71461029a57806305fefda7146102ca57806306fdde03146102e6578063081812fc14610304578063095ea7b314610334575b600080fd5b6102b460048036038101906102af9190613a2b565b61085b565b6040516102c19190613a73565b60405180910390f35b6102e460048036038101906102df9190613ac4565b6108d5565b005b6102ee610928565b6040516102fb9190613b94565b60405180910390f35b61031e60048036038101906103199190613bb6565b6109ba565b60405161032b9190613c24565b60405180910390f35b61034e60048036038101906103499190613c6b565b610a00565b005b61036a60048036038101906103659190613bb6565b610b17565b005b610374610b64565b6040516103819190613cba565b60405180910390f35b6103a4600480360381019061039f9190613e0a565b610b7a565b005b6103c060048036038101906103bb9190613bb6565b610bd8565b005b6103dc60048036038101906103d79190613e8b565b610d16565b005b6103e6610ddb565b6040516103f39190613f2a565b60405180910390f35b61041660048036038101906104119190613f45565b610e01565b005b610432600480360381019061042d9190613ac4565b610e61565b604051610440929190613f98565b60405180910390f35b610451610eb2565b60405161045e9190613cba565b60405180910390f35b61046f610f7b565b005b6104796110dc565b005b61049560048036038101906104909190613f45565b6110ee565b005b6104b160048036038101906104ac9190613fc1565b61110e565b005b6104cd60048036038101906104c8919061400a565b6113ba565b6040516104da9190613cba565b60405180910390f35b6104eb6113d2565b6040516104f89190613f2a565b60405180910390f35b61051b60048036038101906105169190613bb6565b6113f8565b60405161052891906140ae565b60405180910390f35b61053961146a565b6040516105469190613a73565b60405180910390f35b610557611481565b6040516105649190613c24565b60405180910390f35b61058760048036038101906105829190613bb6565b6114a7565b6040516105949190613c24565b60405180910390f35b6105a561152d565b6040516105b29190613cba565b60405180910390f35b6105d560048036038101906105d091906140c9565b611533565b6040516105e29190613cba565b60405180910390f35b61060560048036038101906106009190613bb6565b6115ea565b005b61060f611637565b005b61061961164b565b6040516106269190613cba565b60405180910390f35b610637611651565b6040516106449190613cba565b60405180910390f35b610655611657565b005b61065f611669565b60405161066c9190613c24565b60405180910390f35b61067d611693565b60405161068a9190613b94565b60405180910390f35b6106ad60048036038101906106a89190614122565b611725565b005b6106c960048036038101906106c49190613bb6565b61173b565b6040516106d691906140ae565b60405180910390f35b6106f960048036038101906106f49190613fc1565b61175b565b005b61071560048036038101906107109190614203565b611902565b005b61071f611964565b60405161072c9190613cba565b60405180910390f35b61074f600480360381019061074a9190613bb6565b61196a565b60405161075c9190613b94565b60405180910390f35b61077f600480360381019061077a9190613bb6565b6119c4565b005b61079b600480360381019061079691906140c9565b611d14565b005b6107b760048036038101906107b29190614286565b611e06565b6040516107c49190613a73565b60405180910390f35b6107e760048036038101906107e29190613bb6565b611e9a565b005b61080360048036038101906107fe91906140c9565b612028565b005b61080d61211a565b60405161081a9190613cba565b60405180910390f35b61083d600480360381019061083891906140c9565b612124565b005b610859600480360381019061085491906140c9565b6121a7565b005b60007f2a55205a000000000000000000000000000000000000000000000000000000007bffffffffffffffffffffffffffffffffffffffffffffffffffffffff1916827bffffffffffffffffffffffffffffffffffffffffffffffffffffffff191614806108ce57506108cd82612299565b5b9050919050565b6108dd6122fa565b81600d8190555080600e819055507f6546f60f34df611fa42503098acc39d5ab88bc73febe64b3cc14e5a92e3a66a7828260405161091c9291906142c6565b60405180910390a15050565b6060600080546109379061431e565b80601f01602080910402602001604051908101604052809291908181526020018280546109639061431e565b80156109b05780601f10610985576101008083540402835291602001916109b0565b820191906000526020600020905b81548152906001019060200180831161099357829003601f168201915b5050505050905090565b60006109c582612378565b6004600083815260200190815260200160002060009054906101000a900473ffffffffffffffffffffffffffffffffffffffff169050919050565b6000610a0b826114a7565b90508073ffffffffffffffffffffffffffffffffffffffff168373ffffffffffffffffffffffffffffffffffffffff1603610a7b576040517f08c379a0000000000000000000000000000000000000000000000000000000008152600401610a72906143c1565b60405180910390fd5b8073ffffffffffffffffffffffffffffffffffffffff16610a9a6123c3565b73ffffffffffffffffffffffffffffffffffffffff161480610ac95750610ac881610ac36123c3565b611e06565b5b610b08576040517f08c379a0000000000000000000000000000000000000000000000000000000008152600401610aff90614453565b60405180910390fd5b610b1283836123cb565b505050565b610b1f6122fa565b80600d819055507f6546f60f34df611fa42503098acc39d5ab88bc73febe64b3cc14e5a92e3a66a781600e54604051610b599291906142c6565b60405180910390a150565b60006001600c54610b7591906144a2565b905090565b610b826122fa565b610b8b82612484565b610bca576040517f08c379a0000000000000000000000000000000000000000000000000000000008152600401610bc190614522565b60405180910390fd5b610bd482826124c5565b5050565b610be06122fa565b600a60009054906101000a900473ffffffffffffffffffffffffffffffffffffffff1673ffffffffffffffffffffffffffffffffffffffff166323b872dd3330846040518463ffffffff1660e01b8152600401610c3f93929190614542565b6020604051808303816000875af1158015610c5e573d6000803e3d6000fd5b505050506040513d601f19601f82011682018060405250810190610c82919061458e565b610cc1576040517f08c379a0000000000000000000000000000000000000000000000000000000008152600401610cb890614607565b60405180910390fd5b80600f6000828254610cd39190614627565b925050819055507f7bc22304ac771f50d6cc29b56387cb4855f284e7a1f83e6420fe9b8bbdaf45c9600f54604051610d0b9190613cba565b60405180910390a150565b610d1e6122fa565b6064811115610d62576040517f08c379a0000000000000000000000000000000000000000000000000000000008152600401610d59906146a7565b60405180910390fd5b8060106000846004811115610d7a57610d79614037565b5b6004811115610d8c57610d8b614037565b5b8152602001908152602001600020819055507fa74628ab88e39c22615acb79128db8683fe215f003fa969bd6b3232eba537a668282604051610dcf9291906146c7565b60405180910390a15050565b600960019054906101000a900473ffffffffffffffffffffffffffffffffffffffff1681565b610e12610e0c6123c3565b82612569565b610e51576040517f08c379a0000000000000000000000000000000000000000000000000000000008152600401610e4890614762565b60405180910390fd5b610e5c8383836125fe565b505050565b600080600061271060fa85610e769190614782565b610e8091906147f3565b9050600b60009054906101000a900473ffffffffffffffffffffffffffffffffffffffff168192509250509250929050565b600080600a60009054906101000a900473ffffffffffffffffffffffffffffffffffffffff1673ffffffffffffffffffffffffffffffffffffffff166370a08231306040518263ffffffff1660e01b8152600401610f109190613c24565b602060405180830381865afa158015610f2d573d6000803e3d6000fd5b505050506040513d601f19601f82011682018060405250810190610f519190614839565b9050600f548110610f7257600f5481610f6a91906144a2565b915050610f78565b60009150505b90565b610f836122fa565b6000600a60009054906101000a900473ffffffffffffffffffffffffffffffffffffffff1673ffffffffffffffffffffffffffffffffffffffff166370a08231306040518263ffffffff1660e01b8152600401610fe09190613c24565b602060405180830381865afa158015610ffd573d6000803e3d6000fd5b505050506040513d601f19601f820116820180604052508101906110219190614839565b9050600f54811015611068576040517f08c379a000000000000000000000000000000000000000000000000000000000815260040161105f906148d8565b60405180910390fd5b6000600f548261107891906144a2565b905060008111156110d85780600f60008282546110959190614627565b925050819055507fe7c0250ef7efc5958c2f843457f72888d91151b384ed562603b27a1a1bdbcd6d81600f546040516110cf9291906142c6565b60405180910390a15b5050565b6110e46122fa565b6110ec6128f7565b565b61110983838360405180602001604052806000815250611902565b505050565b61111661295a565b61111e6129a4565b6000600a60009054906101000a900473ffffffffffffffffffffffffffffffffffffffff1690506000600e549050600073ffffffffffffffffffffffffffffffffffffffff168273ffffffffffffffffffffffffffffffffffffffff16036111bb576040517f08c379a00000000000000000000000000000000000000000000000000000000081526004016111b290614944565b60405180910390fd5b8173ffffffffffffffffffffffffffffffffffffffff166323b872dd3330846040518463ffffffff1660e01b81526004016111f893929190614542565b6020604051808303816000875af1158015611217573d6000803e3d6000fd5b505050506040513d601f19601f8201168201806040525081019061123b919061458e565b61127a576040517f08c379a0000000000000000000000000000000000000000000000000000000008152600401611271906149b0565b60405180910390fd5b6000606460198361128b9190614782565b61129591906147f3565b9050600081836112a591906144a2565b90508373ffffffffffffffffffffffffffffffffffffffff1663a9059cbb600b60009054906101000a900473ffffffffffffffffffffffffffffffffffffffff16846040518363ffffffff1660e01b8152600401611304929190613f98565b6020604051808303816000875af1158015611323573d6000803e3d6000fd5b505050506040513d601f19601f82011682018060405250810190611347919061458e565b611386576040517f08c379a000000000000000000000000000000000000000000000000000000000815260040161137d90614a1c565b60405180910390fd5b80600f60008282546113989190614627565b925050819055506113ab338660016129f3565b505050506113b7612cd0565b50565b60106020528060005260406000206000915090505481565b600a60009054906101000a900473ffffffffffffffffffffffffffffffffffffffff1681565b600061140382612484565b611442576040517f08c379a000000000000000000000000000000000000000000000000000000000815260040161143990614522565b60405180910390fd5b6011600083815260200190815260200160002060009054906101000a900460ff169050919050565b6000600960009054906101000a900460ff16905090565b600b60009054906101000a900473ffffffffffffffffffffffffffffffffffffffff1681565b6000806114b383612cda565b9050600073ffffffffffffffffffffffffffffffffffffffff168173ffffffffffffffffffffffffffffffffffffffff1603611524576040517f08c379a000000000000000000000000000000000000000000000000000000000815260040161151b90614a88565b60405180910390fd5b80915050919050565b600d5481565b60008073ffffffffffffffffffffffffffffffffffffffff168273ffffffffffffffffffffffffffffffffffffffff16036115a3576040517f08c379a000000000000000000000000000000000000000000000000000000000815260040161159a90614b1a565b60405180910390fd5b600360008373ffffffffffffffffffffffffffffffffffffffff1673ffffffffffffffffffffffffffffffffffffffff168152602001908152602001600020549050919050565b6115f26122fa565b80600e819055507f6546f60f34df611fa42503098acc39d5ab88bc73febe64b3cc14e5a92e3a66a7600d548260405161162c9291906142c6565b60405180910390a150565b61163f6122fa565b6116496000612d17565b565b600f5481565b600c5481565b61165f6122fa565b611667612ddd565b565b6000600760009054906101000a900473ffffffffffffffffffffffffffffffffffffffff16905090565b6060600180546116a29061431e565b80601f01602080910402602001604051908101604052809291908181526020018280546116ce9061431e565b801561171b5780601f106116f05761010080835404028352916020019161171b565b820191906000526020600020905b8154815290600101906020018083116116fe57829003601f168201915b5050505050905090565b6117376117306123c3565b8383612e40565b5050565b60116020528060005260406000206000915054906101000a900460ff1681565b61176361295a565b61176b6129a4565b6000600960019054906101000a900473ffffffffffffffffffffffffffffffffffffffff1690506000600d549050600073ffffffffffffffffffffffffffffffffffffffff168273ffffffffffffffffffffffffffffffffffffffff1603611808576040517f08c379a00000000000000000000000000000000000000000000000000000000081526004016117ff90614b86565b60405180910390fd5b8173ffffffffffffffffffffffffffffffffffffffff166323b872dd33600b60009054906101000a900473ffffffffffffffffffffffffffffffffffffffff16846040518463ffffffff1660e01b815260040161186793929190614542565b6020604051808303816000875af1158015611886573d6000803e3d6000fd5b505050506040513d601f19601f820116820180604052508101906118aa919061458e565b6118e9576040517f08c379a00000000000000000000000000000000000000000000000000000000081526004016118e090614bf2565b60405180910390fd5b6118f5338460006129f3565b50506118ff612cd0565b50565b61191361190d6123c3565b83612569565b611952576040517f08c379a000000000000000000000000000000000000000000000000000000000815260040161194990614762565b60405180910390fd5b61195e84848484612fac565b50505050565b600e5481565b606061197582612484565b6119b4576040517f08c379a00000000000000000000000000000000000000000000000000000000081526004016119ab90614522565b60405180910390fd5b6119bd82613008565b9050919050565b6119cc6129a4565b3373ffffffffffffffffffffffffffffffffffffffff166119ec826114a7565b73ffffffffffffffffffffffffffffffffffffffff1614611a42576040517f08c379a0000000000000000000000000000000000000000000000000000000008152600401611a3990614c5e565b60405180910390fd5b60006011600083815260200190815260200160002060009054906101000a900460ff16905060006004811115611a7b57611a7a614037565b5b816004811115611a8e57611a8d614037565b5b03611ace576040517f08c379a0000000000000000000000000000000000000000000000000000000008152600401611ac590614cca565b60405180910390fd5b600060106000836004811115611ae757611ae6614037565b5b6004811115611af957611af8614037565b5b815260200190815260200160002054905060008111611b4d576040517f08c379a0000000000000000000000000000000000000000000000000000000008152600401611b4490614d36565b60405180910390fd5b6000606482600f54611b5f9190614782565b611b6991906147f3565b9050600081118015611b7d5750600f548111155b611bbc576040517f08c379a0000000000000000000000000000000000000000000000000000000008152600401611bb390614da2565b60405180910390fd5b80600f6000828254611bce91906144a2565b92505081905550600a60009054906101000a900473ffffffffffffffffffffffffffffffffffffffff1673ffffffffffffffffffffffffffffffffffffffff1663a9059cbb33836040518363ffffffff1660e01b8152600401611c32929190613f98565b6020604051808303816000875af1158015611c51573d6000803e3d6000fd5b505050506040513d601f19601f82011682018060405250810190611c75919061458e565b611cb4576040517f08c379a0000000000000000000000000000000000000000000000000000000008152600401611cab90614e0e565b60405180910390fd5b3373ffffffffffffffffffffffffffffffffffffffff167f36800c5bbdbd2c749cd0d2bdde53a3926e7f2167af8664c47fd30d62ca81010e858584604051611cfe93929190614e2e565b60405180910390a2505050611d11612cd0565b50565b611d1c6122fa565b600073ffffffffffffffffffffffffffffffffffffffff168173ffffffffffffffffffffffffffffffffffffffff1603611d8b576040517f08c379a0000000000000000000000000000000000000000000000000000000008152600401611d8290614ed7565b60405180910390fd5b80600960016101000a81548173ffffffffffffffffffffffffffffffffffffffff021916908373ffffffffffffffffffffffffffffffffffffffff1602179055507f642efe757f7c097df2555d74532321ce38535b3921193c8777a267303689883b81604051611dfb9190613c24565b60405180910390a150565b6000600560008473ffffffffffffffffffffffffffffffffffffffff1673ffffffffffffffffffffffffffffffffffffffff16815260200190815260200160002060008373ffffffffffffffffffffffffffffffffffffffff1673ffffffffffffffffffffffffffffffffffffffff16815260200190815260200160002060009054906101000a900460ff16905092915050565b60008111611edd576040517f08c379a0000000000000000000000000000000000000000000000000000000008152600401611ed490614f43565b60405180910390fd5b600a60009054906101000a900473ffffffffffffffffffffffffffffffffffffffff1673ffffffffffffffffffffffffffffffffffffffff166323b872dd3330846040518463ffffffff1660e01b8152600401611f3c93929190614542565b6020604051808303816000875af1158015611f5b573d6000803e3d6000fd5b505050506040513d601f19601f82011682018060405250810190611f7f919061458e565b611fbe576040517f08c379a0000000000000000000000000000000000000000000000000000000008152600401611fb590614faf565b60405180910390fd5b80600f6000828254611fd09190614627565b925050819055503373ffffffffffffffffffffffffffffffffffffffff167fd3da04b9295b0265da4cd8d1d9ea4f3bb84775e17288a007301f7193865b18188260405161201d9190613cba565b60405180910390a250565b6120306122fa565b600073ffffffffffffffffffffffffffffffffffffffff168173ffffffffffffffffffffffffffffffffffffffff160361209f576040517f08c379a00000000000000000000000000000000000000000000000000000000081526004016120969061501b565b60405180910390fd5b80600b60006101000a81548173ffffffffffffffffffffffffffffffffffffffff021916908373ffffffffffffffffffffffffffffffffffffffff1602179055507f7dae230f18360d76a040c81f050aa14eb9d6dc7901b20fc5d855e2a20fe814d18160405161210f9190613c24565b60405180910390a150565b6000600f54905090565b61212c6122fa565b600073ffffffffffffffffffffffffffffffffffffffff168173ffffffffffffffffffffffffffffffffffffffff160361219b576040517f08c379a0000000000000000000000000000000000000000000000000000000008152600401612192906150ad565b60405180910390fd5b6121a481612d17565b50565b6121af6122fa565b600073ffffffffffffffffffffffffffffffffffffffff168173ffffffffffffffffffffffffffffffffffffffff160361221e576040517f08c379a00000000000000000000000000000000000000000000000000000000081526004016122159061513f565b60405180910390fd5b80600a60006101000a81548173ffffffffffffffffffffffffffffffffffffffff021916908373ffffffffffffffffffffffffffffffffffffffff1602179055507f6e54bd062be2216071d5874d64e175cd202a1df49312b7241043db3ddd25537b8160405161228e9190613c24565b60405180910390a150565b6000634906490660e01b7bffffffffffffffffffffffffffffffffffffffffffffffffffffffff1916827bffffffffffffffffffffffffffffffffffffffffffffffffffffffff191614806122f357506122f28261311a565b5b9050919050565b6123026123c3565b73ffffffffffffffffffffffffffffffffffffffff16612320611669565b73ffffffffffffffffffffffffffffffffffffffff1614612376576040517f08c379a000000000000000000000000000000000000000000000000000000000815260040161236d906151ab565b60405180910390fd5b565b61238181612484565b6123c0576040517f08c379a00000000000000000000000000000000000000000000000000000000081526004016123b790614a88565b60405180910390fd5b50565b600033905090565b816004600083815260200190815260200160002060006101000a81548173ffffffffffffffffffffffffffffffffffffffff021916908373ffffffffffffffffffffffffffffffffffffffff160217905550808273ffffffffffffffffffffffffffffffffffffffff1661243e836114a7565b73ffffffffffffffffffffffffffffffffffffffff167f8c5be1e5ebec7d5bd14f71427d1e84f3dd0314c0f7b2291e5b200ac8c7c3b92560405160405180910390a45050565b60008073ffffffffffffffffffffffffffffffffffffffff166124a683612cda565b73ffffffffffffffffffffffffffffffffffffffff1614159050919050565b6124ce82612484565b61250d576040517f08c379a00000000000000000000000000000000000000000000000000000000081526004016125049061523d565b60405180910390fd5b8060066000848152602001908152602001600020908161252d91906153ff565b507ff8e1a15aba9398e019f0b49df1a4fde98ee17ae345cb5f6b5e2c27f5033e8ce78260405161255d9190613cba565b60405180910390a15050565b600080612575836114a7565b90508073ffffffffffffffffffffffffffffffffffffffff168473ffffffffffffffffffffffffffffffffffffffff1614806125b757506125b68185611e06565b5b806125f557508373ffffffffffffffffffffffffffffffffffffffff166125dd846109ba565b73ffffffffffffffffffffffffffffffffffffffff16145b91505092915050565b8273ffffffffffffffffffffffffffffffffffffffff1661261e826114a7565b73ffffffffffffffffffffffffffffffffffffffff1614612674576040517f08c379a000000000000000000000000000000000000000000000000000000000815260040161266b90615543565b60405180910390fd5b600073ffffffffffffffffffffffffffffffffffffffff168273ffffffffffffffffffffffffffffffffffffffff16036126e3576040517f08c379a00000000000000000000000000000000000000000000000000000000081526004016126da906155d5565b60405180910390fd5b6126f083838360016131fc565b8273ffffffffffffffffffffffffffffffffffffffff16612710826114a7565b73ffffffffffffffffffffffffffffffffffffffff1614612766576040517f08c379a000000000000000000000000000000000000000000000000000000000815260040161275d90615543565b60405180910390fd5b6004600082815260200190815260200160002060006101000a81549073ffffffffffffffffffffffffffffffffffffffff02191690556001600360008573ffffffffffffffffffffffffffffffffffffffff1673ffffffffffffffffffffffffffffffffffffffff168152602001908152602001600020600082825403925050819055506001600360008473ffffffffffffffffffffffffffffffffffffffff1673ffffffffffffffffffffffffffffffffffffffff16815260200190815260200160002060008282540192505081905550816002600083815260200190815260200160002060006101000a81548173ffffffffffffffffffffffffffffffffffffffff021916908373ffffffffffffffffffffffffffffffffffffffff160217905550808273ffffffffffffffffffffffffffffffffffffffff168473ffffffffffffffffffffffffffffffffffffffff167fddf252ad1be2c89b69c2b068fc378daa952ba7f163c4a11628f55a4df523b3ef60405160405180910390a46128f28383836001613202565b505050565b6128ff613208565b6000600960006101000a81548160ff0219169083151502179055507f5db9ee0a495bf2e6ff9c91a7834c1ba4fdd244a5e8aa4e537bd38aeae4b073aa6129436123c3565b6040516129509190613c24565b60405180910390a1565b61296261146a565b156129a2576040517f08c379a000000000000000000000000000000000000000000000000000000000815260040161299990615641565b60405180910390fd5b565b6002600854036129e9576040517f08c379a00000000000000000000000000000000000000000000000000000000081526004016129e0906156ad565b60405180910390fd5b6002600881905550565b6000600c6000815480929190612a08906156cd565b919050559050612a188482613251565b612a2281846124c5565b6000612a2c61346e565b9050806011600084815260200190815260200160002060006101000a81548160ff02191690836004811115612a6457612a63614037565b5b02179055508473ffffffffffffffffffffffffffffffffffffffff167fa08b3bf5b7af36b46fffc856a242e512024f345d8981c820b40ed15e1a7b5cae838387604051612ab393929190615715565b60405180910390a260006004811115612acf57612ace614037565b5b816004811115612ae257612ae1614037565b5b14158015612aed5750825b8015612afb57506000600f54115b15612cc957600060106000836004811115612b1957612b18614037565b5b6004811115612b2b57612b2a614037565b5b81526020019081526020016000205490506000811115612cc7576000606482600f54612b579190614782565b612b6191906147f3565b9050600081118015612b755750600f548111155b15612cc55780600f6000828254612b8c91906144a2565b92505081905550600a60009054906101000a900473ffffffffffffffffffffffffffffffffffffffff1673ffffffffffffffffffffffffffffffffffffffff1663a9059cbb88836040518363ffffffff1660e01b8152600401612bf0929190613f98565b6020604051808303816000875af1158015612c0f573d6000803e3d6000fd5b505050506040513d601f19601f82011682018060405250810190612c33919061458e565b612c72576040517f08c379a0000000000000000000000000000000000000000000000000000000008152600401612c6990614e0e565b60405180910390fd5b8673ffffffffffffffffffffffffffffffffffffffff167f36800c5bbdbd2c749cd0d2bdde53a3926e7f2167af8664c47fd30d62ca81010e858584604051612cbc93929190614e2e565b60405180910390a25b505b505b5050505050565b6001600881905550565b60006002600083815260200190815260200160002060009054906101000a900473ffffffffffffffffffffffffffffffffffffffff169050919050565b6000600760009054906101000a900473ffffffffffffffffffffffffffffffffffffffff16905081600760006101000a81548173ffffffffffffffffffffffffffffffffffffffff021916908373ffffffffffffffffffffffffffffffffffffffff1602179055508173ffffffffffffffffffffffffffffffffffffffff168173ffffffffffffffffffffffffffffffffffffffff167f8be0079c531659141344cd1fd0a4f28419497f9722a3daafe3b4186f6b6457e060405160405180910390a35050565b612de561295a565b6001600960006101000a81548160ff0219169083151502179055507f62e78cea01bee320cd4e420270b5ea74000d11b0c9f74754ebdbfc544b05a258612e296123c3565b604051612e369190613c24565b60405180910390a1565b8173ffffffffffffffffffffffffffffffffffffffff168373ffffffffffffffffffffffffffffffffffffffff1603612eae576040517f08c379a0000000000000000000000000000000000000000000000000000000008152600401612ea59061579f565b60405180910390fd5b80600560008573ffffffffffffffffffffffffffffffffffffffff1673ffffffffffffffffffffffffffffffffffffffff16815260200190815260200160002060008473ffffffffffffffffffffffffffffffffffffffff1673ffffffffffffffffffffffffffffffffffffffff16815260200190815260200160002060006101000a81548160ff0219169083151502179055508173ffffffffffffffffffffffffffffffffffffffff168373ffffffffffffffffffffffffffffffffffffffff167f17307eab39ab6107e8899845ad3d59bd9653f200f220920489ca2b5937696c3183604051612f9f9190613a73565b60405180910390a3505050565b612fb78484846125fe565b612fc38484848461350b565b613002576040517f08c379a0000000000000000000000000000000000000000000000000000000008152600401612ff990615831565b60405180910390fd5b50505050565b606061301382612378565b60006006600084815260200190815260200160002080546130339061431e565b80601f016020809104026020016040519081016040528092919081815260200182805461305f9061431e565b80156130ac5780601f10613081576101008083540402835291602001916130ac565b820191906000526020600020905b81548152906001019060200180831161308f57829003601f168201915b5050505050905060006130bd613692565b905060008151036130d2578192505050613115565b6000825111156131075780826040516020016130ef92919061588d565b60405160208183030381529060405292505050613115565b613110846136a9565b925050505b919050565b60007f80ac58cd000000000000000000000000000000000000000000000000000000007bffffffffffffffffffffffffffffffffffffffffffffffffffffffff1916827bffffffffffffffffffffffffffffffffffffffffffffffffffffffff191614806131e557507f5b5e139f000000000000000000000000000000000000000000000000000000007bffffffffffffffffffffffffffffffffffffffffffffffffffffffff1916827bffffffffffffffffffffffffffffffffffffffffffffffffffffffff1916145b806131f557506131f482613711565b5b9050919050565b50505050565b50505050565b61321061146a565b61324f576040517f08c379a0000000000000000000000000000000000000000000000000000000008152600401613246906158fd565b60405180910390fd5b565b600073ffffffffffffffffffffffffffffffffffffffff168273ffffffffffffffffffffffffffffffffffffffff16036132c0576040517f08c379a00000000000000000000000000000000000000000000000000000000081526004016132b790615969565b60405180910390fd5b6132c981612484565b15613309576040517f08c379a0000000000000000000000000000000000000000000000000000000008152600401613300906159d5565b60405180910390fd5b6133176000838360016131fc565b61332081612484565b15613360576040517f08c379a0000000000000000000000000000000000000000000000000000000008152600401613357906159d5565b60405180910390fd5b6001600360008473ffffffffffffffffffffffffffffffffffffffff1673ffffffffffffffffffffffffffffffffffffffff16815260200190815260200160002060008282540192505081905550816002600083815260200190815260200160002060006101000a81548173ffffffffffffffffffffffffffffffffffffffff021916908373ffffffffffffffffffffffffffffffffffffffff160217905550808273ffffffffffffffffffffffffffffffffffffffff16600073ffffffffffffffffffffffffffffffffffffffff167fddf252ad1be2c89b69c2b068fc378daa952ba7f163c4a11628f55a4df523b3ef60405160405180910390a461346a600083836001613202565b5050565b600080612710424433600c5460405160200161348d9493929190615a5e565b6040516020818303038152906040528051906020012060001c6134b09190615aac565b90506113888110156134c6576000915050613508565b611f408110156134da576001915050613508565b61251c8110156134ee576002915050613508565b6126ac811015613502576003915050613508565b60049150505b90565b600061352c8473ffffffffffffffffffffffffffffffffffffffff1661377b565b15613685578373ffffffffffffffffffffffffffffffffffffffff1663150b7a026135556123c3565b8786866040518563ffffffff1660e01b81526004016135779493929190615b32565b6020604051808303816000875af19250505080156135b357506040513d601f19601f820116820180604052508101906135b09190615b93565b60015b613635573d80600081146135e3576040519150601f19603f3d011682016040523d82523d6000602084013e6135e8565b606091505b50600081510361362d576040517f08c379a000000000000000000000000000000000000000000000000000000000815260040161362490615831565b60405180910390fd5b805181602001fd5b63150b7a0260e01b7bffffffffffffffffffffffffffffffffffffffffffffffffffffffff1916817bffffffffffffffffffffffffffffffffffffffffffffffffffffffff19161491505061368a565b600190505b949350505050565b606060405180602001604052806000815250905090565b60606136b482612378565b60006136be613692565b905060008151116136de5760405180602001604052806000815250613709565b806136e88461379e565b6040516020016136f992919061588d565b6040516020818303038152906040525b915050919050565b60007f01ffc9a7000000000000000000000000000000000000000000000000000000007bffffffffffffffffffffffffffffffffffffffffffffffffffffffff1916827bffffffffffffffffffffffffffffffffffffffffffffffffffffffff1916149050919050565b6000808273ffffffffffffffffffffffffffffffffffffffff163b119050919050565b6060600060016137ad8461386c565b01905060008167ffffffffffffffff8111156137cc576137cb613cdf565b5b6040519080825280601f01601f1916602001820160405280156137fe5781602001600182028036833780820191505090505b509050600082602001820190505b600115613861578080600190039150507f3031323334353637383961626364656600000000000000000000000000000000600a86061a8153600a8581613855576138546147c4565b5b0494506000850361380c575b819350505050919050565b600080600090507a184f03e93ff9f4daa797ed6e38ed64bf6a1f01000000000000000083106138ca577a184f03e93ff9f4daa797ed6e38ed64bf6a1f01000000000000000083816138c0576138bf6147c4565b5b0492506040810190505b6d04ee2d6d415b85acef81000000008310613907576d04ee2d6d415b85acef810000000083816138fd576138fc6147c4565b5b0492506020810190505b662386f26fc10000831061393657662386f26fc10000838161392c5761392b6147c4565b5b0492506010810190505b6305f5e100831061395f576305f5e1008381613955576139546147c4565b5b0492506008810190505b612710831061398457612710838161397a576139796147c4565b5b0492506004810190505b606483106139a7576064838161399d5761399c6147c4565b5b0492506002810190505b600a83106139b6576001810190505b80915050919050565b6000604051905090565b600080fd5b600080fd5b60007fffffffff0000000000000000000000000000000000000000000000000000000082169050919050565b613a08816139d3565b8114613a1357600080fd5b50565b600081359050613a25816139ff565b92915050565b600060208284031215613a4157613a406139c9565b5b6000613a4f84828501613a16565b91505092915050565b60008115159050919050565b613a6d81613a58565b82525050565b6000602082019050613a886000830184613a64565b92915050565b6000819050919050565b613aa181613a8e565b8114613aac57600080fd5b50565b600081359050613abe81613a98565b92915050565b60008060408385031215613adb57613ada6139c9565b5b6000613ae985828601613aaf565b9250506020613afa85828601613aaf565b9150509250929050565b600081519050919050565b600082825260208201905092915050565b60005b83811015613b3e578082015181840152602081019050613b23565b60008484015250505050565b6000601f19601f8301169050919050565b6000613b6682613b04565b613b708185613b0f565b9350613b80818560208601613b20565b613b8981613b4a565b840191505092915050565b60006020820190508181036000830152613bae8184613b5b565b905092915050565b600060208284031215613bcc57613bcb6139c9565b5b6000613bda84828501613aaf565b91505092915050565b600073ffffffffffffffffffffffffffffffffffffffff82169050919050565b6000613c0e82613be3565b9050919050565b613c1e81613c03565b82525050565b6000602082019050613c396000830184613c15565b92915050565b613c4881613c03565b8114613c5357600080fd5b50565b600081359050613c6581613c3f565b92915050565b60008060408385031215613c8257613c816139c9565b5b6000613c9085828601613c56565b9250506020613ca185828601613aaf565b9150509250929050565b613cb481613a8e565b82525050565b6000602082019050613ccf6000830184613cab565b92915050565b600080fd5b600080fd5b7f4e487b7100000000000000000000000000000000000000000000000000000000600052604160045260246000fd5b613d1782613b4a565b810181811067ffffffffffffffff82111715613d3657613d35613cdf565b5b80604052505050565b6000613d496139bf565b9050613d558282613d0e565b919050565b600067ffffffffffffffff821115613d7557613d74613cdf565b5b613d7e82613b4a565b9050602081019050919050565b82818337600083830152505050565b6000613dad613da884613d5a565b613d3f565b905082815260208101848484011115613dc957613dc8613cda565b5b613dd4848285613d8b565b509392505050565b600082601f830112613df157613df0613cd5565b5b8135613e01848260208601613d9a565b91505092915050565b60008060408385031215613e2157613e206139c9565b5b6000613e2f85828601613aaf565b925050602083013567ffffffffffffffff811115613e5057613e4f6139ce565b5b613e5c85828601613ddc565b9150509250929050565b60058110613e7357600080fd5b50565b600081359050613e8581613e66565b92915050565b60008060408385031215613ea257613ea16139c9565b5b6000613eb085828601613e76565b9250506020613ec185828601613aaf565b9150509250929050565b6000819050919050565b6000613ef0613eeb613ee684613be3565b613ecb565b613be3565b9050919050565b6000613f0282613ed5565b9050919050565b6000613f1482613ef7565b9050919050565b613f2481613f09565b82525050565b6000602082019050613f3f6000830184613f1b565b92915050565b600080600060608486031215613f5e57613f5d6139c9565b5b6000613f6c86828701613c56565b9350506020613f7d86828701613c56565b9250506040613f8e86828701613aaf565b9150509250925092565b6000604082019050613fad6000830185613c15565b613fba6020830184613cab565b9392505050565b600060208284031215613fd757613fd66139c9565b5b600082013567ffffffffffffffff811115613ff557613ff46139ce565b5b61400184828501613ddc565b91505092915050565b6000602082840312156140205761401f6139c9565b5b600061402e84828501613e76565b91505092915050565b7f4e487b7100000000000000000000000000000000000000000000000000000000600052602160045260246000fd5b6005811061407757614076614037565b5b50565b600081905061408882614066565b919050565b60006140988261407a565b9050919050565b6140a88161408d565b82525050565b60006020820190506140c3600083018461409f565b92915050565b6000602082840312156140df576140de6139c9565b5b60006140ed84828501613c56565b91505092915050565b6140ff81613a58565b811461410a57600080fd5b50565b60008135905061411c816140f6565b92915050565b60008060408385031215614139576141386139c9565b5b600061414785828601613c56565b92505060206141588582860161410d565b9150509250929050565b600067ffffffffffffffff82111561417d5761417c613cdf565b5b61418682613b4a565b9050602081019050919050565b60006141a66141a184614162565b613d3f565b9050828152602081018484840111156141c2576141c1613cda565b5b6141cd848285613d8b565b509392505050565b600082601f8301126141ea576141e9613cd5565b5b81356141fa848260208601614193565b91505092915050565b6000806000806080858703121561421d5761421c6139c9565b5b600061422b87828801613c56565b945050602061423c87828801613c56565b935050604061424d87828801613aaf565b925050606085013567ffffffffffffffff81111561426e5761426d6139ce565b5b61427a878288016141d5565b91505092959194509250565b6000806040838503121561429d5761429c6139c9565b5b60006142ab85828601613c56565b92505060206142bc85828601613c56565b9150509250929050565b60006040820190506142db6000830185613cab565b6142e86020830184613cab565b9392505050565b7f4e487b7100000000000000000000000000000000000000000000000000000000600052602260045260246000fd5b6000600282049050600182168061433657607f821691505b602082108103614349576143486142ef565b5b50919050565b7f4552433732313a20617070726f76616c20746f2063757272656e74206f776e6560008201527f7200000000000000000000000000000000000000000000000000000000000000602082015250565b60006143ab602183613b0f565b91506143b68261434f565b604082019050919050565b600060208201905081810360008301526143da8161439e565b9050919050565b7f4552433732313a20617070726f76652063616c6c6572206973206e6f7420746f60008201527f6b656e206f776e6572206f7220617070726f76656420666f7220616c6c000000602082015250565b600061443d603d83613b0f565b9150614448826143e1565b604082019050919050565b6000602082019050818103600083015261446c81614430565b9050919050565b7f4e487b7100000000000000000000000000000000000000000000000000000000600052601160045260246000fd5b60006144ad82613a8e565b91506144b883613a8e565b92508282039050818111156144d0576144cf614473565b5b92915050565b7f546f6b656e20646f6573206e6f74206578697374000000000000000000000000600082015250565b600061450c601483613b0f565b9150614517826144d6565b602082019050919050565b6000602082019050818103600083015261453b816144ff565b9050919050565b60006060820190506145576000830186613c15565b6145646020830185613c15565b6145716040830184613cab565b949350505050565b600081519050614588816140f6565b92915050565b6000602082840312156145a4576145a36139c9565b5b60006145b284828501614579565b91505092915050565b7f5472616e73666572206661696c65640000000000000000000000000000000000600082015250565b60006145f1600f83613b0f565b91506145fc826145bb565b602082019050919050565b60006020820190508181036000830152614620816145e4565b9050919050565b600061463282613a8e565b915061463d83613a8e565b925082820190508082111561465557614654614473565b5b92915050565b7f546f6f2068696768000000000000000000000000000000000000000000000000600082015250565b6000614691600883613b0f565b915061469c8261465b565b602082019050919050565b600060208201905081810360008301526146c081614684565b9050919050565b60006040820190506146dc600083018561409f565b6146e96020830184613cab565b9392505050565b7f4552433732313a2063616c6c6572206973206e6f7420746f6b656e206f776e6560008201527f72206f7220617070726f76656400000000000000000000000000000000000000602082015250565b600061474c602d83613b0f565b9150614757826146f0565b604082019050919050565b6000602082019050818103600083015261477b8161473f565b9050919050565b600061478d82613a8e565b915061479883613a8e565b92508282026147a681613a8e565b915082820484148315176147bd576147bc614473565b5b5092915050565b7f4e487b7100000000000000000000000000000000000000000000000000000000600052601260045260246000fd5b60006147fe82613a8e565b915061480983613a8e565b925082614819576148186147c4565b5b828204905092915050565b60008151905061483381613a98565b92915050565b60006020828403121561484f5761484e6139c9565b5b600061485d84828501614824565b91505092915050565b7f436f6e74726163742062616c616e6365206c657373207468616e20747261636b60008201527f6564207072697a6520706f6f6c00000000000000000000000000000000000000602082015250565b60006148c2602d83613b0f565b91506148cd82614866565b604082019050919050565b600060208201905081810360008301526148f1816148b5565b9050919050565b7f5645525420746f6b656e206e6f74207365740000000000000000000000000000600082015250565b600061492e601283613b0f565b9150614939826148f8565b602082019050919050565b6000602082019050818103600083015261495d81614921565b9050919050565b7f56455254207061796d656e74206661696c656400000000000000000000000000600082015250565b600061499a601383613b0f565b91506149a582614964565b602082019050919050565b600060208201905081810360008301526149c98161498d565b9050919050565b7f5472656173757279207472616e73666572206661696c65640000000000000000600082015250565b6000614a06601883613b0f565b9150614a11826149d0565b602082019050919050565b60006020820190508181036000830152614a35816149f9565b9050919050565b7f4552433732313a20696e76616c696420746f6b656e2049440000000000000000600082015250565b6000614a72601883613b0f565b9150614a7d82614a3c565b602082019050919050565b60006020820190508181036000830152614aa181614a65565b9050919050565b7f4552433732313a2061646472657373207a65726f206973206e6f74206120766160008201527f6c6964206f776e65720000000000000000000000000000000000000000000000602082015250565b6000614b04602983613b0f565b9150614b0f82614aa8565b604082019050919050565b60006020820190508181036000830152614b3381614af7565b9050919050565b7f5669727475616c20746f6b656e206e6f74207365740000000000000000000000600082015250565b6000614b70601583613b0f565b9150614b7b82614b3a565b602082019050919050565b60006020820190508181036000830152614b9f81614b63565b9050919050565b7f5649525455414c207061796d656e74206661696c656400000000000000000000600082015250565b6000614bdc601683613b0f565b9150614be782614ba6565b602082019050919050565b60006020820190508181036000830152614c0b81614bcf565b9050919050565b7f4e6f742074686520746f6b656e206f776e657200000000000000000000000000600082015250565b6000614c48601383613b0f565b9150614c5382614c12565b602082019050919050565b60006020820190508181036000830152614c7781614c3b565b9050919050565b7f436f6d6d6f6e20746f6b656e732068617665206e6f207072697a650000000000600082015250565b6000614cb4601b83613b0f565b9150614cbf82614c7e565b602082019050919050565b60006020820190508181036000830152614ce381614ca7565b9050919050565b7f4e6f207072697a6520666f722074686973207261726974790000000000000000600082015250565b6000614d20601883613b0f565b9150614d2b82614cea565b602082019050919050565b60006020820190508181036000830152614d4f81614d13565b9050919050565b7f496e76616c6964207072697a6520616d6f756e74000000000000000000000000600082015250565b6000614d8c601483613b0f565b9150614d9782614d56565b602082019050919050565b60006020820190508181036000830152614dbb81614d7f565b9050919050565b7f5072697a65207472616e73666572206661696c65640000000000000000000000600082015250565b6000614df8601583613b0f565b9150614e0382614dc2565b602082019050919050565b60006020820190508181036000830152614e2781614deb565b9050919050565b6000606082019050614e436000830186613cab565b614e50602083018561409f565b614e5d6040830184613cab565b949350505050565b7f5669727475616c20746f6b656e2063616e6e6f74206265207a65726f2061646460008201527f7265737300000000000000000000000000000000000000000000000000000000602082015250565b6000614ec1602483613b0f565b9150614ecc82614e65565b604082019050919050565b60006020820190508181036000830152614ef081614eb4565b9050919050565b7f43616e6e6f74206465706f736974207a65726f00000000000000000000000000600082015250565b6000614f2d601383613b0f565b9150614f3882614ef7565b602082019050919050565b60006020820190508181036000830152614f5c81614f20565b9050919050565b7f56455254207472616e73666572206661696c6564000000000000000000000000600082015250565b6000614f99601483613b0f565b9150614fa482614f63565b602082019050919050565b60006020820190508181036000830152614fc881614f8c565b9050919050565b7f54726561737572792063616e6e6f74206265207a65726f206164647265737300600082015250565b6000615005601f83613b0f565b915061501082614fcf565b602082019050919050565b6000602082019050818103600083015261503481614ff8565b9050919050565b7f4f776e61626c653a206e6577206f776e657220697320746865207a65726f206160008201527f6464726573730000000000000000000000000000000000000000000000000000602082015250565b6000615097602683613b0f565b91506150a28261503b565b604082019050919050565b600060208201905081810360008301526150c68161508a565b9050919050565b7f5645525420746f6b656e2063616e6e6f74206265207a65726f2061646472657360008201527f7300000000000000000000000000000000000000000000000000000000000000602082015250565b6000615129602183613b0f565b9150615134826150cd565b604082019050919050565b600060208201905081810360008301526151588161511c565b9050919050565b7f4f776e61626c653a2063616c6c6572206973206e6f7420746865206f776e6572600082015250565b6000615195602083613b0f565b91506151a08261515f565b602082019050919050565b600060208201905081810360008301526151c481615188565b9050919050565b7f45524337323155524953746f726167653a2055524920736574206f66206e6f6e60008201527f6578697374656e7420746f6b656e000000000000000000000000000000000000602082015250565b6000615227602e83613b0f565b9150615232826151cb565b604082019050919050565b600060208201905081810360008301526152568161521a565b9050919050565b60008190508160005260206000209050919050565b60006020601f8301049050919050565b600082821b905092915050565b6000600883026152bf7fffffffffffffffffffffffffffffffffffffffffffffffffffffffffffffffff82615282565b6152c98683615282565b95508019841693508086168417925050509392505050565b60006152fc6152f76152f284613a8e565b613ecb565b613a8e565b9050919050565b6000819050919050565b615316836152e1565b61532a61532282615303565b84845461528f565b825550505050565b600090565b61533f615332565b61534a81848461530d565b505050565b5b8181101561536e57615363600082615337565b600181019050615350565b5050565b601f8211156153b3576153848161525d565b61538d84615272565b8101602085101561539c578190505b6153b06153a885615272565b83018261534f565b50505b505050565b600082821c905092915050565b60006153d6600019846008026153b8565b1980831691505092915050565b60006153ef83836153c5565b9150826002028217905092915050565b61540882613b04565b67ffffffffffffffff81111561542157615420613cdf565b5b61542b825461431e565b615436828285615372565b600060209050601f8311600181146154695760008415615457578287015190505b61546185826153e3565b8655506154c9565b601f1984166154778661525d565b60005b8281101561549f5784890151825560018201915060208501945060208101905061547a565b868310156154bc57848901516154b8601f8916826153c5565b8355505b6001600288020188555050505b505050505050565b7f4552433732313a207472616e736665722066726f6d20696e636f72726563742060008201527f6f776e6572000000000000000000000000000000000000000000000000000000602082015250565b600061552d602583613b0f565b9150615538826154d1565b604082019050919050565b6000602082019050818103600083015261555c81615520565b9050919050565b7f4552433732313a207472616e7366657220746f20746865207a65726f2061646460008201527f7265737300000000000000000000000000000000000000000000000000000000602082015250565b60006155bf602483613b0f565b91506155ca82615563565b604082019050919050565b600060208201905081810360008301526155ee816155b2565b9050919050565b7f5061757361626c653a2070617573656400000000000000000000000000000000600082015250565b600061562b601083613b0f565b9150615636826155f5565b602082019050919050565b6000602082019050818103600083015261565a8161561e565b9050919050565b7f5265656e7472616e637947756172643a207265656e7472616e742063616c6c00600082015250565b6000615697601f83613b0f565b91506156a282615661565b602082019050919050565b600060208201905081810360008301526156c68161568a565b9050919050565b60006156d882613a8e565b91507fffffffffffffffffffffffffffffffffffffffffffffffffffffffffffffffff820361570a57615709614473565b5b600182019050919050565b600060608201905061572a6000830186613cab565b615737602083018561409f565b81810360408301526157498184613b5b565b9050949350505050565b7f4552433732313a20617070726f766520746f2063616c6c657200000000000000600082015250565b6000615789601983613b0f565b915061579482615753565b602082019050919050565b600060208201905081810360008301526157b88161577c565b9050919050565b7f4552433732313a207472616e7366657220746f206e6f6e20455243373231526560008201527f63656976657220696d706c656d656e7465720000000000000000000000000000602082015250565b600061581b603283613b0f565b9150615826826157bf565b604082019050919050565b6000602082019050818103600083015261584a8161580e565b9050919050565b600081905092915050565b600061586782613b04565b6158718185615851565b9350615881818560208601613b20565b80840191505092915050565b6000615899828561585c565b91506158a5828461585c565b91508190509392505050565b7f5061757361626c653a206e6f7420706175736564000000000000000000000000600082015250565b60006158e7601483613b0f565b91506158f2826158b1565b602082019050919050565b60006020820190508181036000830152615916816158da565b9050919050565b7f4552433732313a206d696e7420746f20746865207a65726f2061646472657373600082015250565b6000615953602083613b0f565b915061595e8261591d565b602082019050919050565b6000602082019050818103600083015261598281615946565b9050919050565b7f4552433732313a20746f6b656e20616c7265616479206d696e74656400000000600082015250565b60006159bf601c83613b0f565b91506159ca82615989565b602082019050919050565b600060208201905081810360008301526159ee816159b2565b9050919050565b6000819050919050565b615a10615a0b82613a8e565b6159f5565b82525050565b60008160601b9050919050565b6000615a2e82615a16565b9050919050565b6000615a4082615a23565b9050919050565b615a58615a5382613c03565b615a35565b82525050565b6000615a6a82876159ff565b602082019150615a7a82866159ff565b602082019150615a8a8285615a47565b601482019150615a9a82846159ff565b60208201915081905095945050505050565b6000615ab782613a8e565b9150615ac283613a8e565b925082615ad257615ad16147c4565b5b828206905092915050565b600081519050919050565b600082825260208201905092915050565b6000615b0482615add565b615b0e8185615ae8565b9350615b1e818560208601613b20565b615b2781613b4a565b840191505092915050565b6000608082019050615b476000830187613c15565b615b546020830186613c15565b615b616040830185613cab565b8181036060830152615b738184615af9565b905095945050505050565b600081519050615b8d816139ff565b92915050565b600060208284031215615ba957615ba86139c9565b5b6000615bb784828501615b7e565b9150509291505056fea2646970667358221220b01c02b09a43523fa2a0a61dc63d18c5bcd845eef202f99cc0a8a64e397c4cb164736f6c634300081c0033",
  "linkReferences": {},
  "deployedLinkReferences": {}
}