{
  "_format": "hh-sol-artifact-1",
  "contractName": "pVERT",
  "sourceName": "contracts/pVERT.sol",
  "abi": [
    {
      "inputs": [
        {
          "internalType": "address",
          "name": "_teamWallet",
          "type": "address"
        }
      ],
      "stateMutability": "nonpayable",
      "type": "constructor"
    },
    {
      "anonymous": false,
      "inputs": [
        {
          "indexed": true,
          "internalType": "address",
          "name": "owner",
          "type": "address"
        },
        {
          "indexed": true,
          "internalType": "address",
          "name": "spender",
          "type": "address"
        },
        {
          "indexed": false,
          "internalType": "uint256",
          "name": "value",
          "type": "uint256"
        }
      ],
      "name": "Approval",
      "type": "event"
    },
    {
      "anonymous": false,
      "inputs": [
        {
          "indexed": true,
          "internalType": "address",
          "name": "previousOwner",
          "type": "address"
        },
        {
          "indexed": true,
          "internalType": "address",
          "name": "newOwner",
          "type": "address"
        }
      ],
      "name": "OwnershipTransferred",
      "type": "event"
    },
    {
      "anonymous": false,
      "inputs": [
        {
          "indexed": true,
          "internalType": "address",
          "name": "to",
          "type": "address"
        },
        {
          "indexed": false,
          "internalType": "uint256",
          "name": "amount",
          "type": "uint256"
        }
      ],
      "name": "RewardDistributed",
      "type": "event"
    },
    {
      "anonymous": false,
      "inputs": [
        {
          "indexed": true,
          "internalType": "address",
          "name": "from",
          "type": "address"
        },
        {
          "indexed": true,
          "internalType": "address",
          "name": "to",
          "type": "address"
        },
        {
          "indexed": false,
          "internalType": "uint256",
          "name": "value",
          "type": "uint256"
        }
      ],
      "name": "Transfer",
      "type": "event"
    },
    {
      "anonymous": false,
      "inputs": [
        {
          "indexed": false,
          "internalType": "bool",
          "name": "enabled",
          "type": "bool"
        }
      ],
      "name": "TransfersEnabled",
      "type": "event"
    },
    {
      "inputs": [],
      "name": "TOTAL_SUPPLY",
      "outputs": [
        {
          "internalType": "uint256",
          "name": "",
          "type": "uint256"
        }
      ],
      "stateMutability": "view",
      "type": "function"
    },
    {
      "inputs": [
        {
          "internalType": "address",
          "name": "owner",
          "type": "address"
        },
        {
          "internalType": "address",
          "name": "spender",
          "type": "address"
        }
      ],
      "name": "allowance",
      "outputs": [
        {
          "internalType": "uint256",
          "name": "",
          "type": "uint256"
        }
      ],
      "stateMutability": "view",
      "type": "function"
    },
    {
      "inputs": [
        {
          "internalType": "address",
          "name": "spender",
          "type": "address"
        },
        {
          "internalType": "uint256",
          "name": "amount",
          "type": "uint256"
        }
      ],
      "name": "approve",
      "outputs": [
        {
          "internalType": "bool",
          "name": "",
          "type": "bool"
        }
      ],
      "stateMutability": "nonpayable",
      "type": "function"
    },
    {
      "inputs": [
        {
          "internalType": "address",
          "name": "account",
          "type": "address"
        }
      ],
      "name": "balanceOf",
      "outputs": [
        {
          "internalType": "uint256",
          "name": "",
          "type": "uint256"
        }
      ],
      "stateMutability": "view",
      "type": "function"
    },
    {
      "inputs": [
        {
          "internalType": "address[]",
          "name": "recipients",
          "type": "address[]"
        },
        {
          "internalType": "uint256[]",
          "name": "amounts",
          "type": "uint256[]"
        }
      ],
      "name": "batchDistributeRewards",
      "outputs": [],
      "stateMutability": "nonpayable",
      "type": "function"
    },
    {
      "inputs": [],
      "name": "decimals",
      "outputs": [
        {
          "internalType": "uint8",
          "name": "",
          "type": "uint8"
        }
      ],
      "stateMutability": "view",
      "type": "function"
    },
    {
      "inputs": [
        {
          "internalType": "address",
          "name": "spender",
          "type": "address"
        },
        {
          "internalType": "uint256",
          "name": "subtractedValue",
          "type": "uint256"
        }
      ],
      "name": "decreaseAllowance",
      "outputs": [
        {
          "internalType": "bool",
          "name": "",
          "type": "bool"
        }
      ],
      "stateMutability": "nonpayable",
      "type": "function"
    },
    {
      "inputs": [
        {
          "internalType": "address",
          "name": "to",
          "type": "address"
        },
        {
          "internalType": "uint256",
          "name": "amount",
          "type": "uint256"
        }
      ],
      "name": "distributeReward",
      "outputs": [],
      "stateMutability": "nonpayable",
      "type": "function"
    },
    {
      "inputs": [
        {
          "internalType": "address",
          "name": "token",
          "type": "address"
        },
        {
          "internalType": "uint256",
          "name": "amount",
          "type": "uint256"
        }
      ],
      "name": "emergencyRecoverTokens",
      "outputs": [],
      "stateMutability": "nonpayable",
      "type": "function"
    },
    {
      "inputs": [],
      "name": "getTotalDistributed",
      "outputs": [
        {
          "internalType": "uint256",
          "name": "",
          "type": "uint256"
        }
      ],
      "stateMutability": "view",
      "type": "function"
    },
    {
      "inputs": [
        {
          "internalType": "address",
          "name": "spender",
          "type": "address"
        },
        {
          "internalType": "uint256",
          "name": "addedValue",
          "type": "uint256"
        }
      ],
      "name": "increaseAllowance",
      "outputs": [
        {
          "internalType": "bool",
          "name": "",
          "type": "bool"
        }
      ],
      "stateMutability": "nonpayable",
      "type": "function"
    },
    {
      "inputs": [],
      "name": "name",
      "outputs": [
        {
          "internalType": "string",
          "name": "",
          "type": "string"
        }
      ],
      "stateMutability": "view",
      "type": "function"
    },
    {
      "inputs": [],
      "name": "owner",
      "outputs": [
        {
          "internalType": "address",
          "name": "",
          "type": "address"
        }
      ],
      "stateMutability": "view",
      "type": "function"
    },
    {
      "inputs": [],
      "name": "renounceOwnership",
      "outputs": [],
      "stateMutability": "nonpayable",
      "type": "function"
    },
    {
      "inputs": [
        {
          "internalType": "bool",
          "name": "_enabled",
          "type": "bool"
        }
      ],
      "name": "setTransfersEnabled",
      "outputs": [],
      "stateMutability": "nonpayable",
      "type": "function"
    },
    {
      "inputs": [],
      "name": "symbol",
      "outputs": [
        {
          "internalType": "string",
          "name": "",
          "type": "string"
        }
      ],
      "stateMutability": "view",
      "type": "function"
    },
    {
      "inputs": [],
      "name": "totalSupply",
      "outputs": [
        {
          "internalType": "uint256",
          "name": "",
          "type": "uint256"
        }
      ],
      "stateMutability": "view",
      "type": "function"
    },
    {
      "inputs": [
        {
          "internalType": "address",
          "name": "to",
          "type": "address"
        },
        {
          "internalType": "uint256",
          "name": "amount",
          "type": "uint256"
        }
      ],
      "name": "transfer",
      "outputs": [
        {
          "internalType": "bool",
          "name": "",
          "type": "bool"
        }
      ],
      "stateMutability": "nonpayable",
      "type": "function"
    },
    {
      "inputs": [
        {
          "internalType": "address",
          "name": "from",
          "type": "address"
        },
        {
          "internalType": "address",
          "name": "to",
          "type": "address"
        },
        {
          "internalType": "uint256",
          "name": "amount",
          "type": "uint256"
        }
      ],
      "name": "transferFrom",
      "outputs": [
        {
          "internalType": "bool",
          "name": "",
          "type": "bool"
        }
      ],
      "stateMutability": "nonpayable",
      "type": "function"
    },
    {
      "inputs": [
        {
          "internalType": "address",
          "name": "newOwner",
          "type": "address"
        }
      ],
      "name": "transferOwnership",
      "outputs": [],
      "stateMutability": "nonpayable",
      "type": "function"
    },
    {
      "inputs": [],
      "name": "transfersEnabled",
      "outputs": [
        {
          "internalType": "bool",
          "name": "",
          "type": "bool"
        }
      ],
      "stateMutability": "view",
      "type": "function"
    }
  ],
  "bytecode": "0x60806040526000600560146101000a81548160ff02191690831515021790555034801561002b57600080fd5b50604051612ef3380380612ef3833981810160405281019061004d919061055f565b6040518060400160405280601081526020017f506c616365686f6c6465722056455254000000000000000000000000000000008152506040518060400160405280600581526020017f705645525400000000000000000000000000000000000000000000000000000081525081600390816100c891906107dc565b5080600490816100d891906107dc565b5050506100f76100ec61018860201b60201c565b61019060201b60201c565b600073ffffffffffffffffffffffffffffffffffffffff168173ffffffffffffffffffffffffffffffffffffffff1603610166576040517f08c379a000000000000000000000000000000000000000000000000000000000815260040161015d90610931565b60405180910390fd5b610182816b033b2e3c9fd0803ce800000061025660201b60201c565b50610adc565b600033905090565b6000600560009054906101000a900473ffffffffffffffffffffffffffffffffffffffff16905081600560006101000a81548173ffffffffffffffffffffffffffffffffffffffff021916908373ffffffffffffffffffffffffffffffffffffffff1602179055508173ffffffffffffffffffffffffffffffffffffffff168173ffffffffffffffffffffffffffffffffffffffff167f8be0079c531659141344cd1fd0a4f28419497f9722a3daafe3b4186f6b6457e060405160405180910390a35050565b600073ffffffffffffffffffffffffffffffffffffffff168273ffffffffffffffffffffffffffffffffffffffff16036102c5576040517f08c379a00000000000000000000000000000000000000000000000000000000081526004016102bc9061099d565b60405180910390fd5b6102d7600083836103b860201b60201c565b80600260008282546102e991906109ec565b92505081905550806000808473ffffffffffffffffffffffffffffffffffffffff1673ffffffffffffffffffffffffffffffffffffffff168152602001908152602001600020600082825401925050819055508173ffffffffffffffffffffffffffffffffffffffff16600073ffffffffffffffffffffffffffffffffffffffff167fddf252ad1be2c89b69c2b068fc378daa952ba7f163c4a11628f55a4df523b3ef8360405161039a9190610a2f565b60405180910390a36103b4600083836104c860201b60201c565b5050565b6103c98383836104cd60201b60201c565b600073ffffffffffffffffffffffffffffffffffffffff168373ffffffffffffffffffffffffffffffffffffffff1603156104c357600073ffffffffffffffffffffffffffffffffffffffff168273ffffffffffffffffffffffffffffffffffffffff1603156104c3576104416104d260201b60201c565b73ffffffffffffffffffffffffffffffffffffffff168373ffffffffffffffffffffffffffffffffffffffff1603156104c357600560149054906101000a900460ff166104c3576040517f08c379a00000000000000000000000000000000000000000000000000000000081526004016104ba90610abc565b60405180910390fd5b505050565b505050565b505050565b6000600560009054906101000a900473ffffffffffffffffffffffffffffffffffffffff16905090565b600080fd5b600073ffffffffffffffffffffffffffffffffffffffff82169050919050565b600061052c82610501565b9050919050565b61053c81610521565b811461054757600080fd5b50565b60008151905061055981610533565b92915050565b600060208284031215610575576105746104fc565b5b60006105838482850161054a565b91505092915050565b600081519050919050565b7f4e487b7100000000000000000000000000000000000000000000000000000000600052604160045260246000fd5b7f4e487b7100000000000000000000000000000000000000000000000000000000600052602260045260246000fd5b6000600282049050600182168061060d57607f821691505b6020821081036106205761061f6105c6565b5b50919050565b60008190508160005260206000209050919050565b60006020601f8301049050919050565b600082821b905092915050565b6000600883026106887fffffffffffffffffffffffffffffffffffffffffffffffffffffffffffffffff8261064b565b610692868361064b565b95508019841693508086168417925050509392505050565b6000819050919050565b6000819050919050565b60006106d96106d46106cf846106aa565b6106b4565b6106aa565b9050919050565b6000819050919050565b6106f3836106be565b6107076106ff826106e0565b848454610658565b825550505050565b600090565b61071c61070f565b6107278184846106ea565b505050565b5b8181101561074b57610740600082610714565b60018101905061072d565b5050565b601f8211156107905761076181610626565b61076a8461063b565b81016020851015610779578190505b61078d6107858561063b565b83018261072c565b50505b505050565b600082821c905092915050565b60006107b360001984600802610795565b1980831691505092915050565b60006107cc83836107a2565b9150826002028217905092915050565b6107e58261058c565b67ffffffffffffffff8111156107fe576107fd610597565b5b61080882546105f5565b61081382828561074f565b600060209050601f8311600181146108465760008415610834578287015190505b61083e85826107c0565b8655506108a6565b601f19841661085486610626565b60005b8281101561087c57848901518255600182019150602085019450602081019050610857565b868310156108995784890151610895601f8916826107a2565b8355505b6001600288020188555050505b505050505050565b600082825260208201905092915050565b7f5465616d2077616c6c65742063616e6e6f74206265207a65726f20616464726560008201527f7373000000000000000000000000000000000000000000000000000000000000602082015250565b600061091b6022836108ae565b9150610926826108bf565b604082019050919050565b6000602082019050818103600083015261094a8161090e565b9050919050565b7f45524332303a206d696e7420746f20746865207a65726f206164647265737300600082015250565b6000610987601f836108ae565b915061099282610951565b602082019050919050565b600060208201905081810360008301526109b68161097a565b9050919050565b7f4e487b7100000000000000000000000000000000000000000000000000000000600052601160045260246000fd5b60006109f7826106aa565b9150610a02836106aa565b9250828201905080821115610a1a57610a196109bd565b5b92915050565b610a29816106aa565b82525050565b6000602082019050610a446000830184610a20565b92915050565b7f70564552543a207472616e73666572732064697361626c65642062657477656560008201527f6e20757365727300000000000000000000000000000000000000000000000000602082015250565b6000610aa66027836108ae565b9150610ab182610a4a565b604082019050919050565b60006020820190508181036000830152610ad581610a99565b9050919050565b61240880610aeb6000396000f3fe608060405234801561001057600080fd5b50600436106101375760003560e01c806370a08231116100b857806395d89b411161007c57806395d89b411461032a578063a457c2d714610348578063a9059cbb14610378578063bef97c87146103a8578063dd62ed3e146103c6578063f2fde38b146103f657610137565b806370a0823114610298578063715018a6146102c85780638da5cb5b146102d2578063902d55a5146102f057806394ad7e371461030e57610137565b806326b9ce13116100ff57806326b9ce13146101f4578063313ce56714610210578063395093511461022e5780633dcd2c1d1461025e5780635695fa581461027a57610137565b806306fdde031461013c578063095ea7b31461015a57806318160ddd1461018a5780631ec8bb8c146101a857806323b872dd146101c4575b600080fd5b610144610412565b60405161015191906115ef565b60405180910390f35b610174600480360381019061016f91906116af565b6104a4565b604051610181919061170a565b60405180910390f35b6101926104c7565b60405161019f9190611734565b60405180910390f35b6101c260048036038101906101bd91906116af565b6104d1565b005b6101de60048036038101906101d9919061174f565b610641565b6040516101eb919061170a565b60405180910390f35b61020e600480360381019061020991906117ce565b610670565b005b6102186106cc565b6040516102259190611817565b60405180910390f35b610248600480360381019061024391906116af565b6106d5565b604051610255919061170a565b60405180910390f35b610278600480360381019061027391906116af565b61070c565b005b61028261080c565b60405161028f9190611734565b60405180910390f35b6102b260048036038101906102ad9190611832565b61083a565b6040516102bf9190611734565b60405180910390f35b6102d0610882565b005b6102da610896565b6040516102e7919061186e565b60405180910390f35b6102f86108c0565b6040516103059190611734565b60405180910390f35b61032860048036038101906103239190611944565b6108d0565b005b610332610bf1565b60405161033f91906115ef565b60405180910390f35b610362600480360381019061035d91906116af565b610c83565b60405161036f919061170a565b60405180910390f35b610392600480360381019061038d91906116af565b610cfa565b60405161039f919061170a565b60405180910390f35b6103b0610d1d565b6040516103bd919061170a565b60405180910390f35b6103e060048036038101906103db91906119c5565b610d30565b6040516103ed9190611734565b60405180910390f35b610410600480360381019061040b9190611832565b610db7565b005b60606003805461042190611a34565b80601f016020809104026020016040519081016040528092919081815260200182805461044d90611a34565b801561049a5780601f1061046f5761010080835404028352916020019161049a565b820191906000526020600020905b81548152906001019060200180831161047d57829003601f168201915b5050505050905090565b6000806104af610e3a565b90506104bc818585610e42565b600191505092915050565b6000600254905090565b6104d961100b565b600073ffffffffffffffffffffffffffffffffffffffff168273ffffffffffffffffffffffffffffffffffffffff1603610548576040517f08c379a000000000000000000000000000000000000000000000000000000000815260040161053f90611ad7565b60405180910390fd5b6000811161058b576040517f08c379a000000000000000000000000000000000000000000000000000000000815260040161058290611b43565b60405180910390fd5b8061059c610597610896565b61083a565b10156105dd576040517f08c379a00000000000000000000000000000000000000000000000000000000081526004016105d490611bd5565b60405180910390fd5b6105ef6105e8610896565b8383611089565b8173ffffffffffffffffffffffffffffffffffffffff167fe34918ff1c7084970068b53fd71ad6d8b04e9f15d3886cbf006443e6cdc52ea6826040516106359190611734565b60405180910390a25050565b60008061064c610e3a565b90506106598582856112ff565b610664858585611089565b60019150509392505050565b61067861100b565b80600560146101000a81548160ff0219169083151502179055507f2cac12335272569cae3b5eead61f36da81730100604965d574b896ad69c99153816040516106c1919061170a565b60405180910390a150565b60006012905090565b6000806106e0610e3a565b90506107018185856106f28589610d30565b6106fc9190611c24565b610e42565b600191505092915050565b61071461100b565b3073ffffffffffffffffffffffffffffffffffffffff168273ffffffffffffffffffffffffffffffffffffffff1603610782576040517f08c379a000000000000000000000000000000000000000000000000000000000815260040161077990611ca4565b60405180910390fd5b8173ffffffffffffffffffffffffffffffffffffffff1663a9059cbb6107a6610896565b836040518363ffffffff1660e01b81526004016107c4929190611cc4565b6020604051808303816000875af11580156107e3573d6000803e3d6000fd5b505050506040513d601f19601f820116820180604052508101906108079190611d02565b505050565b600061081e610819610896565b61083a565b6b033b2e3c9fd0803ce80000006108359190611d2f565b905090565b60008060008373ffffffffffffffffffffffffffffffffffffffff1673ffffffffffffffffffffffffffffffffffffffff168152602001908152602001600020549050919050565b61088a61100b565b610894600061138b565b565b6000600560009054906101000a900473ffffffffffffffffffffffffffffffffffffffff16905090565b6b033b2e3c9fd0803ce800000081565b6108d861100b565b818190508484905014610920576040517f08c379a000000000000000000000000000000000000000000000000000000000815260040161091790611daf565b60405180910390fd5b60008484905011610966576040517f08c379a000000000000000000000000000000000000000000000000000000000815260040161095d90611e1b565b60405180910390fd5b6000805b83839050811015610a9b57600073ffffffffffffffffffffffffffffffffffffffff168686838181106109a05761099f611e3b565b5b90506020020160208101906109b59190611832565b73ffffffffffffffffffffffffffffffffffffffff1603610a0b576040517f08c379a0000000000000000000000000000000000000000000000000000000008152600401610a0290611ad7565b60405180910390fd5b6000848483818110610a2057610a1f611e3b565b5b9050602002013511610a67576040517f08c379a0000000000000000000000000000000000000000000000000000000008152600401610a5e90611b43565b60405180910390fd5b838382818110610a7a57610a79611e3b565b5b9050602002013582610a8c9190611c24565b9150808060010191505061096a565b5080610aad610aa8610896565b61083a565b1015610aee576040517f08c379a0000000000000000000000000000000000000000000000000000000008152600401610ae590611bd5565b60405180910390fd5b60005b85859050811015610be957610b4e610b07610896565b878784818110610b1a57610b19611e3b565b5b9050602002016020810190610b2f9190611832565b868685818110610b4257610b41611e3b565b5b90506020020135611089565b858582818110610b6157610b60611e3b565b5b9050602002016020810190610b769190611832565b73ffffffffffffffffffffffffffffffffffffffff167fe34918ff1c7084970068b53fd71ad6d8b04e9f15d3886cbf006443e6cdc52ea6858584818110610bc057610bbf611e3b565b5b90506020020135604051610bd49190611734565b60405180910390a28080600101915050610af1565b505050505050565b606060048054610c0090611a34565b80601f0160208091040260200160405190810160405280929190818152602001828054610c2c90611a34565b8015610c795780601f10610c4e57610100808354040283529160200191610c79565b820191906000526020600020905b815481529060010190602001808311610c5c57829003601f168201915b5050505050905090565b600080610c8e610e3a565b90506000610c9c8286610d30565b905083811015610ce1576040517f08c379a0000000000000000000000000000000000000000000000000000000008152600401610cd890611edc565b60405180910390fd5b610cee8286868403610e42565b60019250505092915050565b600080610d05610e3a565b9050610d12818585611089565b600191505092915050565b600560149054906101000a900460ff1681565b6000600160008473ffffffffffffffffffffffffffffffffffffffff1673ffffffffffffffffffffffffffffffffffffffff16815260200190815260200160002060008373ffffffffffffffffffffffffffffffffffffffff1673ffffffffffffffffffffffffffffffffffffffff16815260200190815260200160002054905092915050565b610dbf61100b565b600073ffffffffffffffffffffffffffffffffffffffff168173ffffffffffffffffffffffffffffffffffffffff1603610e2e576040517f08c379a0000000000000000000000000000000000000000000000000000000008152600401610e2590611f6e565b60405180910390fd5b610e378161138b565b50565b600033905090565b600073ffffffffffffffffffffffffffffffffffffffff168373ffffffffffffffffffffffffffffffffffffffff1603610eb1576040517f08c379a0000000000000000000000000000000000000000000000000000000008152600401610ea890612000565b60405180910390fd5b600073ffffffffffffffffffffffffffffffffffffffff168273ffffffffffffffffffffffffffffffffffffffff1603610f20576040517f08c379a0000000000000000000000000000000000000000000000000000000008152600401610f1790612092565b60405180910390fd5b80600160008573ffffffffffffffffffffffffffffffffffffffff1673ffffffffffffffffffffffffffffffffffffffff16815260200190815260200160002060008473ffffffffffffffffffffffffffffffffffffffff1673ffffffffffffffffffffffffffffffffffffffff168152602001908152602001600020819055508173ffffffffffffffffffffffffffffffffffffffff168373ffffffffffffffffffffffffffffffffffffffff167f8c5be1e5ebec7d5bd14f71427d1e84f3dd0314c0f7b2291e5b200ac8c7c3b92583604051610ffe9190611734565b60405180910390a3505050565b611013610e3a565b73ffffffffffffffffffffffffffffffffffffffff16611031610896565b73ffffffffffffffffffffffffffffffffffffffff1614611087576040517f08c379a000000000000000000000000000000000000000000000000000000000815260040161107e906120fe565b60405180910390fd5b565b600073ffffffffffffffffffffffffffffffffffffffff168373ffffffffffffffffffffffffffffffffffffffff16036110f8576040517f08c379a00000000000000000000000000000000000000000000000000000000081526004016110ef90612190565b60405180910390fd5b600073ffffffffffffffffffffffffffffffffffffffff168273ffffffffffffffffffffffffffffffffffffffff1603611167576040517f08c379a000000000000000000000000000000000000000000000000000000000815260040161115e90612222565b60405180910390fd5b611172838383611451565b60008060008573ffffffffffffffffffffffffffffffffffffffff1673ffffffffffffffffffffffffffffffffffffffff168152602001908152602001600020549050818110156111f8576040517f08c379a00000000000000000000000000000000000000000000000000000000081526004016111ef906122b4565b60405180910390fd5b8181036000808673ffffffffffffffffffffffffffffffffffffffff1673ffffffffffffffffffffffffffffffffffffffff16815260200190815260200160002081905550816000808573ffffffffffffffffffffffffffffffffffffffff1673ffffffffffffffffffffffffffffffffffffffff168152602001908152602001600020600082825401925050819055508273ffffffffffffffffffffffffffffffffffffffff168473ffffffffffffffffffffffffffffffffffffffff167fddf252ad1be2c89b69c2b068fc378daa952ba7f163c4a11628f55a4df523b3ef846040516112e69190611734565b60405180910390a36112f9848484611555565b50505050565b600061130b8484610d30565b90507fffffffffffffffffffffffffffffffffffffffffffffffffffffffffffffffff81146113855781811015611377576040517f08c379a000000000000000000000000000000000000000000000000000000000815260040161136e90612320565b60405180910390fd5b6113848484848403610e42565b5b50505050565b6000600560009054906101000a900473ffffffffffffffffffffffffffffffffffffffff16905081600560006101000a81548173ffffffffffffffffffffffffffffffffffffffff021916908373ffffffffffffffffffffffffffffffffffffffff1602179055508173ffffffffffffffffffffffffffffffffffffffff168173ffffffffffffffffffffffffffffffffffffffff167f8be0079c531659141344cd1fd0a4f28419497f9722a3daafe3b4186f6b6457e060405160405180910390a35050565b61145c83838361155a565b600073ffffffffffffffffffffffffffffffffffffffff168373ffffffffffffffffffffffffffffffffffffffff16031561155057600073ffffffffffffffffffffffffffffffffffffffff168273ffffffffffffffffffffffffffffffffffffffff160315611550576114ce610896565b73ffffffffffffffffffffffffffffffffffffffff168373ffffffffffffffffffffffffffffffffffffffff16031561155057600560149054906101000a900460ff16611550576040517f08c379a0000000000000000000000000000000000000000000000000000000008152600401611547906123b2565b60405180910390fd5b505050565b505050565b505050565b600081519050919050565b600082825260208201905092915050565b60005b8381101561159957808201518184015260208101905061157e565b60008484015250505050565b6000601f19601f8301169050919050565b60006115c18261155f565b6115cb818561156a565b93506115db81856020860161157b565b6115e4816115a5565b840191505092915050565b6000602082019050818103600083015261160981846115b6565b905092915050565b600080fd5b600080fd5b600073ffffffffffffffffffffffffffffffffffffffff82169050919050565b60006116468261161b565b9050919050565b6116568161163b565b811461166157600080fd5b50565b6000813590506116738161164d565b92915050565b6000819050919050565b61168c81611679565b811461169757600080fd5b50565b6000813590506116a981611683565b92915050565b600080604083850312156116c6576116c5611611565b5b60006116d485828601611664565b92505060206116e58582860161169a565b9150509250929050565b60008115159050919050565b611704816116ef565b82525050565b600060208201905061171f60008301846116fb565b92915050565b61172e81611679565b82525050565b60006020820190506117496000830184611725565b92915050565b60008060006060848603121561176857611767611611565b5b600061177686828701611664565b935050602061178786828701611664565b92505060406117988682870161169a565b9150509250925092565b6117ab816116ef565b81146117b657600080fd5b50565b6000813590506117c8816117a2565b92915050565b6000602082840312156117e4576117e3611611565b5b60006117f2848285016117b9565b91505092915050565b600060ff82169050919050565b611811816117fb565b82525050565b600060208201905061182c6000830184611808565b92915050565b60006020828403121561184857611847611611565b5b600061185684828501611664565b91505092915050565b6118688161163b565b82525050565b6000602082019050611883600083018461185f565b92915050565b600080fd5b600080fd5b600080fd5b60008083601f8401126118ae576118ad611889565b5b8235905067ffffffffffffffff8111156118cb576118ca61188e565b5b6020830191508360208202830111156118e7576118e6611893565b5b9250929050565b60008083601f84011261190457611903611889565b5b8235905067ffffffffffffffff8111156119215761192061188e565b5b60208301915083602082028301111561193d5761193c611893565b5b9250929050565b6000806000806040858703121561195e5761195d611611565b5b600085013567ffffffffffffffff81111561197c5761197b611616565b5b61198887828801611898565b9450945050602085013567ffffffffffffffff8111156119ab576119aa611616565b5b6119b7878288016118ee565b925092505092959194509250565b600080604083850312156119dc576119db611611565b5b60006119ea85828601611664565b92505060206119fb85828601611664565b9150509250929050565b7f4e487b7100000000000000000000000000000000000000000000000000000000600052602260045260246000fd5b60006002820490506001821680611a4c57607f821691505b602082108103611a5f57611a5e611a05565b5b50919050565b7f43616e6e6f74206469737472696275746520746f207a65726f2061646472657360008201527f7300000000000000000000000000000000000000000000000000000000000000602082015250565b6000611ac160218361156a565b9150611acc82611a65565b604082019050919050565b60006020820190508181036000830152611af081611ab4565b9050919050565b7f416d6f756e74206d7573742062652067726561746572207468616e2030000000600082015250565b6000611b2d601d8361156a565b9150611b3882611af7565b602082019050919050565b60006020820190508181036000830152611b5c81611b20565b9050919050565b7f496e73756666696369656e742062616c616e636520666f72206469737472696260008201527f7574696f6e000000000000000000000000000000000000000000000000000000602082015250565b6000611bbf60258361156a565b9150611bca82611b63565b604082019050919050565b60006020820190508181036000830152611bee81611bb2565b9050919050565b7f4e487b7100000000000000000000000000000000000000000000000000000000600052601160045260246000fd5b6000611c2f82611679565b9150611c3a83611679565b9250828201905080821115611c5257611c51611bf5565b5b92915050565b7f43616e6e6f74207265636f76657220705645525420746f6b656e730000000000600082015250565b6000611c8e601b8361156a565b9150611c9982611c58565b602082019050919050565b60006020820190508181036000830152611cbd81611c81565b9050919050565b6000604082019050611cd9600083018561185f565b611ce66020830184611725565b9392505050565b600081519050611cfc816117a2565b92915050565b600060208284031215611d1857611d17611611565b5b6000611d2684828501611ced565b91505092915050565b6000611d3a82611679565b9150611d4583611679565b9250828203905081811115611d5d57611d5c611bf5565b5b92915050565b7f417272617973206c656e677468206d69736d6174636800000000000000000000600082015250565b6000611d9960168361156a565b9150611da482611d63565b602082019050919050565b60006020820190508181036000830152611dc881611d8c565b9050919050565b7f456d707479206172726179730000000000000000000000000000000000000000600082015250565b6000611e05600c8361156a565b9150611e1082611dcf565b602082019050919050565b60006020820190508181036000830152611e3481611df8565b9050919050565b7f4e487b7100000000000000000000000000000000000000000000000000000000600052603260045260246000fd5b7f45524332303a2064656372656173656420616c6c6f77616e63652062656c6f7760008201527f207a65726f000000000000000000000000000000000000000000000000000000602082015250565b6000611ec660258361156a565b9150611ed182611e6a565b604082019050919050565b60006020820190508181036000830152611ef581611eb9565b9050919050565b7f4f776e61626c653a206e6577206f776e657220697320746865207a65726f206160008201527f6464726573730000000000000000000000000000000000000000000000000000602082015250565b6000611f5860268361156a565b9150611f6382611efc565b604082019050919050565b60006020820190508181036000830152611f8781611f4b565b9050919050565b7f45524332303a20617070726f76652066726f6d20746865207a65726f2061646460008201527f7265737300000000000000000000000000000000000000000000000000000000602082015250565b6000611fea60248361156a565b9150611ff582611f8e565b604082019050919050565b6000602082019050818103600083015261201981611fdd565b9050919050565b7f45524332303a20617070726f766520746f20746865207a65726f20616464726560008201527f7373000000000000000000000000000000000000000000000000000000000000602082015250565b600061207c60228361156a565b915061208782612020565b604082019050919050565b600060208201905081810360008301526120ab8161206f565b9050919050565b7f4f776e61626c653a2063616c6c6572206973206e6f7420746865206f776e6572600082015250565b60006120e860208361156a565b91506120f3826120b2565b602082019050919050565b60006020820190508181036000830152612117816120db565b9050919050565b7f45524332303a207472616e736665722066726f6d20746865207a65726f20616460008201527f6472657373000000000000000000000000000000000000000000000000000000602082015250565b600061217a60258361156a565b91506121858261211e565b604082019050919050565b600060208201905081810360008301526121a98161216d565b9050919050565b7f45524332303a207472616e7366657220746f20746865207a65726f206164647260008201527f6573730000000000000000000000000000000000000000000000000000000000602082015250565b600061220c60238361156a565b9150612217826121b0565b604082019050919050565b6000602082019050818103600083015261223b816121ff565b9050919050565b7f45524332303a207472616e7366657220616d6f756e742065786365656473206260008201527f616c616e63650000000000000000000000000000000000000000000000000000602082015250565b600061229e60268361156a565b91506122a982612242565b604082019050919050565b600060208201905081810360008301526122cd81612291565b9050919050565b7f45524332303a20696e73756666696369656e7420616c6c6f77616e6365000000600082015250565b600061230a601d8361156a565b9150612315826122d4565b602082019050919050565b60006020820190508181036000830152612339816122fd565b9050919050565b7f70564552543a207472616e73666572732064697361626c65642062657477656560008201527f6e20757365727300000000000000000000000000000000000000000000000000602082015250565b600061239c60278361156a565b91506123a782612340565b604082019050919050565b600060208201905081810360008301526123cb8161238f565b905091905056fea2646970667358221220e9e8b883e69af1275577d742155a2ee6e631696605ef51fbd7670e1a67e2fbf664736f6c634300081c0033",
  "linkReferences": {},
  "deployedLinkReferences": {}
}