{
  "_format": "hh-sol-artifact-1",
  "contractName": "VerticalProjectNFT",
  "sourceName": "contracts/test/VerticalProjectNFT_Testnet.sol",
  "abi": [
    {
      "inputs": [
        {
          "internalType": "address",
          "name": "_virtualToken",
          "type": "address"
        },
        {
          "internalType": "address",
          "name": "_vertToken",
          "type": "address"
        },
        {
          "internalType": "address",
          "name": "_stakingContract",
          "type": "address"
        },
        {
          "internalType": "address",
          "name": "_treasury",
          "type": "address"
        }
      ],
      "stateMutability": "nonpayable",
      "type": "constructor"
    },
    {
      "anonymous": false,
      "inputs": [
        {
          "indexed": true,
          "internalType": "address",
          "name": "owner",
          "type": "address"
        },
        {
          "indexed": true,
          "internalType": "address",
          "name": "approved",
          "type": "address"
        },
        {
          "indexed": true,
          "internalType": "uint256",
          "name": "tokenId",
          "type": "uint256"
        }
      ],
      "name": "Approval",
      "type": "event"
    },
    {
      "anonymous": false,
      "inputs": [
        {
          "indexed": true,
          "internalType": "address",
          "name": "owner",
          "type": "address"
        },
        {
          "indexed": true,
          "internalType": "address",
          "name": "operator",
          "type": "address"
        },
        {
          "indexed": false,
          "internalType": "bool",
          "name": "approved",
          "type": "bool"
        }
      ],
      "name": "ApprovalForAll",
      "type": "event"
    },
    {
      "anonymous": false,
      "inputs": [
        {
          "indexed": false,
          "internalType": "uint256",
          "name": "_fromTokenId",
          "type": "uint256"
        },
        {
          "indexed": false,
          "internalType": "uint256",
          "name": "_toTokenId",
          "type": "uint256"
        }
      ],
      "name": "BatchMetadataUpdate",
      "type": "event"
    },
    {
      "anonymous": false,
      "inputs": [
        {
          "indexed": false,
          "internalType": "uint256",
          "name": "_tokenId",
          "type": "uint256"
        }
      ],
      "name": "MetadataUpdate",
      "type": "event"
    },
    {
      "anonymous": false,
      "inputs": [
        {
          "indexed": true,
          "internalType": "address",
          "name": "user",
          "type": "address"
        },
        {
          "indexed": false,
          "internalType": "uint256",
          "name": "tokenId",
          "type": "uint256"
        },
        {
          "indexed": false,
          "internalType": "enum VerticalProjectNFT.Rarity",
          "name": "rarity",
          "type": "uint8"
        },
        {
          "indexed": false,
          "internalType": "string",
          "name": "uri",
          "type": "string"
        }
      ],
      "name": "NFTMinted",
      "type": "event"
    },
    {
      "anonymous": false,
      "inputs": [
        {
          "indexed": true,
          "internalType": "address",
          "name": "previousOwner",
          "type": "address"
        },
        {
          "indexed": true,
          "internalType": "address",
          "name": "newOwner",
          "type": "address"
        }
      ],
      "name": "OwnershipTransferred",
      "type": "event"
    },
    {
      "anonymous": false,
      "inputs": [
        {
          "indexed": false,
          "internalType": "address",
          "name": "account",
          "type": "address"
        }
      ],
      "name": "Paused",
      "type": "event"
    },
    {
      "anonymous": false,
      "inputs": [
        {
          "indexed": true,
          "internalType": "address",
          "name": "user",
          "type": "address"
        },
        {
          "indexed": false,
          "internalType": "uint256",
          "name": "amount",
          "type": "uint256"
        }
      ],
      "name": "PrizeClaimed",
      "type": "event"
    },
    {
      "anonymous": false,
      "inputs": [
        {
          "indexed": false,
          "internalType": "uint256",
          "name": "newTotal",
          "type": "uint256"
        }
      ],
      "name": "PrizePoolUpdated",
      "type": "event"
    },
    {
      "anonymous": false,
      "inputs": [
        {
          "indexed": true,
          "internalType": "address",
          "name": "from",
          "type": "address"
        },
        {
          "indexed": true,
          "internalType": "address",
          "name": "to",
          "type": "address"
        },
        {
          "indexed": true,
          "internalType": "uint256",
          "name": "tokenId",
          "type": "uint256"
        }
      ],
      "name": "Transfer",
      "type": "event"
    },
    {
      "anonymous": false,
      "inputs": [
        {
          "indexed": false,
          "internalType": "address",
          "name": "account",
          "type": "address"
        }
      ],
      "name": "Unpaused",
      "type": "event"
    },
    {
      "anonymous": false,
      "inputs": [
        {
          "indexed": false,
          "internalType": "address",
          "name": "newVertToken",
          "type": "address"
        }
      ],
      "name": "VertTokenUpdated",
      "type": "event"
    },
    {
      "anonymous": false,
      "inputs": [
        {
          "indexed": false,
          "internalType": "address",
          "name": "newVirtualToken",
          "type": "address"
        }
      ],
      "name": "VirtualTokenUpdated",
      "type": "event"
    },
    {
      "inputs": [],
      "name": "ROYALTY_FEE_BPS",
      "outputs": [
        {
          "internalType": "uint96",
          "name": "",
          "type": "uint96"
        }
      ],
      "stateMutability": "view",
      "type": "function"
    },
    {
      "inputs": [
        {
          "internalType": "address",
          "name": "to",
          "type": "address"
        },
        {
          "internalType": "uint256",
          "name": "tokenId",
          "type": "uint256"
        }
      ],
      "name": "approve",
      "outputs": [],
      "stateMutability": "nonpayable",
      "type": "function"
    },
    {
      "inputs": [
        {
          "internalType": "address",
          "name": "owner",
          "type": "address"
        }
      ],
      "name": "balanceOf",
      "outputs": [
        {
          "internalType": "uint256",
          "name": "",
          "type": "uint256"
        }
      ],
      "stateMutability": "view",
      "type": "function"
    },
    {
      "inputs": [
        {
          "internalType": "address",
          "name": "user",
          "type": "address"
        }
      ],
      "name": "canMintMythical",
      "outputs": [
        {
          "internalType": "bool",
          "name": "",
          "type": "bool"
        }
      ],
      "stateMutability": "view",
      "type": "function"
    },
    {
      "inputs": [
        {
          "internalType": "address",
          "name": "to",
          "type": "address"
        },
        {
          "internalType": "uint256",
          "name": "amount",
          "type": "uint256"
        }
      ],
      "name": "claimPrize",
      "outputs": [],
      "stateMutability": "nonpayable",
      "type": "function"
    },
    {
      "inputs": [
        {
          "internalType": "uint256",
          "name": "tokenId",
          "type": "uint256"
        }
      ],
      "name": "getApproved",
      "outputs": [
        {
          "internalType": "address",
          "name": "",
          "type": "address"
        }
      ],
      "stateMutability": "view",
      "type": "function"
    },
    {
      "inputs": [],
      "name": "getPrizePoolBalance",
      "outputs": [
        {
          "internalType": "uint256",
          "name": "",
          "type": "uint256"
        }
      ],
      "stateMutability": "view",
      "type": "function"
    },
    {
      "inputs": [],
      "name": "getTotalMinted",
      "outputs": [
        {
          "internalType": "uint256",
          "name": "",
          "type": "uint256"
        }
      ],
      "stateMutability": "view",
      "type": "function"
    },
    {
      "inputs": [
        {
          "internalType": "address",
          "name": "owner",
          "type": "address"
        },
        {
          "internalType": "address",
          "name": "operator",
          "type": "address"
        }
      ],
      "name": "isApprovedForAll",
      "outputs": [
        {
          "internalType": "bool",
          "name": "",
          "type": "bool"
        }
      ],
      "stateMutability": "view",
      "type": "function"
    },
    {
      "inputs": [
        {
          "internalType": "address",
          "name": "user",
          "type": "address"
        }
      ],
      "name": "isEligibleForMythical",
      "outputs": [
        {
          "internalType": "bool",
          "name": "",
          "type": "bool"
        }
      ],
      "stateMutability": "view",
      "type": "function"
    },
    {
      "inputs": [
        {
          "internalType": "string",
          "name": "tokenURI",
          "type": "string"
        }
      ],
      "name": "mintWithVert",
      "outputs": [],
      "stateMutability": "nonpayable",
      "type": "function"
    },
    {
      "inputs": [
        {
          "internalType": "string",
          "name": "tokenURI",
          "type": "string"
        }
      ],
      "name": "mintWithVirtual",
      "outputs": [],
      "stateMutability": "nonpayable",
      "type": "function"
    },
    {
      "inputs": [],
      "name": "name",
      "outputs": [
        {
          "internalType": "string",
          "name": "",
          "type": "string"
        }
      ],
      "stateMutability": "view",
      "type": "function"
    },
    {
      "inputs": [],
      "name": "nextTokenId",
      "outputs": [
        {
          "internalType": "uint256",
          "name": "",
          "type": "uint256"
        }
      ],
      "stateMutability": "view",
      "type": "function"
    },
    {
      "inputs": [],
      "name": "owner",
      "outputs": [
        {
          "internalType": "address",
          "name": "",
          "type": "address"
        }
      ],
      "stateMutability": "view",
      "type": "function"
    },
    {
      "inputs": [
        {
          "internalType": "uint256",
          "name": "tokenId",
          "type": "uint256"
        }
      ],
      "name": "ownerOf",
      "outputs": [
        {
          "internalType": "address",
          "name": "",
          "type": "address"
        }
      ],
      "stateMutability": "view",
      "type": "function"
    },
    {
      "inputs": [],
      "name": "pause",
      "outputs": [],
      "stateMutability": "nonpayable",
      "type": "function"
    },
    {
      "inputs": [],
      "name": "paused",
      "outputs": [
        {
          "internalType": "bool",
          "name": "",
          "type": "bool"
        }
      ],
      "stateMutability": "view",
      "type": "function"
    },
    {
      "inputs": [],
      "name": "priceVert",
      "outputs": [
        {
          "internalType": "uint256",
          "name": "",
          "type": "uint256"
        }
      ],
      "stateMutability": "view",
      "type": "function"
    },
    {
      "inputs": [],
      "name": "priceVirtual",
      "outputs": [
        {
          "internalType": "uint256",
          "name": "",
          "type": "uint256"
        }
      ],
      "stateMutability": "view",
      "type": "function"
    },
    {
      "inputs": [
        {
          "internalType": "enum VerticalProjectNFT.Rarity",
          "name": "",
          "type": "uint8"
        }
      ],
      "name": "prizePercentByRarity",
      "outputs": [
        {
          "internalType": "uint256",
          "name": "",
          "type": "uint256"
        }
      ],
      "stateMutability": "view",
      "type": "function"
    },
    {
      "inputs": [],
      "name": "prizePool",
      "outputs": [
        {
          "internalType": "uint256",
          "name": "",
          "type": "uint256"
        }
      ],
      "stateMutability": "view",
      "type": "function"
    },
    {
      "inputs": [],
      "name": "renounceOwnership",
      "outputs": [],
      "stateMutability": "nonpayable",
      "type": "function"
    },
    {
      "inputs": [
        {
          "internalType": "uint256",
          "name": "",
          "type": "uint256"
        },
        {
          "internalType": "uint256",
          "name": "salePrice",
          "type": "uint256"
        }
      ],
      "name": "royaltyInfo",
      "outputs": [
        {
          "internalType": "address",
          "name": "",
          "type": "address"
        },
        {
          "internalType": "uint256",
          "name": "",
          "type": "uint256"
        }
      ],
      "stateMutability": "view",
      "type": "function"
    },
    {
      "inputs": [
        {
          "internalType": "address",
          "name": "from",
          "type": "address"
        },
        {
          "internalType": "address",
          "name": "to",
          "type": "address"
        },
        {
          "internalType": "uint256",
          "name": "tokenId",
          "type": "uint256"
        }
      ],
      "name": "safeTransferFrom",
      "outputs": [],
      "stateMutability": "nonpayable",
      "type": "function"
    },
    {
      "inputs": [
        {
          "internalType": "address",
          "name": "from",
          "type": "address"
        },
        {
          "internalType": "address",
          "name": "to",
          "type": "address"
        },
        {
          "internalType": "uint256",
          "name": "tokenId",
          "type": "uint256"
        },
        {
          "internalType": "bytes",
          "name": "data",
          "type": "bytes"
        }
      ],
      "name": "safeTransferFrom",
      "outputs": [],
      "stateMutability": "nonpayable",
      "type": "function"
    },
    {
      "inputs": [
        {
          "internalType": "address",
          "name": "operator",
          "type": "address"
        },
        {
          "internalType": "bool",
          "name": "approved",
          "type": "bool"
        }
      ],
      "name": "setApprovalForAll",
      "outputs": [],
      "stateMutability": "nonpayable",
      "type": "function"
    },
    {
      "inputs": [
        {
          "internalType": "uint256",
          "name": "newVirtualPrice",
          "type": "uint256"
        },
        {
          "internalType": "uint256",
          "name": "newVertPrice",
          "type": "uint256"
        }
      ],
      "name": "setPrices",
      "outputs": [],
      "stateMutability": "nonpayable",
      "type": "function"
    },
    {
      "inputs": [
        {
          "internalType": "enum VerticalProjectNFT.Rarity",
          "name": "rarity",
          "type": "uint8"
        },
        {
          "internalType": "uint256",
          "name": "percent",
          "type": "uint256"
        }
      ],
      "name": "setPrizePercent",
      "outputs": [],
      "stateMutability": "nonpayable",
      "type": "function"
    },
    {
      "inputs": [
        {
          "internalType": "address",
          "name": "addr",
          "type": "address"
        }
      ],
      "name": "setStakingContract",
      "outputs": [],
      "stateMutability": "nonpayable",
      "type": "function"
    },
    {
      "inputs": [
        {
          "internalType": "address",
          "name": "addr",
          "type": "address"
        }
      ],
      "name": "setTreasury",
      "outputs": [],
      "stateMutability": "nonpayable",
      "type": "function"
    },
    {
      "inputs": [
        {
          "internalType": "address",
          "name": "_vertToken",
          "type": "address"
        }
      ],
      "name": "setVertToken",
      "outputs": [],
      "stateMutability": "nonpayable",
      "type": "function"
    },
    {
      "inputs": [
        {
          "internalType": "address",
          "name": "_virtualToken",
          "type": "address"
        }
      ],
      "name": "setVirtualToken",
      "outputs": [],
      "stateMutability": "nonpayable",
      "type": "function"
    },
    {
      "inputs": [],
      "name": "stakingContract",
      "outputs": [
        {
          "internalType": "contract IStakingContract",
          "name": "",
          "type": "address"
        }
      ],
      "stateMutability": "view",
      "type": "function"
    },
    {
      "inputs": [
        {
          "internalType": "bytes4",
          "name": "interfaceId",
          "type": "bytes4"
        }
      ],
      "name": "supportsInterface",
      "outputs": [
        {
          "internalType": "bool",
          "name": "",
          "type": "bool"
        }
      ],
      "stateMutability": "view",
      "type": "function"
    },
    {
      "inputs": [],
      "name": "symbol",
      "outputs": [
        {
          "internalType": "string",
          "name": "",
          "type": "string"
        }
      ],
      "stateMutability": "view",
      "type": "function"
    },
    {
      "inputs": [
        {
          "internalType": "uint256",
          "name": "",
          "type": "uint256"
        }
      ],
      "name": "tokenRarity",
      "outputs": [
        {
          "internalType": "enum VerticalProjectNFT.Rarity",
          "name": "",
          "type": "uint8"
        }
      ],
      "stateMutability": "view",
      "type": "function"
    },
    {
      "inputs": [
        {
          "internalType": "uint256",
          "name": "tokenId",
          "type": "uint256"
        }
      ],
      "name": "tokenURI",
      "outputs": [
        {
          "internalType": "string",
          "name": "",
          "type": "string"
        }
      ],
      "stateMutability": "view",
      "type": "function"
    },
    {
      "inputs": [
        {
          "internalType": "address",
          "name": "from",
          "type": "address"
        },
        {
          "internalType": "address",
          "name": "to",
          "type": "address"
        },
        {
          "internalType": "uint256",
          "name": "tokenId",
          "type": "uint256"
        }
      ],
      "name": "transferFrom",
      "outputs": [],
      "stateMutability": "nonpayable",
      "type": "function"
    },
    {
      "inputs": [
        {
          "internalType": "address",
          "name": "newOwner",
          "type": "address"
        }
      ],
      "name": "transferOwnership",
      "outputs": [],
      "stateMutability": "nonpayable",
      "type": "function"
    },
    {
      "inputs": [],
      "name": "treasury",
      "outputs": [
        {
          "internalType": "address",
          "name": "",
          "type": "address"
        }
      ],
      "stateMutability": "view",
      "type": "function"
    },
    {
      "inputs": [],
      "name": "unpause",
      "outputs": [],
      "stateMutability": "nonpayable",
      "type": "function"
    },
    {
      "inputs": [],
      "name": "vertToken",
      "outputs": [
        {
          "internalType": "contract IERC20",
          "name": "",
          "type": "address"
        }
      ],
      "stateMutability": "view",
      "type": "function"
    },
    {
      "inputs": [],
      "name": "virtualToken",
      "outputs": [
        {
          "internalType": "contract IERC20",
          "name": "",
          "type": "address"
        }
      ],
      "stateMutability": "view",
      "type": "function"
    }
  ],
  "bytecode": "0x60806040526722b1c8c1227a0000600f556714d1120d7b16000060105534801561002857600080fd5b50604051615eff380380615eff833981810160405281019061004a91906105a1565b6040518060400160405280601081526020017f566572746963616c2050726f6a656374000000000000000000000000000000008152506040518060400160405280600781526020017f564552544e46540000000000000000000000000000000000000000000000000081525081600090816100c59190610858565b5080600190816100d59190610858565b5050506100f46100e961047060201b60201c565b61047860201b60201c565b6000600760146101000a81548160ff0219169083151502179055506001600881905550600073ffffffffffffffffffffffffffffffffffffffff168473ffffffffffffffffffffffffffffffffffffffff1603610186576040517f08c379a000000000000000000000000000000000000000000000000000000000815260040161017d906109ad565b60405180910390fd5b600073ffffffffffffffffffffffffffffffffffffffff168373ffffffffffffffffffffffffffffffffffffffff16036101f5576040517f08c379a00000000000000000000000000000000000000000000000000000000081526004016101ec90610a3f565b60405180910390fd5b600073ffffffffffffffffffffffffffffffffffffffff168173ffffffffffffffffffffffffffffffffffffffff1603610264576040517f08c379a000000000000000000000000000000000000000000000000000000000815260040161025b90610aab565b60405180910390fd5b83600a60006101000a81548173ffffffffffffffffffffffffffffffffffffffff021916908373ffffffffffffffffffffffffffffffffffffffff16021790555082600960006101000a81548173ffffffffffffffffffffffffffffffffffffffff021916908373ffffffffffffffffffffffffffffffffffffffff16021790555081600b60006101000a81548173ffffffffffffffffffffffffffffffffffffffff021916908373ffffffffffffffffffffffffffffffffffffffff16021790555080600c60006101000a81548173ffffffffffffffffffffffffffffffffffffffff021916908373ffffffffffffffffffffffffffffffffffffffff1602179055506001600d819055506003601260006001600481111561038a57610389610acb565b5b600481111561039c5761039b610acb565b5b815260200190815260200160002081905550600760126000600260048111156103c8576103c7610acb565b5b60048111156103da576103d9610acb565b5b815260200190815260200160002081905550600f601260006003600481111561040657610405610acb565b5b600481111561041857610417610acb565b5b81526020019081526020016000208190555060286012600060048081111561044357610442610acb565b5b600481111561045557610454610acb565b5b81526020019081526020016000208190555050505050610afa565b600033905090565b6000600760009054906101000a900473ffffffffffffffffffffffffffffffffffffffff16905081600760006101000a81548173ffffffffffffffffffffffffffffffffffffffff021916908373ffffffffffffffffffffffffffffffffffffffff1602179055508173ffffffffffffffffffffffffffffffffffffffff168173ffffffffffffffffffffffffffffffffffffffff167f8be0079c531659141344cd1fd0a4f28419497f9722a3daafe3b4186f6b6457e060405160405180910390a35050565b600080fd5b600073ffffffffffffffffffffffffffffffffffffffff82169050919050565b600061056e82610543565b9050919050565b61057e81610563565b811461058957600080fd5b50565b60008151905061059b81610575565b92915050565b600080600080608085870312156105bb576105ba61053e565b5b60006105c98782880161058c565b94505060206105da8782880161058c565b93505060406105eb8782880161058c565b92505060606105fc8782880161058c565b91505092959194509250565b600081519050919050565b7f4e487b7100000000000000000000000000000000000000000000000000000000600052604160045260246000fd5b7f4e487b7100000000000000000000000000000000000000000000000000000000600052602260045260246000fd5b6000600282049050600182168061068957607f821691505b60208210810361069c5761069b610642565b5b50919050565b60008190508160005260206000209050919050565b60006020601f8301049050919050565b600082821b905092915050565b6000600883026107047fffffffffffffffffffffffffffffffffffffffffffffffffffffffffffffffff826106c7565b61070e86836106c7565b95508019841693508086168417925050509392505050565b6000819050919050565b6000819050919050565b600061075561075061074b84610726565b610730565b610726565b9050919050565b6000819050919050565b61076f8361073a565b61078361077b8261075c565b8484546106d4565b825550505050565b600090565b61079861078b565b6107a3818484610766565b505050565b5b818110156107c7576107bc600082610790565b6001810190506107a9565b5050565b601f82111561080c576107dd816106a2565b6107e6846106b7565b810160208510156107f5578190505b610809610801856106b7565b8301826107a8565b50505b505050565b600082821c905092915050565b600061082f60001984600802610811565b1980831691505092915050565b6000610848838361081e565b9150826002028217905092915050565b61086182610608565b67ffffffffffffffff81111561087a57610879610613565b5b6108848254610671565b61088f8282856107cb565b600060209050601f8311600181146108c257600084156108b0578287015190505b6108ba858261083c565b865550610922565b601f1984166108d0866106a2565b60005b828110156108f8578489015182556001820191506020850194506020810190506108d3565b868310156109155784890151610911601f89168261081e565b8355505b6001600288020188555050505b505050505050565b600082825260208201905092915050565b7f5669727475616c20746f6b656e2063616e6e6f74206265207a65726f2061646460008201527f7265737300000000000000000000000000000000000000000000000000000000602082015250565b600061099760248361092a565b91506109a28261093b565b604082019050919050565b600060208201905081810360008301526109c68161098a565b9050919050565b7f5645525420746f6b656e2063616e6e6f74206265207a65726f2061646472657360008201527f7300000000000000000000000000000000000000000000000000000000000000602082015250565b6000610a2960218361092a565b9150610a34826109cd565b604082019050919050565b60006020820190508181036000830152610a5881610a1c565b9050919050565b7f54726561737572792063616e6e6f74206265207a65726f206164647265737300600082015250565b6000610a95601f8361092a565b9150610aa082610a5f565b602082019050919050565b60006020820190508181036000830152610ac481610a88565b9050919050565b7f4e487b7100000000000000000000000000000000000000000000000000000000600052602160045260246000fd5b6153f680610b096000396000f3fe608060405234801561001057600080fd5b50600436106102745760003560e01c8063719ce73e11610151578063b2da2715116100c3578063e985e9c511610087578063e985e9c51461074e578063ee99205c1461077e578063f0f442601461079c578063f24f069d146107b8578063f2fde38b146107d6578063f42bdd0e146107f257610274565b8063b2da2715146106ac578063b88d4fde146106c8578063b8fa4366146106e4578063c87b56dd14610702578063d7149aab1461073257610274565b80638da5cb5b116101155780638da5cb5b146105ec57806395d89b411461060a5780639dd373b914610628578063a22cb46514610644578063ace79f4f14610660578063afb0a3691461067c57610274565b8063719ce73e1461054657806375794a3c14610564578063785f6d66146105825780638456cb59146105b257806388ec02a0146105bc57610274565b806342842e0e116101ea5780635c975abb116101ae5780635c975abb1461048257806361d027b3146104a05780636352211e146104be578063689a0bd6146104ee57806370a082311461050c578063715018a61461053c57610274565b806342842e0e146103de578063436be372146103fa578063448843481461041857806344ee8b3d14610434578063480628ae1461046457610274565b80630ca1c5c91161023c5780630ca1c5c91461032f578063194a5fc91461034d5780631f514c521461036957806323b872dd146103875780632a55205a146103a35780633f4ba83a146103d457610274565b806301ffc9a71461027957806305fefda7146102a957806306fdde03146102c5578063081812fc146102e3578063095ea7b314610313575b600080fd5b610293600480360381019061028e91906134da565b61080e565b6040516102a09190613522565b60405180910390f35b6102c360048036038101906102be9190613573565b610888565b005b6102cd6108a2565b6040516102da9190613643565b60405180910390f35b6102fd60048036038101906102f89190613665565b610934565b60405161030a91906136d3565b60405180910390f35b61032d6004803603810190610328919061371a565b61097a565b005b610337610a91565b6040516103449190613769565b60405180910390f35b610367600480360381019061036291906137a9565b610aa7565b005b610371610b33565b60405161037e9190613848565b60405180910390f35b6103a1600480360381019061039c9190613863565b610b59565b005b6103bd60048036038101906103b89190613573565b610bb9565b6040516103cb9291906138b6565b60405180910390f35b6103dc610c13565b005b6103f860048036038101906103f39190613863565b610c25565b005b610402610c45565b60405161040f9190613906565b60405180910390f35b610432600480360381019061042d9190613a56565b610c4b565b005b61044e60048036038101906104499190613a9f565b610f33565b60405161045b9190613769565b60405180910390f35b61046c610f4b565b6040516104799190613848565b60405180910390f35b61048a610f71565b6040516104979190613522565b60405180910390f35b6104a8610f88565b6040516104b591906136d3565b60405180910390f35b6104d860048036038101906104d39190613665565b610fae565b6040516104e591906136d3565b60405180910390f35b6104f6611034565b6040516105039190613769565b60405180910390f35b61052660048036038101906105219190613acc565b61103a565b6040516105339190613769565b60405180910390f35b6105446110f1565b005b61054e611105565b60405161055b9190613769565b60405180910390f35b61056c61110b565b6040516105799190613769565b60405180910390f35b61059c60048036038101906105979190613acc565b611111565b6040516105a99190613522565b60405180910390f35b6105ba611123565b005b6105d660048036038101906105d19190613acc565b611135565b6040516105e39190613522565b60405180910390f35b6105f4611210565b60405161060191906136d3565b60405180910390f35b61061261123a565b60405161061f9190613643565b60405180910390f35b610642600480360381019061063d9190613acc565b6112cc565b005b61065e60048036038101906106599190613b25565b611318565b005b61067a6004803603810190610675919061371a565b61132e565b005b61069660048036038101906106919190613665565b6114c5565b6040516106a39190613bdc565b60405180910390f35b6106c660048036038101906106c19190613a56565b6114e5565b005b6106e260048036038101906106dd9190613c98565b6116a2565b005b6106ec611704565b6040516106f99190613769565b60405180910390f35b61071c60048036038101906107179190613665565b61170a565b6040516107299190613643565b60405180910390f35b61074c60048036038101906107479190613acc565b61181c565b005b61076860048036038101906107639190613d1b565b61190e565b6040516107759190613522565b60405180910390f35b6107866119a2565b6040516107939190613d7c565b60405180910390f35b6107b660048036038101906107b19190613acc565b6119c8565b005b6107c0611a83565b6040516107cd9190613769565b60405180910390f35b6107f060048036038101906107eb9190613acc565b611a8d565b005b61080c60048036038101906108079190613acc565b611b10565b005b60007f2a55205a000000000000000000000000000000000000000000000000000000007bffffffffffffffffffffffffffffffffffffffffffffffffffffffff1916827bffffffffffffffffffffffffffffffffffffffffffffffffffffffff19161480610881575061088082611c02565b5b9050919050565b610890611c63565b81600f81905550806010819055505050565b6060600080546108b190613dc6565b80601f01602080910402602001604051908101604052809291908181526020018280546108dd90613dc6565b801561092a5780601f106108ff5761010080835404028352916020019161092a565b820191906000526020600020905b81548152906001019060200180831161090d57829003601f168201915b5050505050905090565b600061093f82611ce1565b6004600083815260200190815260200160002060009054906101000a900473ffffffffffffffffffffffffffffffffffffffff169050919050565b600061098582610fae565b90508073ffffffffffffffffffffffffffffffffffffffff168373ffffffffffffffffffffffffffffffffffffffff16036109f5576040517f08c379a00000000000000000000000000000000000000000000000000000000081526004016109ec90613e69565b60405180910390fd5b8073ffffffffffffffffffffffffffffffffffffffff16610a14611d2c565b73ffffffffffffffffffffffffffffffffffffffff161480610a435750610a4281610a3d611d2c565b61190e565b5b610a82576040517f08c379a0000000000000000000000000000000000000000000000000000000008152600401610a7990613efb565b60405180910390fd5b610a8c8383611d34565b505050565b60006001600d54610aa29190613f4a565b905090565b610aaf611c63565b6064811115610af3576040517f08c379a0000000000000000000000000000000000000000000000000000000008152600401610aea90613fca565b60405180910390fd5b8060126000846004811115610b0b57610b0a613b65565b5b6004811115610b1d57610b1c613b65565b5b8152602001908152602001600020819055505050565b600a60009054906101000a900473ffffffffffffffffffffffffffffffffffffffff1681565b610b6a610b64611d2c565b82611ded565b610ba9576040517f08c379a0000000000000000000000000000000000000000000000000000000008152600401610ba09061405c565b60405180910390fd5b610bb4838383611e82565b505050565b600080600c60009054906101000a900473ffffffffffffffffffffffffffffffffffffffff166127106101f46bffffffffffffffffffffffff1685610bfe919061407c565b610c0891906140ed565b915091509250929050565b610c1b611c63565b610c2361217b565b565b610c40838383604051806020016040528060008152506116a2565b505050565b6101f481565b610c536121de565b610c5b612228565b600073ffffffffffffffffffffffffffffffffffffffff16600960009054906101000a900473ffffffffffffffffffffffffffffffffffffffff1673ffffffffffffffffffffffffffffffffffffffff1603610cec576040517f08c379a0000000000000000000000000000000000000000000000000000000008152600401610ce39061416a565b60405180910390fd5b600960009054906101000a900473ffffffffffffffffffffffffffffffffffffffff1673ffffffffffffffffffffffffffffffffffffffff166323b872dd33306010546040518463ffffffff1660e01b8152600401610d4d9392919061418a565b6020604051808303816000875af1158015610d6c573d6000803e3d6000fd5b505050506040513d601f19601f82011682018060405250810190610d9091906141d6565b610dcf576040517f08c379a0000000000000000000000000000000000000000000000000000000008152600401610dc69061424f565b60405180910390fd5b600060646019601054610de2919061407c565b610dec91906140ed565b9050600081601054610dfe9190613f4a565b9050600960009054906101000a900473ffffffffffffffffffffffffffffffffffffffff1673ffffffffffffffffffffffffffffffffffffffff1663a9059cbb600c60009054906101000a900473ffffffffffffffffffffffffffffffffffffffff16846040518363ffffffff1660e01b8152600401610e7f9291906138b6565b6020604051808303816000875af1158015610e9e573d6000803e3d6000fd5b505050506040513d601f19601f82011682018060405250810190610ec291906141d6565b610f01576040517f08c379a0000000000000000000000000000000000000000000000000000000008152600401610ef8906142bb565b60405180910390fd5b80600e6000828254610f1391906142db565b92505081905550610f2633846001612277565b5050610f306126d0565b50565b60126020528060005260406000206000915090505481565b600960009054906101000a900473ffffffffffffffffffffffffffffffffffffffff1681565b6000600760149054906101000a900460ff16905090565b600c60009054906101000a900473ffffffffffffffffffffffffffffffffffffffff1681565b600080610fba836126da565b9050600073ffffffffffffffffffffffffffffffffffffffff168173ffffffffffffffffffffffffffffffffffffffff160361102b576040517f08c379a00000000000000000000000000000000000000000000000000000000081526004016110229061435b565b60405180910390fd5b80915050919050565b600f5481565b60008073ffffffffffffffffffffffffffffffffffffffff168273ffffffffffffffffffffffffffffffffffffffff16036110aa576040517f08c379a00000000000000000000000000000000000000000000000000000000081526004016110a1906143ed565b60405180910390fd5b600360008373ffffffffffffffffffffffffffffffffffffffff1673ffffffffffffffffffffffffffffffffffffffff168152602001908152602001600020549050919050565b6110f9611c63565b6111036000612717565b565b600e5481565b600d5481565b600061111c82611135565b9050919050565b61112b611c63565b6111336127dd565b565b6000806000600b60009054906101000a900473ffffffffffffffffffffffffffffffffffffffff1673ffffffffffffffffffffffffffffffffffffffff1663f41322ac856040518263ffffffff1660e01b815260040161119591906136d3565b6040805180830381865afa1580156111b1573d6000803e3d6000fd5b505050506040513d601f19601f820116820180604052508101906111d59190614422565b91509150600069021e19e0c9bab24000008310158015611203575062127500826111ff91906142db565b4210155b9050809350505050919050565b6000600760009054906101000a900473ffffffffffffffffffffffffffffffffffffffff16905090565b60606001805461124990613dc6565b80601f016020809104026020016040519081016040528092919081815260200182805461127590613dc6565b80156112c25780601f10611297576101008083540402835291602001916112c2565b820191906000526020600020905b8154815290600101906020018083116112a557829003601f168201915b5050505050905090565b6112d4611c63565b80600b60006101000a81548173ffffffffffffffffffffffffffffffffffffffff021916908373ffffffffffffffffffffffffffffffffffffffff16021790555050565b61132a611323611d2c565b8383612840565b5050565b611336611c63565b600e5481111561137b576040517f08c379a0000000000000000000000000000000000000000000000000000000008152600401611372906144ae565b60405180910390fd5b80600e600082825461138d9190613f4a565b92505081905550600960009054906101000a900473ffffffffffffffffffffffffffffffffffffffff1673ffffffffffffffffffffffffffffffffffffffff1663a9059cbb83836040518363ffffffff1660e01b81526004016113f19291906138b6565b6020604051808303816000875af1158015611410573d6000803e3d6000fd5b505050506040513d601f19601f8201168201806040525081019061143491906141d6565b611473576040517f08c379a000000000000000000000000000000000000000000000000000000000815260040161146a9061451a565b60405180910390fd5b8173ffffffffffffffffffffffffffffffffffffffff167f95681e512bc0fe659e195e06c283eada494316f3d801213e48e7101af92bf770826040516114b99190613769565b60405180910390a25050565b60116020528060005260406000206000915054906101000a900460ff1681565b6114ed6121de565b6114f5612228565b600073ffffffffffffffffffffffffffffffffffffffff16600a60009054906101000a900473ffffffffffffffffffffffffffffffffffffffff1673ffffffffffffffffffffffffffffffffffffffff1603611586576040517f08c379a000000000000000000000000000000000000000000000000000000000815260040161157d90614586565b60405180910390fd5b600a60009054906101000a900473ffffffffffffffffffffffffffffffffffffffff1673ffffffffffffffffffffffffffffffffffffffff166323b872dd33600c60009054906101000a900473ffffffffffffffffffffffffffffffffffffffff16600f546040518463ffffffff1660e01b81526004016116099392919061418a565b6020604051808303816000875af1158015611628573d6000803e3d6000fd5b505050506040513d601f19601f8201168201806040525081019061164c91906141d6565b61168b576040517f08c379a0000000000000000000000000000000000000000000000000000000008152600401611682906145f2565b60405180910390fd5b61169733826000612277565b61169f6126d0565b50565b6116b36116ad611d2c565b83611ded565b6116f2576040517f08c379a00000000000000000000000000000000000000000000000000000000081526004016116e99061405c565b60405180910390fd5b6116fe848484846129ac565b50505050565b60105481565b606061171582611ce1565b600060066000848152602001908152602001600020805461173590613dc6565b80601f016020809104026020016040519081016040528092919081815260200182805461176190613dc6565b80156117ae5780601f10611783576101008083540402835291602001916117ae565b820191906000526020600020905b81548152906001019060200180831161179157829003601f168201915b5050505050905060006117bf612a08565b905060008151036117d4578192505050611817565b6000825111156118095780826040516020016117f192919061464e565b60405160208183030381529060405292505050611817565b61181284612a1f565b925050505b919050565b611824611c63565b600073ffffffffffffffffffffffffffffffffffffffff168173ffffffffffffffffffffffffffffffffffffffff1603611893576040517f08c379a000000000000000000000000000000000000000000000000000000000815260040161188a906146e4565b60405180910390fd5b80600a60006101000a81548173ffffffffffffffffffffffffffffffffffffffff021916908373ffffffffffffffffffffffffffffffffffffffff1602179055507f642efe757f7c097df2555d74532321ce38535b3921193c8777a267303689883b8160405161190391906136d3565b60405180910390a150565b6000600560008473ffffffffffffffffffffffffffffffffffffffff1673ffffffffffffffffffffffffffffffffffffffff16815260200190815260200160002060008373ffffffffffffffffffffffffffffffffffffffff1673ffffffffffffffffffffffffffffffffffffffff16815260200190815260200160002060009054906101000a900460ff16905092915050565b600b60009054906101000a900473ffffffffffffffffffffffffffffffffffffffff1681565b6119d0611c63565b600073ffffffffffffffffffffffffffffffffffffffff168173ffffffffffffffffffffffffffffffffffffffff1603611a3f576040517f08c379a0000000000000000000000000000000000000000000000000000000008152600401611a3690614750565b60405180910390fd5b80600c60006101000a81548173ffffffffffffffffffffffffffffffffffffffff021916908373ffffffffffffffffffffffffffffffffffffffff16021790555050565b6000600e54905090565b611a95611c63565b600073ffffffffffffffffffffffffffffffffffffffff168173ffffffffffffffffffffffffffffffffffffffff1603611b04576040517f08c379a0000000000000000000000000000000000000000000000000000000008152600401611afb906147e2565b60405180910390fd5b611b0d81612717565b50565b611b18611c63565b600073ffffffffffffffffffffffffffffffffffffffff168173ffffffffffffffffffffffffffffffffffffffff1603611b87576040517f08c379a0000000000000000000000000000000000000000000000000000000008152600401611b7e90614874565b60405180910390fd5b80600960006101000a81548173ffffffffffffffffffffffffffffffffffffffff021916908373ffffffffffffffffffffffffffffffffffffffff1602179055507f6e54bd062be2216071d5874d64e175cd202a1df49312b7241043db3ddd25537b81604051611bf791906136d3565b60405180910390a150565b6000634906490660e01b7bffffffffffffffffffffffffffffffffffffffffffffffffffffffff1916827bffffffffffffffffffffffffffffffffffffffffffffffffffffffff19161480611c5c5750611c5b82612a87565b5b9050919050565b611c6b611d2c565b73ffffffffffffffffffffffffffffffffffffffff16611c89611210565b73ffffffffffffffffffffffffffffffffffffffff1614611cdf576040517f08c379a0000000000000000000000000000000000000000000000000000000008152600401611cd6906148e0565b60405180910390fd5b565b611cea81612b69565b611d29576040517f08c379a0000000000000000000000000000000000000000000000000000000008152600401611d209061435b565b60405180910390fd5b50565b600033905090565b816004600083815260200190815260200160002060006101000a81548173ffffffffffffffffffffffffffffffffffffffff021916908373ffffffffffffffffffffffffffffffffffffffff160217905550808273ffffffffffffffffffffffffffffffffffffffff16611da783610fae565b73ffffffffffffffffffffffffffffffffffffffff167f8c5be1e5ebec7d5bd14f71427d1e84f3dd0314c0f7b2291e5b200ac8c7c3b92560405160405180910390a45050565b600080611df983610fae565b90508073ffffffffffffffffffffffffffffffffffffffff168473ffffffffffffffffffffffffffffffffffffffff161480611e3b5750611e3a818561190e565b5b80611e7957508373ffffffffffffffffffffffffffffffffffffffff16611e6184610934565b73ffffffffffffffffffffffffffffffffffffffff16145b91505092915050565b8273ffffffffffffffffffffffffffffffffffffffff16611ea282610fae565b73ffffffffffffffffffffffffffffffffffffffff1614611ef8576040517f08c379a0000000000000000000000000000000000000000000000000000000008152600401611eef90614972565b60405180910390fd5b600073ffffffffffffffffffffffffffffffffffffffff168273ffffffffffffffffffffffffffffffffffffffff1603611f67576040517f08c379a0000000000000000000000000000000000000000000000000000000008152600401611f5e90614a04565b60405180910390fd5b611f748383836001612baa565b8273ffffffffffffffffffffffffffffffffffffffff16611f9482610fae565b73ffffffffffffffffffffffffffffffffffffffff1614611fea576040517f08c379a0000000000000000000000000000000000000000000000000000000008152600401611fe190614972565b60405180910390fd5b6004600082815260200190815260200160002060006101000a81549073ffffffffffffffffffffffffffffffffffffffff02191690556001600360008573ffffffffffffffffffffffffffffffffffffffff1673ffffffffffffffffffffffffffffffffffffffff168152602001908152602001600020600082825403925050819055506001600360008473ffffffffffffffffffffffffffffffffffffffff1673ffffffffffffffffffffffffffffffffffffffff16815260200190815260200160002060008282540192505081905550816002600083815260200190815260200160002060006101000a81548173ffffffffffffffffffffffffffffffffffffffff021916908373ffffffffffffffffffffffffffffffffffffffff160217905550808273ffffffffffffffffffffffffffffffffffffffff168473ffffffffffffffffffffffffffffffffffffffff167fddf252ad1be2c89b69c2b068fc378daa952ba7f163c4a11628f55a4df523b3ef60405160405180910390a46121768383836001612bb0565b505050565b612183612bb6565b6000600760146101000a81548160ff0219169083151502179055507f5db9ee0a495bf2e6ff9c91a7834c1ba4fdd244a5e8aa4e537bd38aeae4b073aa6121c7611d2c565b6040516121d491906136d3565b60405180910390a1565b6121e6610f71565b15612226576040517f08c379a000000000000000000000000000000000000000000000000000000000815260040161221d90614a70565b60405180910390fd5b565b60026008540361226d576040517f08c379a000000000000000000000000000000000000000000000000000000000815260040161226490614adc565b60405180910390fd5b6002600881905550565b6000600d600081548092919061228c90614afc565b91905055905061229c8482612bff565b6122a68184612c1d565b60006122b182612cc1565b90506004808111156122c6576122c5613b65565b5b8160048111156122d9576122d8613b65565b5b03612327576122e785611135565b612326576040517f08c379a000000000000000000000000000000000000000000000000000000000815260040161231d90614bb6565b60405180910390fd5b5b806011600084815260200190815260200160002060006101000a81548160ff0219169083600481111561235d5761235c613b65565b5b0217905550600061236d82612d67565b90506000811180156123815750600e548111155b156126365760006064605f83612397919061407c565b6123a191906140ed565b9050600081836123b19190613f4a565b905082600e60008282546123c59190613f4a565b92505081905550600960009054906101000a900473ffffffffffffffffffffffffffffffffffffffff1673ffffffffffffffffffffffffffffffffffffffff1663a9059cbb89846040518363ffffffff1660e01b81526004016124299291906138b6565b6020604051808303816000875af1158015612448573d6000803e3d6000fd5b505050506040513d601f19601f8201168201806040525081019061246c91906141d6565b6124ab576040517f08c379a00000000000000000000000000000000000000000000000000000000081526004016124a290614c22565b60405180910390fd5b600960009054906101000a900473ffffffffffffffffffffffffffffffffffffffff1673ffffffffffffffffffffffffffffffffffffffff1663a9059cbb600c60009054906101000a900473ffffffffffffffffffffffffffffffffffffffff16836040518363ffffffff1660e01b815260040161252a9291906138b6565b6020604051808303816000875af1158015612549573d6000803e3d6000fd5b505050506040513d601f19601f8201168201806040525081019061256d91906141d6565b6125ac576040517f08c379a00000000000000000000000000000000000000000000000000000000081526004016125a390614c8e565b60405180910390fd5b8773ffffffffffffffffffffffffffffffffffffffff167f95681e512bc0fe659e195e06c283eada494316f3d801213e48e7101af92bf770836040516125f29190613769565b60405180910390a27f7bc22304ac771f50d6cc29b56387cb4855f284e7a1f83e6420fe9b8bbdaf45c9600e5460405161262b9190613769565b60405180910390a150505b8573ffffffffffffffffffffffffffffffffffffffff167fa08b3bf5b7af36b46fffc856a242e512024f345d8981c820b40ed15e1a7b5cae84848860405161268093929190614cae565b60405180910390a283156126c8577f7bc22304ac771f50d6cc29b56387cb4855f284e7a1f83e6420fe9b8bbdaf45c9600e546040516126bf9190613769565b60405180910390a15b505050505050565b6001600881905550565b60006002600083815260200190815260200160002060009054906101000a900473ffffffffffffffffffffffffffffffffffffffff169050919050565b6000600760009054906101000a900473ffffffffffffffffffffffffffffffffffffffff16905081600760006101000a81548173ffffffffffffffffffffffffffffffffffffffff021916908373ffffffffffffffffffffffffffffffffffffffff1602179055508173ffffffffffffffffffffffffffffffffffffffff168173ffffffffffffffffffffffffffffffffffffffff167f8be0079c531659141344cd1fd0a4f28419497f9722a3daafe3b4186f6b6457e060405160405180910390a35050565b6127e56121de565b6001600760146101000a81548160ff0219169083151502179055507f62e78cea01bee320cd4e420270b5ea74000d11b0c9f74754ebdbfc544b05a258612829611d2c565b60405161283691906136d3565b60405180910390a1565b8173ffffffffffffffffffffffffffffffffffffffff168373ffffffffffffffffffffffffffffffffffffffff16036128ae576040517f08c379a00000000000000000000000000000000000000000000000000000000081526004016128a590614d38565b60405180910390fd5b80600560008573ffffffffffffffffffffffffffffffffffffffff1673ffffffffffffffffffffffffffffffffffffffff16815260200190815260200160002060008473ffffffffffffffffffffffffffffffffffffffff1673ffffffffffffffffffffffffffffffffffffffff16815260200190815260200160002060006101000a81548160ff0219169083151502179055508173ffffffffffffffffffffffffffffffffffffffff168373ffffffffffffffffffffffffffffffffffffffff167f17307eab39ab6107e8899845ad3d59bd9653f200f220920489ca2b5937696c318360405161299f9190613522565b60405180910390a3505050565b6129b7848484611e82565b6129c384848484612dc1565b612a02576040517f08c379a00000000000000000000000000000000000000000000000000000000081526004016129f990614dca565b60405180910390fd5b50505050565b606060405180602001604052806000815250905090565b6060612a2a82611ce1565b6000612a34612a08565b90506000815111612a545760405180602001604052806000815250612a7f565b80612a5e84612f48565b604051602001612a6f92919061464e565b6040516020818303038152906040525b915050919050565b60007f80ac58cd000000000000000000000000000000000000000000000000000000007bffffffffffffffffffffffffffffffffffffffffffffffffffffffff1916827bffffffffffffffffffffffffffffffffffffffffffffffffffffffff19161480612b5257507f5b5e139f000000000000000000000000000000000000000000000000000000007bffffffffffffffffffffffffffffffffffffffffffffffffffffffff1916827bffffffffffffffffffffffffffffffffffffffffffffffffffffffff1916145b80612b625750612b6182613016565b5b9050919050565b60008073ffffffffffffffffffffffffffffffffffffffff16612b8b836126da565b73ffffffffffffffffffffffffffffffffffffffff1614159050919050565b50505050565b50505050565b612bbe610f71565b612bfd576040517f08c379a0000000000000000000000000000000000000000000000000000000008152600401612bf490614e36565b60405180910390fd5b565b612c19828260405180602001604052806000815250613080565b5050565b612c2682612b69565b612c65576040517f08c379a0000000000000000000000000000000000000000000000000000000008152600401612c5c90614ec8565b60405180910390fd5b80600660008481526020019081526020016000209081612c85919061508a565b507ff8e1a15aba9398e019f0b49df1a4fde98ee17ae345cb5f6b5e2c27f5033e8ce782604051612cb59190613769565b60405180910390a15050565b600080612710600143612cd49190613f4a565b4084604051602001612ce79291906151a8565b6040516020818303038152906040528051906020012060001c612d0a91906151d4565b9050611b58811015612d20576000915050612d62565b6122ab811015612d34576001915050612d62565b612625811015612d48576002915050612d62565b6126de811015612d5c576003915050612d62565b60049150505b919050565b6000606460126000846004811115612d8257612d81613b65565b5b6004811115612d9457612d93613b65565b5b815260200190815260200160002054600e54612db0919061407c565b612dba91906140ed565b9050919050565b6000612de28473ffffffffffffffffffffffffffffffffffffffff166130db565b15612f3b578373ffffffffffffffffffffffffffffffffffffffff1663150b7a02612e0b611d2c565b8786866040518563ffffffff1660e01b8152600401612e2d949392919061525a565b6020604051808303816000875af1925050508015612e6957506040513d601f19601f82011682018060405250810190612e6691906152bb565b60015b612eeb573d8060008114612e99576040519150601f19603f3d011682016040523d82523d6000602084013e612e9e565b606091505b506000815103612ee3576040517f08c379a0000000000000000000000000000000000000000000000000000000008152600401612eda90614dca565b60405180910390fd5b805181602001fd5b63150b7a0260e01b7bffffffffffffffffffffffffffffffffffffffffffffffffffffffff1916817bffffffffffffffffffffffffffffffffffffffffffffffffffffffff191614915050612f40565b600190505b949350505050565b606060006001612f57846130fe565b01905060008167ffffffffffffffff811115612f7657612f7561392b565b5b6040519080825280601f01601f191660200182016040528015612fa85781602001600182028036833780820191505090505b509050600082602001820190505b60011561300b578080600190039150507f3031323334353637383961626364656600000000000000000000000000000000600a86061a8153600a8581612fff57612ffe6140be565b5b04945060008503612fb6575b819350505050919050565b60007f01ffc9a7000000000000000000000000000000000000000000000000000000007bffffffffffffffffffffffffffffffffffffffffffffffffffffffff1916827bffffffffffffffffffffffffffffffffffffffffffffffffffffffff1916149050919050565b61308a8383613251565b6130976000848484612dc1565b6130d6576040517f08c379a00000000000000000000000000000000000000000000000000000000081526004016130cd90614dca565b60405180910390fd5b505050565b6000808273ffffffffffffffffffffffffffffffffffffffff163b119050919050565b600080600090507a184f03e93ff9f4daa797ed6e38ed64bf6a1f010000000000000000831061315c577a184f03e93ff9f4daa797ed6e38ed64bf6a1f0100000000000000008381613152576131516140be565b5b0492506040810190505b6d04ee2d6d415b85acef81000000008310613199576d04ee2d6d415b85acef8100000000838161318f5761318e6140be565b5b0492506020810190505b662386f26fc1000083106131c857662386f26fc1000083816131be576131bd6140be565b5b0492506010810190505b6305f5e10083106131f1576305f5e10083816131e7576131e66140be565b5b0492506008810190505b612710831061321657612710838161320c5761320b6140be565b5b0492506004810190505b60648310613239576064838161322f5761322e6140be565b5b0492506002810190505b600a8310613248576001810190505b80915050919050565b600073ffffffffffffffffffffffffffffffffffffffff168273ffffffffffffffffffffffffffffffffffffffff16036132c0576040517f08c379a00000000000000000000000000000000000000000000000000000000081526004016132b790615334565b60405180910390fd5b6132c981612b69565b15613309576040517f08c379a0000000000000000000000000000000000000000000000000000000008152600401613300906153a0565b60405180910390fd5b613317600083836001612baa565b61332081612b69565b15613360576040517f08c379a0000000000000000000000000000000000000000000000000000000008152600401613357906153a0565b60405180910390fd5b6001600360008473ffffffffffffffffffffffffffffffffffffffff1673ffffffffffffffffffffffffffffffffffffffff16815260200190815260200160002060008282540192505081905550816002600083815260200190815260200160002060006101000a81548173ffffffffffffffffffffffffffffffffffffffff021916908373ffffffffffffffffffffffffffffffffffffffff160217905550808273ffffffffffffffffffffffffffffffffffffffff16600073ffffffffffffffffffffffffffffffffffffffff167fddf252ad1be2c89b69c2b068fc378daa952ba7f163c4a11628f55a4df523b3ef60405160405180910390a461346a600083836001612bb0565b5050565b6000604051905090565b600080fd5b600080fd5b60007fffffffff0000000000000000000000000000000000000000000000000000000082169050919050565b6134b781613482565b81146134c257600080fd5b50565b6000813590506134d4816134ae565b92915050565b6000602082840312156134f0576134ef613478565b5b60006134fe848285016134c5565b91505092915050565b60008115159050919050565b61351c81613507565b82525050565b60006020820190506135376000830184613513565b92915050565b6000819050919050565b6135508161353d565b811461355b57600080fd5b50565b60008135905061356d81613547565b92915050565b6000806040838503121561358a57613589613478565b5b60006135988582860161355e565b92505060206135a98582860161355e565b9150509250929050565b600081519050919050565b600082825260208201905092915050565b60005b838110156135ed5780820151818401526020810190506135d2565b60008484015250505050565b6000601f19601f8301169050919050565b6000613615826135b3565b61361f81856135be565b935061362f8185602086016135cf565b613638816135f9565b840191505092915050565b6000602082019050818103600083015261365d818461360a565b905092915050565b60006020828403121561367b5761367a613478565b5b60006136898482850161355e565b91505092915050565b600073ffffffffffffffffffffffffffffffffffffffff82169050919050565b60006136bd82613692565b9050919050565b6136cd816136b2565b82525050565b60006020820190506136e860008301846136c4565b92915050565b6136f7816136b2565b811461370257600080fd5b50565b600081359050613714816136ee565b92915050565b6000806040838503121561373157613730613478565b5b600061373f85828601613705565b92505060206137508582860161355e565b9150509250929050565b6137638161353d565b82525050565b600060208201905061377e600083018461375a565b92915050565b6005811061379157600080fd5b50565b6000813590506137a381613784565b92915050565b600080604083850312156137c0576137bf613478565b5b60006137ce85828601613794565b92505060206137df8582860161355e565b9150509250929050565b6000819050919050565b600061380e61380961380484613692565b6137e9565b613692565b9050919050565b6000613820826137f3565b9050919050565b600061383282613815565b9050919050565b61384281613827565b82525050565b600060208201905061385d6000830184613839565b92915050565b60008060006060848603121561387c5761387b613478565b5b600061388a86828701613705565b935050602061389b86828701613705565b92505060406138ac8682870161355e565b9150509250925092565b60006040820190506138cb60008301856136c4565b6138d8602083018461375a565b9392505050565b60006bffffffffffffffffffffffff82169050919050565b613900816138df565b82525050565b600060208201905061391b60008301846138f7565b92915050565b600080fd5b600080fd5b7f4e487b7100000000000000000000000000000000000000000000000000000000600052604160045260246000fd5b613963826135f9565b810181811067ffffffffffffffff821117156139825761398161392b565b5b80604052505050565b600061399561346e565b90506139a1828261395a565b919050565b600067ffffffffffffffff8211156139c1576139c061392b565b5b6139ca826135f9565b9050602081019050919050565b82818337600083830152505050565b60006139f96139f4846139a6565b61398b565b905082815260208101848484011115613a1557613a14613926565b5b613a208482856139d7565b509392505050565b600082601f830112613a3d57613a3c613921565b5b8135613a4d8482602086016139e6565b91505092915050565b600060208284031215613a6c57613a6b613478565b5b600082013567ffffffffffffffff811115613a8a57613a8961347d565b5b613a9684828501613a28565b91505092915050565b600060208284031215613ab557613ab4613478565b5b6000613ac384828501613794565b91505092915050565b600060208284031215613ae257613ae1613478565b5b6000613af084828501613705565b91505092915050565b613b0281613507565b8114613b0d57600080fd5b50565b600081359050613b1f81613af9565b92915050565b60008060408385031215613b3c57613b3b613478565b5b6000613b4a85828601613705565b9250506020613b5b85828601613b10565b9150509250929050565b7f4e487b7100000000000000000000000000000000000000000000000000000000600052602160045260246000fd5b60058110613ba557613ba4613b65565b5b50565b6000819050613bb682613b94565b919050565b6000613bc682613ba8565b9050919050565b613bd681613bbb565b82525050565b6000602082019050613bf16000830184613bcd565b92915050565b600067ffffffffffffffff821115613c1257613c1161392b565b5b613c1b826135f9565b9050602081019050919050565b6000613c3b613c3684613bf7565b61398b565b905082815260208101848484011115613c5757613c56613926565b5b613c628482856139d7565b509392505050565b600082601f830112613c7f57613c7e613921565b5b8135613c8f848260208601613c28565b91505092915050565b60008060008060808587031215613cb257613cb1613478565b5b6000613cc087828801613705565b9450506020613cd187828801613705565b9350506040613ce28782880161355e565b925050606085013567ffffffffffffffff811115613d0357613d0261347d565b5b613d0f87828801613c6a565b91505092959194509250565b60008060408385031215613d3257613d31613478565b5b6000613d4085828601613705565b9250506020613d5185828601613705565b9150509250929050565b6000613d6682613815565b9050919050565b613d7681613d5b565b82525050565b6000602082019050613d916000830184613d6d565b92915050565b7f4e487b7100000000000000000000000000000000000000000000000000000000600052602260045260246000fd5b60006002820490506001821680613dde57607f821691505b602082108103613df157613df0613d97565b5b50919050565b7f4552433732313a20617070726f76616c20746f2063757272656e74206f776e6560008201527f7200000000000000000000000000000000000000000000000000000000000000602082015250565b6000613e536021836135be565b9150613e5e82613df7565b604082019050919050565b60006020820190508181036000830152613e8281613e46565b9050919050565b7f4552433732313a20617070726f76652063616c6c6572206973206e6f7420746f60008201527f6b656e206f776e6572206f7220617070726f76656420666f7220616c6c000000602082015250565b6000613ee5603d836135be565b9150613ef082613e89565b604082019050919050565b60006020820190508181036000830152613f1481613ed8565b9050919050565b7f4e487b7100000000000000000000000000000000000000000000000000000000600052601160045260246000fd5b6000613f558261353d565b9150613f608361353d565b9250828203905081811115613f7857613f77613f1b565b5b92915050565b7f546f6f2068696768000000000000000000000000000000000000000000000000600082015250565b6000613fb46008836135be565b9150613fbf82613f7e565b602082019050919050565b60006020820190508181036000830152613fe381613fa7565b9050919050565b7f4552433732313a2063616c6c6572206973206e6f7420746f6b656e206f776e6560008201527f72206f7220617070726f76656400000000000000000000000000000000000000602082015250565b6000614046602d836135be565b915061405182613fea565b604082019050919050565b6000602082019050818103600083015261407581614039565b9050919050565b60006140878261353d565b91506140928361353d565b92508282026140a08161353d565b915082820484148315176140b7576140b6613f1b565b5b5092915050565b7f4e487b7100000000000000000000000000000000000000000000000000000000600052601260045260246000fd5b60006140f88261353d565b91506141038361353d565b925082614113576141126140be565b5b828204905092915050565b7f5645525420746f6b656e206e6f74207365740000000000000000000000000000600082015250565b60006141546012836135be565b915061415f8261411e565b602082019050919050565b6000602082019050818103600083015261418381614147565b9050919050565b600060608201905061419f60008301866136c4565b6141ac60208301856136c4565b6141b9604083018461375a565b949350505050565b6000815190506141d081613af9565b92915050565b6000602082840312156141ec576141eb613478565b5b60006141fa848285016141c1565b91505092915050565b7f56455254207061796d656e74206661696c656400000000000000000000000000600082015250565b60006142396013836135be565b915061424482614203565b602082019050919050565b600060208201905081810360008301526142688161422c565b9050919050565b7f5472656173757279207472616e73666572206661696c65640000000000000000600082015250565b60006142a56018836135be565b91506142b08261426f565b602082019050919050565b600060208201905081810360008301526142d481614298565b9050919050565b60006142e68261353d565b91506142f18361353d565b925082820190508082111561430957614308613f1b565b5b92915050565b7f4552433732313a20696e76616c696420746f6b656e2049440000000000000000600082015250565b60006143456018836135be565b91506143508261430f565b602082019050919050565b6000602082019050818103600083015261437481614338565b9050919050565b7f4552433732313a2061646472657373207a65726f206973206e6f74206120766160008201527f6c6964206f776e65720000000000000000000000000000000000000000000000602082015250565b60006143d76029836135be565b91506143e28261437b565b604082019050919050565b60006020820190508181036000830152614406816143ca565b9050919050565b60008151905061441c81613547565b92915050565b6000806040838503121561443957614438613478565b5b60006144478582860161440d565b92505060206144588582860161440d565b9150509250929050565b7f496e73756666696369656e74207072697a6520706f6f6c000000000000000000600082015250565b60006144986017836135be565b91506144a382614462565b602082019050919050565b600060208201905081810360008301526144c78161448b565b9050919050565b7f5072697a65207472616e73666572206661696c65640000000000000000000000600082015250565b60006145046015836135be565b915061450f826144ce565b602082019050919050565b60006020820190508181036000830152614533816144f7565b9050919050565b7f5669727475616c20746f6b656e206e6f74207365740000000000000000000000600082015250565b60006145706015836135be565b915061457b8261453a565b602082019050919050565b6000602082019050818103600083015261459f81614563565b9050919050565b7f5649525455414c207061796d656e74206661696c656400000000000000000000600082015250565b60006145dc6016836135be565b91506145e7826145a6565b602082019050919050565b6000602082019050818103600083015261460b816145cf565b9050919050565b600081905092915050565b6000614628826135b3565b6146328185614612565b93506146428185602086016135cf565b80840191505092915050565b600061465a828561461d565b9150614666828461461d565b91508190509392505050565b7f5669727475616c20746f6b656e2063616e6e6f74206265207a65726f2061646460008201527f7265737300000000000000000000000000000000000000000000000000000000602082015250565b60006146ce6024836135be565b91506146d982614672565b604082019050919050565b600060208201905081810360008301526146fd816146c1565b9050919050565b7f54726561737572792063616e6e6f74206265207a65726f206164647265737300600082015250565b600061473a601f836135be565b915061474582614704565b602082019050919050565b600060208201905081810360008301526147698161472d565b9050919050565b7f4f776e61626c653a206e6577206f776e657220697320746865207a65726f206160008201527f6464726573730000000000000000000000000000000000000000000000000000602082015250565b60006147cc6026836135be565b91506147d782614770565b604082019050919050565b600060208201905081810360008301526147fb816147bf565b9050919050565b7f5645525420746f6b656e2063616e6e6f74206265207a65726f2061646472657360008201527f7300000000000000000000000000000000000000000000000000000000000000602082015250565b600061485e6021836135be565b915061486982614802565b604082019050919050565b6000602082019050818103600083015261488d81614851565b9050919050565b7f4f776e61626c653a2063616c6c6572206973206e6f7420746865206f776e6572600082015250565b60006148ca6020836135be565b91506148d582614894565b602082019050919050565b600060208201905081810360008301526148f9816148bd565b9050919050565b7f4552433732313a207472616e736665722066726f6d20696e636f72726563742060008201527f6f776e6572000000000000000000000000000000000000000000000000000000602082015250565b600061495c6025836135be565b915061496782614900565b604082019050919050565b6000602082019050818103600083015261498b8161494f565b9050919050565b7f4552433732313a207472616e7366657220746f20746865207a65726f2061646460008201527f7265737300000000000000000000000000000000000000000000000000000000602082015250565b60006149ee6024836135be565b91506149f982614992565b604082019050919050565b60006020820190508181036000830152614a1d816149e1565b9050919050565b7f5061757361626c653a2070617573656400000000000000000000000000000000600082015250565b6000614a5a6010836135be565b9150614a6582614a24565b602082019050919050565b60006020820190508181036000830152614a8981614a4d565b9050919050565b7f5265656e7472616e637947756172643a207265656e7472616e742063616c6c00600082015250565b6000614ac6601f836135be565b9150614ad182614a90565b602082019050919050565b60006020820190508181036000830152614af581614ab9565b9050919050565b6000614b078261353d565b91507fffffffffffffffffffffffffffffffffffffffffffffffffffffffffffffffff8203614b3957614b38613f1b565b5b600182019050919050565b7f4e6f7420656c696769626c6520746f206d696e74204d7974686963616c204e4660008201527f5400000000000000000000000000000000000000000000000000000000000000602082015250565b6000614ba06021836135be565b9150614bab82614b44565b604082019050919050565b60006020820190508181036000830152614bcf81614b93565b9050919050565b7f5072697a65207061796f7574206661696c656400000000000000000000000000600082015250565b6000614c0c6013836135be565b9150614c1782614bd6565b602082019050919050565b60006020820190508181036000830152614c3b81614bff565b9050919050565b7f547265617375727920637574206661696c656400000000000000000000000000600082015250565b6000614c786013836135be565b9150614c8382614c42565b602082019050919050565b60006020820190508181036000830152614ca781614c6b565b9050919050565b6000606082019050614cc3600083018661375a565b614cd06020830185613bcd565b8181036040830152614ce2818461360a565b9050949350505050565b7f4552433732313a20617070726f766520746f2063616c6c657200000000000000600082015250565b6000614d226019836135be565b9150614d2d82614cec565b602082019050919050565b60006020820190508181036000830152614d5181614d15565b9050919050565b7f4552433732313a207472616e7366657220746f206e6f6e20455243373231526560008201527f63656976657220696d706c656d656e7465720000000000000000000000000000602082015250565b6000614db46032836135be565b9150614dbf82614d58565b604082019050919050565b60006020820190508181036000830152614de381614da7565b9050919050565b7f5061757361626c653a206e6f7420706175736564000000000000000000000000600082015250565b6000614e206014836135be565b9150614e2b82614dea565b602082019050919050565b60006020820190508181036000830152614e4f81614e13565b9050919050565b7f45524337323155524953746f726167653a2055524920736574206f66206e6f6e60008201527f6578697374656e7420746f6b656e000000000000000000000000000000000000602082015250565b6000614eb2602e836135be565b9150614ebd82614e56565b604082019050919050565b60006020820190508181036000830152614ee181614ea5565b9050919050565b60008190508160005260206000209050919050565b60006020601f8301049050919050565b600082821b905092915050565b600060088302614f4a7fffffffffffffffffffffffffffffffffffffffffffffffffffffffffffffffff82614f0d565b614f548683614f0d565b95508019841693508086168417925050509392505050565b6000614f87614f82614f7d8461353d565b6137e9565b61353d565b9050919050565b6000819050919050565b614fa183614f6c565b614fb5614fad82614f8e565b848454614f1a565b825550505050565b600090565b614fca614fbd565b614fd5818484614f98565b505050565b5b81811015614ff957614fee600082614fc2565b600181019050614fdb565b5050565b601f82111561503e5761500f81614ee8565b61501884614efd565b81016020851015615027578190505b61503b61503385614efd565b830182614fda565b50505b505050565b600082821c905092915050565b600061506160001984600802615043565b1980831691505092915050565b600061507a8383615050565b9150826002028217905092915050565b615093826135b3565b67ffffffffffffffff8111156150ac576150ab61392b565b5b6150b68254613dc6565b6150c1828285614ffd565b600060209050601f8311600181146150f457600084156150e2578287015190505b6150ec858261506e565b865550615154565b601f19841661510286614ee8565b60005b8281101561512a57848901518255600182019150602085019450602081019050615105565b868310156151475784890151615143601f891682615050565b8355505b6001600288020188555050505b505050505050565b6000819050919050565b6000819050919050565b61518161517c8261515c565b615166565b82525050565b6000819050919050565b6151a261519d8261353d565b615187565b82525050565b60006151b48285615170565b6020820191506151c48284615191565b6020820191508190509392505050565b60006151df8261353d565b91506151ea8361353d565b9250826151fa576151f96140be565b5b828206905092915050565b600081519050919050565b600082825260208201905092915050565b600061522c82615205565b6152368185615210565b93506152468185602086016135cf565b61524f816135f9565b840191505092915050565b600060808201905061526f60008301876136c4565b61527c60208301866136c4565b615289604083018561375a565b818103606083015261529b8184615221565b905095945050505050565b6000815190506152b5816134ae565b92915050565b6000602082840312156152d1576152d0613478565b5b60006152df848285016152a6565b91505092915050565b7f4552433732313a206d696e7420746f20746865207a65726f2061646472657373600082015250565b600061531e6020836135be565b9150615329826152e8565b602082019050919050565b6000602082019050818103600083015261534d81615311565b9050919050565b7f4552433732313a20746f6b656e20616c7265616479206d696e74656400000000600082015250565b600061538a601c836135be565b915061539582615354565b602082019050919050565b600060208201905081810360008301526153b98161537d565b905091905056fea2646970667358221220548c70390a07ab85347fe5b3f67dcf62228f5d2715a31c6395d07615e34559b464736f6c634300081c0033",
  "linkReferences": {},
  "deployedLinkReferences": {}
}